{
  "_format": "hh-sol-artifact-1",
  "contractName": "SpecialMomentNFT",
  "sourceName": "contracts/modules/SpecialMomentNFT/SpecialMomentNFT.sol",
  "abi": [
    {
      "inputs": [
        {
          "internalType": "address",
          "name": "initialOwner",
          "type": "address"
        },
        {
          "internalType": "string",
          "name": "_contractMetadataURI",
          "type": "string"
        }
      ],
      "stateMutability": "nonpayable",
      "type": "constructor"
    },
    {
      "inputs": [
        {
          "internalType": "address",
          "name": "sender",
          "type": "address"
        },
        {
          "internalType": "uint256",
          "name": "balance",
          "type": "uint256"
        },
        {
          "internalType": "uint256",
          "name": "needed",
          "type": "uint256"
        },
        {
          "internalType": "uint256",
          "name": "tokenId",
          "type": "uint256"
        }
      ],
      "name": "ERC1155InsufficientBalance",
      "type": "error"
    },
    {
      "inputs": [
        {
          "internalType": "address",
          "name": "approver",
          "type": "address"
        }
      ],
      "name": "ERC1155InvalidApprover",
      "type": "error"
    },
    {
      "inputs": [
        {
          "internalType": "uint256",
          "name": "idsLength",
          "type": "uint256"
        },
        {
          "internalType": "uint256",
          "name": "valuesLength",
          "type": "uint256"
        }
      ],
      "name": "ERC1155InvalidArrayLength",
      "type": "error"
    },
    {
      "inputs": [
        {
          "internalType": "address",
          "name": "operator",
          "type": "address"
        }
      ],
      "name": "ERC1155InvalidOperator",
      "type": "error"
    },
    {
      "inputs": [
        {
          "internalType": "address",
          "name": "receiver",
          "type": "address"
        }
      ],
      "name": "ERC1155InvalidReceiver",
      "type": "error"
    },
    {
      "inputs": [
        {
          "internalType": "address",
          "name": "sender",
          "type": "address"
        }
      ],
      "name": "ERC1155InvalidSender",
      "type": "error"
    },
    {
      "inputs": [
        {
          "internalType": "address",
          "name": "operator",
          "type": "address"
        },
        {
          "internalType": "address",
          "name": "owner",
          "type": "address"
        }
      ],
      "name": "ERC1155MissingApprovalForAll",
      "type": "error"
    },
    {
      "inputs": [
        {
          "internalType": "uint256",
          "name": "numerator",
          "type": "uint256"
        },
        {
          "internalType": "uint256",
          "name": "denominator",
          "type": "uint256"
        }
      ],
      "name": "ERC2981InvalidDefaultRoyalty",
      "type": "error"
    },
    {
      "inputs": [
        {
          "internalType": "address",
          "name": "receiver",
          "type": "address"
        }
      ],
      "name": "ERC2981InvalidDefaultRoyaltyReceiver",
      "type": "error"
    },
    {
      "inputs": [
        {
          "internalType": "uint256",
          "name": "tokenId",
          "type": "uint256"
        },
        {
          "internalType": "uint256",
          "name": "numerator",
          "type": "uint256"
        },
        {
          "internalType": "uint256",
          "name": "denominator",
          "type": "uint256"
        }
      ],
      "name": "ERC2981InvalidTokenRoyalty",
      "type": "error"
    },
    {
      "inputs": [
        {
          "internalType": "uint256",
          "name": "tokenId",
          "type": "uint256"
        },
        {
          "internalType": "address",
          "name": "receiver",
          "type": "address"
        }
      ],
      "name": "ERC2981InvalidTokenRoyaltyReceiver",
      "type": "error"
    },
    {
      "inputs": [
        {
          "internalType": "address",
          "name": "owner",
          "type": "address"
        }
      ],
      "name": "OwnableInvalidOwner",
      "type": "error"
    },
    {
      "inputs": [
        {
          "internalType": "address",
          "name": "account",
          "type": "address"
        }
      ],
      "name": "OwnableUnauthorizedAccount",
      "type": "error"
    },
    {
      "anonymous": false,
      "inputs": [
        {
          "indexed": true,
          "internalType": "address",
          "name": "account",
          "type": "address"
        },
        {
          "indexed": true,
          "internalType": "address",
          "name": "operator",
          "type": "address"
        },
        {
          "indexed": false,
          "internalType": "bool",
          "name": "approved",
          "type": "bool"
        }
      ],
      "name": "ApprovalForAll",
      "type": "event"
    },
    {
      "anonymous": false,
      "inputs": [
        {
          "indexed": true,
          "internalType": "address",
          "name": "previousOwner",
          "type": "address"
        },
        {
          "indexed": true,
          "internalType": "address",
          "name": "newOwner",
          "type": "address"
        }
      ],
      "name": "OwnershipTransferred",
      "type": "event"
    },
    {
      "anonymous": false,
      "inputs": [
        {
          "indexed": true,
          "internalType": "address",
          "name": "operator",
          "type": "address"
        },
        {
          "indexed": true,
          "internalType": "address",
          "name": "from",
          "type": "address"
        },
        {
          "indexed": true,
          "internalType": "address",
          "name": "to",
          "type": "address"
        },
        {
          "indexed": false,
          "internalType": "uint256[]",
          "name": "ids",
          "type": "uint256[]"
        },
        {
          "indexed": false,
          "internalType": "uint256[]",
          "name": "values",
          "type": "uint256[]"
        }
      ],
      "name": "TransferBatch",
      "type": "event"
    },
    {
      "anonymous": false,
      "inputs": [
        {
          "indexed": true,
          "internalType": "address",
          "name": "operator",
          "type": "address"
        },
        {
          "indexed": true,
          "internalType": "address",
          "name": "from",
          "type": "address"
        },
        {
          "indexed": true,
          "internalType": "address",
          "name": "to",
          "type": "address"
        },
        {
          "indexed": false,
          "internalType": "uint256",
          "name": "id",
          "type": "uint256"
        },
        {
          "indexed": false,
          "internalType": "uint256",
          "name": "value",
          "type": "uint256"
        }
      ],
      "name": "TransferSingle",
      "type": "event"
    },
    {
      "anonymous": false,
      "inputs": [
        {
          "indexed": false,
          "internalType": "string",
          "name": "value",
          "type": "string"
        },
        {
          "indexed": true,
          "internalType": "uint256",
          "name": "id",
          "type": "uint256"
        }
      ],
      "name": "URI",
      "type": "event"
    },
    {
      "inputs": [
        {
          "internalType": "address",
          "name": "account",
          "type": "address"
        },
        {
          "internalType": "uint256",
          "name": "id",
          "type": "uint256"
        }
      ],
      "name": "balanceOf",
      "outputs": [
        {
          "internalType": "uint256",
          "name": "",
          "type": "uint256"
        }
      ],
      "stateMutability": "view",
      "type": "function"
    },
    {
      "inputs": [
        {
          "internalType": "address[]",
          "name": "accounts",
          "type": "address[]"
        },
        {
          "internalType": "uint256[]",
          "name": "ids",
          "type": "uint256[]"
        }
      ],
      "name": "balanceOfBatch",
      "outputs": [
        {
          "internalType": "uint256[]",
          "name": "",
          "type": "uint256[]"
        }
      ],
      "stateMutability": "view",
      "type": "function"
    },
    {
      "inputs": [],
      "name": "contractMetadataURI",
      "outputs": [
        {
          "internalType": "string",
          "name": "",
          "type": "string"
        }
      ],
      "stateMutability": "view",
      "type": "function"
    },
    {
      "inputs": [],
      "name": "contractURI",
      "outputs": [
        {
          "internalType": "string",
          "name": "",
          "type": "string"
        }
      ],
      "stateMutability": "view",
      "type": "function"
    },
    {
      "inputs": [
        {
          "internalType": "address",
          "name": "account",
          "type": "address"
        },
        {
          "internalType": "address",
          "name": "operator",
          "type": "address"
        }
      ],
      "name": "isApprovedForAll",
      "outputs": [
        {
          "internalType": "bool",
          "name": "",
          "type": "bool"
        }
      ],
      "stateMutability": "view",
      "type": "function"
    },
    {
      "inputs": [
        {
          "internalType": "address",
          "name": "account",
          "type": "address"
        },
        {
          "internalType": "uint256",
          "name": "id",
          "type": "uint256"
        },
        {
          "internalType": "string",
          "name": "tokenUri",
          "type": "string"
        },
        {
          "internalType": "address",
          "name": "eventOwner",
          "type": "address"
        },
        {
          "internalType": "uint96",
          "name": "collectionRoyalty",
          "type": "uint96"
        }
      ],
      "name": "mint",
      "outputs": [],
      "stateMutability": "nonpayable",
      "type": "function"
    },
    {
      "inputs": [],
      "name": "owner",
      "outputs": [
        {
          "internalType": "address",
          "name": "",
          "type": "address"
        }
      ],
      "stateMutability": "view",
      "type": "function"
    },
    {
      "inputs": [],
      "name": "renounceOwnership",
      "outputs": [],
      "stateMutability": "nonpayable",
      "type": "function"
    },
    {
      "inputs": [
        {
          "internalType": "uint256",
          "name": "tokenId",
          "type": "uint256"
        },
        {
          "internalType": "uint256",
          "name": "salePrice",
          "type": "uint256"
        }
      ],
      "name": "royaltyInfo",
      "outputs": [
        {
          "internalType": "address",
          "name": "receiver",
          "type": "address"
        },
        {
          "internalType": "uint256",
          "name": "amount",
          "type": "uint256"
        }
      ],
      "stateMutability": "view",
      "type": "function"
    },
    {
      "inputs": [
        {
          "internalType": "address",
          "name": "from",
          "type": "address"
        },
        {
          "internalType": "address",
          "name": "to",
          "type": "address"
        },
        {
          "internalType": "uint256[]",
          "name": "ids",
          "type": "uint256[]"
        },
        {
          "internalType": "uint256[]",
          "name": "values",
          "type": "uint256[]"
        },
        {
          "internalType": "bytes",
          "name": "data",
          "type": "bytes"
        }
      ],
      "name": "safeBatchTransferFrom",
      "outputs": [],
      "stateMutability": "nonpayable",
      "type": "function"
    },
    {
      "inputs": [
        {
          "internalType": "address",
          "name": "from",
          "type": "address"
        },
        {
          "internalType": "address",
          "name": "to",
          "type": "address"
        },
        {
          "internalType": "uint256",
          "name": "id",
          "type": "uint256"
        },
        {
          "internalType": "uint256",
          "name": "value",
          "type": "uint256"
        },
        {
          "internalType": "bytes",
          "name": "data",
          "type": "bytes"
        }
      ],
      "name": "safeTransferFrom",
      "outputs": [],
      "stateMutability": "nonpayable",
      "type": "function"
    },
    {
      "inputs": [
        {
          "internalType": "address",
          "name": "operator",
          "type": "address"
        },
        {
          "internalType": "bool",
          "name": "approved",
          "type": "bool"
        }
      ],
      "name": "setApprovalForAll",
      "outputs": [],
      "stateMutability": "nonpayable",
      "type": "function"
    },
    {
      "inputs": [
        {
          "internalType": "bytes4",
          "name": "interfaceId",
          "type": "bytes4"
        }
      ],
      "name": "supportsInterface",
      "outputs": [
        {
          "internalType": "bool",
          "name": "",
          "type": "bool"
        }
      ],
      "stateMutability": "view",
      "type": "function"
    },
    {
      "inputs": [
        {
          "internalType": "address",
          "name": "newOwner",
          "type": "address"
        }
      ],
      "name": "transferOwnership",
      "outputs": [],
      "stateMutability": "nonpayable",
      "type": "function"
    },
    {
      "inputs": [
        {
          "internalType": "uint256",
          "name": "tokenId",
          "type": "uint256"
        }
      ],
      "name": "uri",
      "outputs": [
        {
          "internalType": "string",
          "name": "",
          "type": "string"
        }
      ],
      "stateMutability": "view",
      "type": "function"
    }
  ],
  "bytecode": "0x608060405234801561001057600080fd5b50604051611b83380380611b8383398101604081905261002f9161010e565b604080516020810190915260008152829061004981610096565b506001600160a01b03811661007857604051631e4fbdf760e01b81526000600482015260240160405180910390fd5b610081816100a6565b50600761008e8282610283565b505050610341565b60026100a28282610283565b5050565b600380546001600160a01b038381166001600160a01b0319831681179093556040519116919082907f8be0079c531659141344cd1fd0a4f28419497f9722a3daafe3b4186f6b6457e090600090a35050565b634e487b7160e01b600052604160045260246000fd5b6000806040838503121561012157600080fd5b82516001600160a01b038116811461013857600080fd5b60208401519092506001600160401b0381111561015457600080fd5b8301601f8101851361016557600080fd5b80516001600160401b0381111561017e5761017e6100f8565b604051601f8201601f19908116603f011681016001600160401b03811182821017156101ac576101ac6100f8565b6040528181528282016020018710156101c457600080fd5b60005b828110156101e3576020818501810151838301820152016101c7565b506000602083830101528093505050509250929050565b600181811c9082168061020e57607f821691505b60208210810361022e57634e487b7160e01b600052602260045260246000fd5b50919050565b601f82111561027e57806000526020600020601f840160051c8101602085101561025b5750805b601f840160051c820191505b8181101561027b5760008155600101610267565b50505b505050565b81516001600160401b0381111561029c5761029c6100f8565b6102b0816102aa84546101fa565b84610234565b6020601f8211600181146102e457600083156102cc5750848201515b600019600385901b1c1916600184901b17845561027b565b600084815260208120601f198516915b8281101561031457878501518255602094850194600190920191016102f4565b50848210156103325786840151600019600387901b60f8161c191681555b50505050600190811b01905550565b611833806103506000396000f3fe608060405234801561001057600080fd5b50600436106100f45760003560e01c8063715018a611610097578063e8a3d48511610066578063e8a3d4851461021a578063e985e9c514610222578063f242432a14610235578063f2fde38b1461024857600080fd5b8063715018a6146101dc57806373e92784146101e45780638da5cb5b146101ec578063a22cb4651461020757600080fd5b80632a55205a116100d35780632a55205a146101625780632eb2c2d61461019457806340948977146101a95780634e1273f4146101bc57600080fd5b8062fdd58e146100f957806301ffc9a71461011f5780630e89341c14610142575b600080fd5b61010c610107366004610fb8565b61025b565b6040519081526020015b60405180910390f35b61013261012d366004610ff8565b610283565b6040519015158152602001610116565b61015561015036600461101c565b61028e565b604051610116919061107b565b61017561017036600461108e565b610330565b604080516001600160a01b039093168352602083019190915201610116565b6101a76101a2366004611204565b6103b5565b005b6101a76101b73660046112ba565b610421565b6101cf6101ca366004611357565b610461565b604051610116919061145c565b6101a761052e565b610155610542565b6003546040516001600160a01b039091168152602001610116565b6101a761021536600461146f565b6105d0565b6101556105df565b6101326102303660046114ab565b610671565b6101a76102433660046114de565b61069f565b6101a7610256366004611537565b6106fe565b6000818152602081815260408083206001600160a01b03861684529091529020545b92915050565b600061027d8261073c565b60008181526006602052604090208054606091906102ab90611552565b80601f01602080910402602001604051908101604052809291908181526020018280546102d790611552565b80156103245780601f106102f957610100808354040283529160200191610324565b820191906000526020600020905b81548152906001019060200180831161030757829003601f168201915b50505050509050919050565b600082815260056020526040812080548291906001600160a01b03811690600160a01b90046001600160601b0316816103845750506004546001600160a01b03811690600160a01b90046001600160601b03165b600061271061039c6001600160601b038416896115a2565b6103a691906115b9565b92989297509195505050505050565b336001600160a01b03861681148015906103d657506103d48682610671565b155b1561040c5760405163711bec9160e11b81526001600160a01b038083166004830152871660248201526044015b60405180910390fd5b6104198686868686610761565b505050505050565b6104296107c1565b61044585856001604051806020016040528060008152506107ee565b61044f848461084b565b61045a8483836108a0565b5050505050565b606081518351146104925781518351604051635b05999160e01b815260048101929092526024820152604401610403565b6000835167ffffffffffffffff8111156104ae576104ae6110b0565b6040519080825280602002602001820160405280156104d7578160200160208202803683370190505b50905060005b8451811015610526576020808202860101516105019060208084028701015161025b565b828281518110610513576105136115db565b60209081029190910101526001016104dd565b509392505050565b6105366107c1565b6105406000610962565b565b6007805461054f90611552565b80601f016020809104026020016040519081016040528092919081815260200182805461057b90611552565b80156105c85780601f1061059d576101008083540402835291602001916105c8565b820191906000526020600020905b8154815290600101906020018083116105ab57829003601f168201915b505050505081565b6105db3383836109b4565b5050565b6060600780546105ee90611552565b80601f016020809104026020016040519081016040528092919081815260200182805461061a90611552565b80156106675780601f1061063c57610100808354040283529160200191610667565b820191906000526020600020905b81548152906001019060200180831161064a57829003601f168201915b5050505050905090565b6001600160a01b03918216600090815260016020908152604080832093909416825291909152205460ff1690565b336001600160a01b03861681148015906106c057506106be8682610671565b155b156106f15760405163711bec9160e11b81526001600160a01b03808316600483015287166024820152604401610403565b6104198686868686610a4a565b6107066107c1565b6001600160a01b03811661073057604051631e4fbdf760e01b815260006004820152602401610403565b61073981610962565b50565b60006001600160e01b0319821663152a902d60e11b148061027d575061027d82610ad8565b6001600160a01b03841661078b57604051632bfa23e760e11b815260006004820152602401610403565b6001600160a01b0385166107b457604051626a0d4560e21b815260006004820152602401610403565b61045a8585858585610b28565b6003546001600160a01b031633146105405760405163118cdaa760e01b8152336004820152602401610403565b6001600160a01b03841661081857604051632bfa23e760e11b815260006004820152602401610403565b60408051600180825260208201869052818301908152606082018590526080820190925290610419600087848487610b28565b6000828152600660205260409020610863828261163d565b50817f6bb7ff708619ba0610cba295a58592e0451dee2622938c8755667688daf3529b82604051610894919061107b565b60405180910390a25050565b6127106001600160601b0382168110156108e65760405163dfd1fc1b60e01b8152600481018590526001600160601b038316602482015260448101829052606401610403565b6001600160a01b03831661091757604051634b4f842960e11b81526004810185905260006024820152604401610403565b506040805180820182526001600160a01b0393841681526001600160601b0392831660208083019182526000968752600590529190942093519051909116600160a01b029116179055565b600380546001600160a01b038381166001600160a01b0319831681179093556040519116919082907f8be0079c531659141344cd1fd0a4f28419497f9722a3daafe3b4186f6b6457e090600090a35050565b6001600160a01b0382166109dd5760405162ced3e160e81b815260006004820152602401610403565b6001600160a01b03838116600081815260016020908152604080832094871680845294825291829020805460ff191686151590811790915591519182527f17307eab39ab6107e8899845ad3d59bd9653f200f220920489ca2b5937696c31910160405180910390a3505050565b6001600160a01b038416610a7457604051632bfa23e760e11b815260006004820152602401610403565b6001600160a01b038516610a9d57604051626a0d4560e21b815260006004820152602401610403565b60408051600180825260208201869052818301908152606082018590526080820190925290610acf8787848487610b28565b50505050505050565b60006001600160e01b03198216636cdb3d1360e11b1480610b0957506001600160e01b031982166303a24d0760e21b145b8061027d57506301ffc9a760e01b6001600160e01b031983161461027d565b610b3485858585610b7b565b6001600160a01b0384161561045a5782513390600103610b6d5760208481015190840151610b66838989858589610d8f565b5050610419565b610419818787878787610eb3565b8051825114610baa5781518151604051635b05999160e01b815260048101929092526024820152604401610403565b3360005b8351811015610cb0576020818102858101820151908501909101516001600160a01b03881615610c61576000828152602081815260408083206001600160a01b038c16845290915290205481811015610c3a576040516303dee4c560e01b81526001600160a01b038a166004820152602481018290526044810183905260648101849052608401610403565b6000838152602081815260408083206001600160a01b038d16845290915290209082900390555b6001600160a01b03871615610ca6576000828152602081815260408083206001600160a01b038b16845290915281208054839290610ca09084906116fc565b90915550505b5050600101610bae565b508251600103610d315760208301516000906020840151909150856001600160a01b0316876001600160a01b0316846001600160a01b03167fc3d58168c5ae7397731d063d5bbf3d657854427343f4c083240f7aacaa2d0f628585604051610d22929190918252602082015260400190565b60405180910390a4505061045a565b836001600160a01b0316856001600160a01b0316826001600160a01b03167f4a39dc06d4c0dbc64b70af90fd698a233a518aa5d07e595d983b8c0526c8f7fb8686604051610d8092919061170f565b60405180910390a45050505050565b6001600160a01b0384163b156104195760405163f23a6e6160e01b81526001600160a01b0385169063f23a6e6190610dd3908990899088908890889060040161173d565b6020604051808303816000875af1925050508015610e0e575060408051601f3d908101601f19168201909252610e0b91810190611782565b60015b610e77573d808015610e3c576040519150601f19603f3d011682016040523d82523d6000602084013e610e41565b606091505b508051600003610e6f57604051632bfa23e760e11b81526001600160a01b0386166004820152602401610403565b805181602001fd5b6001600160e01b0319811663f23a6e6160e01b14610acf57604051632bfa23e760e11b81526001600160a01b0386166004820152602401610403565b6001600160a01b0384163b156104195760405163bc197c8160e01b81526001600160a01b0385169063bc197c8190610ef7908990899088908890889060040161179f565b6020604051808303816000875af1925050508015610f32575060408051601f3d908101601f19168201909252610f2f91810190611782565b60015b610f60573d808015610e3c576040519150601f19603f3d011682016040523d82523d6000602084013e610e41565b6001600160e01b0319811663bc197c8160e01b14610acf57604051632bfa23e760e11b81526001600160a01b0386166004820152602401610403565b80356001600160a01b0381168114610fb357600080fd5b919050565b60008060408385031215610fcb57600080fd5b610fd483610f9c565b946020939093013593505050565b6001600160e01b03198116811461073957600080fd5b60006020828403121561100a57600080fd5b813561101581610fe2565b9392505050565b60006020828403121561102e57600080fd5b5035919050565b6000815180845260005b8181101561105b5760208185018101518683018201520161103f565b506000602082860101526020601f19601f83011685010191505092915050565b6020815260006110156020830184611035565b600080604083850312156110a157600080fd5b50508035926020909101359150565b634e487b7160e01b600052604160045260246000fd5b604051601f8201601f1916810167ffffffffffffffff811182821017156110ef576110ef6110b0565b604052919050565b600067ffffffffffffffff821115611111576111116110b0565b5060051b60200190565b600082601f83011261112c57600080fd5b813561113f61113a826110f7565b6110c6565b8082825260208201915060208360051b86010192508583111561116157600080fd5b602085015b8381101561117e578035835260209283019201611166565b5095945050505050565b60008067ffffffffffffffff8411156111a3576111a36110b0565b50601f8301601f19166020016111b8816110c6565b9150508281528383830111156111cd57600080fd5b828260208301376000602084830101529392505050565b600082601f8301126111f557600080fd5b61101583833560208501611188565b600080600080600060a0868803121561121c57600080fd5b61122586610f9c565b945061123360208701610f9c565b9350604086013567ffffffffffffffff81111561124f57600080fd5b61125b8882890161111b565b935050606086013567ffffffffffffffff81111561127857600080fd5b6112848882890161111b565b925050608086013567ffffffffffffffff8111156112a157600080fd5b6112ad888289016111e4565b9150509295509295909350565b600080600080600060a086880312156112d257600080fd5b6112db86610f9c565b945060208601359350604086013567ffffffffffffffff8111156112fe57600080fd5b8601601f8101881361130f57600080fd5b61131e88823560208401611188565b93505061132d60608701610f9c565b915060808601356001600160601b038116811461134957600080fd5b809150509295509295909350565b6000806040838503121561136a57600080fd5b823567ffffffffffffffff81111561138157600080fd5b8301601f8101851361139257600080fd5b80356113a061113a826110f7565b8082825260208201915060208360051b8501019250878311156113c257600080fd5b6020840193505b828410156113eb576113da84610f9c565b8252602093840193909101906113c9565b9450505050602083013567ffffffffffffffff81111561140a57600080fd5b6114168582860161111b565b9150509250929050565b600081518084526020840193506020830160005b82811015611452578151865260209586019590910190600101611434565b5093949350505050565b6020815260006110156020830184611420565b6000806040838503121561148257600080fd5b61148b83610f9c565b9150602083013580151581146114a057600080fd5b809150509250929050565b600080604083850312156114be57600080fd5b6114c783610f9c565b91506114d560208401610f9c565b90509250929050565b600080600080600060a086880312156114f657600080fd5b6114ff86610f9c565b945061150d60208701610f9c565b93506040860135925060608601359150608086013567ffffffffffffffff8111156112a157600080fd5b60006020828403121561154957600080fd5b61101582610f9c565b600181811c9082168061156657607f821691505b60208210810361158657634e487b7160e01b600052602260045260246000fd5b50919050565b634e487b7160e01b600052601160045260246000fd5b808202811582820484141761027d5761027d61158c565b6000826115d657634e487b7160e01b600052601260045260246000fd5b500490565b634e487b7160e01b600052603260045260246000fd5b601f82111561163857806000526020600020601f840160051c810160208510156116185750805b601f840160051c820191505b8181101561045a5760008155600101611624565b505050565b815167ffffffffffffffff811115611657576116576110b0565b61166b816116658454611552565b846115f1565b6020601f82116001811461169f57600083156116875750848201515b600019600385901b1c1916600184901b17845561045a565b600084815260208120601f198516915b828110156116cf57878501518255602094850194600190920191016116af565b50848210156116ed5786840151600019600387901b60f8161c191681555b50505050600190811b01905550565b8082018082111561027d5761027d61158c565b6040815260006117226040830185611420565b82810360208401526117348185611420565b95945050505050565b6001600160a01b03868116825285166020820152604081018490526060810183905260a06080820181905260009061177790830184611035565b979650505050505050565b60006020828403121561179457600080fd5b815161101581610fe2565b6001600160a01b0386811682528516602082015260a0604082018190526000906117cb90830186611420565b82810360608401526117dd8186611420565b905082810360808401526117f18185611035565b9897505050505050505056fea2646970667358221220e0ab87f867b6c8c43d1c6391d0979f8020726bdf6a5fce0081b21e673b68044064736f6c634300081b0033",
  "linkReferences": {},
  "deployedLinkReferences": {}
}