{
  "_format": "hh-sol-artifact-1",
  "contractName": "NTicketMarket",
  "sourceName": "contracts/modules/Marketplace/NTicketMarket.sol",
  "abi": [
    {
      "inputs": [
        {
          "internalType": "address",
          "name": "_ticketContract",
          "type": "address"
        },
        {
          "internalType": "address",
          "name": "_ftContract",
          "type": "address"
        },
        {
          "internalType": "address",
          "name": "_specialMomentContract",
          "type": "address"
        }
      ],
      "stateMutability": "nonpayable",
      "type": "constructor"
    },
    {
      "inputs": [
        {
          "internalType": "address",
          "name": "owner",
          "type": "address"
        }
      ],
      "name": "OwnableInvalidOwner",
      "type": "error"
    },
    {
      "inputs": [
        {
          "internalType": "address",
          "name": "account",
          "type": "address"
        }
      ],
      "name": "OwnableUnauthorizedAccount",
      "type": "error"
    },
    {
      "anonymous": false,
      "inputs": [
        {
          "indexed": false,
          "internalType": "string",
          "name": "methodName",
          "type": "string"
        },
        {
          "indexed": false,
          "internalType": "string",
          "name": "message",
          "type": "string"
        },
        {
          "indexed": false,
          "internalType": "bytes",
          "name": "data",
          "type": "bytes"
        }
      ],
      "name": "Debug",
      "type": "event"
    },
    {
      "anonymous": false,
      "inputs": [
        {
          "indexed": true,
          "internalType": "address",
          "name": "previousOwner",
          "type": "address"
        },
        {
          "indexed": true,
          "internalType": "address",
          "name": "newOwner",
          "type": "address"
        }
      ],
      "name": "OwnershipTransferred",
      "type": "event"
    },
    {
      "anonymous": false,
      "inputs": [
        {
          "indexed": false,
          "internalType": "uint256",
          "name": "tokenId",
          "type": "uint256"
        },
        {
          "indexed": false,
          "internalType": "address",
          "name": "seller",
          "type": "address"
        },
        {
          "indexed": false,
          "internalType": "uint256",
          "name": "price",
          "type": "uint256"
        }
      ],
      "name": "SpecialMomentListed",
      "type": "event"
    },
    {
      "anonymous": false,
      "inputs": [
        {
          "indexed": false,
          "internalType": "uint256",
          "name": "tokenId",
          "type": "uint256"
        },
        {
          "indexed": false,
          "internalType": "address",
          "name": "seller",
          "type": "address"
        }
      ],
      "name": "SpecialMomentListingCancelled",
      "type": "event"
    },
    {
      "anonymous": false,
      "inputs": [
        {
          "indexed": false,
          "internalType": "uint256",
          "name": "tokenId",
          "type": "uint256"
        },
        {
          "indexed": false,
          "internalType": "address",
          "name": "seller",
          "type": "address"
        },
        {
          "indexed": false,
          "internalType": "uint256",
          "name": "oldPrice",
          "type": "uint256"
        },
        {
          "indexed": false,
          "internalType": "uint256",
          "name": "newPrice",
          "type": "uint256"
        }
      ],
      "name": "SpecialMomentListingUpdated",
      "type": "event"
    },
    {
      "anonymous": false,
      "inputs": [
        {
          "indexed": false,
          "internalType": "uint256",
          "name": "tokenId",
          "type": "uint256"
        },
        {
          "indexed": false,
          "internalType": "address",
          "name": "seller",
          "type": "address"
        },
        {
          "indexed": false,
          "internalType": "address",
          "name": "buyer",
          "type": "address"
        },
        {
          "indexed": false,
          "internalType": "uint256",
          "name": "price",
          "type": "uint256"
        }
      ],
      "name": "SpecialMomentSold",
      "type": "event"
    },
    {
      "anonymous": false,
      "inputs": [
        {
          "indexed": false,
          "internalType": "uint256",
          "name": "tokenId",
          "type": "uint256"
        },
        {
          "indexed": false,
          "internalType": "address",
          "name": "seller",
          "type": "address"
        },
        {
          "indexed": false,
          "internalType": "uint256",
          "name": "price",
          "type": "uint256"
        },
        {
          "indexed": false,
          "internalType": "uint64",
          "name": "eventId",
          "type": "uint64"
        },
        {
          "indexed": false,
          "internalType": "uint64",
          "name": "categoryId",
          "type": "uint64"
        },
        {
          "indexed": false,
          "internalType": "uint128",
          "name": "seatId",
          "type": "uint128"
        }
      ],
      "name": "TicketListed",
      "type": "event"
    },
    {
      "anonymous": false,
      "inputs": [
        {
          "indexed": false,
          "internalType": "uint256",
          "name": "tokenId",
          "type": "uint256"
        },
        {
          "indexed": false,
          "internalType": "address",
          "name": "seller",
          "type": "address"
        }
      ],
      "name": "TicketListingCancelled",
      "type": "event"
    },
    {
      "anonymous": false,
      "inputs": [
        {
          "indexed": false,
          "internalType": "uint256",
          "name": "tokenId",
          "type": "uint256"
        },
        {
          "indexed": false,
          "internalType": "address",
          "name": "seller",
          "type": "address"
        },
        {
          "indexed": false,
          "internalType": "uint256",
          "name": "oldPrice",
          "type": "uint256"
        },
        {
          "indexed": false,
          "internalType": "uint256",
          "name": "newPrice",
          "type": "uint256"
        }
      ],
      "name": "TicketListingUpdated",
      "type": "event"
    },
    {
      "anonymous": false,
      "inputs": [
        {
          "indexed": false,
          "internalType": "uint256",
          "name": "tokenId",
          "type": "uint256"
        },
        {
          "indexed": false,
          "internalType": "address",
          "name": "seller",
          "type": "address"
        },
        {
          "indexed": false,
          "internalType": "address",
          "name": "buyer",
          "type": "address"
        },
        {
          "indexed": false,
          "internalType": "uint256",
          "name": "price",
          "type": "uint256"
        }
      ],
      "name": "TicketSold",
      "type": "event"
    },
    {
      "inputs": [
        {
          "internalType": "uint256",
          "name": "tokenId",
          "type": "uint256"
        }
      ],
      "name": "buySpecialMoment",
      "outputs": [],
      "stateMutability": "nonpayable",
      "type": "function"
    },
    {
      "inputs": [
        {
          "internalType": "uint256",
          "name": "tokenId",
          "type": "uint256"
        }
      ],
      "name": "buyTicket",
      "outputs": [],
      "stateMutability": "nonpayable",
      "type": "function"
    },
    {
      "inputs": [
        {
          "internalType": "uint256",
          "name": "tokenId",
          "type": "uint256"
        }
      ],
      "name": "cancelSpecialMomentListing",
      "outputs": [],
      "stateMutability": "nonpayable",
      "type": "function"
    },
    {
      "inputs": [
        {
          "internalType": "uint256",
          "name": "tokenId",
          "type": "uint256"
        }
      ],
      "name": "cancelTicketListing",
      "outputs": [],
      "stateMutability": "nonpayable",
      "type": "function"
    },
    {
      "inputs": [],
      "name": "debugMode",
      "outputs": [
        {
          "internalType": "bool",
          "name": "",
          "type": "bool"
        }
      ],
      "stateMutability": "view",
      "type": "function"
    },
    {
      "inputs": [],
      "name": "ftContract",
      "outputs": [
        {
          "internalType": "address",
          "name": "",
          "type": "address"
        }
      ],
      "stateMutability": "view",
      "type": "function"
    },
    {
      "inputs": [
        {
          "internalType": "uint256",
          "name": "tokenId",
          "type": "uint256"
        }
      ],
      "name": "getSpecialMomentListing",
      "outputs": [
        {
          "components": [
            {
              "internalType": "uint256",
              "name": "price",
              "type": "uint256"
            },
            {
              "internalType": "address",
              "name": "seller",
              "type": "address"
            }
          ],
          "internalType": "struct SpecialMomentListing",
          "name": "",
          "type": "tuple"
        }
      ],
      "stateMutability": "view",
      "type": "function"
    },
    {
      "inputs": [
        {
          "internalType": "uint256",
          "name": "tokenId",
          "type": "uint256"
        }
      ],
      "name": "getTicketListing",
      "outputs": [
        {
          "components": [
            {
              "internalType": "uint256",
              "name": "price",
              "type": "uint256"
            },
            {
              "internalType": "address",
              "name": "seller",
              "type": "address"
            }
          ],
          "internalType": "struct Listing",
          "name": "",
          "type": "tuple"
        }
      ],
      "stateMutability": "view",
      "type": "function"
    },
    {
      "inputs": [
        {
          "internalType": "uint256",
          "name": "tokenId",
          "type": "uint256"
        },
        {
          "internalType": "uint256",
          "name": "price",
          "type": "uint256"
        }
      ],
      "name": "listSpecialMoment",
      "outputs": [],
      "stateMutability": "nonpayable",
      "type": "function"
    },
    {
      "inputs": [
        {
          "internalType": "uint256",
          "name": "tokenId",
          "type": "uint256"
        },
        {
          "internalType": "uint256",
          "name": "price",
          "type": "uint256"
        }
      ],
      "name": "listTicket",
      "outputs": [],
      "stateMutability": "nonpayable",
      "type": "function"
    },
    {
      "inputs": [],
      "name": "owner",
      "outputs": [
        {
          "internalType": "address",
          "name": "",
          "type": "address"
        }
      ],
      "stateMutability": "view",
      "type": "function"
    },
    {
      "inputs": [],
      "name": "renounceOwnership",
      "outputs": [],
      "stateMutability": "nonpayable",
      "type": "function"
    },
    {
      "inputs": [
        {
          "internalType": "bool",
          "name": "mode",
          "type": "bool"
        }
      ],
      "name": "setDebugMode",
      "outputs": [],
      "stateMutability": "nonpayable",
      "type": "function"
    },
    {
      "inputs": [],
      "name": "specialMomentContract",
      "outputs": [
        {
          "internalType": "address",
          "name": "",
          "type": "address"
        }
      ],
      "stateMutability": "view",
      "type": "function"
    },
    {
      "inputs": [],
      "name": "ticketContract",
      "outputs": [
        {
          "internalType": "address",
          "name": "",
          "type": "address"
        }
      ],
      "stateMutability": "view",
      "type": "function"
    },
    {
      "inputs": [
        {
          "internalType": "address",
          "name": "newOwner",
          "type": "address"
        }
      ],
      "name": "transferOwnership",
      "outputs": [],
      "stateMutability": "nonpayable",
      "type": "function"
    },
    {
      "inputs": [
        {
          "internalType": "uint256",
          "name": "tokenId",
          "type": "uint256"
        },
        {
          "internalType": "uint256",
          "name": "newPrice",
          "type": "uint256"
        }
      ],
      "name": "updateSpecialMomentListing",
      "outputs": [],
      "stateMutability": "nonpayable",
      "type": "function"
    },
    {
      "inputs": [
        {
          "internalType": "uint256",
          "name": "tokenId",
          "type": "uint256"
        },
        {
          "internalType": "uint256",
          "name": "newPrice",
          "type": "uint256"
        }
      ],
      "name": "updateTicketListing",
      "outputs": [],
      "stateMutability": "nonpayable",
      "type": "function"
    }
  ],
  "bytecode": "0x608060405234801561001057600080fd5b5060405161306238038061306283398101604081905261002f91610122565b338061005557604051631e4fbdf760e01b81526000600482015260240160405180910390fd5b61005e816100ad565b50600180546001600160a01b03199081166001600160a01b039586161782556002805482169486169490941790935560038054909316919093161790556000805460ff19169091179055610165565b600080546001600160a01b03838116610100818102610100600160a81b0319851617855560405193049190911692909183917f8be0079c531659141344cd1fd0a4f28419497f9722a3daafe3b4186f6b6457e091a35050565b80516001600160a01b038116811461011d57600080fd5b919050565b60008060006060848603121561013757600080fd5b61014084610106565b925061014e60208501610106565b915061015c60408501610106565b90509250925092565b612eee806101746000396000f3fe608060405234801561001057600080fd5b50600436106101165760003560e01c8063866a68a1116100a2578063ab3ba42d11610071578063ab3ba42d14610239578063d913c1441461024c578063ea4780f51461025f578063f0fe92a214610272578063f2fde38b1461028557600080fd5b8063866a68a1146101dd5780638811e191146101fd5780638da5cb5b1461021057806391e73de61461022657600080fd5b8063567c34d6116100e9578063567c34d61461017157806356cc86841461019c57806358a86e1d146101af57806367dd74ca146101c2578063715018a6146101d557600080fd5b806313c8c3591461011b5780631c9568be146101305780631e4424dc1461014b578063305a905a1461015e575b600080fd5b61012e610129366004612a0a565b610298565b005b60005460ff1660405190151581526020015b60405180910390f35b61012e610159366004612a23565b610604565b61012e61016c366004612a23565b61095c565b600354610184906001600160a01b031681565b6040516001600160a01b039091168152602001610142565b61012e6101aa366004612a0a565b610e61565b600154610184906001600160a01b031681565b61012e6101d0366004612a0a565b6115d3565b61012e611d1b565b6101f06101eb366004612a0a565b611d2f565b6040516101429190612a45565b61012e61020b366004612a73565b611d9a565b60005461010090046001600160a01b0316610184565b6101f0610234366004612a0a565b611db5565b61012e610247366004612a23565b611e1a565b61012e61025a366004612a23565b6122ef565b600254610184906001600160a01b031681565b61012e610280366004612a0a565b61261b565b61012e610293366004612aac565b612914565b60408051808201909152601381527263616e63656c5469636b65744c697374696e6760681b602082015260005460ff16156102f357600080516020612e04833981519152816040516102ea9190612b0f565b60405180910390a15b8161037b6040518060400160405280600e81526020016d1d1a58dad95d125cd31a5cdd195960921b8152506040518060400160405280601c81526020017f436865636b696e67206966207469636b6574206973206c6973746564000000008152508360405160200161036791815260200190565b604051602081830303815290604052612952565b600081815260046020908152604091829020825180840190935280548084526001909101546001600160a01b0316918301919091526103d55760405162461bcd60e51b81526004016103cc90612b62565b60405180910390fd5b83336104576040518060400160405280600d81526020016c34b9aa34b1b5b2ba27bbb732b960991b815250604051806040016040528060198152602001780436865636b696e67207469636b6574206f776e65727368697603c1b81525084846040516020016103679291909182526001600160a01b0316602082015260400190565b600154604051627eeac760e11b81526000916001600160a01b03169062fdd58e906104889085908790600401612b8d565b602060405180830381865afa1580156104a5573d6000803e3d6000fd5b505050506040513d601f19601f820116820180604052508101906104c99190612ba6565b9050806000036104eb5760405162461bcd60e51b81526004016103cc90612bbf565b6105686040518060400160405280601381526020017263616e63656c5469636b65744c697374696e6760681b8152506040518060400160405280601081526020016f44656c6574696e67206c697374696e6760801b81525089336040516020016103679291909182526001600160a01b0316602082015260400190565b6000878152600460209081526040808320928355600190920180546001600160a01b0319169055815189815233918101919091527f76c5d8a17d0bee8bd0e004133353cd78ede70ac9ace2aa18bf839e748caff29091015b60405180910390a1505060005460ff1615925061060091505057600080516020612e04833981519152816040516105f79190612bf6565b60405180910390a15b5050565b60408051808201909152601a81527f7570646174655370656369616c4d6f6d656e744c697374696e67000000000000602082015260005460ff161561066957600080516020612e04833981519152816040516106609190612b0f565b60405180910390a15b826106c5604051806040016040528060158152602001741cdc1958da585b135bdb595b9d125cd31a5cdd1959605a1b815250604051806060016040528060248152602001612e5060249139604080516020810186905201610367565b600081815260056020908152604091829020825180840190935280548084526001909101546001600160a01b0316918301919091526107165760405162461bcd60e51b81526004016103cc90612c48565b84336107866040518060400160405280601481526020017334b9a9b832b1b4b0b626b7b6b2b73a27bbb732b960611b815250604051806060016040528060218152602001612e746021913984846040516020016103679291909182526001600160a01b0316602082015260400190565b600354604051627eeac760e11b81526000916001600160a01b03169062fdd58e906107b79085908790600401612b8d565b602060405180830381865afa1580156107d4573d6000803e3d6000fd5b505050506040513d601f19601f820116820180604052508101906107f89190612ba6565b90508060000361081a5760405162461bcd60e51b81526004016103cc90612c7f565b6000871161083a5760405162461bcd60e51b81526004016103cc90612cc1565b6108be6040518060400160405280601a81526020017f7570646174655370656369616c4d6f6d656e744c697374696e67000000000000815250604051806040016040528060168152602001755570646174696e67206c697374696e6720707269636560501b8152508a8a604051602001610367929190918252602082015260400190565b6000888152600560209081526040918290208054908a905582518b81523392810192909252918101829052606081018990527f9b5dc4de88e35148569c993ff22b9d9ee6e1554445eb0d994267040077e9c7b5906080015b60405180910390a1505060005460ff161593506109579250505057600080516020612e048339815191528160405161094e9190612bf6565b60405180910390a15b505050565b60408051808201909152600a8152691b1a5cdd151a58dad95d60b21b602082015260005460ff16156109ae57600080516020612e04833981519152816040516109a59190612b0f565b60405180910390a15b8233610a196040518060400160405280600f81526020016e1d1a58dad95d139bdd131a5cdd1959608a1b815250604051806060016040528060248152602001612e956024913984846040516020016103679291909182526001600160a01b0316602082015260400190565b600082815260046020908152604091829020825180840190935280548084526001909101546001600160a01b03169183019190915215610a935760405162461bcd60e51b8152602060048201526015602482015274151a58dad95d08185b1c9958591e481b1a5cdd1959605a1b60448201526064016103cc565b8533610b156040518060400160405280600d81526020016c34b9aa34b1b5b2ba27bbb732b960991b815250604051806040016040528060198152602001780436865636b696e67207469636b6574206f776e65727368697603c1b81525084846040516020016103679291909182526001600160a01b0316602082015260400190565b600154604051627eeac760e11b81526000916001600160a01b03169062fdd58e90610b469085908790600401612b8d565b602060405180830381865afa158015610b63573d6000803e3d6000fd5b505050506040513d601f19601f82011682018060405250810190610b879190612ba6565b905080600003610ba95760405162461bcd60e51b81526004016103cc90612bbf565b604080518082018252600a8152691b1a5cdd151a58dad95d60b21b60208083019190915282518084018452601d81527f436865636b696e67206d61726b6574706c61636520617070726f76616c00000081830152835133928101929092523093820193909352610c1c9290606001610367565b60015460405163e985e9c560e01b81523360048201523060248201526000916001600160a01b03169063e985e9c590604401602060405180830381865afa158015610c6b573d6000803e3d6000fd5b505050506040513d601f19601f82011682018060405250810190610c8f9190612cf8565b905080610cde5760405162461bcd60e51b815260206004820152601b60248201527f4d61726b6574706c616365206973206e6f7420617070726f766564000000000060448201526064016103cc565b60008911610cfe5760405162461bcd60e51b81526004016103cc90612cc1565b610d696040518060400160405280600a8152602001691b1a5cdd151a58dad95d60b21b8152506040518060400160405280601081526020016f4372656174696e67206c697374696e6760801b8152508c8c604051602001610367929190918252602082015260400190565b6040805180820182528a815233602080830182815260008f8152600483528590209351845551600190930180546001600160a01b039094166001600160a01b03199094169390931790925582518d8152918201529081018a905260c08b811c6060830181905260808d811c67ffffffffffffffff169084018190526fffffffffffffffffffffffffffffffff8e1660a08501819052919390927f4dba92438e7ff7bdf6b894a9324fd8674dfb7d871970069105a3cef3aa52cf9e910160405180910390a1505060005460ff16159750610957965050505050505057600080516020612e048339815191528160405161094e9190612bf6565b60408051808201909152601081526f189d5e54dc1958da585b135bdb595b9d60821b602082015260005460ff1615610eb957600080516020612e0483398151915281604051610eb09190612b0f565b60405180910390a15b81610f15604051806040016040528060158152602001741cdc1958da585b135bdb595b9d125cd31a5cdd1959605a1b815250604051806060016040528060248152602001612e5060249139604080516020810186905201610367565b600081815260056020908152604091829020825180840190935280548084526001909101546001600160a01b031691830191909152610f665760405162461bcd60e51b81526004016103cc90612c48565b610fd56040518060400160405280601081526020016f189d5e54dc1958da585b135bdb595b9d60821b815250604051806040016040528060178152602001764c6f6164696e67206c697374696e672064657461696c7360481b8152508660405160200161036791815260200190565b600084815260056020908152604091829020825180840190935280548352600101546001600160a01b031690820181905233036110545760405162461bcd60e51b815260206004820152601b60248201527f43616e6e6f742062757920796f7572206f776e206c697374696e67000000000060448201526064016103cc565b6110c76040518060400160405280601081526020016f189d5e54dc1958da585b135bdb595b9d60821b81525060405180604001604052806017815260200176436865636b696e67205553444320616c6c6f77616e636560481b815250338460000151604051602001610367929190612b8d565b8051600254604051636eb1769f60e11b81523360048201523060248201526001600160a01b039091169063dd62ed3e90604401602060405180830381865afa158015611117573d6000803e3d6000fd5b505050506040513d601f19601f8201168201806040525081019061113b9190612ba6565b10156111895760405162461bcd60e51b815260206004820152601b60248201527f496e73756666696369656e74205553444320616c6c6f77616e6365000000000060448201526064016103cc565b6112036040518060400160405280601081526020016f189d5e54dc1958da585b135bdb595b9d60821b8152506040518060400160405280601581526020017443616c63756c6174696e6720726f79616c7469657360581b815250878460000151604051602001610367929190918252602082015260400190565b600354815160405163152a902d60e11b815260048101889052602481019190915260009182916001600160a01b0390911690632a55205a906044016040805180830381865afa15801561125a573d6000803e3d6000fd5b505050506040513d601f19601f8201168201806040525081019061127e9190612d15565b915091506112f76040518060400160405280601081526020016f189d5e54dc1958da585b135bdb595b9d60821b8152506040518060400160405280601a81526020017f50726f63657373696e6720726f79616c7479207061796d656e740000000000008152508484604051602001610367929190612b8d565b6002546040516323b872dd60e01b81526001600160a01b03909116906323b872dd9061132b90339086908690600401612d43565b6020604051808303816000875af115801561134a573d6000803e3d6000fd5b505050506040513d601f19601f8201168201806040525081019061136e9190612cf8565b506113f36040518060400160405280601081526020016f189d5e54dc1958da585b135bdb595b9d60821b81525060405180604001604052806019815260200178141c9bd8d95cdcda5b99c81cd95b1b195c881c185e5b595b9d603a1b81525085602001518487600001516113e29190612d67565b604051602001610367929190612b8d565b600254602084015184516001600160a01b03909216916323b872dd91339161141c908690612d67565b6040518463ffffffff1660e01b815260040161143a93929190612d43565b6020604051808303816000875af1158015611459573d6000803e3d6000fd5b505050506040513d601f19601f8201168201806040525081019061147d9190612cf8565b506114ec6040518060400160405280601081526020016f189d5e54dc1958da585b135bdb595b9d60821b8152506040518060400160405280601081526020016f151c985b9cd9995c9c9a5b99c813919560821b8152508560200151338b60405160200161036793929190612d43565b6003546020840151604051637921219560e11b81526001600160a01b039092169163f242432a916115269133908c90600190600401612d88565b600060405180830381600087803b15801561154057600080fd5b505af1158015611554573d6000803e3d6000fd5b5050506000888152600560209081526040808320928355600190920180546001600160a01b031916905585810151865183518c81526001600160a01b0390921692820192909252339281019290925260608201527f4de425f5bbbe8733d4a4b25b2c4020a9c1553487fe8b58cff733245db6a645bc91506080016105c0565b604080518082019091526009815268189d5e551a58dad95d60ba1b602082015260005460ff161561162457600080516020612e048339815191528160405161161b9190612b0f565b60405180910390a15b816116986040518060400160405280600e81526020016d1d1a58dad95d125cd31a5cdd195960921b8152506040518060400160405280601c81526020017f436865636b696e67206966207469636b6574206973206c6973746564000000008152508360405160200161036791815260200190565b600081815260046020908152604091829020825180840190935280548084526001909101546001600160a01b0316918301919091526116e95760405162461bcd60e51b81526004016103cc90612b62565b61175160405180604001604052806009815260200168189d5e551a58dad95d60ba1b815250604051806040016040528060178152602001764c6f6164696e67206c697374696e672064657461696c7360481b8152508660405160200161036791815260200190565b600084815260046020908152604091829020825180840190935280548352600101546001600160a01b031690820181905233036117d05760405162461bcd60e51b815260206004820152601b60248201527f43616e6e6f742062757920796f7572206f776e206c697374696e67000000000060448201526064016103cc565b61183c60405180604001604052806009815260200168189d5e551a58dad95d60ba1b81525060405180604001604052806017815260200176436865636b696e67205553444320616c6c6f77616e636560481b815250338460000151604051602001610367929190612b8d565b8051600254604051636eb1769f60e11b81523360048201523060248201526001600160a01b039091169063dd62ed3e90604401602060405180830381865afa15801561188c573d6000803e3d6000fd5b505050506040513d601f19601f820116820180604052508101906118b09190612ba6565b10156118fe5760405162461bcd60e51b815260206004820152601b60248201527f496e73756666696369656e74205553444320616c6c6f77616e6365000000000060448201526064016103cc565b61197160405180604001604052806009815260200168189d5e551a58dad95d60ba1b8152506040518060400160405280601581526020017443616c63756c6174696e6720726f79616c7469657360581b815250878460000151604051602001610367929190918252602082015260400190565b600154815160405163152a902d60e11b815260048101889052602481019190915260009182916001600160a01b0390911690632a55205a906044016040805180830381865afa1580156119c8573d6000803e3d6000fd5b505050506040513d601f19601f820116820180604052508101906119ec9190612d15565b91509150611a5e60405180604001604052806009815260200168189d5e551a58dad95d60ba1b8152506040518060400160405280601a81526020017f50726f63657373696e6720726f79616c7479207061796d656e740000000000008152508484604051602001610367929190612b8d565b6002546040516323b872dd60e01b81526001600160a01b03909116906323b872dd90611a9290339086908690600401612d43565b6020604051808303816000875af1158015611ab1573d6000803e3d6000fd5b505050506040513d601f19601f82011682018060405250810190611ad59190612cf8565b50611b4260405180604001604052806009815260200168189d5e551a58dad95d60ba1b81525060405180604001604052806019815260200178141c9bd8d95cdcda5b99c81cd95b1b195c881c185e5b595b9d603a1b81525085602001518487600001516113e29190612d67565b600254602084015184516001600160a01b03909216916323b872dd913391611b6b908690612d67565b6040518463ffffffff1660e01b8152600401611b8993929190612d43565b6020604051808303816000875af1158015611ba8573d6000803e3d6000fd5b505050506040513d601f19601f82011682018060405250810190611bcc9190612cf8565b50611c3460405180604001604052806009815260200168189d5e551a58dad95d60ba1b8152506040518060400160405280601081526020016f151c985b9cd9995c9c9a5b99c813919560821b8152508560200151338b60405160200161036793929190612d43565b600180546020850151604051637921219560e11b81526001600160a01b039092169263f242432a92611c6e929133918d9190600401612d88565b600060405180830381600087803b158015611c8857600080fd5b505af1158015611c9c573d6000803e3d6000fd5b5050506000888152600460209081526040808320928355600190920180546001600160a01b031916905585810151865183518c81526001600160a01b0390921692820192909252339281019290925260608201527f2bbc64d6afd28a753f6c5e4aaa894f1d684c44a0e080167eae104ac8505cfebd91506080016105c0565b611d2361297e565b611d2d60006129b1565b565b6040805180820190915260008082526020820152600082815260056020908152604091829020825180840190935280548084526001909101546001600160a01b031691830191909152611d945760405162461bcd60e51b81526004016103cc90612c48565b92915050565b611da261297e565b6000805460ff1916911515919091179055565b6040805180820190915260008082526020820152600082815260046020908152604091829020825180840190935280548084526001909101546001600160a01b031691830191909152611d945760405162461bcd60e51b81526004016103cc90612b62565b6040805180820190915260118152701b1a5cdd14dc1958da585b135bdb595b9d607a1b602082015260005460ff1615611e7357600080516020612e0483398151915281604051611e6a9190612b0f565b60405180910390a15b8233611ee5604051806040016040528060168152602001751cdc1958da585b135bdb595b9d139bdd131a5cdd195960521b8152506040518060600160405280602c8152602001612e24602c913984846040516020016103679291909182526001600160a01b0316602082015260400190565b600082815260056020908152604091829020825180840190935280548084526001909101546001600160a01b03169183019190915215611f675760405162461bcd60e51b815260206004820152601d60248201527f5370656369616c206d6f6d656e7420616c7265616479206c697374656400000060448201526064016103cc565b8533611fd76040518060400160405280601481526020017334b9a9b832b1b4b0b626b7b6b2b73a27bbb732b960611b815250604051806060016040528060218152602001612e746021913984846040516020016103679291909182526001600160a01b0316602082015260400190565b600354604051627eeac760e11b81526000916001600160a01b03169062fdd58e906120089085908790600401612b8d565b602060405180830381865afa158015612025573d6000803e3d6000fd5b505050506040513d601f19601f820116820180604052508101906120499190612ba6565b90508060000361206b5760405162461bcd60e51b81526004016103cc90612c7f565b60408051808201825260118152701b1a5cdd14dc1958da585b135bdb595b9d607a1b60208083019190915282518084018452601d81527f436865636b696e67206d61726b6574706c61636520617070726f76616c000000818301528351339281019290925230938201939093526120e59290606001610367565b60035460405163e985e9c560e01b81523360048201523060248201526000916001600160a01b03169063e985e9c590604401602060405180830381865afa158015612134573d6000803e3d6000fd5b505050506040513d601f19601f820116820180604052508101906121589190612cf8565b9050806121a75760405162461bcd60e51b815260206004820152601b60248201527f4d61726b6574706c616365206973206e6f7420617070726f766564000000000060448201526064016103cc565b600089116121c75760405162461bcd60e51b81526004016103cc90612cc1565b612239604051806040016040528060118152602001701b1a5cdd14dc1958da585b135bdb595b9d607a1b8152506040518060400160405280601081526020016f4372656174696e67206c697374696e6760801b8152508c8c604051602001610367929190918252602082015260400190565b6040805180820182528a815233602080830182815260008f8152600583528590209351845551600190930180546001600160a01b0319166001600160a01b039094169390931790925582518d8152918201529081018a90527f2f06e4bbdd57d34e63eaec88aeae4807a2bf3142abfb7ad1ce0e89d1a784b6789060600160405180910390a1505060005460ff16159450610957935050505057600080516020612e048339815191528160405161094e9190612bf6565b6040805180820190915260138152727570646174655469636b65744c697374696e6760681b602082015260005460ff161561234a57600080516020612e04833981519152816040516123419190612b0f565b60405180910390a15b826123be6040518060400160405280600e81526020016d1d1a58dad95d125cd31a5cdd195960921b8152506040518060400160405280601c81526020017f436865636b696e67206966207469636b6574206973206c6973746564000000008152508360405160200161036791815260200190565b600081815260046020908152604091829020825180840190935280548084526001909101546001600160a01b03169183019190915261240f5760405162461bcd60e51b81526004016103cc90612b62565b84336124916040518060400160405280600d81526020016c34b9aa34b1b5b2ba27bbb732b960991b815250604051806040016040528060198152602001780436865636b696e67207469636b6574206f776e65727368697603c1b81525084846040516020016103679291909182526001600160a01b0316602082015260400190565b600154604051627eeac760e11b81526000916001600160a01b03169062fdd58e906124c29085908790600401612b8d565b602060405180830381865afa1580156124df573d6000803e3d6000fd5b505050506040513d601f19601f820116820180604052508101906125039190612ba6565b9050806000036125255760405162461bcd60e51b81526004016103cc90612bbf565b600087116125455760405162461bcd60e51b81526004016103cc90612cc1565b6125bf604051806040016040528060138152602001727570646174655469636b65744c697374696e6760681b815250604051806040016040528060168152602001755570646174696e67206c697374696e6720707269636560501b8152508a8a604051602001610367929190918252602082015260400190565b6000888152600460209081526040918290208054908a905582518b81523392810192909252918101829052606081018990527fd5ab325ab11120e54b70c4a26b24f1d30969eb9ce335a78fb7ea2df8950b5d9e90608001610916565b60408051808201909152601a81527f63616e63656c5370656369616c4d6f6d656e744c697374696e67000000000000602082015260005460ff161561268057600080516020612e04833981519152816040516126779190612b0f565b60405180910390a15b816126dc604051806040016040528060158152602001741cdc1958da585b135bdb595b9d125cd31a5cdd1959605a1b815250604051806060016040528060248152602001612e5060249139604080516020810186905201610367565b600081815260056020908152604091829020825180840190935280548084526001909101546001600160a01b03169183019190915261272d5760405162461bcd60e51b81526004016103cc90612c48565b833361279d6040518060400160405280601481526020017334b9a9b832b1b4b0b626b7b6b2b73a27bbb732b960611b815250604051806060016040528060218152602001612e746021913984846040516020016103679291909182526001600160a01b0316602082015260400190565b600354604051627eeac760e11b81526000916001600160a01b03169062fdd58e906127ce9085908790600401612b8d565b602060405180830381865afa1580156127eb573d6000803e3d6000fd5b505050506040513d601f19601f8201168201806040525081019061280f9190612ba6565b9050806000036128315760405162461bcd60e51b81526004016103cc90612c7f565b6128b86040518060400160405280601a81526020017f63616e63656c5370656369616c4d6f6d656e744c697374696e670000000000008152506040518060400160405280601081526020016f44656c6574696e67206c697374696e6760801b81525089336040516020016103679291909182526001600160a01b0316602082015260400190565b6000878152600560209081526040808320928355600190920180546001600160a01b0319169055815189815233918101919091527faed45759cd6cb40ea8fd2785e9cfc565d4f4ca17a3565154ce4e09b5932fd2e091016105c0565b61291c61297e565b6001600160a01b03811661294657604051631e4fbdf760e01b8152600060048201526024016103cc565b61294f816129b1565b50565b60005460ff161561095757600080516020612e0483398151915283838360405161094e93929190612dc0565b6000546001600160a01b03610100909104163314611d2d5760405163118cdaa760e01b81523360048201526024016103cc565b600080546001600160a01b03838116610100818102610100600160a81b0319851617855560405193049190911692909183917f8be0079c531659141344cd1fd0a4f28419497f9722a3daafe3b4186f6b6457e091a35050565b600060208284031215612a1c57600080fd5b5035919050565b60008060408385031215612a3657600080fd5b50508035926020909101359150565b815181526020808301516001600160a01b03169082015260408101611d94565b801515811461294f57600080fd5b600060208284031215612a8557600080fd5b8135612a9081612a65565b9392505050565b6001600160a01b038116811461294f57600080fd5b600060208284031215612abe57600080fd5b8135612a9081612a97565b6000815180845260005b81811015612aef57602081850181015186830182015201612ad3565b506000602082860101526020601f19601f83011685010191505092915050565b606081526000612b226060830184612ac9565b828103806020850152600c82526b4d6574686f6420656e74727960a01b602083015260408101604085015250600060408201526060810191505092915050565b602080825260119082015270151a58dad95d081b9bdd081b1a5cdd1959607a1b604082015260600190565b6001600160a01b03929092168252602082015260400190565b600060208284031215612bb857600080fd5b5051919050565b6020808252601a908201527f5469636b6574206e6f74206f776e65642062792063616c6c6572000000000000604082015260600190565b606081526000612c096060830184612ac9565b828103806020850152600b82526a13595d1a1bd908195e1a5d60aa1b602083015260408101604085015250600060408201526060810191505092915050565b60208082526019908201527f5370656369616c206d6f6d656e74206e6f74206c697374656400000000000000604082015260600190565b60208082526022908201527f5370656369616c206d6f6d656e74206e6f74206f776e65642062792063616c6c60408201526132b960f11b606082015260800190565b6020808252601f908201527f5072696365206d7573742062652067726561746572207468616e207a65726f00604082015260600190565b600060208284031215612d0a57600080fd5b8151612a9081612a65565b60008060408385031215612d2857600080fd5b8251612d3381612a97565b6020939093015192949293505050565b6001600160a01b039384168152919092166020820152604081019190915260600190565b81810381811115611d9457634e487b7160e01b600052601160045260246000fd5b6001600160a01b0394851681529290931660208301526040820152606081019190915260a06080820181905260009082015260c00190565b606081526000612dd36060830186612ac9565b8281036020840152612de58186612ac9565b90508281036040840152612df98185612ac9565b969550505050505056fe3b27a17eb6abbf4d7afecee861fef9cb2a747838d77634f6885a162b37c00a6d436865636b696e67206966207370656369616c206d6f6d656e7420697320616c7265616479206c6973746564436865636b696e67206966207370656369616c206d6f6d656e74206973206c6973746564436865636b696e67207370656369616c206d6f6d656e74206f776e657273686970436865636b696e67206966207469636b657420697320616c7265616479206c6973746564a2646970667358221220e72f90279d61f0cf6ed24dd4147c9436d03858eae47b853ea26410c326a62e6564736f6c634300081b0033",
  "linkReferences": {},
  "deployedLinkReferences": {}
}