{
  "_format": "hh-sol-artifact-1",
  "contractName": "NTicketMarket",
  "sourceName": "contracts/modules/Marketplace/NTicketMarket.sol",
  "abi": [
    {
      "inputs": [
        {
          "internalType": "address",
          "name": "_ticketContract",
          "type": "address"
        },
        {
          "internalType": "address",
          "name": "_ftContract",
          "type": "address"
        },
        {
          "internalType": "address",
          "name": "_specialMomentContract",
          "type": "address"
        }
      ],
      "stateMutability": "nonpayable",
      "type": "constructor"
    },
    {
      "inputs": [
        {
          "internalType": "address",
          "name": "owner",
          "type": "address"
        }
      ],
      "name": "OwnableInvalidOwner",
      "type": "error"
    },
    {
      "inputs": [
        {
          "internalType": "address",
          "name": "account",
          "type": "address"
        }
      ],
      "name": "OwnableUnauthorizedAccount",
      "type": "error"
    },
    {
      "anonymous": false,
      "inputs": [
        {
          "indexed": false,
          "internalType": "string",
          "name": "methodName",
          "type": "string"
        },
        {
          "indexed": false,
          "internalType": "string",
          "name": "message",
          "type": "string"
        },
        {
          "indexed": false,
          "internalType": "bytes",
          "name": "data",
          "type": "bytes"
        }
      ],
      "name": "Debug",
      "type": "event"
    },
    {
      "anonymous": false,
      "inputs": [
        {
          "indexed": true,
          "internalType": "address",
          "name": "previousOwner",
          "type": "address"
        },
        {
          "indexed": true,
          "internalType": "address",
          "name": "newOwner",
          "type": "address"
        }
      ],
      "name": "OwnershipTransferred",
      "type": "event"
    },
    {
      "anonymous": false,
      "inputs": [
        {
          "indexed": false,
          "internalType": "uint256",
          "name": "tokenId",
          "type": "uint256"
        },
        {
          "indexed": false,
          "internalType": "address",
          "name": "seller",
          "type": "address"
        },
        {
          "indexed": false,
          "internalType": "uint256",
          "name": "price",
          "type": "uint256"
        }
      ],
      "name": "SpecialMomentListed",
      "type": "event"
    },
    {
      "anonymous": false,
      "inputs": [
        {
          "indexed": false,
          "internalType": "uint256",
          "name": "tokenId",
          "type": "uint256"
        },
        {
          "indexed": false,
          "internalType": "address",
          "name": "seller",
          "type": "address"
        }
      ],
      "name": "SpecialMomentListingCancelled",
      "type": "event"
    },
    {
      "anonymous": false,
      "inputs": [
        {
          "indexed": false,
          "internalType": "uint256",
          "name": "tokenId",
          "type": "uint256"
        },
        {
          "indexed": false,
          "internalType": "address",
          "name": "seller",
          "type": "address"
        },
        {
          "indexed": false,
          "internalType": "uint256",
          "name": "oldPrice",
          "type": "uint256"
        },
        {
          "indexed": false,
          "internalType": "uint256",
          "name": "newPrice",
          "type": "uint256"
        }
      ],
      "name": "SpecialMomentListingUpdated",
      "type": "event"
    },
    {
      "anonymous": false,
      "inputs": [
        {
          "indexed": false,
          "internalType": "uint256",
          "name": "tokenId",
          "type": "uint256"
        },
        {
          "indexed": false,
          "internalType": "address",
          "name": "seller",
          "type": "address"
        },
        {
          "indexed": false,
          "internalType": "address",
          "name": "buyer",
          "type": "address"
        },
        {
          "indexed": false,
          "internalType": "uint256",
          "name": "price",
          "type": "uint256"
        }
      ],
      "name": "SpecialMomentSold",
      "type": "event"
    },
    {
      "anonymous": false,
      "inputs": [
        {
          "indexed": false,
          "internalType": "uint256",
          "name": "tokenId",
          "type": "uint256"
        },
        {
          "indexed": false,
          "internalType": "address",
          "name": "seller",
          "type": "address"
        },
        {
          "indexed": false,
          "internalType": "uint256",
          "name": "price",
          "type": "uint256"
        },
        {
          "indexed": false,
          "internalType": "uint64",
          "name": "eventId",
          "type": "uint64"
        },
        {
          "indexed": false,
          "internalType": "uint64",
          "name": "categoryId",
          "type": "uint64"
        },
        {
          "indexed": false,
          "internalType": "uint128",
          "name": "seatId",
          "type": "uint128"
        }
      ],
      "name": "TicketListed",
      "type": "event"
    },
    {
      "anonymous": false,
      "inputs": [
        {
          "indexed": false,
          "internalType": "uint256",
          "name": "tokenId",
          "type": "uint256"
        },
        {
          "indexed": false,
          "internalType": "address",
          "name": "seller",
          "type": "address"
        }
      ],
      "name": "TicketListingCancelled",
      "type": "event"
    },
    {
      "anonymous": false,
      "inputs": [
        {
          "indexed": false,
          "internalType": "uint256",
          "name": "tokenId",
          "type": "uint256"
        },
        {
          "indexed": false,
          "internalType": "address",
          "name": "seller",
          "type": "address"
        },
        {
          "indexed": false,
          "internalType": "uint256",
          "name": "oldPrice",
          "type": "uint256"
        },
        {
          "indexed": false,
          "internalType": "uint256",
          "name": "newPrice",
          "type": "uint256"
        }
      ],
      "name": "TicketListingUpdated",
      "type": "event"
    },
    {
      "anonymous": false,
      "inputs": [
        {
          "indexed": false,
          "internalType": "uint256",
          "name": "tokenId",
          "type": "uint256"
        },
        {
          "indexed": false,
          "internalType": "address",
          "name": "seller",
          "type": "address"
        },
        {
          "indexed": false,
          "internalType": "address",
          "name": "buyer",
          "type": "address"
        },
        {
          "indexed": false,
          "internalType": "uint256",
          "name": "price",
          "type": "uint256"
        }
      ],
      "name": "TicketSold",
      "type": "event"
    },
    {
      "inputs": [
        {
          "internalType": "uint256",
          "name": "tokenId",
          "type": "uint256"
        }
      ],
      "name": "buySpecialMoment",
      "outputs": [],
      "stateMutability": "nonpayable",
      "type": "function"
    },
    {
      "inputs": [
        {
          "internalType": "uint256",
          "name": "tokenId",
          "type": "uint256"
        }
      ],
      "name": "buyTicket",
      "outputs": [],
      "stateMutability": "nonpayable",
      "type": "function"
    },
    {
      "inputs": [
        {
          "internalType": "uint256",
          "name": "tokenId",
          "type": "uint256"
        }
      ],
      "name": "cancelSpecialMomentListing",
      "outputs": [],
      "stateMutability": "nonpayable",
      "type": "function"
    },
    {
      "inputs": [
        {
          "internalType": "uint256",
          "name": "tokenId",
          "type": "uint256"
        }
      ],
      "name": "cancelTicketListing",
      "outputs": [],
      "stateMutability": "nonpayable",
      "type": "function"
    },
    {
      "inputs": [],
      "name": "debugMode",
      "outputs": [
        {
          "internalType": "bool",
          "name": "",
          "type": "bool"
        }
      ],
      "stateMutability": "view",
      "type": "function"
    },
    {
      "inputs": [],
      "name": "ftContract",
      "outputs": [
        {
          "internalType": "address",
          "name": "",
          "type": "address"
        }
      ],
      "stateMutability": "view",
      "type": "function"
    },
    {
      "inputs": [
        {
          "internalType": "uint256",
          "name": "tokenId",
          "type": "uint256"
        }
      ],
      "name": "getSpecialMomentListing",
      "outputs": [
        {
          "components": [
            {
              "internalType": "uint256",
              "name": "price",
              "type": "uint256"
            },
            {
              "internalType": "address",
              "name": "seller",
              "type": "address"
            }
          ],
          "internalType": "struct SpecialMomentListing",
          "name": "",
          "type": "tuple"
        }
      ],
      "stateMutability": "view",
      "type": "function"
    },
    {
      "inputs": [
        {
          "internalType": "uint256",
          "name": "tokenId",
          "type": "uint256"
        }
      ],
      "name": "getTicketListing",
      "outputs": [
        {
          "components": [
            {
              "internalType": "uint256",
              "name": "price",
              "type": "uint256"
            },
            {
              "internalType": "address",
              "name": "seller",
              "type": "address"
            }
          ],
          "internalType": "struct Listing",
          "name": "",
          "type": "tuple"
        }
      ],
      "stateMutability": "view",
      "type": "function"
    },
    {
      "inputs": [
        {
          "internalType": "uint256",
          "name": "tokenId",
          "type": "uint256"
        },
        {
          "internalType": "uint256",
          "name": "price",
          "type": "uint256"
        }
      ],
      "name": "listSpecialMoment",
      "outputs": [],
      "stateMutability": "nonpayable",
      "type": "function"
    },
    {
      "inputs": [
        {
          "internalType": "uint256",
          "name": "tokenId",
          "type": "uint256"
        },
        {
          "internalType": "uint256",
          "name": "price",
          "type": "uint256"
        }
      ],
      "name": "listTicket",
      "outputs": [],
      "stateMutability": "nonpayable",
      "type": "function"
    },
    {
      "inputs": [],
      "name": "owner",
      "outputs": [
        {
          "internalType": "address",
          "name": "",
          "type": "address"
        }
      ],
      "stateMutability": "view",
      "type": "function"
    },
    {
      "inputs": [],
      "name": "renounceOwnership",
      "outputs": [],
      "stateMutability": "nonpayable",
      "type": "function"
    },
    {
      "inputs": [
        {
          "internalType": "bool",
          "name": "mode",
          "type": "bool"
        }
      ],
      "name": "setDebugMode",
      "outputs": [],
      "stateMutability": "nonpayable",
      "type": "function"
    },
    {
      "inputs": [],
      "name": "specialMomentContract",
      "outputs": [
        {
          "internalType": "address",
          "name": "",
          "type": "address"
        }
      ],
      "stateMutability": "view",
      "type": "function"
    },
    {
      "inputs": [],
      "name": "ticketContract",
      "outputs": [
        {
          "internalType": "address",
          "name": "",
          "type": "address"
        }
      ],
      "stateMutability": "view",
      "type": "function"
    },
    {
      "inputs": [
        {
          "internalType": "address",
          "name": "newOwner",
          "type": "address"
        }
      ],
      "name": "transferOwnership",
      "outputs": [],
      "stateMutability": "nonpayable",
      "type": "function"
    },
    {
      "inputs": [
        {
          "internalType": "uint256",
          "name": "tokenId",
          "type": "uint256"
        },
        {
          "internalType": "uint256",
          "name": "newPrice",
          "type": "uint256"
        }
      ],
      "name": "updateSpecialMomentListing",
      "outputs": [],
      "stateMutability": "nonpayable",
      "type": "function"
    },
    {
      "inputs": [
        {
          "internalType": "uint256",
          "name": "tokenId",
          "type": "uint256"
        },
        {
          "internalType": "uint256",
          "name": "newPrice",
          "type": "uint256"
        }
      ],
      "name": "updateTicketListing",
      "outputs": [],
      "stateMutability": "nonpayable",
      "type": "function"
    }
  ],
  "bytecode": "0x608060405234801561001057600080fd5b50604051615080380380615080833981810160405281019061003291906102c2565b33600073ffffffffffffffffffffffffffffffffffffffff168173ffffffffffffffffffffffffffffffffffffffff16036100a55760006040517f1e4fbdf700000000000000000000000000000000000000000000000000000000815260040161009c9190610324565b60405180910390fd5b6100b48161019a60201b60201c565b5082600160006101000a81548173ffffffffffffffffffffffffffffffffffffffff021916908373ffffffffffffffffffffffffffffffffffffffff16021790555081600260006101000a81548173ffffffffffffffffffffffffffffffffffffffff021916908373ffffffffffffffffffffffffffffffffffffffff16021790555080600360006101000a81548173ffffffffffffffffffffffffffffffffffffffff021916908373ffffffffffffffffffffffffffffffffffffffff16021790555060016000806101000a81548160ff02191690831515021790555050505061033f565b60008060019054906101000a900473ffffffffffffffffffffffffffffffffffffffff16905081600060016101000a81548173ffffffffffffffffffffffffffffffffffffffff021916908373ffffffffffffffffffffffffffffffffffffffff1602179055508173ffffffffffffffffffffffffffffffffffffffff168173ffffffffffffffffffffffffffffffffffffffff167f8be0079c531659141344cd1fd0a4f28419497f9722a3daafe3b4186f6b6457e060405160405180910390a35050565b600080fd5b600073ffffffffffffffffffffffffffffffffffffffff82169050919050565b600061028f82610264565b9050919050565b61029f81610284565b81146102aa57600080fd5b50565b6000815190506102bc81610296565b92915050565b6000806000606084860312156102db576102da61025f565b5b60006102e9868287016102ad565b93505060206102fa868287016102ad565b925050604061030b868287016102ad565b9150509250925092565b61031e81610284565b82525050565b60006020820190506103396000830184610315565b92915050565b614d328061034e6000396000f3fe608060405234801561001057600080fd5b50600436106101165760003560e01c8063866a68a1116100a2578063ab3ba42d11610071578063ab3ba42d146102a5578063d913c144146102c1578063ea4780f5146102dd578063f0fe92a2146102fb578063f2fde38b1461031757610116565b8063866a68a11461020b5780638811e1911461023b5780638da5cb5b1461025757806391e73de61461027557610116565b8063567c34d6116100e9578063567c34d61461018d57806356cc8684146101ab57806358a86e1d146101c757806367dd74ca146101e5578063715018a61461020157610116565b806313c8c3591461011b5780631c9568be146101375780631e4424dc14610155578063305a905a14610171575b600080fd5b61013560048036038101906101309190613ed9565b610333565b005b61013f6107f6565b60405161014c9190613f21565b60405180910390f35b61016f600480360381019061016a9190613f3c565b61080c565b005b61018b60048036038101906101869190613f3c565b610ccf565b005b6101956113a3565b6040516101a29190613fbd565b60405180910390f35b6101c560048036038101906101c09190613ed9565b6113c9565b005b6101cf611e7d565b6040516101dc9190613fbd565b60405180910390f35b6101ff60048036038101906101fa9190613ed9565b611ea3565b005b610209612974565b005b61022560048036038101906102209190613ed9565b612988565b6040516102329190614025565b60405180910390f35b6102556004803603810190610250919061406c565b612a62565b005b61025f612a86565b60405161026c9190613fbd565b60405180910390f35b61028f600480360381019061028a9190613ed9565b612aaf565b60405161029c91906140c8565b60405180910390f35b6102bf60048036038101906102ba9190613f3c565b612b89565b005b6102db60048036038101906102d69190613f3c565b613223565b005b6102e5613720565b6040516102f29190613fbd565b60405180910390f35b61031560048036038101906103109190613ed9565b613746565b005b610331600480360381019061032c919061410f565b613bcf565b005b6040518060400160405280601381526020017f63616e63656c5469636b65744c697374696e670000000000000000000000000081525060008054906101000a900460ff16156103b4577f3b27a17eb6abbf4d7afecee861fef9cb2a747838d77634f6885a162b37c00a6d816040516103ab919061424f565b60405180910390a15b816104496040518060400160405280600e81526020017f7469636b657449734c69737465640000000000000000000000000000000000008152506040518060400160405280601c81526020017f436865636b696e67206966207469636b6574206973206c6973746564000000008152508360405160200161043591906142a6565b604051602081830303815290604052613c55565b600060046000838152602001908152602001600020604051806040016040529081600082015481526020016001820160009054906101000a900473ffffffffffffffffffffffffffffffffffffffff1673ffffffffffffffffffffffffffffffffffffffff1673ffffffffffffffffffffffffffffffffffffffff168152505090506000816000015111610512576040517f08c379a00000000000000000000000000000000000000000000000000000000081526004016105099061430d565b60405180910390fd5b83336105aa6040518060400160405280600d81526020017f69735469636b65744f776e6572000000000000000000000000000000000000008152506040518060400160405280601981526020017f436865636b696e67207469636b6574206f776e65727368697000000000000000815250848460405160200161059692919061432d565b604051602081830303815290604052613c55565b6000600160009054906101000a900473ffffffffffffffffffffffffffffffffffffffff1673ffffffffffffffffffffffffffffffffffffffff1662fdd58e83856040518363ffffffff1660e01b8152600401610608929190614356565b602060405180830381865afa158015610625573d6000803e3d6000fd5b505050506040513d601f19601f820116820180604052508101906106499190614394565b90506000810361068e576040517f08c379a00000000000000000000000000000000000000000000000000000000081526004016106859061440d565b60405180910390fd5b6107246040518060400160405280601381526020017f63616e63656c5469636b65744c697374696e67000000000000000000000000008152506040518060400160405280601081526020017f44656c6574696e67206c697374696e6700000000000000000000000000000000815250893360405160200161071092919061432d565b604051602081830303815290604052613c55565b600460008881526020019081526020016000206000808201600090556001820160006101000a81549073ffffffffffffffffffffffffffffffffffffffff021916905550507f76c5d8a17d0bee8bd0e004133353cd78ede70ac9ace2aa18bf839e748caff290873360405161079a92919061432d565b60405180910390a1505050505060008054906101000a900460ff16156107f2577f3b27a17eb6abbf4d7afecee861fef9cb2a747838d77634f6885a162b37c00a6d816040516107e99190614479565b60405180910390a15b5050565b60008060009054906101000a900460ff16905090565b6040518060400160405280601a81526020017f7570646174655370656369616c4d6f6d656e744c697374696e6700000000000081525060008054906101000a900460ff161561088d577f3b27a17eb6abbf4d7afecee861fef9cb2a747838d77634f6885a162b37c00a6d81604051610884919061424f565b60405180910390a15b826109056040518060400160405280601581526020017f7370656369616c4d6f6d656e7449734c69737465640000000000000000000000815250604051806060016040528060248152602001614c9460249139836040516020016108f191906142a6565b604051602081830303815290604052613c55565b600060056000838152602001908152602001600020604051806040016040529081600082015481526020016001820160009054906101000a900473ffffffffffffffffffffffffffffffffffffffff1673ffffffffffffffffffffffffffffffffffffffff1673ffffffffffffffffffffffffffffffffffffffff1681525050905060008160000151116109ce576040517f08c379a00000000000000000000000000000000000000000000000000000000081526004016109c59061450d565b60405180910390fd5b8433610a496040518060400160405280601481526020017f69735370656369616c4d6f6d656e744f776e6572000000000000000000000000815250604051806060016040528060218152602001614cb8602191398484604051602001610a3592919061432d565b604051602081830303815290604052613c55565b6000600360009054906101000a900473ffffffffffffffffffffffffffffffffffffffff1673ffffffffffffffffffffffffffffffffffffffff1662fdd58e83856040518363ffffffff1660e01b8152600401610aa7929190614356565b602060405180830381865afa158015610ac4573d6000803e3d6000fd5b505050506040513d601f19601f82011682018060405250810190610ae89190614394565b905060008103610b2d576040517f08c379a0000000000000000000000000000000000000000000000000000000008152600401610b249061459f565b60405180910390fd5b60008711610b70576040517f08c379a0000000000000000000000000000000000000000000000000000000008152600401610b679061460b565b60405180910390fd5b610c066040518060400160405280601a81526020017f7570646174655370656369616c4d6f6d656e744c697374696e670000000000008152506040518060400160405280601681526020017f5570646174696e67206c697374696e67207072696365000000000000000000008152508a8a604051602001610bf292919061462b565b604051602081830303815290604052613c55565b6000600560008a815260200190815260200160002060000154905087600560008b8152602001908152602001600020600001819055507f9b5dc4de88e35148569c993ff22b9d9ee6e1554445eb0d994267040077e9c7b58933838b604051610c719493929190614654565b60405180910390a150505050505060008054906101000a900460ff1615610cca577f3b27a17eb6abbf4d7afecee861fef9cb2a747838d77634f6885a162b37c00a6d81604051610cc19190614479565b60405180910390a15b505050565b6040518060400160405280600a81526020017f6c6973745469636b65740000000000000000000000000000000000000000000081525060008054906101000a900460ff1615610d50577f3b27a17eb6abbf4d7afecee861fef9cb2a747838d77634f6885a162b37c00a6d81604051610d47919061424f565b60405180910390a15b8233610dcb6040518060400160405280600f81526020017f7469636b65744e6f744c69737465640000000000000000000000000000000000815250604051806060016040528060248152602001614cd9602491398484604051602001610db792919061432d565b604051602081830303815290604052613c55565b600060046000848152602001908152602001600020604051806040016040529081600082015481526020016001820160009054906101000a900473ffffffffffffffffffffffffffffffffffffffff1673ffffffffffffffffffffffffffffffffffffffff1673ffffffffffffffffffffffffffffffffffffffff16815250509050600081600001511115610e95576040517f08c379a0000000000000000000000000000000000000000000000000000000008152600401610e8c906146e5565b60405180910390fd5b8533610f2d6040518060400160405280600d81526020017f69735469636b65744f776e6572000000000000000000000000000000000000008152506040518060400160405280601981526020017f436865636b696e67207469636b6574206f776e657273686970000000000000008152508484604051602001610f1992919061432d565b604051602081830303815290604052613c55565b6000600160009054906101000a900473ffffffffffffffffffffffffffffffffffffffff1673ffffffffffffffffffffffffffffffffffffffff1662fdd58e83856040518363ffffffff1660e01b8152600401610f8b929190614356565b602060405180830381865afa158015610fa8573d6000803e3d6000fd5b505050506040513d601f19601f82011682018060405250810190610fcc9190614394565b905060008103611011576040517f08c379a00000000000000000000000000000000000000000000000000000000081526004016110089061440d565b60405180910390fd5b6110a76040518060400160405280600a81526020017f6c6973745469636b6574000000000000000000000000000000000000000000008152506040518060400160405280601d81526020017f436865636b696e67206d61726b6574706c61636520617070726f76616c0000008152503330604051602001611093929190614705565b604051602081830303815290604052613c55565b6000600160009054906101000a900473ffffffffffffffffffffffffffffffffffffffff1673ffffffffffffffffffffffffffffffffffffffff1663e985e9c533306040518363ffffffff1660e01b8152600401611106929190614705565b602060405180830381865afa158015611123573d6000803e3d6000fd5b505050506040513d601f19601f820116820180604052508101906111479190614743565b905080611189576040517f08c379a0000000000000000000000000000000000000000000000000000000008152600401611180906147bc565b60405180910390fd5b600089116111cc576040517f08c379a00000000000000000000000000000000000000000000000000000000081526004016111c39061460b565b60405180910390fd5b6112626040518060400160405280600a81526020017f6c6973745469636b6574000000000000000000000000000000000000000000008152506040518060400160405280601081526020017f4372656174696e67206c697374696e67000000000000000000000000000000008152508c8c60405160200161124e92919061462b565b604051602081830303815290604052613c55565b60405180604001604052808a81526020013373ffffffffffffffffffffffffffffffffffffffff16815250600460008c81526020019081526020016000206000820151816000015560208201518160010160006101000a81548173ffffffffffffffffffffffffffffffffffffffff021916908373ffffffffffffffffffffffffffffffffffffffff16021790555090505060008060006113028d613ca9565b9250925092507f4dba92438e7ff7bdf6b894a9324fd8674dfb7d871970069105a3cef3aa52cf9e8d338e8686866040516113419695949392919061482a565b60405180910390a15050505050505050505060008054906101000a900460ff161561139e577f3b27a17eb6abbf4d7afecee861fef9cb2a747838d77634f6885a162b37c00a6d816040516113959190614479565b60405180910390a15b505050565b600360009054906101000a900473ffffffffffffffffffffffffffffffffffffffff1681565b6040518060400160405280601081526020017f6275795370656369616c4d6f6d656e740000000000000000000000000000000081525060008054906101000a900460ff161561144a577f3b27a17eb6abbf4d7afecee861fef9cb2a747838d77634f6885a162b37c00a6d81604051611441919061424f565b60405180910390a15b816114c26040518060400160405280601581526020017f7370656369616c4d6f6d656e7449734c69737465640000000000000000000000815250604051806060016040528060248152602001614c9460249139836040516020016114ae91906142a6565b604051602081830303815290604052613c55565b600060056000838152602001908152602001600020604051806040016040529081600082015481526020016001820160009054906101000a900473ffffffffffffffffffffffffffffffffffffffff1673ffffffffffffffffffffffffffffffffffffffff1673ffffffffffffffffffffffffffffffffffffffff16815250509050600081600001511161158b576040517f08c379a00000000000000000000000000000000000000000000000000000000081526004016115829061450d565b60405180910390fd5b61161f6040518060400160405280601081526020017f6275795370656369616c4d6f6d656e74000000000000000000000000000000008152506040518060400160405280601781526020017f4c6f6164696e67206c697374696e672064657461696c730000000000000000008152508660405160200161160b91906142a6565b604051602081830303815290604052613c55565b600060056000868152602001908152602001600020604051806040016040529081600082015481526020016001820160009054906101000a900473ffffffffffffffffffffffffffffffffffffffff1673ffffffffffffffffffffffffffffffffffffffff1673ffffffffffffffffffffffffffffffffffffffff16815250509050806020015173ffffffffffffffffffffffffffffffffffffffff163373ffffffffffffffffffffffffffffffffffffffff1603611713576040517f08c379a000000000000000000000000000000000000000000000000000000000815260040161170a906148d7565b60405180910390fd5b6117ad6040518060400160405280601081526020017f6275795370656369616c4d6f6d656e74000000000000000000000000000000008152506040518060400160405280601781526020017f436865636b696e67205553444320616c6c6f77616e6365000000000000000000815250338460000151604051602001611799929190614356565b604051602081830303815290604052613c55565b8060000151600260009054906101000a900473ffffffffffffffffffffffffffffffffffffffff1673ffffffffffffffffffffffffffffffffffffffff1663dd62ed3e33306040518363ffffffff1660e01b815260040161180f929190614705565b602060405180830381865afa15801561182c573d6000803e3d6000fd5b505050506040513d601f19601f820116820180604052508101906118509190614394565b1015611891576040517f08c379a000000000000000000000000000000000000000000000000000000000815260040161188890614943565b60405180910390fd5b61192b6040518060400160405280601081526020017f6275795370656369616c4d6f6d656e74000000000000000000000000000000008152506040518060400160405280601581526020017f43616c63756c6174696e6720726f79616c74696573000000000000000000000081525087846000015160405160200161191792919061462b565b604051602081830303815290604052613c55565b600080600360009054906101000a900473ffffffffffffffffffffffffffffffffffffffff1673ffffffffffffffffffffffffffffffffffffffff16632a55205a8885600001516040518363ffffffff1660e01b815260040161198f92919061462b565b6040805180830381865afa1580156119ab573d6000803e3d6000fd5b505050506040513d601f19601f820116820180604052508101906119cf9190614978565b91509150611a696040518060400160405280601081526020017f6275795370656369616c4d6f6d656e74000000000000000000000000000000008152506040518060400160405280601a81526020017f50726f63657373696e6720726f79616c7479207061796d656e740000000000008152508484604051602001611a55929190614356565b604051602081830303815290604052613c55565b600260009054906101000a900473ffffffffffffffffffffffffffffffffffffffff1673ffffffffffffffffffffffffffffffffffffffff166323b872dd3384846040518463ffffffff1660e01b8152600401611ac8939291906149b8565b6020604051808303816000875af1158015611ae7573d6000803e3d6000fd5b505050506040513d601f19601f82011682018060405250810190611b0b9190614743565b50611bb56040518060400160405280601081526020017f6275795370656369616c4d6f6d656e74000000000000000000000000000000008152506040518060400160405280601981526020017f50726f63657373696e672073656c6c6572207061796d656e74000000000000008152508560200151848760000151611b909190614a1e565b604051602001611ba1929190614356565b604051602081830303815290604052613c55565b600260009054906101000a900473ffffffffffffffffffffffffffffffffffffffff1673ffffffffffffffffffffffffffffffffffffffff166323b872dd338560200151848760000151611c099190614a1e565b6040518463ffffffff1660e01b8152600401611c27939291906149b8565b6020604051808303816000875af1158015611c46573d6000803e3d6000fd5b505050506040513d601f19601f82011682018060405250810190611c6a9190614743565b50611d076040518060400160405280601081526020017f6275795370656369616c4d6f6d656e74000000000000000000000000000000008152506040518060400160405280601081526020017f5472616e7366657272696e67204e4654000000000000000000000000000000008152508560200151338b604051602001611cf3939291906149b8565b604051602081830303815290604052613c55565b600360009054906101000a900473ffffffffffffffffffffffffffffffffffffffff1673ffffffffffffffffffffffffffffffffffffffff1663f242432a8460200151338a60016040518563ffffffff1660e01b8152600401611d6d9493929190614a97565b600060405180830381600087803b158015611d8757600080fd5b505af1158015611d9b573d6000803e3d6000fd5b50505050600560008881526020019081526020016000206000808201600090556001820160006101000a81549073ffffffffffffffffffffffffffffffffffffffff021916905550507f4de425f5bbbe8733d4a4b25b2c4020a9c1553487fe8b58cff733245db6a645bc878460200151338660000151604051611e219493929190614aef565b60405180910390a1505050505060008054906101000a900460ff1615611e79577f3b27a17eb6abbf4d7afecee861fef9cb2a747838d77634f6885a162b37c00a6d81604051611e709190614479565b60405180910390a15b5050565b600160009054906101000a900473ffffffffffffffffffffffffffffffffffffffff1681565b6040518060400160405280600981526020017f6275795469636b6574000000000000000000000000000000000000000000000081525060008054906101000a900460ff1615611f24577f3b27a17eb6abbf4d7afecee861fef9cb2a747838d77634f6885a162b37c00a6d81604051611f1b919061424f565b60405180910390a15b81611fb96040518060400160405280600e81526020017f7469636b657449734c69737465640000000000000000000000000000000000008152506040518060400160405280601c81526020017f436865636b696e67206966207469636b6574206973206c69737465640000000081525083604051602001611fa591906142a6565b604051602081830303815290604052613c55565b600060046000838152602001908152602001600020604051806040016040529081600082015481526020016001820160009054906101000a900473ffffffffffffffffffffffffffffffffffffffff1673ffffffffffffffffffffffffffffffffffffffff1673ffffffffffffffffffffffffffffffffffffffff168152505090506000816000015111612082576040517f08c379a00000000000000000000000000000000000000000000000000000000081526004016120799061430d565b60405180910390fd5b6121166040518060400160405280600981526020017f6275795469636b657400000000000000000000000000000000000000000000008152506040518060400160405280601781526020017f4c6f6164696e67206c697374696e672064657461696c730000000000000000008152508660405160200161210291906142a6565b604051602081830303815290604052613c55565b600060046000868152602001908152602001600020604051806040016040529081600082015481526020016001820160009054906101000a900473ffffffffffffffffffffffffffffffffffffffff1673ffffffffffffffffffffffffffffffffffffffff1673ffffffffffffffffffffffffffffffffffffffff16815250509050806020015173ffffffffffffffffffffffffffffffffffffffff163373ffffffffffffffffffffffffffffffffffffffff160361220a576040517f08c379a0000000000000000000000000000000000000000000000000000000008152600401612201906148d7565b60405180910390fd5b6122a46040518060400160405280600981526020017f6275795469636b657400000000000000000000000000000000000000000000008152506040518060400160405280601781526020017f436865636b696e67205553444320616c6c6f77616e6365000000000000000000815250338460000151604051602001612290929190614356565b604051602081830303815290604052613c55565b8060000151600260009054906101000a900473ffffffffffffffffffffffffffffffffffffffff1673ffffffffffffffffffffffffffffffffffffffff1663dd62ed3e33306040518363ffffffff1660e01b8152600401612306929190614705565b602060405180830381865afa158015612323573d6000803e3d6000fd5b505050506040513d601f19601f820116820180604052508101906123479190614394565b1015612388576040517f08c379a000000000000000000000000000000000000000000000000000000000815260040161237f90614943565b60405180910390fd5b6124226040518060400160405280600981526020017f6275795469636b657400000000000000000000000000000000000000000000008152506040518060400160405280601581526020017f43616c63756c6174696e6720726f79616c74696573000000000000000000000081525087846000015160405160200161240e92919061462b565b604051602081830303815290604052613c55565b600080600160009054906101000a900473ffffffffffffffffffffffffffffffffffffffff1673ffffffffffffffffffffffffffffffffffffffff16632a55205a8885600001516040518363ffffffff1660e01b815260040161248692919061462b565b6040805180830381865afa1580156124a2573d6000803e3d6000fd5b505050506040513d601f19601f820116820180604052508101906124c69190614978565b915091506125606040518060400160405280600981526020017f6275795469636b657400000000000000000000000000000000000000000000008152506040518060400160405280601a81526020017f50726f63657373696e6720726f79616c7479207061796d656e74000000000000815250848460405160200161254c929190614356565b604051602081830303815290604052613c55565b600260009054906101000a900473ffffffffffffffffffffffffffffffffffffffff1673ffffffffffffffffffffffffffffffffffffffff166323b872dd3384846040518463ffffffff1660e01b81526004016125bf939291906149b8565b6020604051808303816000875af11580156125de573d6000803e3d6000fd5b505050506040513d601f19601f820116820180604052508101906126029190614743565b506126ac6040518060400160405280600981526020017f6275795469636b657400000000000000000000000000000000000000000000008152506040518060400160405280601981526020017f50726f63657373696e672073656c6c6572207061796d656e740000000000000081525085602001518487600001516126879190614a1e565b604051602001612698929190614356565b604051602081830303815290604052613c55565b600260009054906101000a900473ffffffffffffffffffffffffffffffffffffffff1673ffffffffffffffffffffffffffffffffffffffff166323b872dd3385602001518487600001516127009190614a1e565b6040518463ffffffff1660e01b815260040161271e939291906149b8565b6020604051808303816000875af115801561273d573d6000803e3d6000fd5b505050506040513d601f19601f820116820180604052508101906127619190614743565b506127fe6040518060400160405280600981526020017f6275795469636b657400000000000000000000000000000000000000000000008152506040518060400160405280601081526020017f5472616e7366657272696e67204e4654000000000000000000000000000000008152508560200151338b6040516020016127ea939291906149b8565b604051602081830303815290604052613c55565b600160009054906101000a900473ffffffffffffffffffffffffffffffffffffffff1673ffffffffffffffffffffffffffffffffffffffff1663f242432a8460200151338a60016040518563ffffffff1660e01b81526004016128649493929190614a97565b600060405180830381600087803b15801561287e57600080fd5b505af1158015612892573d6000803e3d6000fd5b50505050600460008881526020019081526020016000206000808201600090556001820160006101000a81549073ffffffffffffffffffffffffffffffffffffffff021916905550507f2bbc64d6afd28a753f6c5e4aaa894f1d684c44a0e080167eae104ac8505cfebd8784602001513386600001516040516129189493929190614aef565b60405180910390a1505050505060008054906101000a900460ff1615612970577f3b27a17eb6abbf4d7afecee861fef9cb2a747838d77634f6885a162b37c00a6d816040516129679190614479565b60405180910390a15b5050565b61297c613cea565b6129866000613d71565b565b612990613e3e565b600060056000848152602001908152602001600020604051806040016040529081600082015481526020016001820160009054906101000a900473ffffffffffffffffffffffffffffffffffffffff1673ffffffffffffffffffffffffffffffffffffffff1673ffffffffffffffffffffffffffffffffffffffff168152505090506000816000015111612a59576040517f08c379a0000000000000000000000000000000000000000000000000000000008152600401612a509061450d565b60405180910390fd5b80915050919050565b612a6a613cea565b806000806101000a81548160ff02191690831515021790555050565b60008060019054906101000a900473ffffffffffffffffffffffffffffffffffffffff16905090565b612ab7613e6e565b600060046000848152602001908152602001600020604051806040016040529081600082015481526020016001820160009054906101000a900473ffffffffffffffffffffffffffffffffffffffff1673ffffffffffffffffffffffffffffffffffffffff1673ffffffffffffffffffffffffffffffffffffffff168152505090506000816000015111612b80576040517f08c379a0000000000000000000000000000000000000000000000000000000008152600401612b779061430d565b60405180910390fd5b80915050919050565b6040518060400160405280601181526020017f6c6973745370656369616c4d6f6d656e7400000000000000000000000000000081525060008054906101000a900460ff1615612c0a577f3b27a17eb6abbf4d7afecee861fef9cb2a747838d77634f6885a162b37c00a6d81604051612c01919061424f565b60405180910390a15b8233612c856040518060400160405280601681526020017f7370656369616c4d6f6d656e744e6f744c6973746564000000000000000000008152506040518060600160405280602c8152602001614c68602c91398484604051602001612c7192919061432d565b604051602081830303815290604052613c55565b600060056000848152602001908152602001600020604051806040016040529081600082015481526020016001820160009054906101000a900473ffffffffffffffffffffffffffffffffffffffff1673ffffffffffffffffffffffffffffffffffffffff1673ffffffffffffffffffffffffffffffffffffffff16815250509050600081600001511115612d4f576040517f08c379a0000000000000000000000000000000000000000000000000000000008152600401612d4690614b80565b60405180910390fd5b8533612dca6040518060400160405280601481526020017f69735370656369616c4d6f6d656e744f776e6572000000000000000000000000815250604051806060016040528060218152602001614cb8602191398484604051602001612db692919061432d565b604051602081830303815290604052613c55565b6000600360009054906101000a900473ffffffffffffffffffffffffffffffffffffffff1673ffffffffffffffffffffffffffffffffffffffff1662fdd58e83856040518363ffffffff1660e01b8152600401612e28929190614356565b602060405180830381865afa158015612e45573d6000803e3d6000fd5b505050506040513d601f19601f82011682018060405250810190612e699190614394565b905060008103612eae576040517f08c379a0000000000000000000000000000000000000000000000000000000008152600401612ea59061459f565b60405180910390fd5b612f446040518060400160405280601181526020017f6c6973745370656369616c4d6f6d656e740000000000000000000000000000008152506040518060400160405280601d81526020017f436865636b696e67206d61726b6574706c61636520617070726f76616c0000008152503330604051602001612f30929190614705565b604051602081830303815290604052613c55565b6000600360009054906101000a900473ffffffffffffffffffffffffffffffffffffffff1673ffffffffffffffffffffffffffffffffffffffff1663e985e9c533306040518363ffffffff1660e01b8152600401612fa3929190614705565b602060405180830381865afa158015612fc0573d6000803e3d6000fd5b505050506040513d601f19601f82011682018060405250810190612fe49190614743565b905080613026576040517f08c379a000000000000000000000000000000000000000000000000000000000815260040161301d906147bc565b60405180910390fd5b60008911613069576040517f08c379a00000000000000000000000000000000000000000000000000000000081526004016130609061460b565b60405180910390fd5b6130ff6040518060400160405280601181526020017f6c6973745370656369616c4d6f6d656e740000000000000000000000000000008152506040518060400160405280601081526020017f4372656174696e67206c697374696e67000000000000000000000000000000008152508c8c6040516020016130eb92919061462b565b604051602081830303815290604052613c55565b60405180604001604052808a81526020013373ffffffffffffffffffffffffffffffffffffffff16815250600560008c81526020019081526020016000206000820151816000015560208201518160010160006101000a81548173ffffffffffffffffffffffffffffffffffffffff021916908373ffffffffffffffffffffffffffffffffffffffff1602179055509050507f2f06e4bbdd57d34e63eaec88aeae4807a2bf3142abfb7ad1ce0e89d1a784b6788a338b6040516131c493929190614ba0565b60405180910390a15050505050505060008054906101000a900460ff161561321e577f3b27a17eb6abbf4d7afecee861fef9cb2a747838d77634f6885a162b37c00a6d816040516132159190614479565b60405180910390a15b505050565b6040518060400160405280601381526020017f7570646174655469636b65744c697374696e670000000000000000000000000081525060008054906101000a900460ff16156132a4577f3b27a17eb6abbf4d7afecee861fef9cb2a747838d77634f6885a162b37c00a6d8160405161329b919061424f565b60405180910390a15b826133396040518060400160405280600e81526020017f7469636b657449734c69737465640000000000000000000000000000000000008152506040518060400160405280601c81526020017f436865636b696e67206966207469636b6574206973206c6973746564000000008152508360405160200161332591906142a6565b604051602081830303815290604052613c55565b600060046000838152602001908152602001600020604051806040016040529081600082015481526020016001820160009054906101000a900473ffffffffffffffffffffffffffffffffffffffff1673ffffffffffffffffffffffffffffffffffffffff1673ffffffffffffffffffffffffffffffffffffffff168152505090506000816000015111613402576040517f08c379a00000000000000000000000000000000000000000000000000000000081526004016133f99061430d565b60405180910390fd5b843361349a6040518060400160405280600d81526020017f69735469636b65744f776e6572000000000000000000000000000000000000008152506040518060400160405280601981526020017f436865636b696e67207469636b6574206f776e65727368697000000000000000815250848460405160200161348692919061432d565b604051602081830303815290604052613c55565b6000600160009054906101000a900473ffffffffffffffffffffffffffffffffffffffff1673ffffffffffffffffffffffffffffffffffffffff1662fdd58e83856040518363ffffffff1660e01b81526004016134f8929190614356565b602060405180830381865afa158015613515573d6000803e3d6000fd5b505050506040513d601f19601f820116820180604052508101906135399190614394565b90506000810361357e576040517f08c379a00000000000000000000000000000000000000000000000000000000081526004016135759061440d565b60405180910390fd5b600087116135c1576040517f08c379a00000000000000000000000000000000000000000000000000000000081526004016135b89061460b565b60405180910390fd5b6136576040518060400160405280601381526020017f7570646174655469636b65744c697374696e67000000000000000000000000008152506040518060400160405280601681526020017f5570646174696e67206c697374696e67207072696365000000000000000000008152508a8a60405160200161364392919061462b565b604051602081830303815290604052613c55565b6000600460008a815260200190815260200160002060000154905087600460008b8152602001908152602001600020600001819055507fd5ab325ab11120e54b70c4a26b24f1d30969eb9ce335a78fb7ea2df8950b5d9e8933838b6040516136c29493929190614654565b60405180910390a150505050505060008054906101000a900460ff161561371b577f3b27a17eb6abbf4d7afecee861fef9cb2a747838d77634f6885a162b37c00a6d816040516137129190614479565b60405180910390a15b505050565b600260009054906101000a900473ffffffffffffffffffffffffffffffffffffffff1681565b6040518060400160405280601a81526020017f63616e63656c5370656369616c4d6f6d656e744c697374696e6700000000000081525060008054906101000a900460ff16156137c7577f3b27a17eb6abbf4d7afecee861fef9cb2a747838d77634f6885a162b37c00a6d816040516137be919061424f565b60405180910390a15b8161383f6040518060400160405280601581526020017f7370656369616c4d6f6d656e7449734c69737465640000000000000000000000815250604051806060016040528060248152602001614c94602491398360405160200161382b91906142a6565b604051602081830303815290604052613c55565b600060056000838152602001908152602001600020604051806040016040529081600082015481526020016001820160009054906101000a900473ffffffffffffffffffffffffffffffffffffffff1673ffffffffffffffffffffffffffffffffffffffff1673ffffffffffffffffffffffffffffffffffffffff168152505090506000816000015111613908576040517f08c379a00000000000000000000000000000000000000000000000000000000081526004016138ff9061450d565b60405180910390fd5b83336139836040518060400160405280601481526020017f69735370656369616c4d6f6d656e744f776e6572000000000000000000000000815250604051806060016040528060218152602001614cb860219139848460405160200161396f92919061432d565b604051602081830303815290604052613c55565b6000600360009054906101000a900473ffffffffffffffffffffffffffffffffffffffff1673ffffffffffffffffffffffffffffffffffffffff1662fdd58e83856040518363ffffffff1660e01b81526004016139e1929190614356565b602060405180830381865afa1580156139fe573d6000803e3d6000fd5b505050506040513d601f19601f82011682018060405250810190613a229190614394565b905060008103613a67576040517f08c379a0000000000000000000000000000000000000000000000000000000008152600401613a5e9061459f565b60405180910390fd5b613afd6040518060400160405280601a81526020017f63616e63656c5370656369616c4d6f6d656e744c697374696e670000000000008152506040518060400160405280601081526020017f44656c6574696e67206c697374696e67000000000000000000000000000000008152508933604051602001613ae992919061432d565b604051602081830303815290604052613c55565b600560008881526020019081526020016000206000808201600090556001820160006101000a81549073ffffffffffffffffffffffffffffffffffffffff021916905550507faed45759cd6cb40ea8fd2785e9cfc565d4f4ca17a3565154ce4e09b5932fd2e08733604051613b7392919061432d565b60405180910390a1505050505060008054906101000a900460ff1615613bcb577f3b27a17eb6abbf4d7afecee861fef9cb2a747838d77634f6885a162b37c00a6d81604051613bc29190614479565b60405180910390a15b5050565b613bd7613cea565b600073ffffffffffffffffffffffffffffffffffffffff168173ffffffffffffffffffffffffffffffffffffffff1603613c495760006040517f1e4fbdf7000000000000000000000000000000000000000000000000000000008152600401613c409190613fbd565b60405180910390fd5b613c5281613d71565b50565b60008054906101000a900460ff1615613ca4577f3b27a17eb6abbf4d7afecee861fef9cb2a747838d77634f6885a162b37c00a6d838383604051613c9b93929190614c1b565b60405180910390a15b505050565b600080600060c084901c925060001967ffffffffffffffff16608085901c1691506000196fffffffffffffffffffffffffffffffff16841690509193909250565b613cf2613e36565b73ffffffffffffffffffffffffffffffffffffffff16613d10612a86565b73ffffffffffffffffffffffffffffffffffffffff1614613d6f57613d33613e36565b6040517f118cdaa7000000000000000000000000000000000000000000000000000000008152600401613d669190613fbd565b60405180910390fd5b565b60008060019054906101000a900473ffffffffffffffffffffffffffffffffffffffff16905081600060016101000a81548173ffffffffffffffffffffffffffffffffffffffff021916908373ffffffffffffffffffffffffffffffffffffffff1602179055508173ffffffffffffffffffffffffffffffffffffffff168173ffffffffffffffffffffffffffffffffffffffff167f8be0079c531659141344cd1fd0a4f28419497f9722a3daafe3b4186f6b6457e060405160405180910390a35050565b600033905090565b604051806040016040528060008152602001600073ffffffffffffffffffffffffffffffffffffffff1681525090565b604051806040016040528060008152602001600073ffffffffffffffffffffffffffffffffffffffff1681525090565b600080fd5b6000819050919050565b613eb681613ea3565b8114613ec157600080fd5b50565b600081359050613ed381613ead565b92915050565b600060208284031215613eef57613eee613e9e565b5b6000613efd84828501613ec4565b91505092915050565b60008115159050919050565b613f1b81613f06565b82525050565b6000602082019050613f366000830184613f12565b92915050565b60008060408385031215613f5357613f52613e9e565b5b6000613f6185828601613ec4565b9250506020613f7285828601613ec4565b9150509250929050565b600073ffffffffffffffffffffffffffffffffffffffff82169050919050565b6000613fa782613f7c565b9050919050565b613fb781613f9c565b82525050565b6000602082019050613fd26000830184613fae565b92915050565b613fe181613ea3565b82525050565b613ff081613f9c565b82525050565b60408201600082015161400c6000850182613fd8565b50602082015161401f6020850182613fe7565b50505050565b600060408201905061403a6000830184613ff6565b92915050565b61404981613f06565b811461405457600080fd5b50565b60008135905061406681614040565b92915050565b60006020828403121561408257614081613e9e565b5b600061409084828501614057565b91505092915050565b6040820160008201516140af6000850182613fd8565b5060208201516140c26020850182613fe7565b50505050565b60006040820190506140dd6000830184614099565b92915050565b6140ec81613f9c565b81146140f757600080fd5b50565b600081359050614109816140e3565b92915050565b60006020828403121561412557614124613e9e565b5b6000614133848285016140fa565b91505092915050565b600081519050919050565b600082825260208201905092915050565b60005b8381101561417657808201518184015260208101905061415b565b60008484015250505050565b6000601f19601f8301169050919050565b600061419e8261413c565b6141a88185614147565b93506141b8818560208601614158565b6141c181614182565b840191505092915050565b7f4d6574686f6420656e7472790000000000000000000000000000000000000000600082015250565b6000614202600c83614147565b915061420d826141cc565b602082019050919050565b600082825260208201905092915050565b50565b6000614239600083614218565b915061424482614229565b600082019050919050565b600060608201905081810360008301526142698184614193565b9050818103602083015261427c816141f5565b9050818103604083015261428f8161422c565b905092915050565b6142a081613ea3565b82525050565b60006020820190506142bb6000830184614297565b92915050565b7f5469636b6574206e6f74206c6973746564000000000000000000000000000000600082015250565b60006142f7601183614147565b9150614302826142c1565b602082019050919050565b60006020820190508181036000830152614326816142ea565b9050919050565b60006040820190506143426000830185614297565b61434f6020830184613fae565b9392505050565b600060408201905061436b6000830185613fae565b6143786020830184614297565b9392505050565b60008151905061438e81613ead565b92915050565b6000602082840312156143aa576143a9613e9e565b5b60006143b88482850161437f565b91505092915050565b7f5469636b6574206e6f74206f776e65642062792063616c6c6572000000000000600082015250565b60006143f7601a83614147565b9150614402826143c1565b602082019050919050565b60006020820190508181036000830152614426816143ea565b9050919050565b7f4d6574686f642065786974000000000000000000000000000000000000000000600082015250565b6000614463600b83614147565b915061446e8261442d565b602082019050919050565b600060608201905081810360008301526144938184614193565b905081810360208301526144a681614456565b905081810360408301526144b98161422c565b905092915050565b7f5370656369616c206d6f6d656e74206e6f74206c697374656400000000000000600082015250565b60006144f7601983614147565b9150614502826144c1565b602082019050919050565b60006020820190508181036000830152614526816144ea565b9050919050565b7f5370656369616c206d6f6d656e74206e6f74206f776e65642062792063616c6c60008201527f6572000000000000000000000000000000000000000000000000000000000000602082015250565b6000614589602283614147565b91506145948261452d565b604082019050919050565b600060208201905081810360008301526145b88161457c565b9050919050565b7f5072696365206d7573742062652067726561746572207468616e207a65726f00600082015250565b60006145f5601f83614147565b9150614600826145bf565b602082019050919050565b60006020820190508181036000830152614624816145e8565b9050919050565b60006040820190506146406000830185614297565b61464d6020830184614297565b9392505050565b60006080820190506146696000830187614297565b6146766020830186613fae565b6146836040830185614297565b6146906060830184614297565b95945050505050565b7f5469636b657420616c7265616479206c69737465640000000000000000000000600082015250565b60006146cf601583614147565b91506146da82614699565b602082019050919050565b600060208201905081810360008301526146fe816146c2565b9050919050565b600060408201905061471a6000830185613fae565b6147276020830184613fae565b9392505050565b60008151905061473d81614040565b92915050565b60006020828403121561475957614758613e9e565b5b60006147678482850161472e565b91505092915050565b7f4d61726b6574706c616365206973206e6f7420617070726f7665640000000000600082015250565b60006147a6601b83614147565b91506147b182614770565b602082019050919050565b600060208201905081810360008301526147d581614799565b9050919050565b600067ffffffffffffffff82169050919050565b6147f9816147dc565b82525050565b60006fffffffffffffffffffffffffffffffff82169050919050565b614824816147ff565b82525050565b600060c08201905061483f6000830189614297565b61484c6020830188613fae565b6148596040830187614297565b61486660608301866147f0565b61487360808301856147f0565b61488060a083018461481b565b979650505050505050565b7f43616e6e6f742062757920796f7572206f776e206c697374696e670000000000600082015250565b60006148c1601b83614147565b91506148cc8261488b565b602082019050919050565b600060208201905081810360008301526148f0816148b4565b9050919050565b7f496e73756666696369656e74205553444320616c6c6f77616e63650000000000600082015250565b600061492d601b83614147565b9150614938826148f7565b602082019050919050565b6000602082019050818103600083015261495c81614920565b9050919050565b600081519050614972816140e3565b92915050565b6000806040838503121561498f5761498e613e9e565b5b600061499d85828601614963565b92505060206149ae8582860161437f565b9150509250929050565b60006060820190506149cd6000830186613fae565b6149da6020830185613fae565b6149e76040830184614297565b949350505050565b7f4e487b7100000000000000000000000000000000000000000000000000000000600052601160045260246000fd5b6000614a2982613ea3565b9150614a3483613ea3565b9250828203905081811115614a4c57614a4b6149ef565b5b92915050565b6000819050919050565b6000819050919050565b6000614a81614a7c614a7784614a52565b614a5c565b613ea3565b9050919050565b614a9181614a66565b82525050565b600060a082019050614aac6000830187613fae565b614ab96020830186613fae565b614ac66040830185614297565b614ad36060830184614a88565b8181036080830152614ae48161422c565b905095945050505050565b6000608082019050614b046000830187614297565b614b116020830186613fae565b614b1e6040830185613fae565b614b2b6060830184614297565b95945050505050565b7f5370656369616c206d6f6d656e7420616c7265616479206c6973746564000000600082015250565b6000614b6a601d83614147565b9150614b7582614b34565b602082019050919050565b60006020820190508181036000830152614b9981614b5d565b9050919050565b6000606082019050614bb56000830186614297565b614bc26020830185613fae565b614bcf6040830184614297565b949350505050565b600081519050919050565b6000614bed82614bd7565b614bf78185614218565b9350614c07818560208601614158565b614c1081614182565b840191505092915050565b60006060820190508181036000830152614c358186614193565b90508181036020830152614c498185614193565b90508181036040830152614c5d8184614be2565b905094935050505056fe436865636b696e67206966207370656369616c206d6f6d656e7420697320616c7265616479206c6973746564436865636b696e67206966207370656369616c206d6f6d656e74206973206c6973746564436865636b696e67207370656369616c206d6f6d656e74206f776e657273686970436865636b696e67206966207469636b657420697320616c7265616479206c6973746564a2646970667358221220f7627d9128585f7458745a3b75ae2ad4f56c8fdbaf3797a17881e84171b7d9c064736f6c634300081b0033",
  "linkReferences": {},
  "deployedLinkReferences": {}
}