{
  "_format": "hh-sol-artifact-1",
  "contractName": "EventRegistry",
  "sourceName": "contracts/modules/EventRegistry/EventRegistry.sol",
  "abi": [
    {
      "inputs": [
        {
          "internalType": "address",
          "name": "_ticketContract",
          "type": "address"
        },
        {
          "internalType": "address",
          "name": "_ftContract",
          "type": "address"
        },
        {
          "internalType": "address",
          "name": "_specialMomentContract",
          "type": "address"
        }
      ],
      "stateMutability": "nonpayable",
      "type": "constructor"
    },
    {
      "inputs": [
        {
          "internalType": "address",
          "name": "owner",
          "type": "address"
        }
      ],
      "name": "OwnableInvalidOwner",
      "type": "error"
    },
    {
      "inputs": [
        {
          "internalType": "address",
          "name": "account",
          "type": "address"
        }
      ],
      "name": "OwnableUnauthorizedAccount",
      "type": "error"
    },
    {
      "anonymous": false,
      "inputs": [
        {
          "components": [
            {
              "internalType": "uint64",
              "name": "id",
              "type": "uint64"
            },
            {
              "internalType": "string",
              "name": "title",
              "type": "string"
            },
            {
              "internalType": "string",
              "name": "description",
              "type": "string"
            },
            {
              "internalType": "address",
              "name": "owner",
              "type": "address"
            },
            {
              "internalType": "uint256",
              "name": "startAt",
              "type": "uint256"
            },
            {
              "internalType": "uint256",
              "name": "endAt",
              "type": "uint256"
            },
            {
              "internalType": "uint96",
              "name": "royalty",
              "type": "uint96"
            },
            {
              "internalType": "string",
              "name": "baseUri",
              "type": "string"
            },
            {
              "internalType": "string",
              "name": "eventCategory",
              "type": "string"
            },
            {
              "internalType": "string",
              "name": "eventSubcategory",
              "type": "string"
            },
            {
              "components": [
                {
                  "internalType": "string",
                  "name": "place",
                  "type": "string"
                },
                {
                  "internalType": "string",
                  "name": "venue",
                  "type": "string"
                },
                {
                  "internalType": "string",
                  "name": "city",
                  "type": "string"
                },
                {
                  "internalType": "string",
                  "name": "country",
                  "type": "string"
                }
              ],
              "internalType": "struct EventLocation",
              "name": "location",
              "type": "tuple"
            },
            {
              "components": [
                {
                  "internalType": "uint64",
                  "name": "id",
                  "type": "uint64"
                },
                {
                  "internalType": "string",
                  "name": "name",
                  "type": "string"
                },
                {
                  "internalType": "uint256",
                  "name": "copies",
                  "type": "uint256"
                },
                {
                  "internalType": "uint256",
                  "name": "ticketCount",
                  "type": "uint256"
                },
                {
                  "internalType": "uint256",
                  "name": "price",
                  "type": "uint256"
                }
              ],
              "internalType": "struct TicketCategoryResponse[]",
              "name": "ticketCategories",
              "type": "tuple[]"
            }
          ],
          "indexed": false,
          "internalType": "struct EventResponse",
          "name": "eventResponse",
          "type": "tuple"
        }
      ],
      "name": "EventCreated",
      "type": "event"
    },
    {
      "anonymous": false,
      "inputs": [
        {
          "components": [
            {
              "internalType": "uint256",
              "name": "collectionId",
              "type": "uint256"
            },
            {
              "internalType": "uint64",
              "name": "eventId",
              "type": "uint64"
            },
            {
              "internalType": "string",
              "name": "name",
              "type": "string"
            },
            {
              "internalType": "string",
              "name": "baseUri",
              "type": "string"
            },
            {
              "internalType": "string",
              "name": "description",
              "type": "string"
            },
            {
              "internalType": "uint256",
              "name": "createdAt",
              "type": "uint256"
            },
            {
              "internalType": "uint256[]",
              "name": "tokenIds",
              "type": "uint256[]"
            },
            {
              "internalType": "address[]",
              "name": "owners",
              "type": "address[]"
            }
          ],
          "indexed": false,
          "internalType": "struct MomentCollectionCreatedDto",
          "name": "momentCollection",
          "type": "tuple"
        }
      ],
      "name": "MomentCollectionCreated",
      "type": "event"
    },
    {
      "anonymous": false,
      "inputs": [
        {
          "indexed": true,
          "internalType": "address",
          "name": "previousOwner",
          "type": "address"
        },
        {
          "indexed": true,
          "internalType": "address",
          "name": "newOwner",
          "type": "address"
        }
      ],
      "name": "OwnershipTransferred",
      "type": "event"
    },
    {
      "anonymous": false,
      "inputs": [
        {
          "components": [
            {
              "internalType": "uint256",
              "name": "tokenId",
              "type": "uint256"
            },
            {
              "internalType": "uint64",
              "name": "eventId",
              "type": "uint64"
            },
            {
              "internalType": "uint64",
              "name": "categoryId",
              "type": "uint64"
            },
            {
              "internalType": "uint128",
              "name": "seatId",
              "type": "uint128"
            },
            {
              "internalType": "uint256",
              "name": "createdAt",
              "type": "uint256"
            },
            {
              "internalType": "address",
              "name": "owner",
              "type": "address"
            },
            {
              "internalType": "string",
              "name": "tokenUri",
              "type": "string"
            }
          ],
          "indexed": false,
          "internalType": "struct TicketPurchasedDto",
          "name": "purchase",
          "type": "tuple"
        }
      ],
      "name": "TicketPurchased",
      "type": "event"
    },
    {
      "inputs": [
        {
          "components": [
            {
              "components": [
                {
                  "internalType": "uint64",
                  "name": "eventId",
                  "type": "uint64"
                },
                {
                  "internalType": "uint64",
                  "name": "categoryId",
                  "type": "uint64"
                },
                {
                  "internalType": "uint128",
                  "name": "seatId",
                  "type": "uint128"
                }
              ],
              "internalType": "struct TicketRequest[]",
              "name": "tickets",
              "type": "tuple[]"
            }
          ],
          "internalType": "struct BatchTicketRequest",
          "name": "request",
          "type": "tuple"
        }
      ],
      "name": "batchBuyTicket",
      "outputs": [],
      "stateMutability": "nonpayable",
      "type": "function"
    },
    {
      "inputs": [
        {
          "internalType": "uint64",
          "name": "eventId",
          "type": "uint64"
        },
        {
          "internalType": "uint64",
          "name": "categoryId",
          "type": "uint64"
        },
        {
          "internalType": "uint128",
          "name": "seatId",
          "type": "uint128"
        }
      ],
      "name": "buyTicket",
      "outputs": [],
      "stateMutability": "nonpayable",
      "type": "function"
    },
    {
      "inputs": [
        {
          "components": [
            {
              "internalType": "string",
              "name": "title",
              "type": "string"
            },
            {
              "internalType": "string",
              "name": "description",
              "type": "string"
            },
            {
              "internalType": "uint256",
              "name": "startAt",
              "type": "uint256"
            },
            {
              "internalType": "uint256",
              "name": "endAt",
              "type": "uint256"
            },
            {
              "internalType": "uint96",
              "name": "royalty",
              "type": "uint96"
            },
            {
              "internalType": "string",
              "name": "baseUri",
              "type": "string"
            },
            {
              "internalType": "string",
              "name": "eventCategory",
              "type": "string"
            },
            {
              "internalType": "string",
              "name": "eventSubcategory",
              "type": "string"
            },
            {
              "components": [
                {
                  "internalType": "string",
                  "name": "place",
                  "type": "string"
                },
                {
                  "internalType": "string",
                  "name": "venue",
                  "type": "string"
                },
                {
                  "internalType": "string",
                  "name": "city",
                  "type": "string"
                },
                {
                  "internalType": "string",
                  "name": "country",
                  "type": "string"
                }
              ],
              "internalType": "struct EventLocationDto",
              "name": "location",
              "type": "tuple"
            },
            {
              "components": [
                {
                  "internalType": "string",
                  "name": "name",
                  "type": "string"
                },
                {
                  "internalType": "uint256",
                  "name": "copies",
                  "type": "uint256"
                },
                {
                  "internalType": "uint256",
                  "name": "price",
                  "type": "uint256"
                }
              ],
              "internalType": "struct TicketCategoryDto[]",
              "name": "ticketCategories",
              "type": "tuple[]"
            }
          ],
          "internalType": "struct EventCreationDto",
          "name": "dto",
          "type": "tuple"
        }
      ],
      "name": "createEvent",
      "outputs": [
        {
          "internalType": "uint256",
          "name": "",
          "type": "uint256"
        }
      ],
      "stateMutability": "nonpayable",
      "type": "function"
    },
    {
      "inputs": [
        {
          "components": [
            {
              "internalType": "uint64",
              "name": "eventId",
              "type": "uint64"
            },
            {
              "internalType": "string",
              "name": "name",
              "type": "string"
            },
            {
              "internalType": "string",
              "name": "description",
              "type": "string"
            },
            {
              "internalType": "string",
              "name": "baseUri",
              "type": "string"
            },
            {
              "internalType": "uint256",
              "name": "copies",
              "type": "uint256"
            },
            {
              "internalType": "uint96",
              "name": "royalty",
              "type": "uint96"
            },
            {
              "internalType": "address[]",
              "name": "receivers",
              "type": "address[]"
            }
          ],
          "internalType": "struct CollectionCreationDto",
          "name": "collectionCreationDto",
          "type": "tuple"
        }
      ],
      "name": "createMomentCollection",
      "outputs": [],
      "stateMutability": "nonpayable",
      "type": "function"
    },
    {
      "inputs": [
        {
          "internalType": "uint256",
          "name": "",
          "type": "uint256"
        }
      ],
      "name": "events",
      "outputs": [
        {
          "internalType": "uint64",
          "name": "id",
          "type": "uint64"
        },
        {
          "internalType": "string",
          "name": "title",
          "type": "string"
        },
        {
          "internalType": "string",
          "name": "description",
          "type": "string"
        },
        {
          "internalType": "address",
          "name": "owner",
          "type": "address"
        },
        {
          "internalType": "uint256",
          "name": "startAt",
          "type": "uint256"
        },
        {
          "internalType": "uint256",
          "name": "endAt",
          "type": "uint256"
        },
        {
          "internalType": "uint96",
          "name": "royalty",
          "type": "uint96"
        },
        {
          "internalType": "string",
          "name": "baseUri",
          "type": "string"
        },
        {
          "internalType": "string",
          "name": "eventCategory",
          "type": "string"
        },
        {
          "internalType": "string",
          "name": "eventSubcategory",
          "type": "string"
        },
        {
          "components": [
            {
              "internalType": "string",
              "name": "place",
              "type": "string"
            },
            {
              "internalType": "string",
              "name": "venue",
              "type": "string"
            },
            {
              "internalType": "string",
              "name": "city",
              "type": "string"
            },
            {
              "internalType": "string",
              "name": "country",
              "type": "string"
            }
          ],
          "internalType": "struct EventLocation",
          "name": "location",
          "type": "tuple"
        }
      ],
      "stateMutability": "view",
      "type": "function"
    },
    {
      "inputs": [],
      "name": "ftContract",
      "outputs": [
        {
          "internalType": "address",
          "name": "",
          "type": "address"
        }
      ],
      "stateMutability": "view",
      "type": "function"
    },
    {
      "inputs": [
        {
          "internalType": "uint64",
          "name": "eventId",
          "type": "uint64"
        }
      ],
      "name": "getEventById",
      "outputs": [
        {
          "components": [
            {
              "internalType": "uint64",
              "name": "id",
              "type": "uint64"
            },
            {
              "internalType": "string",
              "name": "title",
              "type": "string"
            },
            {
              "internalType": "string",
              "name": "description",
              "type": "string"
            },
            {
              "internalType": "address",
              "name": "owner",
              "type": "address"
            },
            {
              "internalType": "uint256",
              "name": "startAt",
              "type": "uint256"
            },
            {
              "internalType": "uint256",
              "name": "endAt",
              "type": "uint256"
            },
            {
              "internalType": "uint96",
              "name": "royalty",
              "type": "uint96"
            },
            {
              "internalType": "string",
              "name": "baseUri",
              "type": "string"
            },
            {
              "internalType": "string",
              "name": "eventCategory",
              "type": "string"
            },
            {
              "internalType": "string",
              "name": "eventSubcategory",
              "type": "string"
            },
            {
              "components": [
                {
                  "internalType": "string",
                  "name": "place",
                  "type": "string"
                },
                {
                  "internalType": "string",
                  "name": "venue",
                  "type": "string"
                },
                {
                  "internalType": "string",
                  "name": "city",
                  "type": "string"
                },
                {
                  "internalType": "string",
                  "name": "country",
                  "type": "string"
                }
              ],
              "internalType": "struct EventLocation",
              "name": "location",
              "type": "tuple"
            },
            {
              "components": [
                {
                  "internalType": "uint64",
                  "name": "id",
                  "type": "uint64"
                },
                {
                  "internalType": "string",
                  "name": "name",
                  "type": "string"
                },
                {
                  "internalType": "uint256",
                  "name": "copies",
                  "type": "uint256"
                },
                {
                  "internalType": "uint256",
                  "name": "ticketCount",
                  "type": "uint256"
                },
                {
                  "internalType": "uint256",
                  "name": "price",
                  "type": "uint256"
                }
              ],
              "internalType": "struct TicketCategoryResponse[]",
              "name": "ticketCategories",
              "type": "tuple[]"
            }
          ],
          "internalType": "struct EventResponse",
          "name": "",
          "type": "tuple"
        }
      ],
      "stateMutability": "view",
      "type": "function"
    },
    {
      "inputs": [
        {
          "internalType": "address",
          "name": "_owner",
          "type": "address"
        }
      ],
      "name": "getEventsByOwner",
      "outputs": [
        {
          "components": [
            {
              "internalType": "uint64",
              "name": "id",
              "type": "uint64"
            },
            {
              "internalType": "string",
              "name": "title",
              "type": "string"
            },
            {
              "internalType": "string",
              "name": "description",
              "type": "string"
            },
            {
              "internalType": "address",
              "name": "owner",
              "type": "address"
            },
            {
              "internalType": "uint256",
              "name": "startAt",
              "type": "uint256"
            },
            {
              "internalType": "uint256",
              "name": "endAt",
              "type": "uint256"
            },
            {
              "internalType": "uint96",
              "name": "royalty",
              "type": "uint96"
            },
            {
              "internalType": "string",
              "name": "baseUri",
              "type": "string"
            },
            {
              "internalType": "string",
              "name": "eventCategory",
              "type": "string"
            },
            {
              "internalType": "string",
              "name": "eventSubcategory",
              "type": "string"
            },
            {
              "components": [
                {
                  "internalType": "string",
                  "name": "place",
                  "type": "string"
                },
                {
                  "internalType": "string",
                  "name": "venue",
                  "type": "string"
                },
                {
                  "internalType": "string",
                  "name": "city",
                  "type": "string"
                },
                {
                  "internalType": "string",
                  "name": "country",
                  "type": "string"
                }
              ],
              "internalType": "struct EventLocation",
              "name": "location",
              "type": "tuple"
            },
            {
              "components": [
                {
                  "internalType": "uint64",
                  "name": "id",
                  "type": "uint64"
                },
                {
                  "internalType": "string",
                  "name": "name",
                  "type": "string"
                },
                {
                  "internalType": "uint256",
                  "name": "copies",
                  "type": "uint256"
                },
                {
                  "internalType": "uint256",
                  "name": "ticketCount",
                  "type": "uint256"
                },
                {
                  "internalType": "uint256",
                  "name": "price",
                  "type": "uint256"
                }
              ],
              "internalType": "struct TicketCategoryResponse[]",
              "name": "ticketCategories",
              "type": "tuple[]"
            }
          ],
          "internalType": "struct EventResponse[]",
          "name": "",
          "type": "tuple[]"
        }
      ],
      "stateMutability": "view",
      "type": "function"
    },
    {
      "inputs": [
        {
          "internalType": "uint64",
          "name": "",
          "type": "uint64"
        },
        {
          "internalType": "uint256",
          "name": "",
          "type": "uint256"
        }
      ],
      "name": "momentCollectionPerEvent",
      "outputs": [
        {
          "internalType": "uint64",
          "name": "id",
          "type": "uint64"
        },
        {
          "internalType": "string",
          "name": "name",
          "type": "string"
        },
        {
          "internalType": "string",
          "name": "description",
          "type": "string"
        },
        {
          "internalType": "uint256",
          "name": "copies",
          "type": "uint256"
        },
        {
          "internalType": "uint256",
          "name": "royalty",
          "type": "uint256"
        },
        {
          "internalType": "string",
          "name": "baseUri",
          "type": "string"
        }
      ],
      "stateMutability": "view",
      "type": "function"
    },
    {
      "inputs": [],
      "name": "owner",
      "outputs": [
        {
          "internalType": "address",
          "name": "",
          "type": "address"
        }
      ],
      "stateMutability": "view",
      "type": "function"
    },
    {
      "inputs": [
        {
          "internalType": "address",
          "name": "",
          "type": "address"
        },
        {
          "internalType": "uint256",
          "name": "",
          "type": "uint256"
        }
      ],
      "name": "ownerEvents",
      "outputs": [
        {
          "internalType": "uint64",
          "name": "",
          "type": "uint64"
        }
      ],
      "stateMutability": "view",
      "type": "function"
    },
    {
      "inputs": [],
      "name": "renounceOwnership",
      "outputs": [],
      "stateMutability": "nonpayable",
      "type": "function"
    },
    {
      "inputs": [],
      "name": "specialMomentContract",
      "outputs": [
        {
          "internalType": "address",
          "name": "",
          "type": "address"
        }
      ],
      "stateMutability": "view",
      "type": "function"
    },
    {
      "inputs": [
        {
          "internalType": "uint64",
          "name": "",
          "type": "uint64"
        },
        {
          "internalType": "uint256",
          "name": "",
          "type": "uint256"
        }
      ],
      "name": "ticketCategoriesPerEvent",
      "outputs": [
        {
          "internalType": "uint64",
          "name": "id",
          "type": "uint64"
        },
        {
          "internalType": "string",
          "name": "name",
          "type": "string"
        },
        {
          "internalType": "uint256",
          "name": "copies",
          "type": "uint256"
        },
        {
          "internalType": "uint256",
          "name": "ticketCount",
          "type": "uint256"
        },
        {
          "internalType": "uint256",
          "name": "price",
          "type": "uint256"
        }
      ],
      "stateMutability": "view",
      "type": "function"
    },
    {
      "inputs": [],
      "name": "ticketContract",
      "outputs": [
        {
          "internalType": "address",
          "name": "",
          "type": "address"
        }
      ],
      "stateMutability": "view",
      "type": "function"
    },
    {
      "inputs": [
        {
          "internalType": "address",
          "name": "newOwner",
          "type": "address"
        }
      ],
      "name": "transferOwnership",
      "outputs": [],
      "stateMutability": "nonpayable",
      "type": "function"
    },
    {
      "inputs": [
        {
          "internalType": "uint64",
          "name": "eventId",
          "type": "uint64"
        },
        {
          "internalType": "string",
          "name": "_title",
          "type": "string"
        },
        {
          "internalType": "string",
          "name": "_description",
          "type": "string"
        },
        {
          "internalType": "uint256",
          "name": "_startAt",
          "type": "uint256"
        },
        {
          "internalType": "uint256",
          "name": "_endAt",
          "type": "uint256"
        },
        {
          "internalType": "string",
          "name": "_eventCategory",
          "type": "string"
        },
        {
          "internalType": "string",
          "name": "_eventSubcategory",
          "type": "string"
        }
      ],
      "name": "updateEvent",
      "outputs": [],
      "stateMutability": "nonpayable",
      "type": "function"
    }
  ],
  "bytecode": "0x608060405234801561001057600080fd5b5060405161441738038061441783398101604081905261002f9161010d565b338061005557604051631e4fbdf760e01b81526000600482015260240160405180910390fd5b61005e816100a1565b50600580546001600160a01b039485166001600160a01b031991821617909155600680549385169382169390931790925560078054919093169116179055610150565b600080546001600160a01b038381166001600160a01b0319831681178455604051919092169283917f8be0079c531659141344cd1fd0a4f28419497f9722a3daafe3b4186f6b6457e09190a35050565b80516001600160a01b038116811461010857600080fd5b919050565b60008060006060848603121561012257600080fd5b61012b846100f1565b9250610139602085016100f1565b9150610147604085016100f1565b90509250925092565b6142b88061015f6000396000f3fe608060405234801561001057600080fd5b506004361061010b5760003560e01c80636e61248a116100a25780638da5cb5b116100715780638da5cb5b14610279578063beb641f71461028a578063cf7c0cd41461029d578063ea4780f5146102bd578063f2fde38b146102d057600080fd5b80636e61248a1461020b578063715018a61461022c57806374c2ad6314610234578063845b13371461025457600080fd5b806341507cc8116100de57806341507cc81461017e578063567c34d6146101a957806358a86e1d146101d457806358dde09f146101e757600080fd5b80630b791430146101105780631a7c6842146101435780631de50452146101585780633f9a9f411461016b575b600080fd5b61012361011e366004612f26565b6102e3565b60405161013a9b9a99989796959493929190612ffa565b60405180910390f35b6101566101513660046130c5565b610865565b005b610156610166366004613139565b610d17565b61015661017936600461337b565b610f28565b61019161018c366004613497565b611401565b6040516001600160401b03909116815260200161013a565b6007546101bc906001600160a01b031681565b6040516001600160a01b03909116815260200161013a565b6005546101bc906001600160a01b031681565b6101fa6101f53660046134c1565b61144d565b60405161013a9594939291906134dd565b61021e6102193660046136b6565b61152f565b60405190815260200161013a565b610156611a84565b610247610242366004613851565b611a98565b60405161013a9190613a1c565b6102676102623660046134c1565b611c08565b60405161013a96959493929190613a81565b6000546001600160a01b03166101bc565b610156610298366004613ae2565b611e00565b6102b06102ab366004613bc2565b611fc5565b60405161013a9190613bdd565b6006546101bc906001600160a01b031681565b6101566102de366004613851565b611fdc565b600181815481106102f357600080fd5b60009182526020909120600e9091020180546001820180546001600160401b0390921693509061032290613bf0565b80601f016020809104026020016040519081016040528092919081815260200182805461034e90613bf0565b801561039b5780601f106103705761010080835404028352916020019161039b565b820191906000526020600020905b81548152906001019060200180831161037e57829003601f168201915b5050505050908060020180546103b090613bf0565b80601f01602080910402602001604051908101604052809291908181526020018280546103dc90613bf0565b80156104295780601f106103fe57610100808354040283529160200191610429565b820191906000526020600020905b81548152906001019060200180831161040c57829003601f168201915b505050600384015460048501546005860154600687015460078801805497986001600160a01b03909516979396509194506001600160601b0316929161046e90613bf0565b80601f016020809104026020016040519081016040528092919081815260200182805461049a90613bf0565b80156104e75780601f106104bc576101008083540402835291602001916104e7565b820191906000526020600020905b8154815290600101906020018083116104ca57829003601f168201915b5050505050908060080180546104fc90613bf0565b80601f016020809104026020016040519081016040528092919081815260200182805461052890613bf0565b80156105755780601f1061054a57610100808354040283529160200191610575565b820191906000526020600020905b81548152906001019060200180831161055857829003601f168201915b50505050509080600901805461058a90613bf0565b80601f01602080910402602001604051908101604052809291908181526020018280546105b690613bf0565b80156106035780601f106105d857610100808354040283529160200191610603565b820191906000526020600020905b8154815290600101906020018083116105e657829003601f168201915b50505050509080600a0160405180608001604052908160008201805461062890613bf0565b80601f016020809104026020016040519081016040528092919081815260200182805461065490613bf0565b80156106a15780601f10610676576101008083540402835291602001916106a1565b820191906000526020600020905b81548152906001019060200180831161068457829003601f168201915b505050505081526020016001820180546106ba90613bf0565b80601f01602080910402602001604051908101604052809291908181526020018280546106e690613bf0565b80156107335780601f1061070857610100808354040283529160200191610733565b820191906000526020600020905b81548152906001019060200180831161071657829003601f168201915b5050505050815260200160028201805461074c90613bf0565b80601f016020809104026020016040519081016040528092919081815260200182805461077890613bf0565b80156107c55780601f1061079a576101008083540402835291602001916107c5565b820191906000526020600020905b8154815290600101906020018083116107a857829003601f168201915b505050505081526020016003820180546107de90613bf0565b80601f016020809104026020016040519081016040528092919081815260200182805461080a90613bf0565b80156108575780601f1061082c57610100808354040283529160200191610857565b820191906000526020600020905b81548152906001019060200180831161083a57829003601f168201915b50505050508152505090508b565b60006108718280613c2a565b9050116108bb5760405162461bcd60e51b8152602060048201526013602482015272139bc81d1a58dad95d1cc81c1c9bdd9a591959606a1b60448201526064015b60405180910390fd5b6000805b6108c98380613c2a565b9050811015610a525760006108de8480613c2a565b838181106108ee576108ee613c79565b9050606002018036038101906109049190613c8f565b80516001600160401b0316600090815260036020526040902080549192509061093f5760405162461bcd60e51b81526004016108b290613cdf565b60008160008154811061095457610954613c79565b906000526020600020906006020190506000805b83548110156109e35784602001516001600160401b031684828154811061099157610991613c79565b60009182526020909120600690910201546001600160401b0316036109db57600191508381815481106109c6576109c6613c79565b906000526020600020906006020192506109e3565b600101610968565b5080610a315760405162461bcd60e51b815260206004820152601e60248201527f5469636b65742063617465676f727920646f6573206e6f74206578697374000060448201526064016108b2565b6004820154610a409087613d23565b955050600190930192506108bf915050565b50600654604051636eb1769f60e11b815233600482015230602482015282916001600160a01b03169063dd62ed3e90604401602060405180830381865afa158015610aa1573d6000803e3d6000fd5b505050506040513d601f19601f82011682018060405250810190610ac59190613d36565b1015610b0c5760405162461bcd60e51b8152602060048201526016602482015275496e73756666696369656e7420616c6c6f77616e636560501b60448201526064016108b2565b60005b610b198380613c2a565b9050811015610d12576000610b2e8480613c2a565b83818110610b3e57610b3e613c79565b905060600201803603810190610b549190613c8f565b90506000610b65826000015161201a565b82516001600160401b0316600090815260036020526040812080549293509182908290610b9457610b94613c79565b9060005260206000209060060201905060005b8254811015610c1e5784602001516001600160401b0316838281548110610bd057610bd0613c79565b60009182526020909120600690910201546001600160401b031603610c1657828181548110610c0157610c01613c79565b90600052602060002090600602019150610c1e565b600101610ba7565b5060065460608401516004838101546040516323b872dd60e01b815233928101929092526001600160a01b03928316602483015260448201529116906323b872dd906064016020604051808303816000875af1158015610c82573d6000803e3d6000fd5b505050506040513d601f19601f82011682018060405250810190610ca69190613d4f565b610ce95760405162461bcd60e51b8152602060048201526014602482015273125b9cdd59999a58da595b9d081c185e5b595b9d60621b60448201526064016108b2565b610d0283828660000151876020015188604001516128a7565b505060019092019150610b0f9050565b505050565b6001600160401b03831660009081526003602052604090208054610d4d5760405162461bcd60e51b81526004016108b290613cdf565b6000610d588561201a565b9050600082600081548110610d6f57610d6f613c79565b906000526020600020906006020190506000805b8454811015610dfa57866001600160401b0316858281548110610da857610da8613c79565b60009182526020909120600690910201546001600160401b031603610df25760019150848181548110610ddd57610ddd613c79565b90600052602060002090600602019250610dfa565b600101610d83565b5080610e485760405162461bcd60e51b815260206004820152601e60248201527f5469636b65742063617465676f727920646f6573206e6f74206578697374000060448201526064016108b2565b60065460608401516004848101546040516323b872dd60e01b815233928101929092526001600160a01b03928316602483015260448201529116906323b872dd906064016020604051808303816000875af1158015610eab573d6000803e3d6000fd5b505050506040513d601f19601f82011682018060405250810190610ecf9190613d4f565b610f125760405162461bcd60e51b8152602060048201526014602482015273125b9cdd59999a58da595b9d081c185e5b595b9d60621b60448201526064016108b2565b610f1f83838989896128a7565b50505050505050565b80600001516001600160401b031660018181548110610f4957610f49613c79565b60009182526020909120600e90910201600301546001600160a01b03163314610fb45760405162461bcd60e51b815260206004820152601b60248201527f4f6e6c79206576656e74206f776e65722063616e206d6f64696679000000000060448201526064016108b2565b6000610fc3836000015161201a565b90508060a0015142116110185760405162461bcd60e51b815260206004820152601760248201527f4576656e7420686173206e6f7420656e6465642079657400000000000000000060448201526064016108b2565b82516001600160401b031660009081526004602052604081205461103d906001613d23565b84516001600160401b039081166000908152600460209081526040808320815160c0810183528686168152838b0151818501908152838c0151938201939093526080808c015160608084019190915260a0808e01516001600160601b0316928401929092528c015190820152815460018082018455928652939094208451600690940201805467ffffffffffffffff191693909516929092178455519394509092908201906110ec9082613dbf565b50604082015160028201906111019082613dbf565b50606082015160038201556080820151600482015560a0820151600582019061112a9082613dbf565b505050600084608001516001600160401b0381111561114b5761114b61317c565b604051908082528060200260200182016040528015611174578160200160208202803683370190505b509050600085608001516001600160401b038111156111955761119561317c565b6040519080825280602002602001820160405280156111be578160200160208202803683370190505b50905060005b8660800151816001600160801b031610156113665760008760c0015151826001600160801b03166111f59190613e7d565b8851909150600090611212908761120d866001613e9f565b612b8a565b90508085846001600160801b03168151811061123057611230613c79565b6020026020010181815250508860c00151828151811061125257611252613c79565b602002602001015184846001600160801b03168151811061127557611275613c79565b60200260200101906001600160a01b031690816001600160a01b03168152505060006112ba8a606001518560016112ac9190613e9f565b6001600160801b0316612bbe565b60075460c08c015180519293506001600160a01b039091169163409489779190869081106112ea576112ea613c79565b602002602001015184848c606001518f60a001516040518663ffffffff1660e01b815260040161131e959493929190613ebe565b600060405180830381600087803b15801561133857600080fd5b505af115801561134c573d6000803e3d6000fd5b50505050505050808061135e90613f10565b9150506111c4565b507f68c9aed10b0c9157bd7bc786dde14f065883ee2520d31dc375893e1fe4ea5119604051806101000160405280856001600160401b0316815260200188600001516001600160401b03168152602001886020015181526020018860600151815260200188604001518152602001428152602001848152602001838152506040516113f19190613fb2565b60405180910390a1505050505050565b6002602052816000526040600020818154811061141d57600080fd5b9060005260206000209060049182820401919006600802915091509054906101000a90046001600160401b031681565b6003602052816000526040600020818154811061146957600080fd5b6000918252602090912060069091020180546001820180546001600160401b03909216945091925061149a90613bf0565b80601f01602080910402602001604051908101604052809291908181526020018280546114c690613bf0565b80156115135780601f106114e857610100808354040283529160200191611513565b820191906000526020600020905b8154815290600101906020018083116114f657829003601f168201915b5050505050908060020154908060030154908060040154905085565b60008082610120015151116115975760405162461bcd60e51b815260206004820152602860248201527f4174206c65617374206f6e65207469636b65742063617465676f7279206973206044820152671c995c5d5a5c995960c21b60648201526084016108b2565b42826040015110156115eb5760405162461bcd60e51b815260206004820181905260248201527f53746172742064617465206d75737420626520696e207468652066757475726560448201526064016108b2565b81604001518260600151116116125760405162461bcd60e51b81526004016108b290614077565b8151516116595760405162461bcd60e51b81526020600482015260156024820152745469746c652063616e6e6f7420626520656d70747960581b60448201526064016108b2565b6001805460408051610160810182526001600160401b0380841680835287516020808501918252808a0151858701523360608087018290528b880151608080890191909152818d015160a0808a0191909152818e01516001600160601b031660c0808b0191909152908e015160e0808b0191909152908e0151610100808b0191909152908e01516101208a015289519182018a52808e01805151835280518601518387015280518b0151838c015251830151928201929092526101408801526000918252600283529681208054808b01825590825291812060048304018054600390931660080290970a8086021990921691909302179094558554808701875595905281517fb10e2d527612073b26eecdfd717e6a320cf44b4afac2b0732d9fcbe2b7fa0cf6600e909602958601805467ffffffffffffffff1916919092161781559151929390928392917fb10e2d527612073b26eecdfd717e6a320cf44b4afac2b0732d9fcbe2b7fa0cf701906117d19082613dbf565b50604082015160028201906117e69082613dbf565b5060608201516003820180546001600160a01b0319166001600160a01b039092169190911790556080820151600482015560a0820151600582015560c08201516006820180546bffffffffffffffffffffffff19166001600160601b0390921691909117905560e082015160078201906118609082613dbf565b5061010082015160088201906118769082613dbf565b50610120820151600982019061188c9082613dbf565b506101408201518051600a83019081906118a69082613dbf565b50602082015160018201906118bb9082613dbf565b50604082015160028201906118d09082613dbf565b50606082015160038201906118e59082613dbf565b505050505060005b84610120015151816001600160401b03161015611a2f576000856101200151826001600160401b03168151811061192657611926613c79565b60200260200101519050606060006040518060c0016040528085600161194c91906140c6565b6001600160401b03908116825285516020808401919091528087015160408085019190915260006060850181905281890151608086015260a09094018790528a83168452600382528320805460018082018355918552938290208551600690950201805467ffffffffffffffff191694909316939093178255830151929350839290918201906119dc9082613dbf565b5060408201516002820155606082015160038201556080820151600482015560a08201518051611a16916005840191602090910190612e21565b5050505050508080611a27906140e5565b9150506118ed565b507fb8ee242eb491cea3d86b84b0973a7854b58ab6a4020619c574a7ccb4f2fbeeca611a5e826000015161201a565b604051611a6b9190613bdd565b60405180910390a1516001600160401b03169392505050565b611a8c612bf2565b611a966000612c1f565b565b6001600160a01b0381166000908152600260209081526040808320805482518185028101850190935280835260609493830182828015611b2957602002820191906000526020600020906000905b82829054906101000a90046001600160401b03166001600160401b031681526020019060080190602082600701049283019260010382029150808411611ae65790505b50505050509050600081516001600160401b03811115611b4b57611b4b61317c565b604051908082528060200260200182016040528015611b8457816020015b611b71612e6c565b815260200190600190039081611b695790505b50905060005b8251816001600160401b03161015611c0057611bc783826001600160401b031681518110611bba57611bba613c79565b602002602001015161201a565b82826001600160401b031681518110611be257611be2613c79565b60200260200101819052508080611bf8906140e5565b915050611b8a565b509392505050565b60046020528160005260406000208181548110611c2457600080fd5b6000918252602090912060069091020180546001820180546001600160401b039092169450919250611c5590613bf0565b80601f0160208091040260200160405190810160405280929190818152602001828054611c8190613bf0565b8015611cce5780601f10611ca357610100808354040283529160200191611cce565b820191906000526020600020905b815481529060010190602001808311611cb157829003601f168201915b505050505090806002018054611ce390613bf0565b80601f0160208091040260200160405190810160405280929190818152602001828054611d0f90613bf0565b8015611d5c5780601f10611d3157610100808354040283529160200191611d5c565b820191906000526020600020905b815481529060010190602001808311611d3f57829003601f168201915b505050505090806003015490806004015490806005018054611d7d90613bf0565b80601f0160208091040260200160405190810160405280929190818152602001828054611da990613bf0565b8015611df65780601f10611dcb57610100808354040283529160200191611df6565b820191906000526020600020905b815481529060010190602001808311611dd957829003601f168201915b5050505050905086565b866001600160401b031660018181548110611e1d57611e1d613c79565b60009182526020909120600e90910201600301546001600160a01b03163314611e885760405162461bcd60e51b815260206004820152601b60248201527f4f6e6c79206576656e74206f776e65722063616e206d6f64696679000000000060448201526064016108b2565b6000875111611ed15760405162461bcd60e51b81526020600482015260156024820152745469746c652063616e6e6f7420626520656d70747960581b60448201526064016108b2565b428511611f205760405162461bcd60e51b815260206004820181905260248201527f53746172742064617465206d75737420626520696e207468652066757475726560448201526064016108b2565b848411611f3f5760405162461bcd60e51b81526004016108b290614077565b60006001896001600160401b031681548110611f5d57611f5d613c79565b90600052602060002090600e0201905087816001019081611f7e9190613dbf565b5060028101611f8d8882613dbf565b50600481018690556005810185905560088101611faa8582613dbf565b5060098101611fb98482613dbf565b50505050505050505050565b611fcd612e6c565b611fd68261201a565b92915050565b611fe4612bf2565b6001600160a01b03811661200e57604051631e4fbdf760e01b8152600060048201526024016108b2565b61201781612c1f565b50565b612022612e6c565b6001546001600160401b0383161061204c5760405162461bcd60e51b81526004016108b290613cdf565b60006001836001600160401b03168154811061206a5761206a613c79565b600091825260208083206001600160401b03871684526003909152604083208054600e9093029091019350918190036120e55760405162461bcd60e51b815260206004820152601c60248201527f4e6f2063617465676f7269657320666f722074686973206576656e740000000060448201526064016108b2565b6120ed612e6c565b83546001600160401b0316815260018401805461210990613bf0565b80601f016020809104026020016040519081016040528092919081815260200182805461213590613bf0565b80156121825780601f1061215757610100808354040283529160200191612182565b820191906000526020600020905b81548152906001019060200180831161216557829003601f168201915b5050505050602082015260038401546001600160a01b031660608201526002840180546121ae90613bf0565b80601f01602080910402602001604051908101604052809291908181526020018280546121da90613bf0565b80156122275780601f106121fc57610100808354040283529160200191612227565b820191906000526020600020905b81548152906001019060200180831161220a57829003601f168201915b5050505050604082015260048401546080820152600584015460a082015260088401805461225490613bf0565b80601f016020809104026020016040519081016040528092919081815260200182805461228090613bf0565b80156122cd5780601f106122a2576101008083540402835291602001916122cd565b820191906000526020600020905b8154815290600101906020018083116122b057829003601f168201915b50505050508161010001819052508360090180546122ea90613bf0565b80601f016020809104026020016040519081016040528092919081815260200182805461231690613bf0565b80156123635780601f1061233857610100808354040283529160200191612363565b820191906000526020600020905b81548152906001019060200180831161234657829003601f168201915b505050505061012082015260068401546001600160601b031660c082015260078401805461239090613bf0565b80601f01602080910402602001604051908101604052809291908181526020018280546123bc90613bf0565b80156124095780601f106123de57610100808354040283529160200191612409565b820191906000526020600020905b8154815290600101906020018083116123ec57829003601f168201915b50505050508160e0018190525083600a0160405180608001604052908160008201805461243590613bf0565b80601f016020809104026020016040519081016040528092919081815260200182805461246190613bf0565b80156124ae5780601f10612483576101008083540402835291602001916124ae565b820191906000526020600020905b81548152906001019060200180831161249157829003601f168201915b505050505081526020016001820180546124c790613bf0565b80601f01602080910402602001604051908101604052809291908181526020018280546124f390613bf0565b80156125405780601f1061251557610100808354040283529160200191612540565b820191906000526020600020905b81548152906001019060200180831161252357829003601f168201915b5050505050815260200160028201805461255990613bf0565b80601f016020809104026020016040519081016040528092919081815260200182805461258590613bf0565b80156125d25780601f106125a7576101008083540402835291602001916125d2565b820191906000526020600020905b8154815290600101906020018083116125b557829003601f168201915b505050505081526020016003820180546125eb90613bf0565b80601f016020809104026020016040519081016040528092919081815260200182805461261790613bf0565b80156126645780601f1061263957610100808354040283529160200191612664565b820191906000526020600020905b81548152906001019060200180831161264757829003601f168201915b50505091909252505050610140820152816001600160401b0381111561268c5761268c61317c565b6040519080825280602002602001820160405280156126f857816020015b6126e56040518060a0016040528060006001600160401b03168152602001606081526020016000815260200160008152602001600081525090565b8152602001906001900390816126aa5790505b5061016082015260005b8281101561289d576040518060a0016040528085838154811061272757612727613c79565b6000918252602091829020600690910201546001600160401b03168252865491019086908490811061275b5761275b613c79565b9060005260206000209060060201600101805461277790613bf0565b80601f01602080910402602001604051908101604052809291908181526020018280546127a390613bf0565b80156127f05780601f106127c5576101008083540402835291602001916127f0565b820191906000526020600020905b8154815290600101906020018083116127d357829003601f168201915b5050505050815260200185838154811061280c5761280c613c79565b906000526020600020906006020160020154815260200185838154811061283557612835613c79565b906000526020600020906006020160030154815260200185838154811061285e5761285e613c79565b906000526020600020906006020160040154815250826101600151828151811061288a5761288a613c79565b6020908102919091010152600101612702565b5095945050505050565b6000816001600160801b0316116129005760405162461bcd60e51b815260206004820152601960248201527f53656174204944206d7573742073746172742066726f6d20310000000000000060448201526064016108b2565b8360020154816001600160801b031611156129555760405162461bcd60e51b8152602060048201526015602482015274151a58dad95d08191bd95cc81b9bdd08195e1a5cdd605a1b60448201526064016108b2565b60005b60058501548110156129db57816001600160801b031685600501828154811061298357612983613c79565b9060005260206000200154036129d35760405162461bcd60e51b8152602060048201526015602482015274151a58dad95d08185b1c9958591e48189bdd59da1d605a1b60448201526064016108b2565b600101612958565b508360030154846002015411612a335760405162461bcd60e51b815260206004820152601c60248201527f4e6f7420656e6f756768207469636b65747320617661696c61626c650000000060448201526064016108b2565b600384018054906000612a4583614107565b90915550506005840180546001810182556000918252602082206001600160801b038416910155612a77848484612b8a565b90506000612a938760e0015185856001600160801b0316612c6f565b600554606089015160c08a0151604051634094897760e01b81529394506001600160a01b0390921692634094897792612ad59233928892889291600401613ebe565b600060405180830381600087803b158015612aef57600080fd5b505af1158015612b03573d6000803e3d6000fd5b50506040805160e0810182528581526001600160401b03808a1660208301528816818301526001600160801b03871660608201524260808201523360a082015260c0810185905290517f535d3139c97378b49b025f98009a67ecd71ef470b7bedee0a7e1e7e38fe7717b9350612b799250614120565b60405180910390a150505050505050565b6001600160c01b031960c084901b1667ffffffffffffffff60801b608084901b16176001600160801b038216179392505050565b606082612bca83612cb7565b604051602001612bdb9291906141ac565b604051602081830303815290604052905092915050565b6000546001600160a01b03163314611a965760405163118cdaa760e01b81523360048201526024016108b2565b600080546001600160a01b038381166001600160a01b0319831681178455604051919092169283917f8be0079c531659141344cd1fd0a4f28419497f9722a3daafe3b4186f6b6457e09190a35050565b606083612c84846001600160401b0316612cb7565b612c8d84612cb7565b604051602001612c9f939291906141fa565b60405160208183030381529060405290509392505050565b60606000612cc483612d49565b60010190506000816001600160401b03811115612ce357612ce361317c565b6040519080825280601f01601f191660200182016040528015612d0d576020820181803683370190505b5090508181016020015b600019016f181899199a1a9b1b9c1cb0b131b232b360811b600a86061a8153600a8504945084612d1757509392505050565b60008072184f03e93ff9f4daa797ed6e38ed64bf6a1f0160401b8310612d885772184f03e93ff9f4daa797ed6e38ed64bf6a1f0160401b830492506040015b6d04ee2d6d415b85acef81000000008310612db4576d04ee2d6d415b85acef8100000000830492506020015b662386f26fc100008310612dd257662386f26fc10000830492506010015b6305f5e1008310612dea576305f5e100830492506008015b6127108310612dfe57612710830492506004015b60648310612e10576064830492506002015b600a8310611fd65760010192915050565b828054828255906000526020600020908101928215612e5c579160200282015b82811115612e5c578251825591602001919060010190612e41565b50612e68929150612f11565b5090565b60405180610180016040528060006001600160401b03168152602001606081526020016060815260200160006001600160a01b03168152602001600081526020016000815260200160006001600160601b03168152602001606081526020016060815260200160608152602001612f046040518060800160405280606081526020016060815260200160608152602001606081525090565b8152602001606081525090565b5b80821115612e685760008155600101612f12565b600060208284031215612f3857600080fd5b5035919050565b60005b83811015612f5a578181015183820152602001612f42565b50506000910152565b60008151808452612f7b816020860160208601612f3f565b601f01601f19169290920160200192915050565b6000815160808452612fa46080850182612f63565b905060208301518482036020860152612fbd8282612f63565b91505060408301518482036040860152612fd78282612f63565b91505060608301518482036060860152612ff18282612f63565b95945050505050565b6001600160401b038c1681526101606020820152600061301e61016083018d612f63565b8281036040840152613030818d612f63565b6001600160a01b038c16606085015290508960808401528860a084015261306260c08401896001600160601b03169052565b82810360e08401526130748188612f63565b90508281036101008401526130898187612f63565b905082810361012084015261309e8186612f63565b90508281036101408401526130b38185612f8f565b9e9d5050505050505050505050505050565b6000602082840312156130d757600080fd5b81356001600160401b038111156130ed57600080fd5b8201602081850312156130ff57600080fd5b9392505050565b80356001600160401b038116811461311d57600080fd5b919050565b80356001600160801b038116811461311d57600080fd5b60008060006060848603121561314e57600080fd5b61315784613106565b925061316560208501613106565b915061317360408501613122565b90509250925092565b634e487b7160e01b600052604160045260246000fd5b60405160e081016001600160401b03811182821017156131b4576131b461317c565b60405290565b604051608081016001600160401b03811182821017156131b4576131b461317c565b604051606081016001600160401b03811182821017156131b4576131b461317c565b60405161014081016001600160401b03811182821017156131b4576131b461317c565b604051601f8201601f191681016001600160401b03811182821017156132495761324961317c565b604052919050565b600082601f83011261326257600080fd5b81356001600160401b0381111561327b5761327b61317c565b61328e601f8201601f1916602001613221565b8181528460208386010111156132a357600080fd5b816020850160208301376000918101602001919091529392505050565b80356001600160601b038116811461311d57600080fd5b60006001600160401b038211156132f0576132f061317c565b5060051b60200190565b80356001600160a01b038116811461311d57600080fd5b600082601f83011261332257600080fd5b8135613335613330826132d7565b613221565b8082825260208201915060208360051b86010192508583111561335757600080fd5b602085015b8381101561289d5761336d816132fa565b83526020928301920161335c565b60006020828403121561338d57600080fd5b81356001600160401b038111156133a357600080fd5b820160e081850312156133b557600080fd5b6133bd613192565b6133c682613106565b815260208201356001600160401b038111156133e157600080fd5b6133ed86828501613251565b60208301525060408201356001600160401b0381111561340c57600080fd5b61341886828501613251565b60408301525060608201356001600160401b0381111561343757600080fd5b61344386828501613251565b6060830152506080828101359082015261345f60a083016132c0565b60a082015260c08201356001600160401b0381111561347d57600080fd5b61348986828501613311565b60c083015250949350505050565b600080604083850312156134aa57600080fd5b6134b3836132fa565b946020939093013593505050565b600080604083850312156134d457600080fd5b6134b383613106565b6001600160401b038616815260a0602082015260006134ff60a0830187612f63565b604083019590955250606081019290925260809091015292915050565b60006080828403121561352e57600080fd5b6135366131ba565b905081356001600160401b0381111561354e57600080fd5b61355a84828501613251565b82525060208201356001600160401b0381111561357657600080fd5b61358284828501613251565b60208301525060408201356001600160401b038111156135a157600080fd5b6135ad84828501613251565b60408301525060608201356001600160401b038111156135cc57600080fd5b6135d884828501613251565b60608301525092915050565b600082601f8301126135f557600080fd5b8135613603613330826132d7565b8082825260208201915060208360051b86010192508583111561362557600080fd5b602085015b8381101561289d5780356001600160401b0381111561364857600080fd5b86016060818903601f1901121561365e57600080fd5b6136666131dc565b60208201356001600160401b0381111561367f57600080fd5b61368e8a602083860101613251565b825250604082810135602080840191909152606090930135908201528452928301920161362a565b6000602082840312156136c857600080fd5b81356001600160401b038111156136de57600080fd5b820161014081850312156136f157600080fd5b6136f96131fe565b81356001600160401b0381111561370f57600080fd5b61371b86828501613251565b82525060208201356001600160401b0381111561373757600080fd5b61374386828501613251565b6020830152506040828101359082015260608083013590820152613769608083016132c0565b608082015260a08201356001600160401b0381111561378757600080fd5b61379386828501613251565b60a08301525060c08201356001600160401b038111156137b257600080fd5b6137be86828501613251565b60c08301525060e08201356001600160401b038111156137dd57600080fd5b6137e986828501613251565b60e0830152506101008201356001600160401b0381111561380957600080fd5b6138158682850161351c565b610100830152506101208201356001600160401b0381111561383657600080fd5b613842868285016135e4565b61012083015250949350505050565b60006020828403121561386357600080fd5b6130ff826132fa565b600082825180855260208501945060208160051b8301016020850160005b838110156138f957601f1985840301885281516001600160401b038151168452602081015160a060208601526138c360a0860182612f63565b6040838101519087015260608084015190870152608092830151929095019190915250602097880197919091019060010161388a565b50909695505050505050565b80516001600160401b0316825260006020820151610180602085015261392f610180850182612f63565b9050604083015184820360408601526139488282612f63565b915050606083015161396560608601826001600160a01b03169052565b506080830151608085015260a083015160a085015260c083015161399460c08601826001600160601b03169052565b5060e083015184820360e08601526139ac8282612f63565b9150506101008301518482036101008601526139c88282612f63565b9150506101208301518482036101208601526139e48282612f63565b915050610140830151848203610140860152613a008282612f8f565b915050610160830151848203610160860152612ff1828261386c565b6000602082016020835280845180835260408501915060408160051b86010192506020860160005b82811015613a7557603f19878603018452613a60858351613905565b94506020938401939190910190600101613a44565b50929695505050505050565b6001600160401b038716815260c060208201526000613aa360c0830188612f63565b8281036040840152613ab58188612f63565b905085606084015284608084015282810360a0840152613ad58185612f63565b9998505050505050505050565b600080600080600080600060e0888a031215613afd57600080fd5b613b0688613106565b965060208801356001600160401b03811115613b2157600080fd5b613b2d8a828b01613251565b96505060408801356001600160401b03811115613b4957600080fd5b613b558a828b01613251565b955050606088013593506080880135925060a08801356001600160401b03811115613b7f57600080fd5b613b8b8a828b01613251565b92505060c08801356001600160401b03811115613ba757600080fd5b613bb38a828b01613251565b91505092959891949750929550565b600060208284031215613bd457600080fd5b6130ff82613106565b6020815260006130ff6020830184613905565b600181811c90821680613c0457607f821691505b602082108103613c2457634e487b7160e01b600052602260045260246000fd5b50919050565b6000808335601e19843603018112613c4157600080fd5b8301803591506001600160401b03821115613c5b57600080fd5b6020019150606081023603821315613c7257600080fd5b9250929050565b634e487b7160e01b600052603260045260246000fd5b60006060828403128015613ca257600080fd5b50613cab6131dc565b613cb483613106565b8152613cc260208401613106565b6020820152613cd360408401613122565b60408201529392505050565b602080825260149082015273115d995b9d08191bd95cc81b9bdd08195e1a5cdd60621b604082015260600190565b634e487b7160e01b600052601160045260246000fd5b80820180821115611fd657611fd6613d0d565b600060208284031215613d4857600080fd5b5051919050565b600060208284031215613d6157600080fd5b815180151581146130ff57600080fd5b601f821115610d1257806000526020600020601f840160051c81016020851015613d985750805b601f840160051c820191505b81811015613db85760008155600101613da4565b5050505050565b81516001600160401b03811115613dd857613dd861317c565b613dec81613de68454613bf0565b84613d71565b6020601f821160018114613e205760008315613e085750848201515b600019600385901b1c1916600184901b178455613db8565b600084815260208120601f198516915b82811015613e505787850151825560209485019460019092019101613e30565b5084821015613e6e5786840151600019600387901b60f8161c191681555b50505050600190811b01905550565b600082613e9a57634e487b7160e01b600052601260045260246000fd5b500690565b6001600160801b038181168382160190811115611fd657611fd6613d0d565b60018060a01b038616815284602082015260a060408201526000613ee560a0830186612f63565b6001600160a01b03949094166060830152506001600160601b03919091166080909101529392505050565b60006001600160801b0382166001600160801b038103613f3257613f32613d0d565b60010192915050565b600081518084526020840193506020830160005b82811015613f6d578151865260209586019590910190600101613f4f565b5093949350505050565b600081518084526020840193506020830160005b82811015613f6d5781516001600160a01b0316865260209586019590910190600101613f8b565b602081528151602082015260006020830151613fd960408401826001600160401b03169052565b5060408301516101006060840152613ff5610120840182612f63565b90506060840151601f198483030160808501526140128282612f63565b9150506080840151601f198483030160a08501526140308282612f63565b91505060a084015160c084015260c0840151601f198483030160e08501526140588282613f3b565b91505060e0840151601f1984830301610100850152612ff18282613f77565b6020808252602f908201527f456e642074696d65206d7573742062652061667465722073746172742074696d60408201526e6520696e207468652066757475726560881b606082015260800190565b6001600160401b038181168382160190811115611fd657611fd6613d0d565b60006001600160401b0382166001600160401b038103613f3257613f32613d0d565b60006001820161411957614119613d0d565b5060010190565b60208152815160208201526001600160401b0360208301511660408201526001600160401b0360408301511660608201526001600160801b036060830151166080820152608082015160a0820152600060a083015161418a60c08401826001600160a01b03169052565b5060c083015160e0808401526141a4610100840182612f63565b949350505050565b600083516141be818460208801612f3f565b602f60f81b90830190815283516141dc816001840160208801612f3f565b64173539b7b760d91b60019290910191820152600601949350505050565b6000845161420c818460208901612f3f565b712f6576656e742f63617465676f726965732f60701b908301908152845161423b816012840160208901612f3f565b662f73656174732f60c81b601292909101918201528351614263816019840160208801612f3f565b64173539b7b760d91b60199290910191820152601e019594505050505056fea2646970667358221220f79c95ed723cecd448d28fba4b51a7cd30afe171ed23d59ae9fd1e1f300b964964736f6c634300081b0033",
  "linkReferences": {},
  "deployedLinkReferences": {}
}