{
  "_format": "hh-sol-artifact-1",
  "contractName": "NTicketMarket",
  "sourceName": "contracts/modules/Marketplace/NTicketMarket.sol",
  "abi": [
    {
      "inputs": [
        {
          "internalType": "address",
          "name": "_ticketContract",
          "type": "address"
        },
        {
          "internalType": "address",
          "name": "_ftContract",
          "type": "address"
        }
      ],
      "stateMutability": "nonpayable",
      "type": "constructor"
    },
    {
      "inputs": [
        {
          "internalType": "address",
          "name": "owner",
          "type": "address"
        }
      ],
      "name": "OwnableInvalidOwner",
      "type": "error"
    },
    {
      "inputs": [
        {
          "internalType": "address",
          "name": "account",
          "type": "address"
        }
      ],
      "name": "OwnableUnauthorizedAccount",
      "type": "error"
    },
    {
      "anonymous": false,
      "inputs": [
        {
          "indexed": false,
          "internalType": "string",
          "name": "methodName",
          "type": "string"
        },
        {
          "indexed": false,
          "internalType": "string",
          "name": "message",
          "type": "string"
        },
        {
          "indexed": false,
          "internalType": "bytes",
          "name": "data",
          "type": "bytes"
        }
      ],
      "name": "Debug",
      "type": "event"
    },
    {
      "anonymous": false,
      "inputs": [
        {
          "indexed": true,
          "internalType": "address",
          "name": "previousOwner",
          "type": "address"
        },
        {
          "indexed": true,
          "internalType": "address",
          "name": "newOwner",
          "type": "address"
        }
      ],
      "name": "OwnershipTransferred",
      "type": "event"
    },
    {
      "anonymous": false,
      "inputs": [
        {
          "indexed": false,
          "internalType": "uint256",
          "name": "tokenId",
          "type": "uint256"
        },
        {
          "indexed": false,
          "internalType": "address",
          "name": "seller",
          "type": "address"
        },
        {
          "indexed": false,
          "internalType": "uint256",
          "name": "price",
          "type": "uint256"
        }
      ],
      "name": "TicketListed",
      "type": "event"
    },
    {
      "anonymous": false,
      "inputs": [
        {
          "indexed": false,
          "internalType": "uint256",
          "name": "tokenId",
          "type": "uint256"
        },
        {
          "indexed": false,
          "internalType": "address",
          "name": "seller",
          "type": "address"
        }
      ],
      "name": "TicketListingCancelled",
      "type": "event"
    },
    {
      "anonymous": false,
      "inputs": [
        {
          "indexed": false,
          "internalType": "uint256",
          "name": "tokenId",
          "type": "uint256"
        },
        {
          "indexed": false,
          "internalType": "address",
          "name": "seller",
          "type": "address"
        },
        {
          "indexed": false,
          "internalType": "uint256",
          "name": "oldPrice",
          "type": "uint256"
        },
        {
          "indexed": false,
          "internalType": "uint256",
          "name": "newPrice",
          "type": "uint256"
        }
      ],
      "name": "TicketListingUpdated",
      "type": "event"
    },
    {
      "anonymous": false,
      "inputs": [
        {
          "indexed": false,
          "internalType": "uint256",
          "name": "tokenId",
          "type": "uint256"
        },
        {
          "indexed": false,
          "internalType": "address",
          "name": "seller",
          "type": "address"
        },
        {
          "indexed": false,
          "internalType": "address",
          "name": "buyer",
          "type": "address"
        },
        {
          "indexed": false,
          "internalType": "uint256",
          "name": "price",
          "type": "uint256"
        }
      ],
      "name": "TicketSold",
      "type": "event"
    },
    {
      "inputs": [
        {
          "internalType": "uint256",
          "name": "tokenId",
          "type": "uint256"
        }
      ],
      "name": "buyTicket",
      "outputs": [],
      "stateMutability": "nonpayable",
      "type": "function"
    },
    {
      "inputs": [
        {
          "internalType": "uint256",
          "name": "tokenId",
          "type": "uint256"
        }
      ],
      "name": "cancelListing",
      "outputs": [],
      "stateMutability": "nonpayable",
      "type": "function"
    },
    {
      "inputs": [],
      "name": "debugMode",
      "outputs": [
        {
          "internalType": "bool",
          "name": "",
          "type": "bool"
        }
      ],
      "stateMutability": "view",
      "type": "function"
    },
    {
      "inputs": [],
      "name": "ftContract",
      "outputs": [
        {
          "internalType": "address",
          "name": "",
          "type": "address"
        }
      ],
      "stateMutability": "view",
      "type": "function"
    },
    {
      "inputs": [
        {
          "internalType": "uint256",
          "name": "tokenId",
          "type": "uint256"
        }
      ],
      "name": "getListing",
      "outputs": [
        {
          "components": [
            {
              "internalType": "uint256",
              "name": "price",
              "type": "uint256"
            },
            {
              "internalType": "address",
              "name": "seller",
              "type": "address"
            }
          ],
          "internalType": "struct Listing",
          "name": "",
          "type": "tuple"
        }
      ],
      "stateMutability": "view",
      "type": "function"
    },
    {
      "inputs": [
        {
          "internalType": "uint256",
          "name": "tokenId",
          "type": "uint256"
        },
        {
          "internalType": "uint256",
          "name": "price",
          "type": "uint256"
        }
      ],
      "name": "listTicket",
      "outputs": [],
      "stateMutability": "nonpayable",
      "type": "function"
    },
    {
      "inputs": [],
      "name": "owner",
      "outputs": [
        {
          "internalType": "address",
          "name": "",
          "type": "address"
        }
      ],
      "stateMutability": "view",
      "type": "function"
    },
    {
      "inputs": [],
      "name": "renounceOwnership",
      "outputs": [],
      "stateMutability": "nonpayable",
      "type": "function"
    },
    {
      "inputs": [
        {
          "internalType": "bool",
          "name": "mode",
          "type": "bool"
        }
      ],
      "name": "setDebugMode",
      "outputs": [],
      "stateMutability": "nonpayable",
      "type": "function"
    },
    {
      "inputs": [],
      "name": "ticketContract",
      "outputs": [
        {
          "internalType": "address",
          "name": "",
          "type": "address"
        }
      ],
      "stateMutability": "view",
      "type": "function"
    },
    {
      "inputs": [
        {
          "internalType": "address",
          "name": "newOwner",
          "type": "address"
        }
      ],
      "name": "transferOwnership",
      "outputs": [],
      "stateMutability": "nonpayable",
      "type": "function"
    },
    {
      "inputs": [
        {
          "internalType": "uint256",
          "name": "tokenId",
          "type": "uint256"
        },
        {
          "internalType": "uint256",
          "name": "newPrice",
          "type": "uint256"
        }
      ],
      "name": "updateListing",
      "outputs": [],
      "stateMutability": "nonpayable",
      "type": "function"
    }
  ],
  "bytecode": "0x608060405234801561001057600080fd5b50604051612faf380380612faf83398181016040528101906100329190610280565b33600073ffffffffffffffffffffffffffffffffffffffff168173ffffffffffffffffffffffffffffffffffffffff16036100a55760006040517f1e4fbdf700000000000000000000000000000000000000000000000000000000815260040161009c91906102cf565b60405180910390fd5b6100b48161015860201b60201c565b5081600160006101000a81548173ffffffffffffffffffffffffffffffffffffffff021916908373ffffffffffffffffffffffffffffffffffffffff16021790555080600260006101000a81548173ffffffffffffffffffffffffffffffffffffffff021916908373ffffffffffffffffffffffffffffffffffffffff16021790555060016000806101000a81548160ff02191690831515021790555050506102ea565b60008060019054906101000a900473ffffffffffffffffffffffffffffffffffffffff16905081600060016101000a81548173ffffffffffffffffffffffffffffffffffffffff021916908373ffffffffffffffffffffffffffffffffffffffff1602179055508173ffffffffffffffffffffffffffffffffffffffff168173ffffffffffffffffffffffffffffffffffffffff167f8be0079c531659141344cd1fd0a4f28419497f9722a3daafe3b4186f6b6457e060405160405180910390a35050565b600080fd5b600073ffffffffffffffffffffffffffffffffffffffff82169050919050565b600061024d82610222565b9050919050565b61025d81610242565b811461026857600080fd5b50565b60008151905061027a81610254565b92915050565b600080604083850312156102975761029661021d565b5b60006102a58582860161026b565b92505060206102b68582860161026b565b9150509250929050565b6102c981610242565b82525050565b60006020820190506102e460008301846102c0565b92915050565b612cb6806102f96000396000f3fe608060405234801561001057600080fd5b50600436106100b45760003560e01c806367dd74ca1161007157806367dd74ca14610179578063715018a6146101955780638811e1911461019f5780638da5cb5b146101bb578063ea4780f5146101d9578063f2fde38b146101f7576100b4565b80630179ea88146100b9578063107a274a146100d55780631c9568be14610105578063305a67a814610123578063305a905a1461013f57806358a86e1d1461015b575b600080fd5b6100d360048036038101906100ce919061219e565b610213565b005b6100ef60048036038101906100ea91906121de565b610710565b6040516100fc919061228a565b60405180910390f35b61010d610869565b60405161011a91906122c0565b60405180910390f35b61013d600480360381019061013891906121de565b61087f565b005b6101596004803603810190610154919061219e565b610d42565b005b6101636113f9565b60405161017091906122ea565b60405180910390f35b610193600480360381019061018e91906121de565b61141f565b005b61019d611e7e565b005b6101b960048036038101906101b49190612331565b611e92565b005b6101c3611eb6565b6040516101d091906122ea565b60405180910390f35b6101e1611edf565b6040516101ee91906122ea565b60405180910390f35b610211600480360381019061020c919061238a565b611f05565b005b6040518060400160405280600d81526020017f7570646174654c697374696e670000000000000000000000000000000000000081525060008054906101000a900460ff1615610294577f3b27a17eb6abbf4d7afecee861fef9cb2a747838d77634f6885a162b37c00a6d8160405161028b91906124ca565b60405180910390a15b826103296040518060400160405280600881526020017f69734c69737465640000000000000000000000000000000000000000000000008152506040518060400160405280601b81526020017f436865636b696e6720696620746f6b656e206973206c69737465640000000000815250836040516020016103159190612521565b604051602081830303815290604052611f8b565b600060036000838152602001908152602001600020604051806040016040529081600082015481526020016001820160009054906101000a900473ffffffffffffffffffffffffffffffffffffffff1673ffffffffffffffffffffffffffffffffffffffff1673ffffffffffffffffffffffffffffffffffffffff1681525050905060008160000151116103f2576040517f08c379a00000000000000000000000000000000000000000000000000000000081526004016103e990612588565b60405180910390fd5b843361048a6040518060400160405280600781526020017f69734f776e6572000000000000000000000000000000000000000000000000008152506040518060400160405280601881526020017f436865636b696e6720746f6b656e206f776e657273686970000000000000000081525084846040516020016104769291906125a8565b604051602081830303815290604052611f8b565b6000600160009054906101000a900473ffffffffffffffffffffffffffffffffffffffff1673ffffffffffffffffffffffffffffffffffffffff1662fdd58e83856040518363ffffffff1660e01b81526004016104e89291906125d1565b602060405180830381865afa158015610505573d6000803e3d6000fd5b505050506040513d601f19601f82011682018060405250810190610529919061260f565b90506000810361056e576040517f08c379a000000000000000000000000000000000000000000000000000000000815260040161056590612688565b60405180910390fd5b600087116105b1576040517f08c379a00000000000000000000000000000000000000000000000000000000081526004016105a8906126f4565b60405180910390fd5b6106476040518060400160405280600d81526020017f7570646174654c697374696e67000000000000000000000000000000000000008152506040518060400160405280601681526020017f5570646174696e67206c697374696e67207072696365000000000000000000008152508a8a604051602001610633929190612714565b604051602081830303815290604052611f8b565b6000600360008a815260200190815260200160002060000154905087600360008b8152602001908152602001600020600001819055507fd5ab325ab11120e54b70c4a26b24f1d30969eb9ce335a78fb7ea2df8950b5d9e8933838b6040516106b2949392919061273d565b60405180910390a150505050505060008054906101000a900460ff161561070b577f3b27a17eb6abbf4d7afecee861fef9cb2a747838d77634f6885a162b37c00a6d8160405161070291906127ce565b60405180910390a15b505050565b610718612133565b81600060036000838152602001908152602001600020604051806040016040529081600082015481526020016001820160009054906101000a900473ffffffffffffffffffffffffffffffffffffffff1673ffffffffffffffffffffffffffffffffffffffff1673ffffffffffffffffffffffffffffffffffffffff1681525050905060008160000151116107e2576040517f08c379a00000000000000000000000000000000000000000000000000000000081526004016107d990612588565b60405180910390fd5b60036000858152602001908152602001600020604051806040016040529081600082015481526020016001820160009054906101000a900473ffffffffffffffffffffffffffffffffffffffff1673ffffffffffffffffffffffffffffffffffffffff1673ffffffffffffffffffffffffffffffffffffffff168152505092505050919050565b60008060009054906101000a900460ff16905090565b6040518060400160405280600d81526020017f63616e63656c4c697374696e670000000000000000000000000000000000000081525060008054906101000a900460ff1615610900577f3b27a17eb6abbf4d7afecee861fef9cb2a747838d77634f6885a162b37c00a6d816040516108f791906124ca565b60405180910390a15b816109956040518060400160405280600881526020017f69734c69737465640000000000000000000000000000000000000000000000008152506040518060400160405280601b81526020017f436865636b696e6720696620746f6b656e206973206c69737465640000000000815250836040516020016109819190612521565b604051602081830303815290604052611f8b565b600060036000838152602001908152602001600020604051806040016040529081600082015481526020016001820160009054906101000a900473ffffffffffffffffffffffffffffffffffffffff1673ffffffffffffffffffffffffffffffffffffffff1673ffffffffffffffffffffffffffffffffffffffff168152505090506000816000015111610a5e576040517f08c379a0000000000000000000000000000000000000000000000000000000008152600401610a5590612588565b60405180910390fd5b8333610af66040518060400160405280600781526020017f69734f776e6572000000000000000000000000000000000000000000000000008152506040518060400160405280601881526020017f436865636b696e6720746f6b656e206f776e65727368697000000000000000008152508484604051602001610ae29291906125a8565b604051602081830303815290604052611f8b565b6000600160009054906101000a900473ffffffffffffffffffffffffffffffffffffffff1673ffffffffffffffffffffffffffffffffffffffff1662fdd58e83856040518363ffffffff1660e01b8152600401610b549291906125d1565b602060405180830381865afa158015610b71573d6000803e3d6000fd5b505050506040513d601f19601f82011682018060405250810190610b95919061260f565b905060008103610bda576040517f08c379a0000000000000000000000000000000000000000000000000000000008152600401610bd190612688565b60405180910390fd5b610c706040518060400160405280600d81526020017f63616e63656c4c697374696e67000000000000000000000000000000000000008152506040518060400160405280601081526020017f44656c6574696e67206c697374696e67000000000000000000000000000000008152508933604051602001610c5c9291906125a8565b604051602081830303815290604052611f8b565b600360008881526020019081526020016000206000808201600090556001820160006101000a81549073ffffffffffffffffffffffffffffffffffffffff021916905550507f76c5d8a17d0bee8bd0e004133353cd78ede70ac9ace2aa18bf839e748caff2908733604051610ce69291906125a8565b60405180910390a1505050505060008054906101000a900460ff1615610d3e577f3b27a17eb6abbf4d7afecee861fef9cb2a747838d77634f6885a162b37c00a6d81604051610d3591906127ce565b60405180910390a15b5050565b6040518060400160405280600a81526020017f6c6973745469636b65740000000000000000000000000000000000000000000081525060008054906101000a900460ff1615610dc3577f3b27a17eb6abbf4d7afecee861fef9cb2a747838d77634f6885a162b37c00a6d81604051610dba91906124ca565b60405180910390a15b8233610e3e6040518060400160405280600981526020017f6e6f744c69737465640000000000000000000000000000000000000000000000815250604051806060016040528060238152602001612c5e602391398484604051602001610e2a9291906125a8565b604051602081830303815290604052611f8b565b600060036000848152602001908152602001600020604051806040016040529081600082015481526020016001820160009054906101000a900473ffffffffffffffffffffffffffffffffffffffff1673ffffffffffffffffffffffffffffffffffffffff1673ffffffffffffffffffffffffffffffffffffffff16815250509050600081600001511115610f08576040517f08c379a0000000000000000000000000000000000000000000000000000000008152600401610eff90612862565b60405180910390fd5b8533610fa06040518060400160405280600781526020017f69734f776e6572000000000000000000000000000000000000000000000000008152506040518060400160405280601881526020017f436865636b696e6720746f6b656e206f776e65727368697000000000000000008152508484604051602001610f8c9291906125a8565b604051602081830303815290604052611f8b565b6000600160009054906101000a900473ffffffffffffffffffffffffffffffffffffffff1673ffffffffffffffffffffffffffffffffffffffff1662fdd58e83856040518363ffffffff1660e01b8152600401610ffe9291906125d1565b602060405180830381865afa15801561101b573d6000803e3d6000fd5b505050506040513d601f19601f8201168201806040525081019061103f919061260f565b905060008103611084576040517f08c379a000000000000000000000000000000000000000000000000000000000815260040161107b90612688565b60405180910390fd5b61111a6040518060400160405280600a81526020017f6c6973745469636b6574000000000000000000000000000000000000000000008152506040518060400160405280601d81526020017f436865636b696e67206d61726b6574706c61636520617070726f76616c0000008152503330604051602001611106929190612882565b604051602081830303815290604052611f8b565b6000600160009054906101000a900473ffffffffffffffffffffffffffffffffffffffff1673ffffffffffffffffffffffffffffffffffffffff1663e985e9c533306040518363ffffffff1660e01b8152600401611179929190612882565b602060405180830381865afa158015611196573d6000803e3d6000fd5b505050506040513d601f19601f820116820180604052508101906111ba91906128c0565b9050806111fc576040517f08c379a00000000000000000000000000000000000000000000000000000000081526004016111f390612939565b60405180910390fd5b6000891161123f576040517f08c379a0000000000000000000000000000000000000000000000000000000008152600401611236906126f4565b60405180910390fd5b6112d56040518060400160405280600a81526020017f6c6973745469636b6574000000000000000000000000000000000000000000008152506040518060400160405280601081526020017f4372656174696e67206c697374696e67000000000000000000000000000000008152508c8c6040516020016112c1929190612714565b604051602081830303815290604052611f8b565b60405180604001604052808a81526020013373ffffffffffffffffffffffffffffffffffffffff16815250600360008c81526020019081526020016000206000820151816000015560208201518160010160006101000a81548173ffffffffffffffffffffffffffffffffffffffff021916908373ffffffffffffffffffffffffffffffffffffffff1602179055509050507f22968ec3be3687b180f3544163a034b88d57b48159d9a7e9a1b610fdb2d05f808a338b60405161139a93929190612959565b60405180910390a15050505050505060008054906101000a900460ff16156113f4577f3b27a17eb6abbf4d7afecee861fef9cb2a747838d77634f6885a162b37c00a6d816040516113eb91906127ce565b60405180910390a15b505050565b600160009054906101000a900473ffffffffffffffffffffffffffffffffffffffff1681565b6040518060400160405280600981526020017f6275795469636b6574000000000000000000000000000000000000000000000081525060008054906101000a900460ff16156114a0577f3b27a17eb6abbf4d7afecee861fef9cb2a747838d77634f6885a162b37c00a6d8160405161149791906124ca565b60405180910390a15b816115356040518060400160405280600881526020017f69734c69737465640000000000000000000000000000000000000000000000008152506040518060400160405280601b81526020017f436865636b696e6720696620746f6b656e206973206c69737465640000000000815250836040516020016115219190612521565b604051602081830303815290604052611f8b565b600060036000838152602001908152602001600020604051806040016040529081600082015481526020016001820160009054906101000a900473ffffffffffffffffffffffffffffffffffffffff1673ffffffffffffffffffffffffffffffffffffffff1673ffffffffffffffffffffffffffffffffffffffff1681525050905060008160000151116115fe576040517f08c379a00000000000000000000000000000000000000000000000000000000081526004016115f590612588565b60405180910390fd5b6116926040518060400160405280600981526020017f6275795469636b657400000000000000000000000000000000000000000000008152506040518060400160405280601781526020017f4c6f6164696e67206c697374696e672064657461696c730000000000000000008152508660405160200161167e9190612521565b604051602081830303815290604052611f8b565b600060036000868152602001908152602001600020604051806040016040529081600082015481526020016001820160009054906101000a900473ffffffffffffffffffffffffffffffffffffffff1673ffffffffffffffffffffffffffffffffffffffff1673ffffffffffffffffffffffffffffffffffffffff168152505090506117ae6040518060400160405280600981526020017f6275795469636b657400000000000000000000000000000000000000000000008152506040518060400160405280601781526020017f436865636b696e67205553444320616c6c6f77616e636500000000000000000081525033846000015160405160200161179a9291906125d1565b604051602081830303815290604052611f8b565b8060000151600260009054906101000a900473ffffffffffffffffffffffffffffffffffffffff1673ffffffffffffffffffffffffffffffffffffffff1663dd62ed3e33306040518363ffffffff1660e01b8152600401611810929190612882565b602060405180830381865afa15801561182d573d6000803e3d6000fd5b505050506040513d601f19601f82011682018060405250810190611851919061260f565b1015611892576040517f08c379a0000000000000000000000000000000000000000000000000000000008152600401611889906129dc565b60405180910390fd5b61192c6040518060400160405280600981526020017f6275795469636b657400000000000000000000000000000000000000000000008152506040518060400160405280601581526020017f43616c63756c6174696e6720726f79616c746965730000000000000000000000815250878460000151604051602001611918929190612714565b604051602081830303815290604052611f8b565b600080600160009054906101000a900473ffffffffffffffffffffffffffffffffffffffff1673ffffffffffffffffffffffffffffffffffffffff16632a55205a8885600001516040518363ffffffff1660e01b8152600401611990929190612714565b6040805180830381865afa1580156119ac573d6000803e3d6000fd5b505050506040513d601f19601f820116820180604052508101906119d09190612a11565b91509150611a6a6040518060400160405280600981526020017f6275795469636b657400000000000000000000000000000000000000000000008152506040518060400160405280601a81526020017f50726f63657373696e6720726f79616c7479207061796d656e740000000000008152508484604051602001611a569291906125d1565b604051602081830303815290604052611f8b565b600260009054906101000a900473ffffffffffffffffffffffffffffffffffffffff1673ffffffffffffffffffffffffffffffffffffffff166323b872dd3384846040518463ffffffff1660e01b8152600401611ac993929190612a51565b6020604051808303816000875af1158015611ae8573d6000803e3d6000fd5b505050506040513d601f19601f82011682018060405250810190611b0c91906128c0565b50611bb66040518060400160405280600981526020017f6275795469636b657400000000000000000000000000000000000000000000008152506040518060400160405280601981526020017f50726f63657373696e672073656c6c6572207061796d656e74000000000000008152508560200151848760000151611b919190612ab7565b604051602001611ba29291906125d1565b604051602081830303815290604052611f8b565b600260009054906101000a900473ffffffffffffffffffffffffffffffffffffffff1673ffffffffffffffffffffffffffffffffffffffff166323b872dd338560200151848760000151611c0a9190612ab7565b6040518463ffffffff1660e01b8152600401611c2893929190612a51565b6020604051808303816000875af1158015611c47573d6000803e3d6000fd5b505050506040513d601f19601f82011682018060405250810190611c6b91906128c0565b50611d086040518060400160405280600981526020017f6275795469636b657400000000000000000000000000000000000000000000008152506040518060400160405280601081526020017f5472616e7366657272696e67204e4654000000000000000000000000000000008152508560200151338b604051602001611cf493929190612a51565b604051602081830303815290604052611f8b565b600160009054906101000a900473ffffffffffffffffffffffffffffffffffffffff1673ffffffffffffffffffffffffffffffffffffffff1663f242432a8460200151338a60016040518563ffffffff1660e01b8152600401611d6e9493929190612b30565b600060405180830381600087803b158015611d8857600080fd5b505af1158015611d9c573d6000803e3d6000fd5b50505050600360008881526020019081526020016000206000808201600090556001820160006101000a81549073ffffffffffffffffffffffffffffffffffffffff021916905550507f2bbc64d6afd28a753f6c5e4aaa894f1d684c44a0e080167eae104ac8505cfebd878460200151338660000151604051611e229493929190612b88565b60405180910390a1505050505060008054906101000a900460ff1615611e7a577f3b27a17eb6abbf4d7afecee861fef9cb2a747838d77634f6885a162b37c00a6d81604051611e7191906127ce565b60405180910390a15b5050565b611e86611fdf565b611e906000612066565b565b611e9a611fdf565b806000806101000a81548160ff02191690831515021790555050565b60008060019054906101000a900473ffffffffffffffffffffffffffffffffffffffff16905090565b600260009054906101000a900473ffffffffffffffffffffffffffffffffffffffff1681565b611f0d611fdf565b600073ffffffffffffffffffffffffffffffffffffffff168173ffffffffffffffffffffffffffffffffffffffff1603611f7f5760006040517f1e4fbdf7000000000000000000000000000000000000000000000000000000008152600401611f7691906122ea565b60405180910390fd5b611f8881612066565b50565b60008054906101000a900460ff1615611fda577f3b27a17eb6abbf4d7afecee861fef9cb2a747838d77634f6885a162b37c00a6d838383604051611fd193929190612c11565b60405180910390a15b505050565b611fe761212b565b73ffffffffffffffffffffffffffffffffffffffff16612005611eb6565b73ffffffffffffffffffffffffffffffffffffffff16146120645761202861212b565b6040517f118cdaa700000000000000000000000000000000000000000000000000000000815260040161205b91906122ea565b60405180910390fd5b565b60008060019054906101000a900473ffffffffffffffffffffffffffffffffffffffff16905081600060016101000a81548173ffffffffffffffffffffffffffffffffffffffff021916908373ffffffffffffffffffffffffffffffffffffffff1602179055508173ffffffffffffffffffffffffffffffffffffffff168173ffffffffffffffffffffffffffffffffffffffff167f8be0079c531659141344cd1fd0a4f28419497f9722a3daafe3b4186f6b6457e060405160405180910390a35050565b600033905090565b604051806040016040528060008152602001600073ffffffffffffffffffffffffffffffffffffffff1681525090565b600080fd5b6000819050919050565b61217b81612168565b811461218657600080fd5b50565b60008135905061219881612172565b92915050565b600080604083850312156121b5576121b4612163565b5b60006121c385828601612189565b92505060206121d485828601612189565b9150509250929050565b6000602082840312156121f4576121f3612163565b5b600061220284828501612189565b91505092915050565b61221481612168565b82525050565b600073ffffffffffffffffffffffffffffffffffffffff82169050919050565b60006122458261221a565b9050919050565b6122558161223a565b82525050565b604082016000820151612271600085018261220b565b506020820151612284602085018261224c565b50505050565b600060408201905061229f600083018461225b565b92915050565b60008115159050919050565b6122ba816122a5565b82525050565b60006020820190506122d560008301846122b1565b92915050565b6122e48161223a565b82525050565b60006020820190506122ff60008301846122db565b92915050565b61230e816122a5565b811461231957600080fd5b50565b60008135905061232b81612305565b92915050565b60006020828403121561234757612346612163565b5b60006123558482850161231c565b91505092915050565b6123678161223a565b811461237257600080fd5b50565b6000813590506123848161235e565b92915050565b6000602082840312156123a05761239f612163565b5b60006123ae84828501612375565b91505092915050565b600081519050919050565b600082825260208201905092915050565b60005b838110156123f15780820151818401526020810190506123d6565b60008484015250505050565b6000601f19601f8301169050919050565b6000612419826123b7565b61242381856123c2565b93506124338185602086016123d3565b61243c816123fd565b840191505092915050565b7f4d6574686f6420656e7472790000000000000000000000000000000000000000600082015250565b600061247d600c836123c2565b915061248882612447565b602082019050919050565b600082825260208201905092915050565b50565b60006124b4600083612493565b91506124bf826124a4565b600082019050919050565b600060608201905081810360008301526124e4818461240e565b905081810360208301526124f781612470565b9050818103604083015261250a816124a7565b905092915050565b61251b81612168565b82525050565b60006020820190506125366000830184612512565b92915050565b7f546f6b656e206e6f74206c697374656400000000000000000000000000000000600082015250565b60006125726010836123c2565b915061257d8261253c565b602082019050919050565b600060208201905081810360008301526125a181612565565b9050919050565b60006040820190506125bd6000830185612512565b6125ca60208301846122db565b9392505050565b60006040820190506125e660008301856122db565b6125f36020830184612512565b9392505050565b60008151905061260981612172565b92915050565b60006020828403121561262557612624612163565b5b6000612633848285016125fa565b91505092915050565b7f546f6b656e206e6f74206f776e65642062792063616c6c657200000000000000600082015250565b60006126726019836123c2565b915061267d8261263c565b602082019050919050565b600060208201905081810360008301526126a181612665565b9050919050565b7f5072696365206d7573742062652067726561746572207468616e207a65726f00600082015250565b60006126de601f836123c2565b91506126e9826126a8565b602082019050919050565b6000602082019050818103600083015261270d816126d1565b9050919050565b60006040820190506127296000830185612512565b6127366020830184612512565b9392505050565b60006080820190506127526000830187612512565b61275f60208301866122db565b61276c6040830185612512565b6127796060830184612512565b95945050505050565b7f4d6574686f642065786974000000000000000000000000000000000000000000600082015250565b60006127b8600b836123c2565b91506127c382612782565b602082019050919050565b600060608201905081810360008301526127e8818461240e565b905081810360208301526127fb816127ab565b9050818103604083015261280e816124a7565b905092915050565b7f546f6b656e20616c7265616479206c6973746564000000000000000000000000600082015250565b600061284c6014836123c2565b915061285782612816565b602082019050919050565b6000602082019050818103600083015261287b8161283f565b9050919050565b600060408201905061289760008301856122db565b6128a460208301846122db565b9392505050565b6000815190506128ba81612305565b92915050565b6000602082840312156128d6576128d5612163565b5b60006128e4848285016128ab565b91505092915050565b7f4d61726b6574706c616365206973206e6f7420617070726f7665640000000000600082015250565b6000612923601b836123c2565b915061292e826128ed565b602082019050919050565b6000602082019050818103600083015261295281612916565b9050919050565b600060608201905061296e6000830186612512565b61297b60208301856122db565b6129886040830184612512565b949350505050565b7f496e73756666696369656e74205553444320616c6c6f77616e63650000000000600082015250565b60006129c6601b836123c2565b91506129d182612990565b602082019050919050565b600060208201905081810360008301526129f5816129b9565b9050919050565b600081519050612a0b8161235e565b92915050565b60008060408385031215612a2857612a27612163565b5b6000612a36858286016129fc565b9250506020612a47858286016125fa565b9150509250929050565b6000606082019050612a6660008301866122db565b612a7360208301856122db565b612a806040830184612512565b949350505050565b7f4e487b7100000000000000000000000000000000000000000000000000000000600052601160045260246000fd5b6000612ac282612168565b9150612acd83612168565b9250828203905081811115612ae557612ae4612a88565b5b92915050565b6000819050919050565b6000819050919050565b6000612b1a612b15612b1084612aeb565b612af5565b612168565b9050919050565b612b2a81612aff565b82525050565b600060a082019050612b4560008301876122db565b612b5260208301866122db565b612b5f6040830185612512565b612b6c6060830184612b21565b8181036080830152612b7d816124a7565b905095945050505050565b6000608082019050612b9d6000830187612512565b612baa60208301866122db565b612bb760408301856122db565b612bc46060830184612512565b95945050505050565b600081519050919050565b6000612be382612bcd565b612bed8185612493565b9350612bfd8185602086016123d3565b612c06816123fd565b840191505092915050565b60006060820190508181036000830152612c2b818661240e565b90508181036020830152612c3f818561240e565b90508181036040830152612c538184612bd8565b905094935050505056fe436865636b696e6720696620746f6b656e20697320616c7265616479206c6973746564a26469706673582212200d56fcca19d023f3cabb2c1d604b42d2688220cbdca39f37c4086d6d895b788664736f6c634300081b0033",
  "linkReferences": {},
  "deployedLinkReferences": {}
}