{
  "_format": "hh-sol-artifact-1",
  "contractName": "EventRegistry",
  "sourceName": "contracts/modules/EventRegistry/EventRegistry.sol",
  "abi": [
    {
      "inputs": [
        {
          "internalType": "address",
          "name": "_ticketContract",
          "type": "address"
        },
        {
          "internalType": "address",
          "name": "_ftContract",
          "type": "address"
        },
        {
          "internalType": "address",
          "name": "_specialMomentContract",
          "type": "address"
        }
      ],
      "stateMutability": "nonpayable",
      "type": "constructor"
    },
    {
      "inputs": [
        {
          "internalType": "address",
          "name": "owner",
          "type": "address"
        }
      ],
      "name": "OwnableInvalidOwner",
      "type": "error"
    },
    {
      "inputs": [
        {
          "internalType": "address",
          "name": "account",
          "type": "address"
        }
      ],
      "name": "OwnableUnauthorizedAccount",
      "type": "error"
    },
    {
      "anonymous": false,
      "inputs": [
        {
          "indexed": false,
          "internalType": "string",
          "name": "methodName",
          "type": "string"
        },
        {
          "indexed": false,
          "internalType": "string",
          "name": "message",
          "type": "string"
        },
        {
          "indexed": false,
          "internalType": "bytes",
          "name": "data",
          "type": "bytes"
        }
      ],
      "name": "Debug",
      "type": "event"
    },
    {
      "anonymous": false,
      "inputs": [
        {
          "components": [
            {
              "internalType": "uint64",
              "name": "id",
              "type": "uint64"
            },
            {
              "internalType": "string",
              "name": "title",
              "type": "string"
            },
            {
              "internalType": "string",
              "name": "description",
              "type": "string"
            },
            {
              "internalType": "address",
              "name": "owner",
              "type": "address"
            },
            {
              "internalType": "uint256",
              "name": "startAt",
              "type": "uint256"
            },
            {
              "internalType": "uint256",
              "name": "endAt",
              "type": "uint256"
            },
            {
              "internalType": "uint96",
              "name": "royalty",
              "type": "uint96"
            },
            {
              "internalType": "string",
              "name": "baseUri",
              "type": "string"
            },
            {
              "internalType": "string",
              "name": "eventCategory",
              "type": "string"
            },
            {
              "internalType": "string",
              "name": "eventSubcategory",
              "type": "string"
            },
            {
              "components": [
                {
                  "internalType": "string",
                  "name": "place",
                  "type": "string"
                },
                {
                  "internalType": "string",
                  "name": "venue",
                  "type": "string"
                },
                {
                  "internalType": "string",
                  "name": "city",
                  "type": "string"
                },
                {
                  "internalType": "string",
                  "name": "country",
                  "type": "string"
                }
              ],
              "internalType": "struct EventLocation",
              "name": "location",
              "type": "tuple"
            },
            {
              "components": [
                {
                  "internalType": "uint64",
                  "name": "id",
                  "type": "uint64"
                },
                {
                  "internalType": "string",
                  "name": "name",
                  "type": "string"
                },
                {
                  "internalType": "uint256",
                  "name": "copies",
                  "type": "uint256"
                },
                {
                  "internalType": "uint256",
                  "name": "ticketCount",
                  "type": "uint256"
                },
                {
                  "internalType": "uint256",
                  "name": "price",
                  "type": "uint256"
                }
              ],
              "internalType": "struct TicketCategoryResponse[]",
              "name": "ticketCategories",
              "type": "tuple[]"
            }
          ],
          "indexed": false,
          "internalType": "struct EventResponse",
          "name": "eventResponse",
          "type": "tuple"
        }
      ],
      "name": "EventCreated",
      "type": "event"
    },
    {
      "anonymous": false,
      "inputs": [
        {
          "components": [
            {
              "internalType": "uint256",
              "name": "collectionId",
              "type": "uint256"
            },
            {
              "internalType": "uint64",
              "name": "eventId",
              "type": "uint64"
            },
            {
              "internalType": "string",
              "name": "name",
              "type": "string"
            },
            {
              "internalType": "string",
              "name": "baseUri",
              "type": "string"
            },
            {
              "internalType": "string",
              "name": "description",
              "type": "string"
            },
            {
              "internalType": "uint256",
              "name": "createdAt",
              "type": "uint256"
            }
          ],
          "indexed": false,
          "internalType": "struct EventRegistry.MomentCollectionCreatedDto",
          "name": "momentCollection",
          "type": "tuple"
        }
      ],
      "name": "MomentCollectionCreated",
      "type": "event"
    },
    {
      "anonymous": false,
      "inputs": [
        {
          "indexed": true,
          "internalType": "address",
          "name": "previousOwner",
          "type": "address"
        },
        {
          "indexed": true,
          "internalType": "address",
          "name": "newOwner",
          "type": "address"
        }
      ],
      "name": "OwnershipTransferred",
      "type": "event"
    },
    {
      "anonymous": false,
      "inputs": [
        {
          "components": [
            {
              "internalType": "uint256",
              "name": "tokenId",
              "type": "uint256"
            },
            {
              "internalType": "uint64",
              "name": "eventId",
              "type": "uint64"
            },
            {
              "internalType": "uint64",
              "name": "categoryId",
              "type": "uint64"
            },
            {
              "internalType": "uint128",
              "name": "seatId",
              "type": "uint128"
            },
            {
              "internalType": "uint256",
              "name": "createdAt",
              "type": "uint256"
            },
            {
              "internalType": "address",
              "name": "owner",
              "type": "address"
            }
          ],
          "indexed": false,
          "internalType": "struct TicketPurchasedDto",
          "name": "purchase",
          "type": "tuple"
        }
      ],
      "name": "TicketPurchased",
      "type": "event"
    },
    {
      "inputs": [
        {
          "internalType": "uint64",
          "name": "eventId",
          "type": "uint64"
        },
        {
          "internalType": "uint64",
          "name": "categoryId",
          "type": "uint64"
        },
        {
          "internalType": "uint128",
          "name": "seatId",
          "type": "uint128"
        }
      ],
      "name": "buyTicket",
      "outputs": [],
      "stateMutability": "nonpayable",
      "type": "function"
    },
    {
      "inputs": [
        {
          "components": [
            {
              "internalType": "string",
              "name": "title",
              "type": "string"
            },
            {
              "internalType": "string",
              "name": "description",
              "type": "string"
            },
            {
              "internalType": "uint256",
              "name": "startAt",
              "type": "uint256"
            },
            {
              "internalType": "uint256",
              "name": "endAt",
              "type": "uint256"
            },
            {
              "internalType": "uint96",
              "name": "royalty",
              "type": "uint96"
            },
            {
              "internalType": "string",
              "name": "baseUri",
              "type": "string"
            },
            {
              "internalType": "string",
              "name": "eventCategory",
              "type": "string"
            },
            {
              "internalType": "string",
              "name": "eventSubcategory",
              "type": "string"
            },
            {
              "components": [
                {
                  "internalType": "string",
                  "name": "place",
                  "type": "string"
                },
                {
                  "internalType": "string",
                  "name": "venue",
                  "type": "string"
                },
                {
                  "internalType": "string",
                  "name": "city",
                  "type": "string"
                },
                {
                  "internalType": "string",
                  "name": "country",
                  "type": "string"
                }
              ],
              "internalType": "struct EventLocationDto",
              "name": "location",
              "type": "tuple"
            },
            {
              "components": [
                {
                  "internalType": "string",
                  "name": "name",
                  "type": "string"
                },
                {
                  "internalType": "uint256",
                  "name": "copies",
                  "type": "uint256"
                },
                {
                  "internalType": "uint256",
                  "name": "price",
                  "type": "uint256"
                }
              ],
              "internalType": "struct TicketCategoryDto[]",
              "name": "ticketCategories",
              "type": "tuple[]"
            }
          ],
          "internalType": "struct EventCreationDto",
          "name": "dto",
          "type": "tuple"
        }
      ],
      "name": "createEvent",
      "outputs": [
        {
          "internalType": "uint256",
          "name": "",
          "type": "uint256"
        }
      ],
      "stateMutability": "nonpayable",
      "type": "function"
    },
    {
      "inputs": [
        {
          "components": [
            {
              "internalType": "uint64",
              "name": "eventId",
              "type": "uint64"
            },
            {
              "internalType": "string",
              "name": "name",
              "type": "string"
            },
            {
              "internalType": "string",
              "name": "description",
              "type": "string"
            },
            {
              "internalType": "string",
              "name": "baseUri",
              "type": "string"
            },
            {
              "internalType": "uint256",
              "name": "copies",
              "type": "uint256"
            },
            {
              "internalType": "uint96",
              "name": "royalty",
              "type": "uint96"
            },
            {
              "internalType": "address[]",
              "name": "receivers",
              "type": "address[]"
            }
          ],
          "internalType": "struct CollectionCreationDto",
          "name": "collectionCreationDto",
          "type": "tuple"
        }
      ],
      "name": "createMomentCollection",
      "outputs": [],
      "stateMutability": "nonpayable",
      "type": "function"
    },
    {
      "inputs": [],
      "name": "debugMode",
      "outputs": [
        {
          "internalType": "bool",
          "name": "",
          "type": "bool"
        }
      ],
      "stateMutability": "view",
      "type": "function"
    },
    {
      "inputs": [
        {
          "internalType": "uint256",
          "name": "",
          "type": "uint256"
        }
      ],
      "name": "events",
      "outputs": [
        {
          "internalType": "uint64",
          "name": "id",
          "type": "uint64"
        },
        {
          "internalType": "string",
          "name": "title",
          "type": "string"
        },
        {
          "internalType": "string",
          "name": "description",
          "type": "string"
        },
        {
          "internalType": "address",
          "name": "owner",
          "type": "address"
        },
        {
          "internalType": "uint256",
          "name": "startAt",
          "type": "uint256"
        },
        {
          "internalType": "uint256",
          "name": "endAt",
          "type": "uint256"
        },
        {
          "internalType": "uint96",
          "name": "royalty",
          "type": "uint96"
        },
        {
          "internalType": "string",
          "name": "baseUri",
          "type": "string"
        },
        {
          "internalType": "string",
          "name": "eventCategory",
          "type": "string"
        },
        {
          "internalType": "string",
          "name": "eventSubcategory",
          "type": "string"
        },
        {
          "components": [
            {
              "internalType": "string",
              "name": "place",
              "type": "string"
            },
            {
              "internalType": "string",
              "name": "venue",
              "type": "string"
            },
            {
              "internalType": "string",
              "name": "city",
              "type": "string"
            },
            {
              "internalType": "string",
              "name": "country",
              "type": "string"
            }
          ],
          "internalType": "struct EventLocation",
          "name": "location",
          "type": "tuple"
        }
      ],
      "stateMutability": "view",
      "type": "function"
    },
    {
      "inputs": [],
      "name": "ftContract",
      "outputs": [
        {
          "internalType": "address",
          "name": "",
          "type": "address"
        }
      ],
      "stateMutability": "view",
      "type": "function"
    },
    {
      "inputs": [
        {
          "internalType": "uint64",
          "name": "eventId",
          "type": "uint64"
        }
      ],
      "name": "getEventById",
      "outputs": [
        {
          "components": [
            {
              "internalType": "uint64",
              "name": "id",
              "type": "uint64"
            },
            {
              "internalType": "string",
              "name": "title",
              "type": "string"
            },
            {
              "internalType": "string",
              "name": "description",
              "type": "string"
            },
            {
              "internalType": "address",
              "name": "owner",
              "type": "address"
            },
            {
              "internalType": "uint256",
              "name": "startAt",
              "type": "uint256"
            },
            {
              "internalType": "uint256",
              "name": "endAt",
              "type": "uint256"
            },
            {
              "internalType": "uint96",
              "name": "royalty",
              "type": "uint96"
            },
            {
              "internalType": "string",
              "name": "baseUri",
              "type": "string"
            },
            {
              "internalType": "string",
              "name": "eventCategory",
              "type": "string"
            },
            {
              "internalType": "string",
              "name": "eventSubcategory",
              "type": "string"
            },
            {
              "components": [
                {
                  "internalType": "string",
                  "name": "place",
                  "type": "string"
                },
                {
                  "internalType": "string",
                  "name": "venue",
                  "type": "string"
                },
                {
                  "internalType": "string",
                  "name": "city",
                  "type": "string"
                },
                {
                  "internalType": "string",
                  "name": "country",
                  "type": "string"
                }
              ],
              "internalType": "struct EventLocation",
              "name": "location",
              "type": "tuple"
            },
            {
              "components": [
                {
                  "internalType": "uint64",
                  "name": "id",
                  "type": "uint64"
                },
                {
                  "internalType": "string",
                  "name": "name",
                  "type": "string"
                },
                {
                  "internalType": "uint256",
                  "name": "copies",
                  "type": "uint256"
                },
                {
                  "internalType": "uint256",
                  "name": "ticketCount",
                  "type": "uint256"
                },
                {
                  "internalType": "uint256",
                  "name": "price",
                  "type": "uint256"
                }
              ],
              "internalType": "struct TicketCategoryResponse[]",
              "name": "ticketCategories",
              "type": "tuple[]"
            }
          ],
          "internalType": "struct EventResponse",
          "name": "",
          "type": "tuple"
        }
      ],
      "stateMutability": "view",
      "type": "function"
    },
    {
      "inputs": [
        {
          "internalType": "address",
          "name": "_owner",
          "type": "address"
        }
      ],
      "name": "getEventsByOwner",
      "outputs": [
        {
          "components": [
            {
              "internalType": "uint64",
              "name": "id",
              "type": "uint64"
            },
            {
              "internalType": "string",
              "name": "title",
              "type": "string"
            },
            {
              "internalType": "string",
              "name": "description",
              "type": "string"
            },
            {
              "internalType": "address",
              "name": "owner",
              "type": "address"
            },
            {
              "internalType": "uint256",
              "name": "startAt",
              "type": "uint256"
            },
            {
              "internalType": "uint256",
              "name": "endAt",
              "type": "uint256"
            },
            {
              "internalType": "uint96",
              "name": "royalty",
              "type": "uint96"
            },
            {
              "internalType": "string",
              "name": "baseUri",
              "type": "string"
            },
            {
              "internalType": "string",
              "name": "eventCategory",
              "type": "string"
            },
            {
              "internalType": "string",
              "name": "eventSubcategory",
              "type": "string"
            },
            {
              "components": [
                {
                  "internalType": "string",
                  "name": "place",
                  "type": "string"
                },
                {
                  "internalType": "string",
                  "name": "venue",
                  "type": "string"
                },
                {
                  "internalType": "string",
                  "name": "city",
                  "type": "string"
                },
                {
                  "internalType": "string",
                  "name": "country",
                  "type": "string"
                }
              ],
              "internalType": "struct EventLocation",
              "name": "location",
              "type": "tuple"
            },
            {
              "components": [
                {
                  "internalType": "uint64",
                  "name": "id",
                  "type": "uint64"
                },
                {
                  "internalType": "string",
                  "name": "name",
                  "type": "string"
                },
                {
                  "internalType": "uint256",
                  "name": "copies",
                  "type": "uint256"
                },
                {
                  "internalType": "uint256",
                  "name": "ticketCount",
                  "type": "uint256"
                },
                {
                  "internalType": "uint256",
                  "name": "price",
                  "type": "uint256"
                }
              ],
              "internalType": "struct TicketCategoryResponse[]",
              "name": "ticketCategories",
              "type": "tuple[]"
            }
          ],
          "internalType": "struct EventResponse[]",
          "name": "",
          "type": "tuple[]"
        }
      ],
      "stateMutability": "view",
      "type": "function"
    },
    {
      "inputs": [
        {
          "internalType": "uint64",
          "name": "",
          "type": "uint64"
        },
        {
          "internalType": "uint256",
          "name": "",
          "type": "uint256"
        }
      ],
      "name": "momentCollectionPerEvent",
      "outputs": [
        {
          "internalType": "uint64",
          "name": "id",
          "type": "uint64"
        },
        {
          "internalType": "string",
          "name": "name",
          "type": "string"
        },
        {
          "internalType": "string",
          "name": "description",
          "type": "string"
        },
        {
          "internalType": "uint256",
          "name": "copies",
          "type": "uint256"
        },
        {
          "internalType": "uint256",
          "name": "royalty",
          "type": "uint256"
        },
        {
          "internalType": "string",
          "name": "baseUri",
          "type": "string"
        }
      ],
      "stateMutability": "view",
      "type": "function"
    },
    {
      "inputs": [],
      "name": "owner",
      "outputs": [
        {
          "internalType": "address",
          "name": "",
          "type": "address"
        }
      ],
      "stateMutability": "view",
      "type": "function"
    },
    {
      "inputs": [
        {
          "internalType": "address",
          "name": "",
          "type": "address"
        },
        {
          "internalType": "uint256",
          "name": "",
          "type": "uint256"
        }
      ],
      "name": "ownerEvents",
      "outputs": [
        {
          "internalType": "uint64",
          "name": "",
          "type": "uint64"
        }
      ],
      "stateMutability": "view",
      "type": "function"
    },
    {
      "inputs": [],
      "name": "renounceOwnership",
      "outputs": [],
      "stateMutability": "nonpayable",
      "type": "function"
    },
    {
      "inputs": [
        {
          "internalType": "bool",
          "name": "mode",
          "type": "bool"
        }
      ],
      "name": "setDebugMode",
      "outputs": [],
      "stateMutability": "nonpayable",
      "type": "function"
    },
    {
      "inputs": [],
      "name": "specialMomentContract",
      "outputs": [
        {
          "internalType": "address",
          "name": "",
          "type": "address"
        }
      ],
      "stateMutability": "view",
      "type": "function"
    },
    {
      "inputs": [
        {
          "internalType": "uint64",
          "name": "",
          "type": "uint64"
        },
        {
          "internalType": "uint256",
          "name": "",
          "type": "uint256"
        }
      ],
      "name": "ticketCategoriesPerEvent",
      "outputs": [
        {
          "internalType": "uint64",
          "name": "id",
          "type": "uint64"
        },
        {
          "internalType": "string",
          "name": "name",
          "type": "string"
        },
        {
          "internalType": "uint256",
          "name": "copies",
          "type": "uint256"
        },
        {
          "internalType": "uint256",
          "name": "ticketCount",
          "type": "uint256"
        },
        {
          "internalType": "uint256",
          "name": "price",
          "type": "uint256"
        }
      ],
      "stateMutability": "view",
      "type": "function"
    },
    {
      "inputs": [],
      "name": "ticketContract",
      "outputs": [
        {
          "internalType": "address",
          "name": "",
          "type": "address"
        }
      ],
      "stateMutability": "view",
      "type": "function"
    },
    {
      "inputs": [
        {
          "internalType": "address",
          "name": "newOwner",
          "type": "address"
        }
      ],
      "name": "transferOwnership",
      "outputs": [],
      "stateMutability": "nonpayable",
      "type": "function"
    },
    {
      "inputs": [
        {
          "internalType": "uint64",
          "name": "eventId",
          "type": "uint64"
        },
        {
          "internalType": "string",
          "name": "_title",
          "type": "string"
        },
        {
          "internalType": "string",
          "name": "_description",
          "type": "string"
        },
        {
          "internalType": "uint256",
          "name": "_startAt",
          "type": "uint256"
        },
        {
          "internalType": "uint256",
          "name": "_endAt",
          "type": "uint256"
        },
        {
          "internalType": "string",
          "name": "_eventCategory",
          "type": "string"
        },
        {
          "internalType": "string",
          "name": "_eventSubcategory",
          "type": "string"
        }
      ],
      "name": "updateEvent",
      "outputs": [],
      "stateMutability": "nonpayable",
      "type": "function"
    }
  ],
  "bytecode": "0x608060405234801561001057600080fd5b506040516162ff3803806162ff833981810160405281019061003291906102c2565b33600073ffffffffffffffffffffffffffffffffffffffff168173ffffffffffffffffffffffffffffffffffffffff16036100a55760006040517f1e4fbdf700000000000000000000000000000000000000000000000000000000815260040161009c9190610324565b60405180910390fd5b6100b48161019a60201b60201c565b5082600560006101000a81548173ffffffffffffffffffffffffffffffffffffffff021916908373ffffffffffffffffffffffffffffffffffffffff16021790555081600660006101000a81548173ffffffffffffffffffffffffffffffffffffffff021916908373ffffffffffffffffffffffffffffffffffffffff16021790555080600760006101000a81548173ffffffffffffffffffffffffffffffffffffffff021916908373ffffffffffffffffffffffffffffffffffffffff16021790555060016000806101000a81548160ff02191690831515021790555050505061033f565b60008060019054906101000a900473ffffffffffffffffffffffffffffffffffffffff16905081600060016101000a81548173ffffffffffffffffffffffffffffffffffffffff021916908373ffffffffffffffffffffffffffffffffffffffff1602179055508173ffffffffffffffffffffffffffffffffffffffff168173ffffffffffffffffffffffffffffffffffffffff167f8be0079c531659141344cd1fd0a4f28419497f9722a3daafe3b4186f6b6457e060405160405180910390a35050565b600080fd5b600073ffffffffffffffffffffffffffffffffffffffff82169050919050565b600061028f82610264565b9050919050565b61029f81610284565b81146102aa57600080fd5b50565b6000815190506102bc81610296565b92915050565b6000806000606084860312156102db576102da61025f565b5b60006102e9868287016102ad565b93505060206102fa868287016102ad565b925050604061030b868287016102ad565b9150509250925092565b61031e81610284565b82525050565b60006020820190506103396000830184610315565b92915050565b615fb18061034e6000396000f3fe608060405234801561001057600080fd5b50600436106101165760003560e01c8063715018a6116100a25780638da5cb5b116100715780638da5cb5b14610306578063beb641f714610324578063cf7c0cd414610340578063ea4780f514610370578063f2fde38b1461038e57610116565b8063715018a61461027b57806374c2ad6314610285578063845b1337146102b55780638811e191146102ea57610116565b806341507cc8116100e957806341507cc8146101ab578063567c34d6146101db57806358a86e1d146101f957806358dde09f146102175780636e61248a1461024b57610116565b80630b7914301461011b5780631c9568be146101555780631de50452146101735780633f9a9f411461018f575b600080fd5b610135600480360381019061013091906139ae565b6103aa565b60405161014c9b9a99989796959493929190613bc7565b60405180910390f35b61015d61095a565b60405161016a9190613cb7565b60405180910390f35b61018d60048036038101906101889190613d46565b610970565b005b6101a960048036038101906101a4919061411c565b6113ca565b005b6101c560048036038101906101c09190614165565b61181f565b6040516101d291906141a5565b60405180910390f35b6101e361186c565b6040516101f091906141c0565b60405180910390f35b610201611892565b60405161020e91906141c0565b60405180910390f35b610231600480360381019061022c91906141db565b6118b8565b60405161024295949392919061421b565b60405180910390f35b61026560048036038101906102609190614678565b6119a7565b60405161027291906146c1565b60405180910390f35b61028361232e565b005b61029f600480360381019061029a91906146dc565b612342565b6040516102ac9190614ae5565b60405180910390f35b6102cf60048036038101906102ca91906141db565b6124ec565b6040516102e196959493929190614b07565b60405180910390f35b61030460048036038101906102ff9190614ba9565b6126f1565b005b61030e612715565b60405161031b91906141c0565b60405180910390f35b61033e60048036038101906103399190614bd6565b61273e565b005b61035a60048036038101906103559190614ce8565b612959565b6040516103679190614e43565b60405180910390f35b610378612971565b60405161038591906141c0565b60405180910390f35b6103a860048036038101906103a391906146dc565b612997565b005b600181815481106103ba57600080fd5b90600052602060002090600e02016000915090508060000160009054906101000a900467ffffffffffffffff16908060010180546103f790614e94565b80601f016020809104026020016040519081016040528092919081815260200182805461042390614e94565b80156104705780601f1061044557610100808354040283529160200191610470565b820191906000526020600020905b81548152906001019060200180831161045357829003601f168201915b50505050509080600201805461048590614e94565b80601f01602080910402602001604051908101604052809291908181526020018280546104b190614e94565b80156104fe5780601f106104d3576101008083540402835291602001916104fe565b820191906000526020600020905b8154815290600101906020018083116104e157829003601f168201915b5050505050908060030160009054906101000a900473ffffffffffffffffffffffffffffffffffffffff16908060040154908060050154908060060160009054906101000a90046bffffffffffffffffffffffff169080600701805461056390614e94565b80601f016020809104026020016040519081016040528092919081815260200182805461058f90614e94565b80156105dc5780601f106105b1576101008083540402835291602001916105dc565b820191906000526020600020905b8154815290600101906020018083116105bf57829003601f168201915b5050505050908060080180546105f190614e94565b80601f016020809104026020016040519081016040528092919081815260200182805461061d90614e94565b801561066a5780601f1061063f5761010080835404028352916020019161066a565b820191906000526020600020905b81548152906001019060200180831161064d57829003601f168201915b50505050509080600901805461067f90614e94565b80601f01602080910402602001604051908101604052809291908181526020018280546106ab90614e94565b80156106f85780601f106106cd576101008083540402835291602001916106f8565b820191906000526020600020905b8154815290600101906020018083116106db57829003601f168201915b50505050509080600a0160405180608001604052908160008201805461071d90614e94565b80601f016020809104026020016040519081016040528092919081815260200182805461074990614e94565b80156107965780601f1061076b57610100808354040283529160200191610796565b820191906000526020600020905b81548152906001019060200180831161077957829003601f168201915b505050505081526020016001820180546107af90614e94565b80601f01602080910402602001604051908101604052809291908181526020018280546107db90614e94565b80156108285780601f106107fd57610100808354040283529160200191610828565b820191906000526020600020905b81548152906001019060200180831161080b57829003601f168201915b5050505050815260200160028201805461084190614e94565b80601f016020809104026020016040519081016040528092919081815260200182805461086d90614e94565b80156108ba5780601f1061088f576101008083540402835291602001916108ba565b820191906000526020600020905b81548152906001019060200180831161089d57829003601f168201915b505050505081526020016003820180546108d390614e94565b80601f01602080910402602001604051908101604052809291908181526020018280546108ff90614e94565b801561094c5780601f106109215761010080835404028352916020019161094c565b820191906000526020600020905b81548152906001019060200180831161092f57829003601f168201915b50505050508152505090508b565b60008060009054906101000a900460ff16905090565b6040518060400160405280600981526020017f6275795469636b6574000000000000000000000000000000000000000000000081525060008054906101000a900460ff16156109f1577f3b27a17eb6abbf4d7afecee861fef9cb2a747838d77634f6885a162b37c00a6d816040516109e89190614f48565b60405180910390a15b610a876040518060400160405280600981526020017f6275795469636b657400000000000000000000000000000000000000000000008152506040518060400160405280601281526020017f4c6f6164696e672063617465676f7269657300000000000000000000000000008152508686604051602001610a73929190614f90565b604051602081830303815290604052612a1d565b6000600360008667ffffffffffffffff1667ffffffffffffffff16815260200190815260200160002090506000818054905011610af9576040517f08c379a0000000000000000000000000000000000000000000000000000000008152600401610af090615005565b60405180910390fd5b610b8d6040518060400160405280600981526020017f6275795469636b657400000000000000000000000000000000000000000000008152506040518060400160405280601581526020017f4c6f6164696e67206576656e742064657461696c73000000000000000000000081525087604051602001610b7991906141a5565b604051602081830303815290604052612a1d565b6000610b9886612a71565b9050610c2e6040518060400160405280600981526020017f6275795469636b657400000000000000000000000000000000000000000000008152506040518060400160405280601781526020017f46696e64696e67207469636b65742063617465676f727900000000000000000081525087604051602001610c1a91906141a5565b604051602081830303815290604052612a1d565b600082600081548110610c4457610c43615025565b5b906000526020600020906006020190506000805b8480549050811015610cf0578767ffffffffffffffff16858281548110610c8257610c81615025565b5b906000526020600020906006020160000160009054906101000a900467ffffffffffffffff1667ffffffffffffffff1603610ce35760019150848181548110610cce57610ccd615025565b5b90600052602060002090600602019250610cf0565b8080600101915050610c58565b5080610d31576040517f08c379a0000000000000000000000000000000000000000000000000000000008152600401610d28906150a0565b60405180910390fd5b610dcb6040518060400160405280600981526020017f6275795469636b657400000000000000000000000000000000000000000000008152506040518060400160405280600f81526020017f56616c69646174696e6720736561740000000000000000000000000000000000815250888560020154604051602001610db79291906150cf565b604051602081830303815290604052612a1d565b8160020154866fffffffffffffffffffffffffffffffff1610610e23576040517f08c379a0000000000000000000000000000000000000000000000000000000008152600401610e1a90615144565b60405180910390fd5b610eb76040518060400160405280600981526020017f6275795469636b657400000000000000000000000000000000000000000000008152506040518060400160405280601a81526020017f436865636b696e67207365617420617661696c6162696c69747900000000000081525088604051602001610ea39190615164565b604051602081830303815290604052612a1d565b60005b8260050180549050811015610f4a57866fffffffffffffffffffffffffffffffff16836005018281548110610ef257610ef1615025565b5b906000526020600020015403610f3d576040517f08c379a0000000000000000000000000000000000000000000000000000000008152600401610f34906151cb565b60405180910390fd5b8080600101915050610eba565b508160030154826002015411610f95576040517f08c379a0000000000000000000000000000000000000000000000000000000008152600401610f8c90615237565b60405180910390fd5b61102d6040518060400160405280600981526020017f6275795469636b657400000000000000000000000000000000000000000000008152506040518060400160405280601281526020017f50726f63657373696e67207061796d656e740000000000000000000000000000815250846004015460405160200161101991906146c1565b604051602081830303815290604052612a1d565b600660009054906101000a900473ffffffffffffffffffffffffffffffffffffffff1673ffffffffffffffffffffffffffffffffffffffff166323b872dd33856060015185600401546040518463ffffffff1660e01b815260040161109493929190615257565b6020604051808303816000875af11580156110b3573d6000803e3d6000fd5b505050506040513d601f19601f820116820180604052508101906110d791906152a3565b611116576040517f08c379a000000000000000000000000000000000000000000000000000000000815260040161110d9061531c565b60405180910390fd5b81600301600081548092919061112b9061536b565b9190505550816005018690806001815401808255809150506001900390600052602060002001600090916fffffffffffffffffffffffffffffffff16909190915055600061117a898989613408565b9050600061119f8560e001518a8a6fffffffffffffffffffffffffffffffff16613446565b90506112376040518060400160405280600981526020017f6275795469636b657400000000000000000000000000000000000000000000008152506040518060400160405280600b81526020017f4d696e74696e67204e465400000000000000000000000000000000000000000081525084336040516020016112239291906153b3565b604051602081830303815290604052612a1d565b600560009054906101000a900473ffffffffffffffffffffffffffffffffffffffff1673ffffffffffffffffffffffffffffffffffffffff16634094897733848489606001518a60c001516040518663ffffffff1660e01b81526004016112a29594939291906153dc565b600060405180830381600087803b1580156112bc57600080fd5b505af11580156112d0573d6000803e3d6000fd5b505050507f95c3e8607d6aad925e0064319848401c25fcd7b538f522e88713c25a5ea6df6e6040518060c001604052808481526020018c67ffffffffffffffff1681526020018b67ffffffffffffffff1681526020018a6fffffffffffffffffffffffffffffffff1681526020014281526020013373ffffffffffffffffffffffffffffffffffffffff1681525060405161136b91906154c0565b60405180910390a150505050505060008054906101000a900460ff16156113c4577f3b27a17eb6abbf4d7afecee861fef9cb2a747838d77634f6885a162b37c00a6d816040516113bb9190615527565b60405180910390a15b50505050565b806000015167ffffffffffffffff16600181815481106113ed576113ec615025565b5b90600052602060002090600e020160030160009054906101000a900473ffffffffffffffffffffffffffffffffffffffff1673ffffffffffffffffffffffffffffffffffffffff163373ffffffffffffffffffffffffffffffffffffffff161461148c576040517f08c379a0000000000000000000000000000000000000000000000000000000008152600401611483906155bb565b60405180910390fd5b600061149b8360000151612a71565b90508060a0015142116114e3576040517f08c379a00000000000000000000000000000000000000000000000000000000081526004016114da90615627565b60405180910390fd5b6000600160046000866000015167ffffffffffffffff1667ffffffffffffffff168152602001908152602001600020805490506115209190615647565b905060046000856000015167ffffffffffffffff1667ffffffffffffffff1681526020019081526020016000206040518060c001604052808367ffffffffffffffff1681526020018660200151815260200186604001518152602001866080015181526020018660a001516bffffffffffffffffffffffff1681526020018660600151815250908060018154018082558091505060019003906000526020600020906006020160009091909190915060008201518160000160006101000a81548167ffffffffffffffff021916908367ffffffffffffffff16021790555060208201518160010190816116139190615827565b5060408201518160020190816116299190615827565b50606082015181600301556080820151816004015560a08201518160050190816116539190615827565b50505060005b8460800151816fffffffffffffffffffffffffffffffff1610156117915760008560c0015151826fffffffffffffffffffffffffffffffff1661169c9190615928565b905060006116bb8760000151856001866116b69190615959565b613408565b9050600760009054906101000a900473ffffffffffffffffffffffffffffffffffffffff1673ffffffffffffffffffffffffffffffffffffffff1663409489778860c00151848151811061171257611711615025565b5b6020026020010151838a6060015189606001518c60a001516040518663ffffffff1660e01b815260040161174a9594939291906153dc565b600060405180830381600087803b15801561176457600080fd5b505af1158015611778573d6000803e3d6000fd5b50505050505080806117899061599d565b915050611659565b507fc5e1f95c772a30bb6652db4a2db319c2b57938a3a10f29d9b67db0474963608b6040518060c001604052808367ffffffffffffffff168152602001866000015167ffffffffffffffff168152602001866020015181526020018660600151815260200186604001518152602001428152506040516118119190615a6c565b60405180910390a150505050565b6002602052816000526040600020818154811061183b57600080fd5b9060005260206000209060049182820401919006600802915091509054906101000a900467ffffffffffffffff1681565b600760009054906101000a900473ffffffffffffffffffffffffffffffffffffffff1681565b600560009054906101000a900473ffffffffffffffffffffffffffffffffffffffff1681565b600360205281600052604060002081815481106118d457600080fd5b9060005260206000209060060201600091509150508060000160009054906101000a900467ffffffffffffffff169080600101805461191290614e94565b80601f016020809104026020016040519081016040528092919081815260200182805461193e90614e94565b801561198b5780601f106119605761010080835404028352916020019161198b565b820191906000526020600020905b81548152906001019060200180831161196e57829003601f168201915b5050505050908060020154908060030154908060040154905085565b60006040518060400160405280600b81526020017f6372656174654576656e7400000000000000000000000000000000000000000081525060008054906101000a900460ff1615611a2a577f3b27a17eb6abbf4d7afecee861fef9cb2a747838d77634f6885a162b37c00a6d81604051611a219190614f48565b60405180910390a15b611ace6040518060400160405280600b81526020017f6372656174654576656e740000000000000000000000000000000000000000008152506040518060400160405280601b81526020017f56616c69646174696e6720696e70757420706172616d65746572730000000000815250856000015186604001518760600151604051602001611aba93929190615a8e565b604051602081830303815290604052612a1d565b60008361012001515111611b17576040517f08c379a0000000000000000000000000000000000000000000000000000000008152600401611b0e90615b3e565b60405180910390fd5b4283604001511015611b5e576040517f08c379a0000000000000000000000000000000000000000000000000000000008152600401611b5590615baa565b60405180910390fd5b8260400151836060015111611ba8576040517f08c379a0000000000000000000000000000000000000000000000000000000008152600401611b9f90615c3c565b60405180910390fd5b600083600001515111611bf0576040517f08c379a0000000000000000000000000000000000000000000000000000000008152600401611be790615ca8565b60405180910390fd5b60006001805490509050611c8e6040518060400160405280600b81526020017f6372656174654576656e740000000000000000000000000000000000000000008152506040518060400160405280601181526020017f47656e657261746564206576656e74496400000000000000000000000000000081525083604051602001611c7a91906141a5565b604051602081830303815290604052612a1d565b60006040518061016001604052808367ffffffffffffffff16815260200186600001518152602001866020015181526020013373ffffffffffffffffffffffffffffffffffffffff168152602001866040015181526020018660600151815260200186608001516bffffffffffffffffffffffff1681526020018660a0015181526020018660c0015181526020018660e0015181526020016040518060800160405280886101000151600001518152602001886101000151602001518152602001886101000151604001518152602001886101000151606001518152508152509050611e0e6040518060400160405280600b81526020017f6372656174654576656e740000000000000000000000000000000000000000008152506040518060400160405280601481526020017f43726561746564206576656e74206f626a65637400000000000000000000000081525083600001518460200151604051602001611dfa929190615cc8565b604051602081830303815290604052612a1d565b600260003373ffffffffffffffffffffffffffffffffffffffff1673ffffffffffffffffffffffffffffffffffffffff1681526020019081526020016000208290806001815401808255809150506001900390600052602060002090600491828204019190066008029091909190916101000a81548167ffffffffffffffff021916908367ffffffffffffffff16021790555060018190806001815401808255809150506001900390600052602060002090600e020160009091909190915060008201518160000160006101000a81548167ffffffffffffffff021916908367ffffffffffffffff1602179055506020820151816001019081611f119190615827565b506040820151816002019081611f279190615827565b5060608201518160030160006101000a81548173ffffffffffffffffffffffffffffffffffffffff021916908373ffffffffffffffffffffffffffffffffffffffff1602179055506080820151816004015560a0820151816005015560c08201518160060160006101000a8154816bffffffffffffffffffffffff02191690836bffffffffffffffffffffffff16021790555060e0820151816007019081611fcf9190615827565b50610100820151816008019081611fe69190615827565b50610120820151816009019081611ffd9190615827565b5061014082015181600a01600082015181600001908161201d9190615827565b5060208201518160010190816120339190615827565b5060408201518160020190816120499190615827565b50606082015181600301908161205f9190615827565b50505050506120fe6040518060400160405280600b81526020017f6372656174654576656e740000000000000000000000000000000000000000008152506040518060400160405280601c81526020017f50726f63657373696e67207469636b65742063617465676f7269657300000000815250876101200151516040516020016120ea91906146c1565b604051602081830303815290604052612a1d565b60005b856101200151518167ffffffffffffffff1610156122865760008661012001518267ffffffffffffffff168151811061213d5761213c615025565b5b60200260200101519050606060006040518060c001604052806001866121639190615cf8565b67ffffffffffffffff16815260200184600001518152602001846020015181526020016000815260200184604001518152602001838152509050600360008767ffffffffffffffff1667ffffffffffffffff16815260200190815260200160002081908060018154018082558091505060019003906000526020600020906006020160009091909190915060008201518160000160006101000a81548167ffffffffffffffff021916908367ffffffffffffffff16021790555060208201518160010190816122329190615827565b5060408201518160020155606082015181600301556080820151816004015560a082015181600501908051906020019061226d929190613804565b505050505050808061227e90615d34565b915050612101565b507fb8ee242eb491cea3d86b84b0973a7854b58ab6a4020619c574a7ccb4f2fbeeca6122b58260000151612a71565b6040516122c29190614e43565b60405180910390a1806000015167ffffffffffffffff169350505060008054906101000a900460ff1615612328577f3b27a17eb6abbf4d7afecee861fef9cb2a747838d77634f6885a162b37c00a6d8160405161231f9190615527565b60405180910390a15b50919050565b61233661348f565b6123406000613516565b565b60606000600260008473ffffffffffffffffffffffffffffffffffffffff1673ffffffffffffffffffffffffffffffffffffffff16815260200190815260200160002080548060200260200160405190810160405280929190818152602001828054801561240357602002820191906000526020600020906000905b82829054906101000a900467ffffffffffffffff1667ffffffffffffffff16815260200190600801906020826007010492830192600103820291508084116123be5790505b505050505090506000815167ffffffffffffffff81111561242757612426613d9e565b5b60405190808252806020026020018201604052801561246057816020015b61244d613851565b8152602001906001900390816124455790505b50905060005b82518167ffffffffffffffff1610156124e1576124a6838267ffffffffffffffff168151811061249957612498615025565b5b6020026020010151612a71565b828267ffffffffffffffff16815181106124c3576124c2615025565b5b602002602001018190525080806124d990615d34565b915050612466565b508092505050919050565b6004602052816000526040600020818154811061250857600080fd5b9060005260206000209060060201600091509150508060000160009054906101000a900467ffffffffffffffff169080600101805461254690614e94565b80601f016020809104026020016040519081016040528092919081815260200182805461257290614e94565b80156125bf5780601f10612594576101008083540402835291602001916125bf565b820191906000526020600020905b8154815290600101906020018083116125a257829003601f168201915b5050505050908060020180546125d490614e94565b80601f016020809104026020016040519081016040528092919081815260200182805461260090614e94565b801561264d5780601f106126225761010080835404028352916020019161264d565b820191906000526020600020905b81548152906001019060200180831161263057829003601f168201915b50505050509080600301549080600401549080600501805461266e90614e94565b80601f016020809104026020016040519081016040528092919081815260200182805461269a90614e94565b80156126e75780601f106126bc576101008083540402835291602001916126e7565b820191906000526020600020905b8154815290600101906020018083116126ca57829003601f168201915b5050505050905086565b6126f961348f565b806000806101000a81548160ff02191690831515021790555050565b60008060019054906101000a900473ffffffffffffffffffffffffffffffffffffffff16905090565b8667ffffffffffffffff166001818154811061275d5761275c615025565b5b90600052602060002090600e020160030160009054906101000a900473ffffffffffffffffffffffffffffffffffffffff1673ffffffffffffffffffffffffffffffffffffffff163373ffffffffffffffffffffffffffffffffffffffff16146127fc576040517f08c379a00000000000000000000000000000000000000000000000000000000081526004016127f3906155bb565b60405180910390fd5b6000875111612840576040517f08c379a000000000000000000000000000000000000000000000000000000000815260040161283790615ca8565b60405180910390fd5b428511612882576040517f08c379a000000000000000000000000000000000000000000000000000000000815260040161287990615baa565b60405180910390fd5b8484116128c4576040517f08c379a00000000000000000000000000000000000000000000000000000000081526004016128bb90615c3c565b60405180910390fd5b600060018967ffffffffffffffff16815481106128e4576128e3615025565b5b90600052602060002090600e02019050878160010190816129059190615827565b50868160020190816129179190615827565b508581600401819055508481600501819055508381600801908161293b9190615827565b508281600901908161294d9190615827565b50505050505050505050565b612961613851565b61296a82612a71565b9050919050565b600660009054906101000a900473ffffffffffffffffffffffffffffffffffffffff1681565b61299f61348f565b600073ffffffffffffffffffffffffffffffffffffffff168173ffffffffffffffffffffffffffffffffffffffff1603612a115760006040517f1e4fbdf7000000000000000000000000000000000000000000000000000000008152600401612a0891906141c0565b60405180910390fd5b612a1a81613516565b50565b60008054906101000a900460ff1615612a6c577f3b27a17eb6abbf4d7afecee861fef9cb2a747838d77634f6885a162b37c00a6d838383604051612a6393929190615da8565b60405180910390a15b505050565b612a79613851565b6001805490508267ffffffffffffffff1610612aca576040517f08c379a0000000000000000000000000000000000000000000000000000000008152600401612ac190615005565b60405180910390fd5b600060018367ffffffffffffffff1681548110612aea57612ae9615025565b5b90600052602060002090600e020190506000600360008567ffffffffffffffff1667ffffffffffffffff16815260200190815260200160002090506000818054905090506000600360008767ffffffffffffffff1667ffffffffffffffff1681526020019081526020016000208054905003612b9b576040517f08c379a0000000000000000000000000000000000000000000000000000000008152600401612b9290615e40565b60405180910390fd5b612ba3613851565b8360000160009054906101000a900467ffffffffffffffff16816000019067ffffffffffffffff16908167ffffffffffffffff1681525050836001018054612bea90614e94565b80601f0160208091040260200160405190810160405280929190818152602001828054612c1690614e94565b8015612c635780601f10612c3857610100808354040283529160200191612c63565b820191906000526020600020905b815481529060010190602001808311612c4657829003601f168201915b505050505081602001819052508360030160009054906101000a900473ffffffffffffffffffffffffffffffffffffffff16816060019073ffffffffffffffffffffffffffffffffffffffff16908173ffffffffffffffffffffffffffffffffffffffff1681525050836002018054612cdb90614e94565b80601f0160208091040260200160405190810160405280929190818152602001828054612d0790614e94565b8015612d545780601f10612d2957610100808354040283529160200191612d54565b820191906000526020600020905b815481529060010190602001808311612d3757829003601f168201915b50505050508160400181905250836004015481608001818152505083600501548160a0018181525050836008018054612d8c90614e94565b80601f0160208091040260200160405190810160405280929190818152602001828054612db890614e94565b8015612e055780601f10612dda57610100808354040283529160200191612e05565b820191906000526020600020905b815481529060010190602001808311612de857829003601f168201915b5050505050816101000181905250836009018054612e2290614e94565b80601f0160208091040260200160405190810160405280929190818152602001828054612e4e90614e94565b8015612e9b5780601f10612e7057610100808354040283529160200191612e9b565b820191906000526020600020905b815481529060010190602001808311612e7e57829003601f168201915b50505050508161012001819052508360060160009054906101000a90046bffffffffffffffffffffffff168160c001906bffffffffffffffffffffffff1690816bffffffffffffffffffffffff1681525050836007018054612efc90614e94565b80601f0160208091040260200160405190810160405280929190818152602001828054612f2890614e94565b8015612f755780601f10612f4a57610100808354040283529160200191612f75565b820191906000526020600020905b815481529060010190602001808311612f5857829003601f168201915b50505050508160e0018190525083600a01604051806080016040529081600082018054612fa190614e94565b80601f0160208091040260200160405190810160405280929190818152602001828054612fcd90614e94565b801561301a5780601f10612fef5761010080835404028352916020019161301a565b820191906000526020600020905b815481529060010190602001808311612ffd57829003601f168201915b5050505050815260200160018201805461303390614e94565b80601f016020809104026020016040519081016040528092919081815260200182805461305f90614e94565b80156130ac5780601f10613081576101008083540402835291602001916130ac565b820191906000526020600020905b81548152906001019060200180831161308f57829003601f168201915b505050505081526020016002820180546130c590614e94565b80601f01602080910402602001604051908101604052809291908181526020018280546130f190614e94565b801561313e5780601f106131135761010080835404028352916020019161313e565b820191906000526020600020905b81548152906001019060200180831161312157829003601f168201915b5050505050815260200160038201805461315790614e94565b80601f016020809104026020016040519081016040528092919081815260200182805461318390614e94565b80156131d05780601f106131a5576101008083540402835291602001916131d0565b820191906000526020600020905b8154815290600101906020018083116131b357829003601f168201915b5050505050815250508161014001819052508167ffffffffffffffff8111156131fc576131fb613d9e565b5b60405190808252806020026020018201604052801561323557816020015b6132226138e6565b81526020019060019003908161321a5790505b5081610160018190525060005b828110156133fb576040518060a0016040528085838154811061326857613267615025565b5b906000526020600020906006020160000160009054906101000a900467ffffffffffffffff1667ffffffffffffffff1681526020018583815481106132b0576132af615025565b5b906000526020600020906006020160010180546132cc90614e94565b80601f01602080910402602001604051908101604052809291908181526020018280546132f890614e94565b80156133455780601f1061331a57610100808354040283529160200191613345565b820191906000526020600020905b81548152906001019060200180831161332857829003601f168201915b5050505050815260200185838154811061336257613361615025565b5b906000526020600020906006020160020154815260200185838154811061338c5761338b615025565b5b90600052602060002090600602016003015481526020018583815481106133b6576133b5615025565b5b90600052602060002090600602016004015481525082610160015182815181106133e3576133e2615025565b5b60200260200101819052508080600101915050613242565b5080945050505050919050565b6000816fffffffffffffffffffffffffffffffff1660808467ffffffffffffffff16901b60c08667ffffffffffffffff16901b171790509392505050565b60608361345c8467ffffffffffffffff166135db565b613465846135db565b60405160200161347793929190615f34565b60405160208183030381529060405290509392505050565b6134976136a9565b73ffffffffffffffffffffffffffffffffffffffff166134b5612715565b73ffffffffffffffffffffffffffffffffffffffff1614613514576134d86136a9565b6040517f118cdaa700000000000000000000000000000000000000000000000000000000815260040161350b91906141c0565b60405180910390fd5b565b60008060019054906101000a900473ffffffffffffffffffffffffffffffffffffffff16905081600060016101000a81548173ffffffffffffffffffffffffffffffffffffffff021916908373ffffffffffffffffffffffffffffffffffffffff1602179055508173ffffffffffffffffffffffffffffffffffffffff168173ffffffffffffffffffffffffffffffffffffffff167f8be0079c531659141344cd1fd0a4f28419497f9722a3daafe3b4186f6b6457e060405160405180910390a35050565b6060600060016135ea846136b1565b01905060008167ffffffffffffffff81111561360957613608613d9e565b5b6040519080825280601f01601f19166020018201604052801561363b5781602001600182028036833780820191505090505b509050600082602001820190505b60011561369e578080600190039150507f3031323334353637383961626364656600000000000000000000000000000000600a86061a8153600a8581613692576136916158f9565b5b04945060008503613649575b819350505050919050565b600033905090565b600080600090507a184f03e93ff9f4daa797ed6e38ed64bf6a1f010000000000000000831061370f577a184f03e93ff9f4daa797ed6e38ed64bf6a1f0100000000000000008381613705576137046158f9565b5b0492506040810190505b6d04ee2d6d415b85acef8100000000831061374c576d04ee2d6d415b85acef81000000008381613742576137416158f9565b5b0492506020810190505b662386f26fc10000831061377b57662386f26fc100008381613771576137706158f9565b5b0492506010810190505b6305f5e10083106137a4576305f5e100838161379a576137996158f9565b5b0492506008810190505b61271083106137c95761271083816137bf576137be6158f9565b5b0492506004810190505b606483106137ec57606483816137e2576137e16158f9565b5b0492506002810190505b600a83106137fb576001810190505b80915050919050565b828054828255906000526020600020908101928215613840579160200282015b8281111561383f578251825591602001919060010190613824565b5b50905061384d919061391f565b5090565b604051806101800160405280600067ffffffffffffffff1681526020016060815260200160608152602001600073ffffffffffffffffffffffffffffffffffffffff168152602001600081526020016000815260200160006bffffffffffffffffffffffff1681526020016060815260200160608152602001606081526020016138d961393c565b8152602001606081525090565b6040518060a00160405280600067ffffffffffffffff168152602001606081526020016000815260200160008152602001600081525090565b5b80821115613938576000816000905550600101613920565b5090565b6040518060800160405280606081526020016060815260200160608152602001606081525090565b6000604051905090565b600080fd5b600080fd5b6000819050919050565b61398b81613978565b811461399657600080fd5b50565b6000813590506139a881613982565b92915050565b6000602082840312156139c4576139c361396e565b5b60006139d284828501613999565b91505092915050565b600067ffffffffffffffff82169050919050565b6139f8816139db565b82525050565b600081519050919050565b600082825260208201905092915050565b60005b83811015613a38578082015181840152602081019050613a1d565b60008484015250505050565b6000601f19601f8301169050919050565b6000613a60826139fe565b613a6a8185613a09565b9350613a7a818560208601613a1a565b613a8381613a44565b840191505092915050565b600073ffffffffffffffffffffffffffffffffffffffff82169050919050565b6000613ab982613a8e565b9050919050565b613ac981613aae565b82525050565b613ad881613978565b82525050565b60006bffffffffffffffffffffffff82169050919050565b613aff81613ade565b82525050565b600082825260208201905092915050565b6000613b21826139fe565b613b2b8185613b05565b9350613b3b818560208601613a1a565b613b4481613a44565b840191505092915050565b60006080830160008301518482036000860152613b6c8282613b16565b91505060208301518482036020860152613b868282613b16565b91505060408301518482036040860152613ba08282613b16565b91505060608301518482036060860152613bba8282613b16565b9150508091505092915050565b600061016082019050613bdd600083018e6139ef565b8181036020830152613bef818d613a55565b90508181036040830152613c03818c613a55565b9050613c12606083018b613ac0565b613c1f608083018a613acf565b613c2c60a0830189613acf565b613c3960c0830188613af6565b81810360e0830152613c4b8187613a55565b9050818103610100830152613c608186613a55565b9050818103610120830152613c758185613a55565b9050818103610140830152613c8a8184613b4f565b90509c9b505050505050505050505050565b60008115159050919050565b613cb181613c9c565b82525050565b6000602082019050613ccc6000830184613ca8565b92915050565b613cdb816139db565b8114613ce657600080fd5b50565b600081359050613cf881613cd2565b92915050565b60006fffffffffffffffffffffffffffffffff82169050919050565b613d2381613cfe565b8114613d2e57600080fd5b50565b600081359050613d4081613d1a565b92915050565b600080600060608486031215613d5f57613d5e61396e565b5b6000613d6d86828701613ce9565b9350506020613d7e86828701613ce9565b9250506040613d8f86828701613d31565b9150509250925092565b600080fd5b7f4e487b7100000000000000000000000000000000000000000000000000000000600052604160045260246000fd5b613dd682613a44565b810181811067ffffffffffffffff82111715613df557613df4613d9e565b5b80604052505050565b6000613e08613964565b9050613e148282613dcd565b919050565b600080fd5b600080fd5b600080fd5b600067ffffffffffffffff821115613e4357613e42613d9e565b5b613e4c82613a44565b9050602081019050919050565b82818337600083830152505050565b6000613e7b613e7684613e28565b613dfe565b905082815260208101848484011115613e9757613e96613e23565b5b613ea2848285613e59565b509392505050565b600082601f830112613ebf57613ebe613e1e565b5b8135613ecf848260208601613e68565b91505092915050565b613ee181613ade565b8114613eec57600080fd5b50565b600081359050613efe81613ed8565b92915050565b600067ffffffffffffffff821115613f1f57613f1e613d9e565b5b602082029050602081019050919050565b600080fd5b613f3e81613aae565b8114613f4957600080fd5b50565b600081359050613f5b81613f35565b92915050565b6000613f74613f6f84613f04565b613dfe565b90508083825260208201905060208402830185811115613f9757613f96613f30565b5b835b81811015613fc05780613fac8882613f4c565b845260208401935050602081019050613f99565b5050509392505050565b600082601f830112613fdf57613fde613e1e565b5b8135613fef848260208601613f61565b91505092915050565b600060e0828403121561400e5761400d613d99565b5b61401860e0613dfe565b9050600061402884828501613ce9565b600083015250602082013567ffffffffffffffff81111561404c5761404b613e19565b5b61405884828501613eaa565b602083015250604082013567ffffffffffffffff81111561407c5761407b613e19565b5b61408884828501613eaa565b604083015250606082013567ffffffffffffffff8111156140ac576140ab613e19565b5b6140b884828501613eaa565b60608301525060806140cc84828501613999565b60808301525060a06140e084828501613eef565b60a08301525060c082013567ffffffffffffffff81111561410457614103613e19565b5b61411084828501613fca565b60c08301525092915050565b6000602082840312156141325761413161396e565b5b600082013567ffffffffffffffff8111156141505761414f613973565b5b61415c84828501613ff8565b91505092915050565b6000806040838503121561417c5761417b61396e565b5b600061418a85828601613f4c565b925050602061419b85828601613999565b9150509250929050565b60006020820190506141ba60008301846139ef565b92915050565b60006020820190506141d56000830184613ac0565b92915050565b600080604083850312156141f2576141f161396e565b5b600061420085828601613ce9565b925050602061421185828601613999565b9150509250929050565b600060a08201905061423060008301886139ef565b81810360208301526142428187613a55565b90506142516040830186613acf565b61425e6060830185613acf565b61426b6080830184613acf565b9695505050505050565b60006080828403121561428b5761428a613d99565b5b6142956080613dfe565b9050600082013567ffffffffffffffff8111156142b5576142b4613e19565b5b6142c184828501613eaa565b600083015250602082013567ffffffffffffffff8111156142e5576142e4613e19565b5b6142f184828501613eaa565b602083015250604082013567ffffffffffffffff81111561431557614314613e19565b5b61432184828501613eaa565b604083015250606082013567ffffffffffffffff81111561434557614344613e19565b5b61435184828501613eaa565b60608301525092915050565b600067ffffffffffffffff82111561437857614377613d9e565b5b602082029050602081019050919050565b60006060828403121561439f5761439e613d99565b5b6143a96060613dfe565b9050600082013567ffffffffffffffff8111156143c9576143c8613e19565b5b6143d584828501613eaa565b60008301525060206143e984828501613999565b60208301525060406143fd84828501613999565b60408301525092915050565b600061441c6144178461435d565b613dfe565b9050808382526020820190506020840283018581111561443f5761443e613f30565b5b835b8181101561448657803567ffffffffffffffff81111561446457614463613e1e565b5b8086016144718982614389565b85526020850194505050602081019050614441565b5050509392505050565b600082601f8301126144a5576144a4613e1e565b5b81356144b5848260208601614409565b91505092915050565b600061014082840312156144d5576144d4613d99565b5b6144e0610140613dfe565b9050600082013567ffffffffffffffff811115614500576144ff613e19565b5b61450c84828501613eaa565b600083015250602082013567ffffffffffffffff8111156145305761452f613e19565b5b61453c84828501613eaa565b602083015250604061455084828501613999565b604083015250606061456484828501613999565b606083015250608061457884828501613eef565b60808301525060a082013567ffffffffffffffff81111561459c5761459b613e19565b5b6145a884828501613eaa565b60a08301525060c082013567ffffffffffffffff8111156145cc576145cb613e19565b5b6145d884828501613eaa565b60c08301525060e082013567ffffffffffffffff8111156145fc576145fb613e19565b5b61460884828501613eaa565b60e08301525061010082013567ffffffffffffffff81111561462d5761462c613e19565b5b61463984828501614275565b6101008301525061012082013567ffffffffffffffff81111561465f5761465e613e19565b5b61466b84828501614490565b6101208301525092915050565b60006020828403121561468e5761468d61396e565b5b600082013567ffffffffffffffff8111156146ac576146ab613973565b5b6146b8848285016144be565b91505092915050565b60006020820190506146d66000830184613acf565b92915050565b6000602082840312156146f2576146f161396e565b5b600061470084828501613f4c565b91505092915050565b600081519050919050565b600082825260208201905092915050565b6000819050602082019050919050565b61473e816139db565b82525050565b61474d81613aae565b82525050565b61475c81613978565b82525050565b61476b81613ade565b82525050565b6000608083016000830151848203600086015261478e8282613b16565b915050602083015184820360208601526147a88282613b16565b915050604083015184820360408601526147c28282613b16565b915050606083015184820360608601526147dc8282613b16565b9150508091505092915050565b600081519050919050565b600082825260208201905092915050565b6000819050602082019050919050565b600060a08301600083015161482d6000860182614735565b50602083015184820360208601526148458282613b16565b915050604083015161485a6040860182614753565b50606083015161486d6060860182614753565b5060808301516148806080860182614753565b508091505092915050565b60006148978383614815565b905092915050565b6000602082019050919050565b60006148b7826147e9565b6148c181856147f4565b9350836020820285016148d385614805565b8060005b8581101561490f57848403895281516148f0858261488b565b94506148fb8361489f565b925060208a019950506001810190506148d7565b50829750879550505050505092915050565b60006101808301600083015161493a6000860182614735565b50602083015184820360208601526149528282613b16565b9150506040830151848203604086015261496c8282613b16565b91505060608301516149816060860182614744565b5060808301516149946080860182614753565b5060a08301516149a760a0860182614753565b5060c08301516149ba60c0860182614762565b5060e083015184820360e08601526149d28282613b16565b9150506101008301518482036101008601526149ee8282613b16565b915050610120830151848203610120860152614a0a8282613b16565b915050610140830151848203610140860152614a268282614771565b915050610160830151848203610160860152614a4282826148ac565b9150508091505092915050565b6000614a5b8383614921565b905092915050565b6000602082019050919050565b6000614a7b82614709565b614a858185614714565b935083602082028501614a9785614725565b8060005b85811015614ad35784840389528151614ab48582614a4f565b9450614abf83614a63565b925060208a01995050600181019050614a9b565b50829750879550505050505092915050565b60006020820190508181036000830152614aff8184614a70565b905092915050565b600060c082019050614b1c60008301896139ef565b8181036020830152614b2e8188613a55565b90508181036040830152614b428187613a55565b9050614b516060830186613acf565b614b5e6080830185613acf565b81810360a0830152614b708184613a55565b9050979650505050505050565b614b8681613c9c565b8114614b9157600080fd5b50565b600081359050614ba381614b7d565b92915050565b600060208284031215614bbf57614bbe61396e565b5b6000614bcd84828501614b94565b91505092915050565b600080600080600080600060e0888a031215614bf557614bf461396e565b5b6000614c038a828b01613ce9565b975050602088013567ffffffffffffffff811115614c2457614c23613973565b5b614c308a828b01613eaa565b965050604088013567ffffffffffffffff811115614c5157614c50613973565b5b614c5d8a828b01613eaa565b9550506060614c6e8a828b01613999565b9450506080614c7f8a828b01613999565b93505060a088013567ffffffffffffffff811115614ca057614c9f613973565b5b614cac8a828b01613eaa565b92505060c088013567ffffffffffffffff811115614ccd57614ccc613973565b5b614cd98a828b01613eaa565b91505092959891949750929550565b600060208284031215614cfe57614cfd61396e565b5b6000614d0c84828501613ce9565b91505092915050565b600061018083016000830151614d2e6000860182614735565b5060208301518482036020860152614d468282613b16565b91505060408301518482036040860152614d608282613b16565b9150506060830151614d756060860182614744565b506080830151614d886080860182614753565b5060a0830151614d9b60a0860182614753565b5060c0830151614dae60c0860182614762565b5060e083015184820360e0860152614dc68282613b16565b915050610100830151848203610100860152614de28282613b16565b915050610120830151848203610120860152614dfe8282613b16565b915050610140830151848203610140860152614e1a8282614771565b915050610160830151848203610160860152614e3682826148ac565b9150508091505092915050565b60006020820190508181036000830152614e5d8184614d15565b905092915050565b7f4e487b7100000000000000000000000000000000000000000000000000000000600052602260045260246000fd5b60006002820490506001821680614eac57607f821691505b602082108103614ebf57614ebe614e65565b5b50919050565b7f4d6574686f6420656e7472790000000000000000000000000000000000000000600082015250565b6000614efb600c83613a09565b9150614f0682614ec5565b602082019050919050565b600082825260208201905092915050565b50565b6000614f32600083614f11565b9150614f3d82614f22565b600082019050919050565b60006060820190508181036000830152614f628184613a55565b90508181036020830152614f7581614eee565b90508181036040830152614f8881614f25565b905092915050565b6000604082019050614fa560008301856139ef565b614fb260208301846139ef565b9392505050565b7f4576656e7420646f6573206e6f74206578697374000000000000000000000000600082015250565b6000614fef601483613a09565b9150614ffa82614fb9565b602082019050919050565b6000602082019050818103600083015261501e81614fe2565b9050919050565b7f4e487b7100000000000000000000000000000000000000000000000000000000600052603260045260246000fd5b7f5469636b65742063617465676f727920646f6573206e6f742065786973740000600082015250565b600061508a601e83613a09565b915061509582615054565b602082019050919050565b600060208201905081810360008301526150b98161507d565b9050919050565b6150c981613cfe565b82525050565b60006040820190506150e460008301856150c0565b6150f16020830184613acf565b9392505050565b7f5469636b657420646f6573206e6f742065786973740000000000000000000000600082015250565b600061512e601583613a09565b9150615139826150f8565b602082019050919050565b6000602082019050818103600083015261515d81615121565b9050919050565b600060208201905061517960008301846150c0565b92915050565b7f5469636b657420616c726561647920626f756768740000000000000000000000600082015250565b60006151b5601583613a09565b91506151c08261517f565b602082019050919050565b600060208201905081810360008301526151e4816151a8565b9050919050565b7f4e6f7420656e6f756768207469636b65747320617661696c61626c6500000000600082015250565b6000615221601c83613a09565b915061522c826151eb565b602082019050919050565b6000602082019050818103600083015261525081615214565b9050919050565b600060608201905061526c6000830186613ac0565b6152796020830185613ac0565b6152866040830184613acf565b949350505050565b60008151905061529d81614b7d565b92915050565b6000602082840312156152b9576152b861396e565b5b60006152c78482850161528e565b91505092915050565b7f496e73756666696369656e74207061796d656e74000000000000000000000000600082015250565b6000615306601483613a09565b9150615311826152d0565b602082019050919050565b60006020820190508181036000830152615335816152f9565b9050919050565b7f4e487b7100000000000000000000000000000000000000000000000000000000600052601160045260246000fd5b600061537682613978565b91507fffffffffffffffffffffffffffffffffffffffffffffffffffffffffffffffff82036153a8576153a761533c565b5b600182019050919050565b60006040820190506153c86000830185613acf565b6153d56020830184613ac0565b9392505050565b600060a0820190506153f16000830188613ac0565b6153fe6020830187613acf565b81810360408301526154108186613a55565b905061541f6060830185613ac0565b61542c6080830184613af6565b9695505050505050565b61543f81613cfe565b82525050565b60c08201600082015161545b6000850182614753565b50602082015161546e6020850182614735565b5060408201516154816040850182614735565b5060608201516154946060850182615436565b5060808201516154a76080850182614753565b5060a08201516154ba60a0850182614744565b50505050565b600060c0820190506154d56000830184615445565b92915050565b7f4d6574686f642065786974000000000000000000000000000000000000000000600082015250565b6000615511600b83613a09565b915061551c826154db565b602082019050919050565b600060608201905081810360008301526155418184613a55565b9050818103602083015261555481615504565b9050818103604083015261556781614f25565b905092915050565b7f4f6e6c79206576656e74206f776e65722063616e206d6f646966790000000000600082015250565b60006155a5601b83613a09565b91506155b08261556f565b602082019050919050565b600060208201905081810360008301526155d481615598565b9050919050565b7f4576656e7420686173206e6f7420656e64656420796574000000000000000000600082015250565b6000615611601783613a09565b915061561c826155db565b602082019050919050565b6000602082019050818103600083015261564081615604565b9050919050565b600061565282613978565b915061565d83613978565b92508282019050808211156156755761567461533c565b5b92915050565b60008190508160005260206000209050919050565b60006020601f8301049050919050565b600082821b905092915050565b6000600883026156dd7fffffffffffffffffffffffffffffffffffffffffffffffffffffffffffffffff826156a0565b6156e786836156a0565b95508019841693508086168417925050509392505050565b6000819050919050565b600061572461571f61571a84613978565b6156ff565b613978565b9050919050565b6000819050919050565b61573e83615709565b61575261574a8261572b565b8484546156ad565b825550505050565b600090565b61576761575a565b615772818484615735565b505050565b5b818110156157965761578b60008261575f565b600181019050615778565b5050565b601f8211156157db576157ac8161567b565b6157b584615690565b810160208510156157c4578190505b6157d86157d085615690565b830182615777565b50505b505050565b600082821c905092915050565b60006157fe600019846008026157e0565b1980831691505092915050565b600061581783836157ed565b9150826002028217905092915050565b615830826139fe565b67ffffffffffffffff81111561584957615848613d9e565b5b6158538254614e94565b61585e82828561579a565b600060209050601f831160018114615891576000841561587f578287015190505b615889858261580b565b8655506158f1565b601f19841661589f8661567b565b60005b828110156158c7578489015182556001820191506020850194506020810190506158a2565b868310156158e457848901516158e0601f8916826157ed565b8355505b6001600288020188555050505b505050505050565b7f4e487b7100000000000000000000000000000000000000000000000000000000600052601260045260246000fd5b600061593382613978565b915061593e83613978565b92508261594e5761594d6158f9565b5b828206905092915050565b600061596482613cfe565b915061596f83613cfe565b925082820190506fffffffffffffffffffffffffffffffff8111156159975761599661533c565b5b92915050565b60006159a882613cfe565b91506fffffffffffffffffffffffffffffffff82036159ca576159c961533c565b5b600182019050919050565b600060c0830160008301516159ed6000860182614753565b506020830151615a006020860182614735565b5060408301518482036040860152615a188282613b16565b91505060608301518482036060860152615a328282613b16565b91505060808301518482036080860152615a4c8282613b16565b91505060a0830151615a6160a0860182614753565b508091505092915050565b60006020820190508181036000830152615a8681846159d5565b905092915050565b60006060820190508181036000830152615aa88186613a55565b9050615ab76020830185613acf565b615ac46040830184613acf565b949350505050565b7f4174206c65617374206f6e65207469636b65742063617465676f72792069732060008201527f7265717569726564000000000000000000000000000000000000000000000000602082015250565b6000615b28602883613a09565b9150615b3382615acc565b604082019050919050565b60006020820190508181036000830152615b5781615b1b565b9050919050565b7f53746172742064617465206d75737420626520696e2074686520667574757265600082015250565b6000615b94602083613a09565b9150615b9f82615b5e565b602082019050919050565b60006020820190508181036000830152615bc381615b87565b9050919050565b7f456e642074696d65206d7573742062652061667465722073746172742074696d60008201527f6520696e20746865206675747572650000000000000000000000000000000000602082015250565b6000615c26602f83613a09565b9150615c3182615bca565b604082019050919050565b60006020820190508181036000830152615c5581615c19565b9050919050565b7f5469746c652063616e6e6f7420626520656d7074790000000000000000000000600082015250565b6000615c92601583613a09565b9150615c9d82615c5c565b602082019050919050565b60006020820190508181036000830152615cc181615c85565b9050919050565b6000604082019050615cdd60008301856139ef565b8181036020830152615cef8184613a55565b90509392505050565b6000615d03826139db565b9150615d0e836139db565b9250828201905067ffffffffffffffff811115615d2e57615d2d61533c565b5b92915050565b6000615d3f826139db565b915067ffffffffffffffff8203615d5957615d5861533c565b5b600182019050919050565b600081519050919050565b6000615d7a82615d64565b615d848185614f11565b9350615d94818560208601613a1a565b615d9d81613a44565b840191505092915050565b60006060820190508181036000830152615dc28186613a55565b90508181036020830152615dd68185613a55565b90508181036040830152615dea8184615d6f565b9050949350505050565b7f4e6f2063617465676f7269657320666f722074686973206576656e7400000000600082015250565b6000615e2a601c83613a09565b9150615e3582615df4565b602082019050919050565b60006020820190508181036000830152615e5981615e1d565b9050919050565b600081905092915050565b6000615e76826139fe565b615e808185615e60565b9350615e90818560208601613a1a565b80840191505092915050565b7f63617465676f726965732f000000000000000000000000000000000000000000600082015250565b6000615ed2600b83615e60565b9150615edd82615e9c565b600b82019050919050565b7f2f73656174732f00000000000000000000000000000000000000000000000000600082015250565b6000615f1e600783615e60565b9150615f2982615ee8565b600782019050919050565b6000615f408286615e6b565b9150615f4b82615ec5565b9150615f578285615e6b565b9150615f6282615f11565b9150615f6e8284615e6b565b915081905094935050505056fea2646970667358221220a5c0e810b20e7be168f8977426fcb36e50602d66413737bc6c9eb1f24e760f5564736f6c634300081b0033",
  "linkReferences": {},
  "deployedLinkReferences": {}
}