{
  "_format": "hh-sol-artifact-1",
  "contractName": "EventRegistry",
  "sourceName": "contracts/modules/EventRegistry/EventRegistry.sol",
  "abi": [
    {
      "inputs": [
        {
          "internalType": "address",
          "name": "_ticketContract",
          "type": "address"
        },
        {
          "internalType": "address",
          "name": "_ftContract",
          "type": "address"
        },
        {
          "internalType": "address",
          "name": "_specialMomentContract",
          "type": "address"
        }
      ],
      "stateMutability": "nonpayable",
      "type": "constructor"
    },
    {
      "inputs": [
        {
          "internalType": "address",
          "name": "owner",
          "type": "address"
        }
      ],
      "name": "OwnableInvalidOwner",
      "type": "error"
    },
    {
      "inputs": [
        {
          "internalType": "address",
          "name": "account",
          "type": "address"
        }
      ],
      "name": "OwnableUnauthorizedAccount",
      "type": "error"
    },
    {
      "anonymous": false,
      "inputs": [
        {
          "indexed": false,
          "internalType": "string",
          "name": "methodName",
          "type": "string"
        },
        {
          "indexed": false,
          "internalType": "string",
          "name": "message",
          "type": "string"
        },
        {
          "indexed": false,
          "internalType": "bytes",
          "name": "data",
          "type": "bytes"
        }
      ],
      "name": "Debug",
      "type": "event"
    },
    {
      "anonymous": false,
      "inputs": [
        {
          "components": [
            {
              "internalType": "uint64",
              "name": "id",
              "type": "uint64"
            },
            {
              "internalType": "string",
              "name": "title",
              "type": "string"
            },
            {
              "internalType": "string",
              "name": "description",
              "type": "string"
            },
            {
              "internalType": "address",
              "name": "owner",
              "type": "address"
            },
            {
              "internalType": "uint256",
              "name": "startAt",
              "type": "uint256"
            },
            {
              "internalType": "uint256",
              "name": "endAt",
              "type": "uint256"
            },
            {
              "internalType": "uint96",
              "name": "royalty",
              "type": "uint96"
            },
            {
              "internalType": "string",
              "name": "baseUri",
              "type": "string"
            },
            {
              "internalType": "string",
              "name": "eventCategory",
              "type": "string"
            },
            {
              "internalType": "string",
              "name": "eventSubcategory",
              "type": "string"
            },
            {
              "components": [
                {
                  "internalType": "string",
                  "name": "place",
                  "type": "string"
                },
                {
                  "internalType": "string",
                  "name": "venue",
                  "type": "string"
                },
                {
                  "internalType": "string",
                  "name": "city",
                  "type": "string"
                },
                {
                  "internalType": "string",
                  "name": "country",
                  "type": "string"
                }
              ],
              "internalType": "struct EventLocation",
              "name": "location",
              "type": "tuple"
            },
            {
              "components": [
                {
                  "internalType": "uint64",
                  "name": "id",
                  "type": "uint64"
                },
                {
                  "internalType": "string",
                  "name": "name",
                  "type": "string"
                },
                {
                  "internalType": "uint256",
                  "name": "copies",
                  "type": "uint256"
                },
                {
                  "internalType": "uint256",
                  "name": "ticketCount",
                  "type": "uint256"
                },
                {
                  "internalType": "uint256",
                  "name": "price",
                  "type": "uint256"
                }
              ],
              "internalType": "struct TicketCategoryResponse[]",
              "name": "ticketCategories",
              "type": "tuple[]"
            }
          ],
          "indexed": false,
          "internalType": "struct EventResponse",
          "name": "eventResponse",
          "type": "tuple"
        }
      ],
      "name": "EventCreated",
      "type": "event"
    },
    {
      "anonymous": false,
      "inputs": [
        {
          "components": [
            {
              "internalType": "uint256",
              "name": "collectionId",
              "type": "uint256"
            },
            {
              "internalType": "uint64",
              "name": "eventId",
              "type": "uint64"
            },
            {
              "internalType": "string",
              "name": "name",
              "type": "string"
            },
            {
              "internalType": "string",
              "name": "baseUri",
              "type": "string"
            },
            {
              "internalType": "string",
              "name": "description",
              "type": "string"
            },
            {
              "internalType": "uint256",
              "name": "createdAt",
              "type": "uint256"
            },
            {
              "internalType": "uint256[]",
              "name": "tokenIds",
              "type": "uint256[]"
            },
            {
              "internalType": "address[]",
              "name": "owners",
              "type": "address[]"
            }
          ],
          "indexed": false,
          "internalType": "struct MomentCollectionCreatedDto",
          "name": "momentCollection",
          "type": "tuple"
        }
      ],
      "name": "MomentCollectionCreated",
      "type": "event"
    },
    {
      "anonymous": false,
      "inputs": [
        {
          "indexed": true,
          "internalType": "address",
          "name": "previousOwner",
          "type": "address"
        },
        {
          "indexed": true,
          "internalType": "address",
          "name": "newOwner",
          "type": "address"
        }
      ],
      "name": "OwnershipTransferred",
      "type": "event"
    },
    {
      "anonymous": false,
      "inputs": [
        {
          "components": [
            {
              "internalType": "uint256",
              "name": "tokenId",
              "type": "uint256"
            },
            {
              "internalType": "uint64",
              "name": "eventId",
              "type": "uint64"
            },
            {
              "internalType": "uint64",
              "name": "categoryId",
              "type": "uint64"
            },
            {
              "internalType": "uint128",
              "name": "seatId",
              "type": "uint128"
            },
            {
              "internalType": "uint256",
              "name": "createdAt",
              "type": "uint256"
            },
            {
              "internalType": "address",
              "name": "owner",
              "type": "address"
            },
            {
              "internalType": "string",
              "name": "tokenUri",
              "type": "string"
            }
          ],
          "indexed": false,
          "internalType": "struct TicketPurchasedDto",
          "name": "purchase",
          "type": "tuple"
        }
      ],
      "name": "TicketPurchased",
      "type": "event"
    },
    {
      "inputs": [
        {
          "internalType": "uint64",
          "name": "eventId",
          "type": "uint64"
        },
        {
          "internalType": "uint64",
          "name": "categoryId",
          "type": "uint64"
        },
        {
          "internalType": "uint128",
          "name": "seatId",
          "type": "uint128"
        }
      ],
      "name": "buyTicket",
      "outputs": [],
      "stateMutability": "nonpayable",
      "type": "function"
    },
    {
      "inputs": [
        {
          "components": [
            {
              "internalType": "string",
              "name": "title",
              "type": "string"
            },
            {
              "internalType": "string",
              "name": "description",
              "type": "string"
            },
            {
              "internalType": "uint256",
              "name": "startAt",
              "type": "uint256"
            },
            {
              "internalType": "uint256",
              "name": "endAt",
              "type": "uint256"
            },
            {
              "internalType": "uint96",
              "name": "royalty",
              "type": "uint96"
            },
            {
              "internalType": "string",
              "name": "baseUri",
              "type": "string"
            },
            {
              "internalType": "string",
              "name": "eventCategory",
              "type": "string"
            },
            {
              "internalType": "string",
              "name": "eventSubcategory",
              "type": "string"
            },
            {
              "components": [
                {
                  "internalType": "string",
                  "name": "place",
                  "type": "string"
                },
                {
                  "internalType": "string",
                  "name": "venue",
                  "type": "string"
                },
                {
                  "internalType": "string",
                  "name": "city",
                  "type": "string"
                },
                {
                  "internalType": "string",
                  "name": "country",
                  "type": "string"
                }
              ],
              "internalType": "struct EventLocationDto",
              "name": "location",
              "type": "tuple"
            },
            {
              "components": [
                {
                  "internalType": "string",
                  "name": "name",
                  "type": "string"
                },
                {
                  "internalType": "uint256",
                  "name": "copies",
                  "type": "uint256"
                },
                {
                  "internalType": "uint256",
                  "name": "price",
                  "type": "uint256"
                }
              ],
              "internalType": "struct TicketCategoryDto[]",
              "name": "ticketCategories",
              "type": "tuple[]"
            }
          ],
          "internalType": "struct EventCreationDto",
          "name": "dto",
          "type": "tuple"
        }
      ],
      "name": "createEvent",
      "outputs": [
        {
          "internalType": "uint256",
          "name": "",
          "type": "uint256"
        }
      ],
      "stateMutability": "nonpayable",
      "type": "function"
    },
    {
      "inputs": [
        {
          "components": [
            {
              "internalType": "uint64",
              "name": "eventId",
              "type": "uint64"
            },
            {
              "internalType": "string",
              "name": "name",
              "type": "string"
            },
            {
              "internalType": "string",
              "name": "description",
              "type": "string"
            },
            {
              "internalType": "string",
              "name": "baseUri",
              "type": "string"
            },
            {
              "internalType": "uint256",
              "name": "copies",
              "type": "uint256"
            },
            {
              "internalType": "uint96",
              "name": "royalty",
              "type": "uint96"
            },
            {
              "internalType": "address[]",
              "name": "receivers",
              "type": "address[]"
            }
          ],
          "internalType": "struct CollectionCreationDto",
          "name": "collectionCreationDto",
          "type": "tuple"
        }
      ],
      "name": "createMomentCollection",
      "outputs": [],
      "stateMutability": "nonpayable",
      "type": "function"
    },
    {
      "inputs": [],
      "name": "debugMode",
      "outputs": [
        {
          "internalType": "bool",
          "name": "",
          "type": "bool"
        }
      ],
      "stateMutability": "view",
      "type": "function"
    },
    {
      "inputs": [
        {
          "internalType": "uint256",
          "name": "",
          "type": "uint256"
        }
      ],
      "name": "events",
      "outputs": [
        {
          "internalType": "uint64",
          "name": "id",
          "type": "uint64"
        },
        {
          "internalType": "string",
          "name": "title",
          "type": "string"
        },
        {
          "internalType": "string",
          "name": "description",
          "type": "string"
        },
        {
          "internalType": "address",
          "name": "owner",
          "type": "address"
        },
        {
          "internalType": "uint256",
          "name": "startAt",
          "type": "uint256"
        },
        {
          "internalType": "uint256",
          "name": "endAt",
          "type": "uint256"
        },
        {
          "internalType": "uint96",
          "name": "royalty",
          "type": "uint96"
        },
        {
          "internalType": "string",
          "name": "baseUri",
          "type": "string"
        },
        {
          "internalType": "string",
          "name": "eventCategory",
          "type": "string"
        },
        {
          "internalType": "string",
          "name": "eventSubcategory",
          "type": "string"
        },
        {
          "components": [
            {
              "internalType": "string",
              "name": "place",
              "type": "string"
            },
            {
              "internalType": "string",
              "name": "venue",
              "type": "string"
            },
            {
              "internalType": "string",
              "name": "city",
              "type": "string"
            },
            {
              "internalType": "string",
              "name": "country",
              "type": "string"
            }
          ],
          "internalType": "struct EventLocation",
          "name": "location",
          "type": "tuple"
        }
      ],
      "stateMutability": "view",
      "type": "function"
    },
    {
      "inputs": [],
      "name": "ftContract",
      "outputs": [
        {
          "internalType": "address",
          "name": "",
          "type": "address"
        }
      ],
      "stateMutability": "view",
      "type": "function"
    },
    {
      "inputs": [
        {
          "internalType": "uint64",
          "name": "eventId",
          "type": "uint64"
        }
      ],
      "name": "getEventById",
      "outputs": [
        {
          "components": [
            {
              "internalType": "uint64",
              "name": "id",
              "type": "uint64"
            },
            {
              "internalType": "string",
              "name": "title",
              "type": "string"
            },
            {
              "internalType": "string",
              "name": "description",
              "type": "string"
            },
            {
              "internalType": "address",
              "name": "owner",
              "type": "address"
            },
            {
              "internalType": "uint256",
              "name": "startAt",
              "type": "uint256"
            },
            {
              "internalType": "uint256",
              "name": "endAt",
              "type": "uint256"
            },
            {
              "internalType": "uint96",
              "name": "royalty",
              "type": "uint96"
            },
            {
              "internalType": "string",
              "name": "baseUri",
              "type": "string"
            },
            {
              "internalType": "string",
              "name": "eventCategory",
              "type": "string"
            },
            {
              "internalType": "string",
              "name": "eventSubcategory",
              "type": "string"
            },
            {
              "components": [
                {
                  "internalType": "string",
                  "name": "place",
                  "type": "string"
                },
                {
                  "internalType": "string",
                  "name": "venue",
                  "type": "string"
                },
                {
                  "internalType": "string",
                  "name": "city",
                  "type": "string"
                },
                {
                  "internalType": "string",
                  "name": "country",
                  "type": "string"
                }
              ],
              "internalType": "struct EventLocation",
              "name": "location",
              "type": "tuple"
            },
            {
              "components": [
                {
                  "internalType": "uint64",
                  "name": "id",
                  "type": "uint64"
                },
                {
                  "internalType": "string",
                  "name": "name",
                  "type": "string"
                },
                {
                  "internalType": "uint256",
                  "name": "copies",
                  "type": "uint256"
                },
                {
                  "internalType": "uint256",
                  "name": "ticketCount",
                  "type": "uint256"
                },
                {
                  "internalType": "uint256",
                  "name": "price",
                  "type": "uint256"
                }
              ],
              "internalType": "struct TicketCategoryResponse[]",
              "name": "ticketCategories",
              "type": "tuple[]"
            }
          ],
          "internalType": "struct EventResponse",
          "name": "",
          "type": "tuple"
        }
      ],
      "stateMutability": "view",
      "type": "function"
    },
    {
      "inputs": [
        {
          "internalType": "address",
          "name": "_owner",
          "type": "address"
        }
      ],
      "name": "getEventsByOwner",
      "outputs": [
        {
          "components": [
            {
              "internalType": "uint64",
              "name": "id",
              "type": "uint64"
            },
            {
              "internalType": "string",
              "name": "title",
              "type": "string"
            },
            {
              "internalType": "string",
              "name": "description",
              "type": "string"
            },
            {
              "internalType": "address",
              "name": "owner",
              "type": "address"
            },
            {
              "internalType": "uint256",
              "name": "startAt",
              "type": "uint256"
            },
            {
              "internalType": "uint256",
              "name": "endAt",
              "type": "uint256"
            },
            {
              "internalType": "uint96",
              "name": "royalty",
              "type": "uint96"
            },
            {
              "internalType": "string",
              "name": "baseUri",
              "type": "string"
            },
            {
              "internalType": "string",
              "name": "eventCategory",
              "type": "string"
            },
            {
              "internalType": "string",
              "name": "eventSubcategory",
              "type": "string"
            },
            {
              "components": [
                {
                  "internalType": "string",
                  "name": "place",
                  "type": "string"
                },
                {
                  "internalType": "string",
                  "name": "venue",
                  "type": "string"
                },
                {
                  "internalType": "string",
                  "name": "city",
                  "type": "string"
                },
                {
                  "internalType": "string",
                  "name": "country",
                  "type": "string"
                }
              ],
              "internalType": "struct EventLocation",
              "name": "location",
              "type": "tuple"
            },
            {
              "components": [
                {
                  "internalType": "uint64",
                  "name": "id",
                  "type": "uint64"
                },
                {
                  "internalType": "string",
                  "name": "name",
                  "type": "string"
                },
                {
                  "internalType": "uint256",
                  "name": "copies",
                  "type": "uint256"
                },
                {
                  "internalType": "uint256",
                  "name": "ticketCount",
                  "type": "uint256"
                },
                {
                  "internalType": "uint256",
                  "name": "price",
                  "type": "uint256"
                }
              ],
              "internalType": "struct TicketCategoryResponse[]",
              "name": "ticketCategories",
              "type": "tuple[]"
            }
          ],
          "internalType": "struct EventResponse[]",
          "name": "",
          "type": "tuple[]"
        }
      ],
      "stateMutability": "view",
      "type": "function"
    },
    {
      "inputs": [
        {
          "internalType": "uint64",
          "name": "",
          "type": "uint64"
        },
        {
          "internalType": "uint256",
          "name": "",
          "type": "uint256"
        }
      ],
      "name": "momentCollectionPerEvent",
      "outputs": [
        {
          "internalType": "uint64",
          "name": "id",
          "type": "uint64"
        },
        {
          "internalType": "string",
          "name": "name",
          "type": "string"
        },
        {
          "internalType": "string",
          "name": "description",
          "type": "string"
        },
        {
          "internalType": "uint256",
          "name": "copies",
          "type": "uint256"
        },
        {
          "internalType": "uint256",
          "name": "royalty",
          "type": "uint256"
        },
        {
          "internalType": "string",
          "name": "baseUri",
          "type": "string"
        }
      ],
      "stateMutability": "view",
      "type": "function"
    },
    {
      "inputs": [],
      "name": "owner",
      "outputs": [
        {
          "internalType": "address",
          "name": "",
          "type": "address"
        }
      ],
      "stateMutability": "view",
      "type": "function"
    },
    {
      "inputs": [
        {
          "internalType": "address",
          "name": "",
          "type": "address"
        },
        {
          "internalType": "uint256",
          "name": "",
          "type": "uint256"
        }
      ],
      "name": "ownerEvents",
      "outputs": [
        {
          "internalType": "uint64",
          "name": "",
          "type": "uint64"
        }
      ],
      "stateMutability": "view",
      "type": "function"
    },
    {
      "inputs": [],
      "name": "renounceOwnership",
      "outputs": [],
      "stateMutability": "nonpayable",
      "type": "function"
    },
    {
      "inputs": [
        {
          "internalType": "bool",
          "name": "mode",
          "type": "bool"
        }
      ],
      "name": "setDebugMode",
      "outputs": [],
      "stateMutability": "nonpayable",
      "type": "function"
    },
    {
      "inputs": [],
      "name": "specialMomentContract",
      "outputs": [
        {
          "internalType": "address",
          "name": "",
          "type": "address"
        }
      ],
      "stateMutability": "view",
      "type": "function"
    },
    {
      "inputs": [
        {
          "internalType": "uint64",
          "name": "",
          "type": "uint64"
        },
        {
          "internalType": "uint256",
          "name": "",
          "type": "uint256"
        }
      ],
      "name": "ticketCategoriesPerEvent",
      "outputs": [
        {
          "internalType": "uint64",
          "name": "id",
          "type": "uint64"
        },
        {
          "internalType": "string",
          "name": "name",
          "type": "string"
        },
        {
          "internalType": "uint256",
          "name": "copies",
          "type": "uint256"
        },
        {
          "internalType": "uint256",
          "name": "ticketCount",
          "type": "uint256"
        },
        {
          "internalType": "uint256",
          "name": "price",
          "type": "uint256"
        }
      ],
      "stateMutability": "view",
      "type": "function"
    },
    {
      "inputs": [],
      "name": "ticketContract",
      "outputs": [
        {
          "internalType": "address",
          "name": "",
          "type": "address"
        }
      ],
      "stateMutability": "view",
      "type": "function"
    },
    {
      "inputs": [
        {
          "internalType": "address",
          "name": "newOwner",
          "type": "address"
        }
      ],
      "name": "transferOwnership",
      "outputs": [],
      "stateMutability": "nonpayable",
      "type": "function"
    },
    {
      "inputs": [
        {
          "internalType": "uint64",
          "name": "eventId",
          "type": "uint64"
        },
        {
          "internalType": "string",
          "name": "_title",
          "type": "string"
        },
        {
          "internalType": "string",
          "name": "_description",
          "type": "string"
        },
        {
          "internalType": "uint256",
          "name": "_startAt",
          "type": "uint256"
        },
        {
          "internalType": "uint256",
          "name": "_endAt",
          "type": "uint256"
        },
        {
          "internalType": "string",
          "name": "_eventCategory",
          "type": "string"
        },
        {
          "internalType": "string",
          "name": "_eventSubcategory",
          "type": "string"
        }
      ],
      "name": "updateEvent",
      "outputs": [],
      "stateMutability": "nonpayable",
      "type": "function"
    }
  ],
  "bytecode": "0x608060405234801561001057600080fd5b50604051615da0380380615da0833981810160405281019061003291906102c2565b33600073ffffffffffffffffffffffffffffffffffffffff168173ffffffffffffffffffffffffffffffffffffffff16036100a55760006040517f1e4fbdf700000000000000000000000000000000000000000000000000000000815260040161009c9190610324565b60405180910390fd5b6100b48161019a60201b60201c565b5082600560006101000a81548173ffffffffffffffffffffffffffffffffffffffff021916908373ffffffffffffffffffffffffffffffffffffffff16021790555081600660006101000a81548173ffffffffffffffffffffffffffffffffffffffff021916908373ffffffffffffffffffffffffffffffffffffffff16021790555080600760006101000a81548173ffffffffffffffffffffffffffffffffffffffff021916908373ffffffffffffffffffffffffffffffffffffffff16021790555060016000806101000a81548160ff02191690831515021790555050505061033f565b60008060019054906101000a900473ffffffffffffffffffffffffffffffffffffffff16905081600060016101000a81548173ffffffffffffffffffffffffffffffffffffffff021916908373ffffffffffffffffffffffffffffffffffffffff1602179055508173ffffffffffffffffffffffffffffffffffffffff168173ffffffffffffffffffffffffffffffffffffffff167f8be0079c531659141344cd1fd0a4f28419497f9722a3daafe3b4186f6b6457e060405160405180910390a35050565b600080fd5b600073ffffffffffffffffffffffffffffffffffffffff82169050919050565b600061028f82610264565b9050919050565b61029f81610284565b81146102aa57600080fd5b50565b6000815190506102bc81610296565b92915050565b6000806000606084860312156102db576102da61025f565b5b60006102e9868287016102ad565b93505060206102fa868287016102ad565b925050604061030b868287016102ad565b9150509250925092565b61031e81610284565b82525050565b60006020820190506103396000830184610315565b92915050565b615a528061034e6000396000f3fe608060405234801561001057600080fd5b50600436106101165760003560e01c8063715018a6116100a25780638da5cb5b116100715780638da5cb5b14610306578063beb641f714610324578063cf7c0cd414610340578063ea4780f514610370578063f2fde38b1461038e57610116565b8063715018a61461027b57806374c2ad6314610285578063845b1337146102b55780638811e191146102ea57610116565b806341507cc8116100e957806341507cc8146101ab578063567c34d6146101db57806358a86e1d146101f957806358dde09f146102175780636e61248a1461024b57610116565b80630b7914301461011b5780631c9568be146101555780631de50452146101735780633f9a9f411461018f575b600080fd5b61013560048036038101906101309190613437565b6103aa565b60405161014c9b9a99989796959493929190613650565b60405180910390f35b61015d61095a565b60405161016a9190613740565b60405180910390f35b61018d600480360381019061018891906137cf565b610970565b005b6101a960048036038101906101a49190613ba5565b610fb6565b005b6101c560048036038101906101c09190613bee565b61156c565b6040516101d29190613c2e565b60405180910390f35b6101e36115b9565b6040516101f09190613c49565b60405180910390f35b6102016115df565b60405161020e9190613c49565b60405180910390f35b610231600480360381019061022c9190613c64565b611605565b604051610242959493929190613ca4565b60405180910390f35b61026560048036038101906102609190614101565b6116f4565b604051610272919061414a565b60405180910390f35b610283611e0b565b005b61029f600480360381019061029a9190614165565b611e1f565b6040516102ac919061456e565b60405180910390f35b6102cf60048036038101906102ca9190613c64565b611fc9565b6040516102e196959493929190614590565b60405180910390f35b61030460048036038101906102ff9190614632565b6121ce565b005b61030e6121f2565b60405161031b9190613c49565b60405180910390f35b61033e6004803603810190610339919061465f565b61221b565b005b61035a60048036038101906103559190614771565b612436565b60405161036791906148cc565b60405180910390f35b61037861244e565b6040516103859190613c49565b60405180910390f35b6103a860048036038101906103a39190614165565b612474565b005b600181815481106103ba57600080fd5b90600052602060002090600e02016000915090508060000160009054906101000a900467ffffffffffffffff16908060010180546103f79061491d565b80601f01602080910402602001604051908101604052809291908181526020018280546104239061491d565b80156104705780601f1061044557610100808354040283529160200191610470565b820191906000526020600020905b81548152906001019060200180831161045357829003601f168201915b5050505050908060020180546104859061491d565b80601f01602080910402602001604051908101604052809291908181526020018280546104b19061491d565b80156104fe5780601f106104d3576101008083540402835291602001916104fe565b820191906000526020600020905b8154815290600101906020018083116104e157829003601f168201915b5050505050908060030160009054906101000a900473ffffffffffffffffffffffffffffffffffffffff16908060040154908060050154908060060160009054906101000a90046bffffffffffffffffffffffff16908060070180546105639061491d565b80601f016020809104026020016040519081016040528092919081815260200182805461058f9061491d565b80156105dc5780601f106105b1576101008083540402835291602001916105dc565b820191906000526020600020905b8154815290600101906020018083116105bf57829003601f168201915b5050505050908060080180546105f19061491d565b80601f016020809104026020016040519081016040528092919081815260200182805461061d9061491d565b801561066a5780601f1061063f5761010080835404028352916020019161066a565b820191906000526020600020905b81548152906001019060200180831161064d57829003601f168201915b50505050509080600901805461067f9061491d565b80601f01602080910402602001604051908101604052809291908181526020018280546106ab9061491d565b80156106f85780601f106106cd576101008083540402835291602001916106f8565b820191906000526020600020905b8154815290600101906020018083116106db57829003601f168201915b50505050509080600a0160405180608001604052908160008201805461071d9061491d565b80601f01602080910402602001604051908101604052809291908181526020018280546107499061491d565b80156107965780601f1061076b57610100808354040283529160200191610796565b820191906000526020600020905b81548152906001019060200180831161077957829003601f168201915b505050505081526020016001820180546107af9061491d565b80601f01602080910402602001604051908101604052809291908181526020018280546107db9061491d565b80156108285780601f106107fd57610100808354040283529160200191610828565b820191906000526020600020905b81548152906001019060200180831161080b57829003601f168201915b505050505081526020016002820180546108419061491d565b80601f016020809104026020016040519081016040528092919081815260200182805461086d9061491d565b80156108ba5780601f1061088f576101008083540402835291602001916108ba565b820191906000526020600020905b81548152906001019060200180831161089d57829003601f168201915b505050505081526020016003820180546108d39061491d565b80601f01602080910402602001604051908101604052809291908181526020018280546108ff9061491d565b801561094c5780601f106109215761010080835404028352916020019161094c565b820191906000526020600020905b81548152906001019060200180831161092f57829003601f168201915b50505050508152505090508b565b60008060009054906101000a900460ff16905090565b6040518060400160405280600981526020017f6275795469636b6574000000000000000000000000000000000000000000000081525060008054906101000a900460ff16156109f1577f3b27a17eb6abbf4d7afecee861fef9cb2a747838d77634f6885a162b37c00a6d816040516109e891906149d1565b60405180910390a15b6000600360008667ffffffffffffffff1667ffffffffffffffff16815260200190815260200160002090506000818054905011610a63576040517f08c379a0000000000000000000000000000000000000000000000000000000008152600401610a5a90614a65565b60405180910390fd5b6000610a6e866124fa565b9050600082600081548110610a8657610a85614a85565b5b906000526020600020906006020190506000805b8480549050811015610b32578767ffffffffffffffff16858281548110610ac457610ac3614a85565b5b906000526020600020906006020160000160009054906101000a900467ffffffffffffffff1667ffffffffffffffff1603610b255760019150848181548110610b1057610b0f614a85565b5b90600052602060002090600602019250610b32565b8080600101915050610a9a565b5080610b73576040517f08c379a0000000000000000000000000000000000000000000000000000000008152600401610b6a90614b00565b60405180910390fd5b8160020154866fffffffffffffffffffffffffffffffff1610610bcb576040517f08c379a0000000000000000000000000000000000000000000000000000000008152600401610bc290614b6c565b60405180910390fd5b60005b8260050180549050811015610c5e57866fffffffffffffffffffffffffffffffff16836005018281548110610c0657610c05614a85565b5b906000526020600020015403610c51576040517f08c379a0000000000000000000000000000000000000000000000000000000008152600401610c4890614bd8565b60405180910390fd5b8080600101915050610bce565b508160030154826002015411610ca9576040517f08c379a0000000000000000000000000000000000000000000000000000000008152600401610ca090614c44565b60405180910390fd5b600660009054906101000a900473ffffffffffffffffffffffffffffffffffffffff1673ffffffffffffffffffffffffffffffffffffffff166323b872dd33856060015185600401546040518463ffffffff1660e01b8152600401610d1093929190614c64565b6020604051808303816000875af1158015610d2f573d6000803e3d6000fd5b505050506040513d601f19601f82011682018060405250810190610d539190614cb0565b610d92576040517f08c379a0000000000000000000000000000000000000000000000000000000008152600401610d8990614d29565b60405180910390fd5b816003016000815480929190610da790614d78565b9190505550816005018690806001815401808255809150506001900390600052602060002001600090916fffffffffffffffffffffffffffffffff169091909150556000610df6898989612e91565b90506000610e1b8560e001518a8a6fffffffffffffffffffffffffffffffff16612ecf565b9050600560009054906101000a900473ffffffffffffffffffffffffffffffffffffffff1673ffffffffffffffffffffffffffffffffffffffff16634094897733848489606001518a60c001516040518663ffffffff1660e01b8152600401610e88959493929190614dc0565b600060405180830381600087803b158015610ea257600080fd5b505af1158015610eb6573d6000803e3d6000fd5b505050507f535d3139c97378b49b025f98009a67ecd71ef470b7bedee0a7e1e7e38fe7717b6040518060e001604052808481526020018c67ffffffffffffffff1681526020018b67ffffffffffffffff1681526020018a6fffffffffffffffffffffffffffffffff1681526020014281526020013373ffffffffffffffffffffffffffffffffffffffff16815260200183815250604051610f579190614ec5565b60405180910390a150505050505060008054906101000a900460ff1615610fb0577f3b27a17eb6abbf4d7afecee861fef9cb2a747838d77634f6885a162b37c00a6d81604051610fa79190614f33565b60405180910390a15b50505050565b806000015167ffffffffffffffff1660018181548110610fd957610fd8614a85565b5b90600052602060002090600e020160030160009054906101000a900473ffffffffffffffffffffffffffffffffffffffff1673ffffffffffffffffffffffffffffffffffffffff163373ffffffffffffffffffffffffffffffffffffffff1614611078576040517f08c379a000000000000000000000000000000000000000000000000000000000815260040161106f90614fc7565b60405180910390fd5b600061108783600001516124fa565b90508060a0015142116110cf576040517f08c379a00000000000000000000000000000000000000000000000000000000081526004016110c690615033565b60405180910390fd5b6000600160046000866000015167ffffffffffffffff1667ffffffffffffffff1681526020019081526020016000208054905061110c9190615053565b905060046000856000015167ffffffffffffffff1667ffffffffffffffff1681526020019081526020016000206040518060c001604052808367ffffffffffffffff1681526020018660200151815260200186604001518152602001866080015181526020018660a001516bffffffffffffffffffffffff1681526020018660600151815250908060018154018082558091505060019003906000526020600020906006020160009091909190915060008201518160000160006101000a81548167ffffffffffffffff021916908367ffffffffffffffff16021790555060208201518160010190816111ff9190615233565b5060408201518160020190816112159190615233565b50606082015181600301556080820151816004015560a082015181600501908161123f9190615233565b5050506000846080015167ffffffffffffffff81111561126257611261613827565b5b6040519080825280602002602001820160405280156112905781602001602082028036833780820191505090505b5090506000856080015167ffffffffffffffff8111156112b3576112b2613827565b5b6040519080825280602002602001820160405280156112e15781602001602082028036833780820191505090505b50905060005b8660800151816fffffffffffffffffffffffffffffffff1610156114cf5760008760c0015151826fffffffffffffffffffffffffffffffff1661132a9190615334565b905060006113498960000151876001866113449190615365565b612e91565b90508085846fffffffffffffffffffffffffffffffff168151811061137157611370614a85565b5b6020026020010181815250508860c00151828151811061139457611393614a85565b5b602002602001015184846fffffffffffffffffffffffffffffffff16815181106113c1576113c0614a85565b5b602002602001019073ffffffffffffffffffffffffffffffffffffffff16908173ffffffffffffffffffffffffffffffffffffffff1681525050600760009054906101000a900473ffffffffffffffffffffffffffffffffffffffff1673ffffffffffffffffffffffffffffffffffffffff1663409489778a60c0015184815181106114505761144f614a85565b5b6020026020010151838c606001518b606001518e60a001516040518663ffffffff1660e01b8152600401611488959493929190614dc0565b600060405180830381600087803b1580156114a257600080fd5b505af11580156114b6573d6000803e3d6000fd5b50505050505080806114c7906153a9565b9150506112e7565b507f68c9aed10b0c9157bd7bc786dde14f065883ee2520d31dc375893e1fe4ea51196040518061010001604052808567ffffffffffffffff168152602001886000015167ffffffffffffffff1681526020018860200151815260200188606001518152602001886040015181526020014281526020018481526020018381525060405161155c919061560b565b60405180910390a1505050505050565b6002602052816000526040600020818154811061158857600080fd5b9060005260206000209060049182820401919006600802915091509054906101000a900467ffffffffffffffff1681565b600760009054906101000a900473ffffffffffffffffffffffffffffffffffffffff1681565b600560009054906101000a900473ffffffffffffffffffffffffffffffffffffffff1681565b6003602052816000526040600020818154811061162157600080fd5b9060005260206000209060060201600091509150508060000160009054906101000a900467ffffffffffffffff169080600101805461165f9061491d565b80601f016020809104026020016040519081016040528092919081815260200182805461168b9061491d565b80156116d85780601f106116ad576101008083540402835291602001916116d8565b820191906000526020600020905b8154815290600101906020018083116116bb57829003601f168201915b5050505050908060020154908060030154908060040154905085565b60006040518060400160405280600b81526020017f6372656174654576656e7400000000000000000000000000000000000000000081525060008054906101000a900460ff1615611777577f3b27a17eb6abbf4d7afecee861fef9cb2a747838d77634f6885a162b37c00a6d8160405161176e91906149d1565b60405180910390a15b600083610120015151116117c0576040517f08c379a00000000000000000000000000000000000000000000000000000000081526004016117b79061569f565b60405180910390fd5b4283604001511015611807576040517f08c379a00000000000000000000000000000000000000000000000000000000081526004016117fe9061570b565b60405180910390fd5b8260400151836060015111611851576040517f08c379a00000000000000000000000000000000000000000000000000000000081526004016118489061579d565b60405180910390fd5b600083600001515111611899576040517f08c379a000000000000000000000000000000000000000000000000000000000815260040161189090615809565b60405180910390fd5b6000600180549050905060006040518061016001604052808367ffffffffffffffff16815260200186600001518152602001866020015181526020013373ffffffffffffffffffffffffffffffffffffffff168152602001866040015181526020018660600151815260200186608001516bffffffffffffffffffffffff1681526020018660a0015181526020018660c0015181526020018660e0015181526020016040518060800160405280886101000151600001518152602001886101000151602001518152602001886101000151604001518152602001886101000151606001518152508152509050600260003373ffffffffffffffffffffffffffffffffffffffff1673ffffffffffffffffffffffffffffffffffffffff1681526020019081526020016000208290806001815401808255809150506001900390600052602060002090600491828204019190066008029091909190916101000a81548167ffffffffffffffff021916908367ffffffffffffffff16021790555060018190806001815401808255809150506001900390600052602060002090600e020160009091909190915060008201518160000160006101000a81548167ffffffffffffffff021916908367ffffffffffffffff1602179055506020820151816001019081611a889190615233565b506040820151816002019081611a9e9190615233565b5060608201518160030160006101000a81548173ffffffffffffffffffffffffffffffffffffffff021916908373ffffffffffffffffffffffffffffffffffffffff1602179055506080820151816004015560a0820151816005015560c08201518160060160006101000a8154816bffffffffffffffffffffffff02191690836bffffffffffffffffffffffff16021790555060e0820151816007019081611b469190615233565b50610100820151816008019081611b5d9190615233565b50610120820151816009019081611b749190615233565b5061014082015181600a016000820151816000019081611b949190615233565b506020820151816001019081611baa9190615233565b506040820151816002019081611bc09190615233565b506060820151816003019081611bd69190615233565b505050505060005b856101200151518167ffffffffffffffff161015611d635760008661012001518267ffffffffffffffff1681518110611c1a57611c19614a85565b5b60200260200101519050606060006040518060c00160405280600186611c409190615829565b67ffffffffffffffff16815260200184600001518152602001846020015181526020016000815260200184604001518152602001838152509050600360008767ffffffffffffffff1667ffffffffffffffff16815260200190815260200160002081908060018154018082558091505060019003906000526020600020906006020160009091909190915060008201518160000160006101000a81548167ffffffffffffffff021916908367ffffffffffffffff1602179055506020820151816001019081611d0f9190615233565b5060408201518160020155606082015181600301556080820151816004015560a0820151816005019080519060200190611d4a92919061328d565b5050505050508080611d5b90615865565b915050611bde565b507fb8ee242eb491cea3d86b84b0973a7854b58ab6a4020619c574a7ccb4f2fbeeca611d9282600001516124fa565b604051611d9f91906148cc565b60405180910390a1806000015167ffffffffffffffff169350505060008054906101000a900460ff1615611e05577f3b27a17eb6abbf4d7afecee861fef9cb2a747838d77634f6885a162b37c00a6d81604051611dfc9190614f33565b60405180910390a15b50919050565b611e13612f18565b611e1d6000612f9f565b565b60606000600260008473ffffffffffffffffffffffffffffffffffffffff1673ffffffffffffffffffffffffffffffffffffffff168152602001908152602001600020805480602002602001604051908101604052809291908181526020018280548015611ee057602002820191906000526020600020906000905b82829054906101000a900467ffffffffffffffff1667ffffffffffffffff1681526020019060080190602082600701049283019260010382029150808411611e9b5790505b505050505090506000815167ffffffffffffffff811115611f0457611f03613827565b5b604051908082528060200260200182016040528015611f3d57816020015b611f2a6132da565b815260200190600190039081611f225790505b50905060005b82518167ffffffffffffffff161015611fbe57611f83838267ffffffffffffffff1681518110611f7657611f75614a85565b5b60200260200101516124fa565b828267ffffffffffffffff1681518110611fa057611f9f614a85565b5b60200260200101819052508080611fb690615865565b915050611f43565b508092505050919050565b60046020528160005260406000208181548110611fe557600080fd5b9060005260206000209060060201600091509150508060000160009054906101000a900467ffffffffffffffff16908060010180546120239061491d565b80601f016020809104026020016040519081016040528092919081815260200182805461204f9061491d565b801561209c5780601f106120715761010080835404028352916020019161209c565b820191906000526020600020905b81548152906001019060200180831161207f57829003601f168201915b5050505050908060020180546120b19061491d565b80601f01602080910402602001604051908101604052809291908181526020018280546120dd9061491d565b801561212a5780601f106120ff5761010080835404028352916020019161212a565b820191906000526020600020905b81548152906001019060200180831161210d57829003601f168201915b50505050509080600301549080600401549080600501805461214b9061491d565b80601f01602080910402602001604051908101604052809291908181526020018280546121779061491d565b80156121c45780601f10612199576101008083540402835291602001916121c4565b820191906000526020600020905b8154815290600101906020018083116121a757829003601f168201915b5050505050905086565b6121d6612f18565b806000806101000a81548160ff02191690831515021790555050565b60008060019054906101000a900473ffffffffffffffffffffffffffffffffffffffff16905090565b8667ffffffffffffffff166001818154811061223a57612239614a85565b5b90600052602060002090600e020160030160009054906101000a900473ffffffffffffffffffffffffffffffffffffffff1673ffffffffffffffffffffffffffffffffffffffff163373ffffffffffffffffffffffffffffffffffffffff16146122d9576040517f08c379a00000000000000000000000000000000000000000000000000000000081526004016122d090614fc7565b60405180910390fd5b600087511161231d576040517f08c379a000000000000000000000000000000000000000000000000000000000815260040161231490615809565b60405180910390fd5b42851161235f576040517f08c379a00000000000000000000000000000000000000000000000000000000081526004016123569061570b565b60405180910390fd5b8484116123a1576040517f08c379a00000000000000000000000000000000000000000000000000000000081526004016123989061579d565b60405180910390fd5b600060018967ffffffffffffffff16815481106123c1576123c0614a85565b5b90600052602060002090600e02019050878160010190816123e29190615233565b50868160020190816123f49190615233565b50858160040181905550848160050181905550838160080190816124189190615233565b508281600901908161242a9190615233565b50505050505050505050565b61243e6132da565b612447826124fa565b9050919050565b600660009054906101000a900473ffffffffffffffffffffffffffffffffffffffff1681565b61247c612f18565b600073ffffffffffffffffffffffffffffffffffffffff168173ffffffffffffffffffffffffffffffffffffffff16036124ee5760006040517f1e4fbdf70000000000000000000000000000000000000000000000000000000081526004016124e59190613c49565b60405180910390fd5b6124f781612f9f565b50565b6125026132da565b6001805490508267ffffffffffffffff1610612553576040517f08c379a000000000000000000000000000000000000000000000000000000000815260040161254a90614a65565b60405180910390fd5b600060018367ffffffffffffffff168154811061257357612572614a85565b5b90600052602060002090600e020190506000600360008567ffffffffffffffff1667ffffffffffffffff16815260200190815260200160002090506000818054905090506000600360008767ffffffffffffffff1667ffffffffffffffff1681526020019081526020016000208054905003612624576040517f08c379a000000000000000000000000000000000000000000000000000000000815260040161261b906158e1565b60405180910390fd5b61262c6132da565b8360000160009054906101000a900467ffffffffffffffff16816000019067ffffffffffffffff16908167ffffffffffffffff16815250508360010180546126739061491d565b80601f016020809104026020016040519081016040528092919081815260200182805461269f9061491d565b80156126ec5780601f106126c1576101008083540402835291602001916126ec565b820191906000526020600020905b8154815290600101906020018083116126cf57829003601f168201915b505050505081602001819052508360030160009054906101000a900473ffffffffffffffffffffffffffffffffffffffff16816060019073ffffffffffffffffffffffffffffffffffffffff16908173ffffffffffffffffffffffffffffffffffffffff16815250508360020180546127649061491d565b80601f01602080910402602001604051908101604052809291908181526020018280546127909061491d565b80156127dd5780601f106127b2576101008083540402835291602001916127dd565b820191906000526020600020905b8154815290600101906020018083116127c057829003601f168201915b50505050508160400181905250836004015481608001818152505083600501548160a00181815250508360080180546128159061491d565b80601f01602080910402602001604051908101604052809291908181526020018280546128419061491d565b801561288e5780601f106128635761010080835404028352916020019161288e565b820191906000526020600020905b81548152906001019060200180831161287157829003601f168201915b50505050508161010001819052508360090180546128ab9061491d565b80601f01602080910402602001604051908101604052809291908181526020018280546128d79061491d565b80156129245780601f106128f957610100808354040283529160200191612924565b820191906000526020600020905b81548152906001019060200180831161290757829003601f168201915b50505050508161012001819052508360060160009054906101000a90046bffffffffffffffffffffffff168160c001906bffffffffffffffffffffffff1690816bffffffffffffffffffffffff16815250508360070180546129859061491d565b80601f01602080910402602001604051908101604052809291908181526020018280546129b19061491d565b80156129fe5780601f106129d3576101008083540402835291602001916129fe565b820191906000526020600020905b8154815290600101906020018083116129e157829003601f168201915b50505050508160e0018190525083600a01604051806080016040529081600082018054612a2a9061491d565b80601f0160208091040260200160405190810160405280929190818152602001828054612a569061491d565b8015612aa35780601f10612a7857610100808354040283529160200191612aa3565b820191906000526020600020905b815481529060010190602001808311612a8657829003601f168201915b50505050508152602001600182018054612abc9061491d565b80601f0160208091040260200160405190810160405280929190818152602001828054612ae89061491d565b8015612b355780601f10612b0a57610100808354040283529160200191612b35565b820191906000526020600020905b815481529060010190602001808311612b1857829003601f168201915b50505050508152602001600282018054612b4e9061491d565b80601f0160208091040260200160405190810160405280929190818152602001828054612b7a9061491d565b8015612bc75780601f10612b9c57610100808354040283529160200191612bc7565b820191906000526020600020905b815481529060010190602001808311612baa57829003601f168201915b50505050508152602001600382018054612be09061491d565b80601f0160208091040260200160405190810160405280929190818152602001828054612c0c9061491d565b8015612c595780601f10612c2e57610100808354040283529160200191612c59565b820191906000526020600020905b815481529060010190602001808311612c3c57829003601f168201915b5050505050815250508161014001819052508167ffffffffffffffff811115612c8557612c84613827565b5b604051908082528060200260200182016040528015612cbe57816020015b612cab61336f565b815260200190600190039081612ca35790505b5081610160018190525060005b82811015612e84576040518060a00160405280858381548110612cf157612cf0614a85565b5b906000526020600020906006020160000160009054906101000a900467ffffffffffffffff1667ffffffffffffffff168152602001858381548110612d3957612d38614a85565b5b90600052602060002090600602016001018054612d559061491d565b80601f0160208091040260200160405190810160405280929190818152602001828054612d819061491d565b8015612dce5780601f10612da357610100808354040283529160200191612dce565b820191906000526020600020905b815481529060010190602001808311612db157829003601f168201915b50505050508152602001858381548110612deb57612dea614a85565b5b9060005260206000209060060201600201548152602001858381548110612e1557612e14614a85565b5b9060005260206000209060060201600301548152602001858381548110612e3f57612e3e614a85565b5b9060005260206000209060060201600401548152508261016001518281518110612e6c57612e6b614a85565b5b60200260200101819052508080600101915050612ccb565b5080945050505050919050565b6000816fffffffffffffffffffffffffffffffff1660808467ffffffffffffffff16901b60c08667ffffffffffffffff16901b171790509392505050565b606083612ee58467ffffffffffffffff16613064565b612eee84613064565b604051602001612f00939291906159d5565b60405160208183030381529060405290509392505050565b612f20613132565b73ffffffffffffffffffffffffffffffffffffffff16612f3e6121f2565b73ffffffffffffffffffffffffffffffffffffffff1614612f9d57612f61613132565b6040517f118cdaa7000000000000000000000000000000000000000000000000000000008152600401612f949190613c49565b60405180910390fd5b565b60008060019054906101000a900473ffffffffffffffffffffffffffffffffffffffff16905081600060016101000a81548173ffffffffffffffffffffffffffffffffffffffff021916908373ffffffffffffffffffffffffffffffffffffffff1602179055508173ffffffffffffffffffffffffffffffffffffffff168173ffffffffffffffffffffffffffffffffffffffff167f8be0079c531659141344cd1fd0a4f28419497f9722a3daafe3b4186f6b6457e060405160405180910390a35050565b6060600060016130738461313a565b01905060008167ffffffffffffffff81111561309257613091613827565b5b6040519080825280601f01601f1916602001820160405280156130c45781602001600182028036833780820191505090505b509050600082602001820190505b600115613127578080600190039150507f3031323334353637383961626364656600000000000000000000000000000000600a86061a8153600a858161311b5761311a615305565b5b049450600085036130d2575b819350505050919050565b600033905090565b600080600090507a184f03e93ff9f4daa797ed6e38ed64bf6a1f0100000000000000008310613198577a184f03e93ff9f4daa797ed6e38ed64bf6a1f010000000000000000838161318e5761318d615305565b5b0492506040810190505b6d04ee2d6d415b85acef810000000083106131d5576d04ee2d6d415b85acef810000000083816131cb576131ca615305565b5b0492506020810190505b662386f26fc10000831061320457662386f26fc1000083816131fa576131f9615305565b5b0492506010810190505b6305f5e100831061322d576305f5e100838161322357613222615305565b5b0492506008810190505b612710831061325257612710838161324857613247615305565b5b0492506004810190505b60648310613275576064838161326b5761326a615305565b5b0492506002810190505b600a8310613284576001810190505b80915050919050565b8280548282559060005260206000209081019282156132c9579160200282015b828111156132c85782518255916020019190600101906132ad565b5b5090506132d691906133a8565b5090565b604051806101800160405280600067ffffffffffffffff1681526020016060815260200160608152602001600073ffffffffffffffffffffffffffffffffffffffff168152602001600081526020016000815260200160006bffffffffffffffffffffffff1681526020016060815260200160608152602001606081526020016133626133c5565b8152602001606081525090565b6040518060a00160405280600067ffffffffffffffff168152602001606081526020016000815260200160008152602001600081525090565b5b808211156133c15760008160009055506001016133a9565b5090565b6040518060800160405280606081526020016060815260200160608152602001606081525090565b6000604051905090565b600080fd5b600080fd5b6000819050919050565b61341481613401565b811461341f57600080fd5b50565b6000813590506134318161340b565b92915050565b60006020828403121561344d5761344c6133f7565b5b600061345b84828501613422565b91505092915050565b600067ffffffffffffffff82169050919050565b61348181613464565b82525050565b600081519050919050565b600082825260208201905092915050565b60005b838110156134c15780820151818401526020810190506134a6565b60008484015250505050565b6000601f19601f8301169050919050565b60006134e982613487565b6134f38185613492565b93506135038185602086016134a3565b61350c816134cd565b840191505092915050565b600073ffffffffffffffffffffffffffffffffffffffff82169050919050565b600061354282613517565b9050919050565b61355281613537565b82525050565b61356181613401565b82525050565b60006bffffffffffffffffffffffff82169050919050565b61358881613567565b82525050565b600082825260208201905092915050565b60006135aa82613487565b6135b4818561358e565b93506135c48185602086016134a3565b6135cd816134cd565b840191505092915050565b600060808301600083015184820360008601526135f5828261359f565b9150506020830151848203602086015261360f828261359f565b91505060408301518482036040860152613629828261359f565b91505060608301518482036060860152613643828261359f565b9150508091505092915050565b600061016082019050613666600083018e613478565b8181036020830152613678818d6134de565b9050818103604083015261368c818c6134de565b905061369b606083018b613549565b6136a8608083018a613558565b6136b560a0830189613558565b6136c260c083018861357f565b81810360e08301526136d481876134de565b90508181036101008301526136e981866134de565b90508181036101208301526136fe81856134de565b905081810361014083015261371381846135d8565b90509c9b505050505050505050505050565b60008115159050919050565b61373a81613725565b82525050565b60006020820190506137556000830184613731565b92915050565b61376481613464565b811461376f57600080fd5b50565b6000813590506137818161375b565b92915050565b60006fffffffffffffffffffffffffffffffff82169050919050565b6137ac81613787565b81146137b757600080fd5b50565b6000813590506137c9816137a3565b92915050565b6000806000606084860312156137e8576137e76133f7565b5b60006137f686828701613772565b935050602061380786828701613772565b9250506040613818868287016137ba565b9150509250925092565b600080fd5b7f4e487b7100000000000000000000000000000000000000000000000000000000600052604160045260246000fd5b61385f826134cd565b810181811067ffffffffffffffff8211171561387e5761387d613827565b5b80604052505050565b60006138916133ed565b905061389d8282613856565b919050565b600080fd5b600080fd5b600080fd5b600067ffffffffffffffff8211156138cc576138cb613827565b5b6138d5826134cd565b9050602081019050919050565b82818337600083830152505050565b60006139046138ff846138b1565b613887565b9050828152602081018484840111156139205761391f6138ac565b5b61392b8482856138e2565b509392505050565b600082601f830112613948576139476138a7565b5b81356139588482602086016138f1565b91505092915050565b61396a81613567565b811461397557600080fd5b50565b60008135905061398781613961565b92915050565b600067ffffffffffffffff8211156139a8576139a7613827565b5b602082029050602081019050919050565b600080fd5b6139c781613537565b81146139d257600080fd5b50565b6000813590506139e4816139be565b92915050565b60006139fd6139f88461398d565b613887565b90508083825260208201905060208402830185811115613a2057613a1f6139b9565b5b835b81811015613a495780613a3588826139d5565b845260208401935050602081019050613a22565b5050509392505050565b600082601f830112613a6857613a676138a7565b5b8135613a788482602086016139ea565b91505092915050565b600060e08284031215613a9757613a96613822565b5b613aa160e0613887565b90506000613ab184828501613772565b600083015250602082013567ffffffffffffffff811115613ad557613ad46138a2565b5b613ae184828501613933565b602083015250604082013567ffffffffffffffff811115613b0557613b046138a2565b5b613b1184828501613933565b604083015250606082013567ffffffffffffffff811115613b3557613b346138a2565b5b613b4184828501613933565b6060830152506080613b5584828501613422565b60808301525060a0613b6984828501613978565b60a08301525060c082013567ffffffffffffffff811115613b8d57613b8c6138a2565b5b613b9984828501613a53565b60c08301525092915050565b600060208284031215613bbb57613bba6133f7565b5b600082013567ffffffffffffffff811115613bd957613bd86133fc565b5b613be584828501613a81565b91505092915050565b60008060408385031215613c0557613c046133f7565b5b6000613c13858286016139d5565b9250506020613c2485828601613422565b9150509250929050565b6000602082019050613c436000830184613478565b92915050565b6000602082019050613c5e6000830184613549565b92915050565b60008060408385031215613c7b57613c7a6133f7565b5b6000613c8985828601613772565b9250506020613c9a85828601613422565b9150509250929050565b600060a082019050613cb96000830188613478565b8181036020830152613ccb81876134de565b9050613cda6040830186613558565b613ce76060830185613558565b613cf46080830184613558565b9695505050505050565b600060808284031215613d1457613d13613822565b5b613d1e6080613887565b9050600082013567ffffffffffffffff811115613d3e57613d3d6138a2565b5b613d4a84828501613933565b600083015250602082013567ffffffffffffffff811115613d6e57613d6d6138a2565b5b613d7a84828501613933565b602083015250604082013567ffffffffffffffff811115613d9e57613d9d6138a2565b5b613daa84828501613933565b604083015250606082013567ffffffffffffffff811115613dce57613dcd6138a2565b5b613dda84828501613933565b60608301525092915050565b600067ffffffffffffffff821115613e0157613e00613827565b5b602082029050602081019050919050565b600060608284031215613e2857613e27613822565b5b613e326060613887565b9050600082013567ffffffffffffffff811115613e5257613e516138a2565b5b613e5e84828501613933565b6000830152506020613e7284828501613422565b6020830152506040613e8684828501613422565b60408301525092915050565b6000613ea5613ea084613de6565b613887565b90508083825260208201905060208402830185811115613ec857613ec76139b9565b5b835b81811015613f0f57803567ffffffffffffffff811115613eed57613eec6138a7565b5b808601613efa8982613e12565b85526020850194505050602081019050613eca565b5050509392505050565b600082601f830112613f2e57613f2d6138a7565b5b8135613f3e848260208601613e92565b91505092915050565b60006101408284031215613f5e57613f5d613822565b5b613f69610140613887565b9050600082013567ffffffffffffffff811115613f8957613f886138a2565b5b613f9584828501613933565b600083015250602082013567ffffffffffffffff811115613fb957613fb86138a2565b5b613fc584828501613933565b6020830152506040613fd984828501613422565b6040830152506060613fed84828501613422565b606083015250608061400184828501613978565b60808301525060a082013567ffffffffffffffff811115614025576140246138a2565b5b61403184828501613933565b60a08301525060c082013567ffffffffffffffff811115614055576140546138a2565b5b61406184828501613933565b60c08301525060e082013567ffffffffffffffff811115614085576140846138a2565b5b61409184828501613933565b60e08301525061010082013567ffffffffffffffff8111156140b6576140b56138a2565b5b6140c284828501613cfe565b6101008301525061012082013567ffffffffffffffff8111156140e8576140e76138a2565b5b6140f484828501613f19565b6101208301525092915050565b600060208284031215614117576141166133f7565b5b600082013567ffffffffffffffff811115614135576141346133fc565b5b61414184828501613f47565b91505092915050565b600060208201905061415f6000830184613558565b92915050565b60006020828403121561417b5761417a6133f7565b5b6000614189848285016139d5565b91505092915050565b600081519050919050565b600082825260208201905092915050565b6000819050602082019050919050565b6141c781613464565b82525050565b6141d681613537565b82525050565b6141e581613401565b82525050565b6141f481613567565b82525050565b60006080830160008301518482036000860152614217828261359f565b91505060208301518482036020860152614231828261359f565b9150506040830151848203604086015261424b828261359f565b91505060608301518482036060860152614265828261359f565b9150508091505092915050565b600081519050919050565b600082825260208201905092915050565b6000819050602082019050919050565b600060a0830160008301516142b660008601826141be565b50602083015184820360208601526142ce828261359f565b91505060408301516142e360408601826141dc565b5060608301516142f660608601826141dc565b50608083015161430960808601826141dc565b508091505092915050565b6000614320838361429e565b905092915050565b6000602082019050919050565b600061434082614272565b61434a818561427d565b93508360208202850161435c8561428e565b8060005b8581101561439857848403895281516143798582614314565b945061438483614328565b925060208a01995050600181019050614360565b50829750879550505050505092915050565b6000610180830160008301516143c360008601826141be565b50602083015184820360208601526143db828261359f565b915050604083015184820360408601526143f5828261359f565b915050606083015161440a60608601826141cd565b50608083015161441d60808601826141dc565b5060a083015161443060a08601826141dc565b5060c083015161444360c08601826141eb565b5060e083015184820360e086015261445b828261359f565b915050610100830151848203610100860152614477828261359f565b915050610120830151848203610120860152614493828261359f565b9150506101408301518482036101408601526144af82826141fa565b9150506101608301518482036101608601526144cb8282614335565b9150508091505092915050565b60006144e483836143aa565b905092915050565b6000602082019050919050565b600061450482614192565b61450e818561419d565b935083602082028501614520856141ae565b8060005b8581101561455c578484038952815161453d85826144d8565b9450614548836144ec565b925060208a01995050600181019050614524565b50829750879550505050505092915050565b6000602082019050818103600083015261458881846144f9565b905092915050565b600060c0820190506145a56000830189613478565b81810360208301526145b781886134de565b905081810360408301526145cb81876134de565b90506145da6060830186613558565b6145e76080830185613558565b81810360a08301526145f981846134de565b9050979650505050505050565b61460f81613725565b811461461a57600080fd5b50565b60008135905061462c81614606565b92915050565b600060208284031215614648576146476133f7565b5b60006146568482850161461d565b91505092915050565b600080600080600080600060e0888a03121561467e5761467d6133f7565b5b600061468c8a828b01613772565b975050602088013567ffffffffffffffff8111156146ad576146ac6133fc565b5b6146b98a828b01613933565b965050604088013567ffffffffffffffff8111156146da576146d96133fc565b5b6146e68a828b01613933565b95505060606146f78a828b01613422565b94505060806147088a828b01613422565b93505060a088013567ffffffffffffffff811115614729576147286133fc565b5b6147358a828b01613933565b92505060c088013567ffffffffffffffff811115614756576147556133fc565b5b6147628a828b01613933565b91505092959891949750929550565b600060208284031215614787576147866133f7565b5b600061479584828501613772565b91505092915050565b6000610180830160008301516147b760008601826141be565b50602083015184820360208601526147cf828261359f565b915050604083015184820360408601526147e9828261359f565b91505060608301516147fe60608601826141cd565b50608083015161481160808601826141dc565b5060a083015161482460a08601826141dc565b5060c083015161483760c08601826141eb565b5060e083015184820360e086015261484f828261359f565b91505061010083015184820361010086015261486b828261359f565b915050610120830151848203610120860152614887828261359f565b9150506101408301518482036101408601526148a382826141fa565b9150506101608301518482036101608601526148bf8282614335565b9150508091505092915050565b600060208201905081810360008301526148e6818461479e565b905092915050565b7f4e487b7100000000000000000000000000000000000000000000000000000000600052602260045260246000fd5b6000600282049050600182168061493557607f821691505b602082108103614948576149476148ee565b5b50919050565b7f4d6574686f6420656e7472790000000000000000000000000000000000000000600082015250565b6000614984600c83613492565b915061498f8261494e565b602082019050919050565b600082825260208201905092915050565b50565b60006149bb60008361499a565b91506149c6826149ab565b600082019050919050565b600060608201905081810360008301526149eb81846134de565b905081810360208301526149fe81614977565b90508181036040830152614a11816149ae565b905092915050565b7f4576656e7420646f6573206e6f74206578697374000000000000000000000000600082015250565b6000614a4f601483613492565b9150614a5a82614a19565b602082019050919050565b60006020820190508181036000830152614a7e81614a42565b9050919050565b7f4e487b7100000000000000000000000000000000000000000000000000000000600052603260045260246000fd5b7f5469636b65742063617465676f727920646f6573206e6f742065786973740000600082015250565b6000614aea601e83613492565b9150614af582614ab4565b602082019050919050565b60006020820190508181036000830152614b1981614add565b9050919050565b7f5469636b657420646f6573206e6f742065786973740000000000000000000000600082015250565b6000614b56601583613492565b9150614b6182614b20565b602082019050919050565b60006020820190508181036000830152614b8581614b49565b9050919050565b7f5469636b657420616c726561647920626f756768740000000000000000000000600082015250565b6000614bc2601583613492565b9150614bcd82614b8c565b602082019050919050565b60006020820190508181036000830152614bf181614bb5565b9050919050565b7f4e6f7420656e6f756768207469636b65747320617661696c61626c6500000000600082015250565b6000614c2e601c83613492565b9150614c3982614bf8565b602082019050919050565b60006020820190508181036000830152614c5d81614c21565b9050919050565b6000606082019050614c796000830186613549565b614c866020830185613549565b614c936040830184613558565b949350505050565b600081519050614caa81614606565b92915050565b600060208284031215614cc657614cc56133f7565b5b6000614cd484828501614c9b565b91505092915050565b7f496e73756666696369656e74207061796d656e74000000000000000000000000600082015250565b6000614d13601483613492565b9150614d1e82614cdd565b602082019050919050565b60006020820190508181036000830152614d4281614d06565b9050919050565b7f4e487b7100000000000000000000000000000000000000000000000000000000600052601160045260246000fd5b6000614d8382613401565b91507fffffffffffffffffffffffffffffffffffffffffffffffffffffffffffffffff8203614db557614db4614d49565b5b600182019050919050565b600060a082019050614dd56000830188613549565b614de26020830187613558565b8181036040830152614df481866134de565b9050614e036060830185613549565b614e10608083018461357f565b9695505050505050565b614e2381613787565b82525050565b600060e083016000830151614e4160008601826141dc565b506020830151614e5460208601826141be565b506040830151614e6760408601826141be565b506060830151614e7a6060860182614e1a565b506080830151614e8d60808601826141dc565b5060a0830151614ea060a08601826141cd565b5060c083015184820360c0860152614eb8828261359f565b9150508091505092915050565b60006020820190508181036000830152614edf8184614e29565b905092915050565b7f4d6574686f642065786974000000000000000000000000000000000000000000600082015250565b6000614f1d600b83613492565b9150614f2882614ee7565b602082019050919050565b60006060820190508181036000830152614f4d81846134de565b90508181036020830152614f6081614f10565b90508181036040830152614f73816149ae565b905092915050565b7f4f6e6c79206576656e74206f776e65722063616e206d6f646966790000000000600082015250565b6000614fb1601b83613492565b9150614fbc82614f7b565b602082019050919050565b60006020820190508181036000830152614fe081614fa4565b9050919050565b7f4576656e7420686173206e6f7420656e64656420796574000000000000000000600082015250565b600061501d601783613492565b915061502882614fe7565b602082019050919050565b6000602082019050818103600083015261504c81615010565b9050919050565b600061505e82613401565b915061506983613401565b925082820190508082111561508157615080614d49565b5b92915050565b60008190508160005260206000209050919050565b60006020601f8301049050919050565b600082821b905092915050565b6000600883026150e97fffffffffffffffffffffffffffffffffffffffffffffffffffffffffffffffff826150ac565b6150f386836150ac565b95508019841693508086168417925050509392505050565b6000819050919050565b600061513061512b61512684613401565b61510b565b613401565b9050919050565b6000819050919050565b61514a83615115565b61515e61515682615137565b8484546150b9565b825550505050565b600090565b615173615166565b61517e818484615141565b505050565b5b818110156151a25761519760008261516b565b600181019050615184565b5050565b601f8211156151e7576151b881615087565b6151c18461509c565b810160208510156151d0578190505b6151e46151dc8561509c565b830182615183565b50505b505050565b600082821c905092915050565b600061520a600019846008026151ec565b1980831691505092915050565b600061522383836151f9565b9150826002028217905092915050565b61523c82613487565b67ffffffffffffffff81111561525557615254613827565b5b61525f825461491d565b61526a8282856151a6565b600060209050601f83116001811461529d576000841561528b578287015190505b6152958582615217565b8655506152fd565b601f1984166152ab86615087565b60005b828110156152d3578489015182556001820191506020850194506020810190506152ae565b868310156152f057848901516152ec601f8916826151f9565b8355505b6001600288020188555050505b505050505050565b7f4e487b7100000000000000000000000000000000000000000000000000000000600052601260045260246000fd5b600061533f82613401565b915061534a83613401565b92508261535a57615359615305565b5b828206905092915050565b600061537082613787565b915061537b83613787565b925082820190506fffffffffffffffffffffffffffffffff8111156153a3576153a2614d49565b5b92915050565b60006153b482613787565b91506fffffffffffffffffffffffffffffffff82036153d6576153d5614d49565b5b600182019050919050565b600081519050919050565b600082825260208201905092915050565b6000819050602082019050919050565b600061541983836141dc565b60208301905092915050565b6000602082019050919050565b600061543d826153e1565b61544781856153ec565b9350615452836153fd565b8060005b8381101561548357815161546a888261540d565b975061547583615425565b925050600181019050615456565b5085935050505092915050565b600081519050919050565b600082825260208201905092915050565b6000819050602082019050919050565b60006154c883836141cd565b60208301905092915050565b6000602082019050919050565b60006154ec82615490565b6154f6818561549b565b9350615501836154ac565b8060005b8381101561553257815161551988826154bc565b9750615524836154d4565b925050600181019050615505565b5085935050505092915050565b60006101008301600083015161555860008601826141dc565b50602083015161556b60208601826141be565b5060408301518482036040860152615583828261359f565b9150506060830151848203606086015261559d828261359f565b915050608083015184820360808601526155b7828261359f565b91505060a08301516155cc60a08601826141dc565b5060c083015184820360c08601526155e48282615432565b91505060e083015184820360e08601526155fe82826154e1565b9150508091505092915050565b60006020820190508181036000830152615625818461553f565b905092915050565b7f4174206c65617374206f6e65207469636b65742063617465676f72792069732060008201527f7265717569726564000000000000000000000000000000000000000000000000602082015250565b6000615689602883613492565b91506156948261562d565b604082019050919050565b600060208201905081810360008301526156b88161567c565b9050919050565b7f53746172742064617465206d75737420626520696e2074686520667574757265600082015250565b60006156f5602083613492565b9150615700826156bf565b602082019050919050565b60006020820190508181036000830152615724816156e8565b9050919050565b7f456e642074696d65206d7573742062652061667465722073746172742074696d60008201527f6520696e20746865206675747572650000000000000000000000000000000000602082015250565b6000615787602f83613492565b91506157928261572b565b604082019050919050565b600060208201905081810360008301526157b68161577a565b9050919050565b7f5469746c652063616e6e6f7420626520656d7074790000000000000000000000600082015250565b60006157f3601583613492565b91506157fe826157bd565b602082019050919050565b60006020820190508181036000830152615822816157e6565b9050919050565b600061583482613464565b915061583f83613464565b9250828201905067ffffffffffffffff81111561585f5761585e614d49565b5b92915050565b600061587082613464565b915067ffffffffffffffff820361588a57615889614d49565b5b600182019050919050565b7f4e6f2063617465676f7269657320666f722074686973206576656e7400000000600082015250565b60006158cb601c83613492565b91506158d682615895565b602082019050919050565b600060208201905081810360008301526158fa816158be565b9050919050565b600081905092915050565b600061591782613487565b6159218185615901565b93506159318185602086016134a3565b80840191505092915050565b7f63617465676f726965732f000000000000000000000000000000000000000000600082015250565b6000615973600b83615901565b915061597e8261593d565b600b82019050919050565b7f2f73656174732f00000000000000000000000000000000000000000000000000600082015250565b60006159bf600783615901565b91506159ca82615989565b600782019050919050565b60006159e1828661590c565b91506159ec82615966565b91506159f8828561590c565b9150615a03826159b2565b9150615a0f828461590c565b915081905094935050505056fea2646970667358221220734cd8804237e6dd5dd345b89eb6582d533208eec6e7eda76e4382e90eb8082764736f6c634300081b0033",
  "linkReferences": {},
  "deployedLinkReferences": {}
}