{
  "_format": "hh-sol-artifact-1",
  "contractName": "EventRegistry",
  "sourceName": "contracts/modules/EventRegistry/EventRegistry.sol",
  "abi": [
    {
      "inputs": [
        {
          "internalType": "address",
          "name": "_ticketContract",
          "type": "address"
        },
        {
          "internalType": "address",
          "name": "_ftContract",
          "type": "address"
        },
        {
          "internalType": "address",
          "name": "_specialMomentContract",
          "type": "address"
        }
      ],
      "stateMutability": "nonpayable",
      "type": "constructor"
    },
    {
      "inputs": [
        {
          "internalType": "address",
          "name": "owner",
          "type": "address"
        }
      ],
      "name": "OwnableInvalidOwner",
      "type": "error"
    },
    {
      "inputs": [
        {
          "internalType": "address",
          "name": "account",
          "type": "address"
        }
      ],
      "name": "OwnableUnauthorizedAccount",
      "type": "error"
    },
    {
      "anonymous": false,
      "inputs": [
        {
          "components": [
            {
              "internalType": "uint64",
              "name": "id",
              "type": "uint64"
            },
            {
              "internalType": "string",
              "name": "title",
              "type": "string"
            },
            {
              "internalType": "string",
              "name": "description",
              "type": "string"
            },
            {
              "internalType": "address",
              "name": "owner",
              "type": "address"
            },
            {
              "internalType": "uint256",
              "name": "startAt",
              "type": "uint256"
            },
            {
              "internalType": "uint256",
              "name": "endAt",
              "type": "uint256"
            },
            {
              "internalType": "uint96",
              "name": "royalty",
              "type": "uint96"
            },
            {
              "internalType": "string",
              "name": "baseUri",
              "type": "string"
            },
            {
              "internalType": "string",
              "name": "eventCategory",
              "type": "string"
            },
            {
              "internalType": "string",
              "name": "eventSubcategory",
              "type": "string"
            },
            {
              "components": [
                {
                  "internalType": "string",
                  "name": "place",
                  "type": "string"
                },
                {
                  "internalType": "string",
                  "name": "venue",
                  "type": "string"
                },
                {
                  "internalType": "string",
                  "name": "city",
                  "type": "string"
                },
                {
                  "internalType": "string",
                  "name": "country",
                  "type": "string"
                }
              ],
              "internalType": "struct EventLocation",
              "name": "location",
              "type": "tuple"
            },
            {
              "components": [
                {
                  "internalType": "uint64",
                  "name": "id",
                  "type": "uint64"
                },
                {
                  "internalType": "string",
                  "name": "name",
                  "type": "string"
                },
                {
                  "internalType": "uint256",
                  "name": "copies",
                  "type": "uint256"
                },
                {
                  "internalType": "uint256",
                  "name": "ticketCount",
                  "type": "uint256"
                },
                {
                  "internalType": "uint256",
                  "name": "price",
                  "type": "uint256"
                }
              ],
              "internalType": "struct TicketCategoryResponse[]",
              "name": "ticketCategories",
              "type": "tuple[]"
            }
          ],
          "indexed": false,
          "internalType": "struct EventResponse",
          "name": "eventResponse",
          "type": "tuple"
        }
      ],
      "name": "EventCreated",
      "type": "event"
    },
    {
      "anonymous": false,
      "inputs": [
        {
          "components": [
            {
              "internalType": "uint256",
              "name": "collectionId",
              "type": "uint256"
            },
            {
              "internalType": "uint64",
              "name": "eventId",
              "type": "uint64"
            },
            {
              "internalType": "string",
              "name": "name",
              "type": "string"
            },
            {
              "internalType": "string",
              "name": "baseUri",
              "type": "string"
            },
            {
              "internalType": "string",
              "name": "description",
              "type": "string"
            },
            {
              "internalType": "uint256",
              "name": "createdAt",
              "type": "uint256"
            },
            {
              "internalType": "uint256[]",
              "name": "tokenIds",
              "type": "uint256[]"
            },
            {
              "internalType": "address[]",
              "name": "owners",
              "type": "address[]"
            }
          ],
          "indexed": false,
          "internalType": "struct MomentCollectionCreatedDto",
          "name": "momentCollection",
          "type": "tuple"
        }
      ],
      "name": "MomentCollectionCreated",
      "type": "event"
    },
    {
      "anonymous": false,
      "inputs": [
        {
          "indexed": true,
          "internalType": "address",
          "name": "previousOwner",
          "type": "address"
        },
        {
          "indexed": true,
          "internalType": "address",
          "name": "newOwner",
          "type": "address"
        }
      ],
      "name": "OwnershipTransferred",
      "type": "event"
    },
    {
      "anonymous": false,
      "inputs": [
        {
          "components": [
            {
              "internalType": "uint256",
              "name": "tokenId",
              "type": "uint256"
            },
            {
              "internalType": "uint64",
              "name": "eventId",
              "type": "uint64"
            },
            {
              "internalType": "uint64",
              "name": "categoryId",
              "type": "uint64"
            },
            {
              "internalType": "uint128",
              "name": "seatId",
              "type": "uint128"
            },
            {
              "internalType": "uint256",
              "name": "createdAt",
              "type": "uint256"
            },
            {
              "internalType": "address",
              "name": "owner",
              "type": "address"
            },
            {
              "internalType": "string",
              "name": "tokenUri",
              "type": "string"
            }
          ],
          "indexed": false,
          "internalType": "struct TicketPurchasedDto",
          "name": "purchase",
          "type": "tuple"
        }
      ],
      "name": "TicketPurchased",
      "type": "event"
    },
    {
      "inputs": [
        {
          "components": [
            {
              "components": [
                {
                  "internalType": "uint64",
                  "name": "eventId",
                  "type": "uint64"
                },
                {
                  "internalType": "uint64",
                  "name": "categoryId",
                  "type": "uint64"
                },
                {
                  "internalType": "uint128",
                  "name": "seatId",
                  "type": "uint128"
                }
              ],
              "internalType": "struct TicketRequest[]",
              "name": "tickets",
              "type": "tuple[]"
            }
          ],
          "internalType": "struct BatchTicketRequest",
          "name": "request",
          "type": "tuple"
        }
      ],
      "name": "batchBuyTicket",
      "outputs": [],
      "stateMutability": "nonpayable",
      "type": "function"
    },
    {
      "inputs": [
        {
          "internalType": "uint64",
          "name": "eventId",
          "type": "uint64"
        },
        {
          "internalType": "uint64",
          "name": "categoryId",
          "type": "uint64"
        },
        {
          "internalType": "uint128",
          "name": "seatId",
          "type": "uint128"
        }
      ],
      "name": "buyTicket",
      "outputs": [],
      "stateMutability": "nonpayable",
      "type": "function"
    },
    {
      "inputs": [
        {
          "components": [
            {
              "internalType": "string",
              "name": "title",
              "type": "string"
            },
            {
              "internalType": "string",
              "name": "description",
              "type": "string"
            },
            {
              "internalType": "uint256",
              "name": "startAt",
              "type": "uint256"
            },
            {
              "internalType": "uint256",
              "name": "endAt",
              "type": "uint256"
            },
            {
              "internalType": "uint96",
              "name": "royalty",
              "type": "uint96"
            },
            {
              "internalType": "string",
              "name": "baseUri",
              "type": "string"
            },
            {
              "internalType": "string",
              "name": "eventCategory",
              "type": "string"
            },
            {
              "internalType": "string",
              "name": "eventSubcategory",
              "type": "string"
            },
            {
              "components": [
                {
                  "internalType": "string",
                  "name": "place",
                  "type": "string"
                },
                {
                  "internalType": "string",
                  "name": "venue",
                  "type": "string"
                },
                {
                  "internalType": "string",
                  "name": "city",
                  "type": "string"
                },
                {
                  "internalType": "string",
                  "name": "country",
                  "type": "string"
                }
              ],
              "internalType": "struct EventLocationDto",
              "name": "location",
              "type": "tuple"
            },
            {
              "components": [
                {
                  "internalType": "string",
                  "name": "name",
                  "type": "string"
                },
                {
                  "internalType": "uint256",
                  "name": "copies",
                  "type": "uint256"
                },
                {
                  "internalType": "uint256",
                  "name": "price",
                  "type": "uint256"
                }
              ],
              "internalType": "struct TicketCategoryDto[]",
              "name": "ticketCategories",
              "type": "tuple[]"
            }
          ],
          "internalType": "struct EventCreationDto",
          "name": "dto",
          "type": "tuple"
        }
      ],
      "name": "createEvent",
      "outputs": [
        {
          "internalType": "uint256",
          "name": "",
          "type": "uint256"
        }
      ],
      "stateMutability": "nonpayable",
      "type": "function"
    },
    {
      "inputs": [
        {
          "components": [
            {
              "internalType": "uint64",
              "name": "eventId",
              "type": "uint64"
            },
            {
              "internalType": "string",
              "name": "name",
              "type": "string"
            },
            {
              "internalType": "string",
              "name": "description",
              "type": "string"
            },
            {
              "internalType": "string",
              "name": "baseUri",
              "type": "string"
            },
            {
              "internalType": "uint256",
              "name": "copies",
              "type": "uint256"
            },
            {
              "internalType": "uint96",
              "name": "royalty",
              "type": "uint96"
            },
            {
              "internalType": "address[]",
              "name": "receivers",
              "type": "address[]"
            }
          ],
          "internalType": "struct CollectionCreationDto",
          "name": "collectionCreationDto",
          "type": "tuple"
        }
      ],
      "name": "createMomentCollection",
      "outputs": [],
      "stateMutability": "nonpayable",
      "type": "function"
    },
    {
      "inputs": [
        {
          "internalType": "uint256",
          "name": "",
          "type": "uint256"
        }
      ],
      "name": "events",
      "outputs": [
        {
          "internalType": "uint64",
          "name": "id",
          "type": "uint64"
        },
        {
          "internalType": "string",
          "name": "title",
          "type": "string"
        },
        {
          "internalType": "string",
          "name": "description",
          "type": "string"
        },
        {
          "internalType": "address",
          "name": "owner",
          "type": "address"
        },
        {
          "internalType": "uint256",
          "name": "startAt",
          "type": "uint256"
        },
        {
          "internalType": "uint256",
          "name": "endAt",
          "type": "uint256"
        },
        {
          "internalType": "uint96",
          "name": "royalty",
          "type": "uint96"
        },
        {
          "internalType": "string",
          "name": "baseUri",
          "type": "string"
        },
        {
          "internalType": "string",
          "name": "eventCategory",
          "type": "string"
        },
        {
          "internalType": "string",
          "name": "eventSubcategory",
          "type": "string"
        },
        {
          "components": [
            {
              "internalType": "string",
              "name": "place",
              "type": "string"
            },
            {
              "internalType": "string",
              "name": "venue",
              "type": "string"
            },
            {
              "internalType": "string",
              "name": "city",
              "type": "string"
            },
            {
              "internalType": "string",
              "name": "country",
              "type": "string"
            }
          ],
          "internalType": "struct EventLocation",
          "name": "location",
          "type": "tuple"
        }
      ],
      "stateMutability": "view",
      "type": "function"
    },
    {
      "inputs": [],
      "name": "ftContract",
      "outputs": [
        {
          "internalType": "address",
          "name": "",
          "type": "address"
        }
      ],
      "stateMutability": "view",
      "type": "function"
    },
    {
      "inputs": [
        {
          "internalType": "uint64",
          "name": "eventId",
          "type": "uint64"
        }
      ],
      "name": "getEventById",
      "outputs": [
        {
          "components": [
            {
              "internalType": "uint64",
              "name": "id",
              "type": "uint64"
            },
            {
              "internalType": "string",
              "name": "title",
              "type": "string"
            },
            {
              "internalType": "string",
              "name": "description",
              "type": "string"
            },
            {
              "internalType": "address",
              "name": "owner",
              "type": "address"
            },
            {
              "internalType": "uint256",
              "name": "startAt",
              "type": "uint256"
            },
            {
              "internalType": "uint256",
              "name": "endAt",
              "type": "uint256"
            },
            {
              "internalType": "uint96",
              "name": "royalty",
              "type": "uint96"
            },
            {
              "internalType": "string",
              "name": "baseUri",
              "type": "string"
            },
            {
              "internalType": "string",
              "name": "eventCategory",
              "type": "string"
            },
            {
              "internalType": "string",
              "name": "eventSubcategory",
              "type": "string"
            },
            {
              "components": [
                {
                  "internalType": "string",
                  "name": "place",
                  "type": "string"
                },
                {
                  "internalType": "string",
                  "name": "venue",
                  "type": "string"
                },
                {
                  "internalType": "string",
                  "name": "city",
                  "type": "string"
                },
                {
                  "internalType": "string",
                  "name": "country",
                  "type": "string"
                }
              ],
              "internalType": "struct EventLocation",
              "name": "location",
              "type": "tuple"
            },
            {
              "components": [
                {
                  "internalType": "uint64",
                  "name": "id",
                  "type": "uint64"
                },
                {
                  "internalType": "string",
                  "name": "name",
                  "type": "string"
                },
                {
                  "internalType": "uint256",
                  "name": "copies",
                  "type": "uint256"
                },
                {
                  "internalType": "uint256",
                  "name": "ticketCount",
                  "type": "uint256"
                },
                {
                  "internalType": "uint256",
                  "name": "price",
                  "type": "uint256"
                }
              ],
              "internalType": "struct TicketCategoryResponse[]",
              "name": "ticketCategories",
              "type": "tuple[]"
            }
          ],
          "internalType": "struct EventResponse",
          "name": "",
          "type": "tuple"
        }
      ],
      "stateMutability": "view",
      "type": "function"
    },
    {
      "inputs": [
        {
          "internalType": "address",
          "name": "_owner",
          "type": "address"
        }
      ],
      "name": "getEventsByOwner",
      "outputs": [
        {
          "components": [
            {
              "internalType": "uint64",
              "name": "id",
              "type": "uint64"
            },
            {
              "internalType": "string",
              "name": "title",
              "type": "string"
            },
            {
              "internalType": "string",
              "name": "description",
              "type": "string"
            },
            {
              "internalType": "address",
              "name": "owner",
              "type": "address"
            },
            {
              "internalType": "uint256",
              "name": "startAt",
              "type": "uint256"
            },
            {
              "internalType": "uint256",
              "name": "endAt",
              "type": "uint256"
            },
            {
              "internalType": "uint96",
              "name": "royalty",
              "type": "uint96"
            },
            {
              "internalType": "string",
              "name": "baseUri",
              "type": "string"
            },
            {
              "internalType": "string",
              "name": "eventCategory",
              "type": "string"
            },
            {
              "internalType": "string",
              "name": "eventSubcategory",
              "type": "string"
            },
            {
              "components": [
                {
                  "internalType": "string",
                  "name": "place",
                  "type": "string"
                },
                {
                  "internalType": "string",
                  "name": "venue",
                  "type": "string"
                },
                {
                  "internalType": "string",
                  "name": "city",
                  "type": "string"
                },
                {
                  "internalType": "string",
                  "name": "country",
                  "type": "string"
                }
              ],
              "internalType": "struct EventLocation",
              "name": "location",
              "type": "tuple"
            },
            {
              "components": [
                {
                  "internalType": "uint64",
                  "name": "id",
                  "type": "uint64"
                },
                {
                  "internalType": "string",
                  "name": "name",
                  "type": "string"
                },
                {
                  "internalType": "uint256",
                  "name": "copies",
                  "type": "uint256"
                },
                {
                  "internalType": "uint256",
                  "name": "ticketCount",
                  "type": "uint256"
                },
                {
                  "internalType": "uint256",
                  "name": "price",
                  "type": "uint256"
                }
              ],
              "internalType": "struct TicketCategoryResponse[]",
              "name": "ticketCategories",
              "type": "tuple[]"
            }
          ],
          "internalType": "struct EventResponse[]",
          "name": "",
          "type": "tuple[]"
        }
      ],
      "stateMutability": "view",
      "type": "function"
    },
    {
      "inputs": [
        {
          "internalType": "uint64",
          "name": "",
          "type": "uint64"
        },
        {
          "internalType": "uint256",
          "name": "",
          "type": "uint256"
        }
      ],
      "name": "momentCollectionPerEvent",
      "outputs": [
        {
          "internalType": "uint64",
          "name": "id",
          "type": "uint64"
        },
        {
          "internalType": "string",
          "name": "name",
          "type": "string"
        },
        {
          "internalType": "string",
          "name": "description",
          "type": "string"
        },
        {
          "internalType": "uint256",
          "name": "copies",
          "type": "uint256"
        },
        {
          "internalType": "uint256",
          "name": "royalty",
          "type": "uint256"
        },
        {
          "internalType": "string",
          "name": "baseUri",
          "type": "string"
        }
      ],
      "stateMutability": "view",
      "type": "function"
    },
    {
      "inputs": [],
      "name": "owner",
      "outputs": [
        {
          "internalType": "address",
          "name": "",
          "type": "address"
        }
      ],
      "stateMutability": "view",
      "type": "function"
    },
    {
      "inputs": [
        {
          "internalType": "address",
          "name": "",
          "type": "address"
        },
        {
          "internalType": "uint256",
          "name": "",
          "type": "uint256"
        }
      ],
      "name": "ownerEvents",
      "outputs": [
        {
          "internalType": "uint64",
          "name": "",
          "type": "uint64"
        }
      ],
      "stateMutability": "view",
      "type": "function"
    },
    {
      "inputs": [],
      "name": "renounceOwnership",
      "outputs": [],
      "stateMutability": "nonpayable",
      "type": "function"
    },
    {
      "inputs": [],
      "name": "specialMomentContract",
      "outputs": [
        {
          "internalType": "address",
          "name": "",
          "type": "address"
        }
      ],
      "stateMutability": "view",
      "type": "function"
    },
    {
      "inputs": [
        {
          "internalType": "uint64",
          "name": "",
          "type": "uint64"
        },
        {
          "internalType": "uint256",
          "name": "",
          "type": "uint256"
        }
      ],
      "name": "ticketCategoriesPerEvent",
      "outputs": [
        {
          "internalType": "uint64",
          "name": "id",
          "type": "uint64"
        },
        {
          "internalType": "string",
          "name": "name",
          "type": "string"
        },
        {
          "internalType": "uint256",
          "name": "copies",
          "type": "uint256"
        },
        {
          "internalType": "uint256",
          "name": "ticketCount",
          "type": "uint256"
        },
        {
          "internalType": "uint256",
          "name": "price",
          "type": "uint256"
        }
      ],
      "stateMutability": "view",
      "type": "function"
    },
    {
      "inputs": [],
      "name": "ticketContract",
      "outputs": [
        {
          "internalType": "address",
          "name": "",
          "type": "address"
        }
      ],
      "stateMutability": "view",
      "type": "function"
    },
    {
      "inputs": [
        {
          "internalType": "address",
          "name": "newOwner",
          "type": "address"
        }
      ],
      "name": "transferOwnership",
      "outputs": [],
      "stateMutability": "nonpayable",
      "type": "function"
    },
    {
      "inputs": [
        {
          "internalType": "uint64",
          "name": "eventId",
          "type": "uint64"
        },
        {
          "internalType": "string",
          "name": "_title",
          "type": "string"
        },
        {
          "internalType": "string",
          "name": "_description",
          "type": "string"
        },
        {
          "internalType": "uint256",
          "name": "_startAt",
          "type": "uint256"
        },
        {
          "internalType": "uint256",
          "name": "_endAt",
          "type": "uint256"
        },
        {
          "internalType": "string",
          "name": "_eventCategory",
          "type": "string"
        },
        {
          "internalType": "string",
          "name": "_eventSubcategory",
          "type": "string"
        }
      ],
      "name": "updateEvent",
      "outputs": [],
      "stateMutability": "nonpayable",
      "type": "function"
    }
  ],
  "bytecode": "0x608060405234801561001057600080fd5b5060405161435e38038061435e83398101604081905261002f9161010d565b338061005557604051631e4fbdf760e01b81526000600482015260240160405180910390fd5b61005e816100a1565b50600580546001600160a01b039485166001600160a01b031991821617909155600680549385169382169390931790925560078054919093169116179055610150565b600080546001600160a01b038381166001600160a01b0319831681178455604051919092169283917f8be0079c531659141344cd1fd0a4f28419497f9722a3daafe3b4186f6b6457e09190a35050565b80516001600160a01b038116811461010857600080fd5b919050565b60008060006060848603121561012257600080fd5b61012b846100f1565b9250610139602085016100f1565b9150610147604085016100f1565b90509250925092565b6141ff8061015f6000396000f3fe608060405234801561001057600080fd5b506004361061010b5760003560e01c80636e61248a116100a25780638da5cb5b116100715780638da5cb5b14610279578063beb641f71461028a578063cf7c0cd41461029d578063ea4780f5146102bd578063f2fde38b146102d057600080fd5b80636e61248a1461020b578063715018a61461022c57806374c2ad6314610234578063845b13371461025457600080fd5b806341507cc8116100de57806341507cc81461017e578063567c34d6146101a957806358a86e1d146101d457806358dde09f146101e757600080fd5b80630b791430146101105780631a7c6842146101435780631de50452146101585780633f9a9f411461016b575b600080fd5b61012361011e366004612ebb565b6102e3565b60405161013a9b9a99989796959493929190612f8f565b60405180910390f35b61015661015136600461305a565b610865565b005b6101566101663660046130ce565b610d17565b610156610179366004613310565b610f28565b61019161018c36600461342c565b6113ca565b6040516001600160401b03909116815260200161013a565b6007546101bc906001600160a01b031681565b6040516001600160a01b03909116815260200161013a565b6005546101bc906001600160a01b031681565b6101fa6101f5366004613456565b611416565b60405161013a959493929190613472565b61021e61021936600461364b565b6114f8565b60405190815260200161013a565b610156611a4d565b6102476102423660046137e6565b611a61565b60405161013a91906139b1565b610267610262366004613456565b611bd1565b60405161013a96959493929190613a16565b6000546001600160a01b03166101bc565b610156610298366004613a77565b611dc9565b6102b06102ab366004613b57565b611f8e565b60405161013a9190613b72565b6006546101bc906001600160a01b031681565b6101566102de3660046137e6565b611fa5565b600181815481106102f357600080fd5b60009182526020909120600e9091020180546001820180546001600160401b0390921693509061032290613b85565b80601f016020809104026020016040519081016040528092919081815260200182805461034e90613b85565b801561039b5780601f106103705761010080835404028352916020019161039b565b820191906000526020600020905b81548152906001019060200180831161037e57829003601f168201915b5050505050908060020180546103b090613b85565b80601f01602080910402602001604051908101604052809291908181526020018280546103dc90613b85565b80156104295780601f106103fe57610100808354040283529160200191610429565b820191906000526020600020905b81548152906001019060200180831161040c57829003601f168201915b505050600384015460048501546005860154600687015460078801805497986001600160a01b03909516979396509194506001600160601b0316929161046e90613b85565b80601f016020809104026020016040519081016040528092919081815260200182805461049a90613b85565b80156104e75780601f106104bc576101008083540402835291602001916104e7565b820191906000526020600020905b8154815290600101906020018083116104ca57829003601f168201915b5050505050908060080180546104fc90613b85565b80601f016020809104026020016040519081016040528092919081815260200182805461052890613b85565b80156105755780601f1061054a57610100808354040283529160200191610575565b820191906000526020600020905b81548152906001019060200180831161055857829003601f168201915b50505050509080600901805461058a90613b85565b80601f01602080910402602001604051908101604052809291908181526020018280546105b690613b85565b80156106035780601f106105d857610100808354040283529160200191610603565b820191906000526020600020905b8154815290600101906020018083116105e657829003601f168201915b50505050509080600a0160405180608001604052908160008201805461062890613b85565b80601f016020809104026020016040519081016040528092919081815260200182805461065490613b85565b80156106a15780601f10610676576101008083540402835291602001916106a1565b820191906000526020600020905b81548152906001019060200180831161068457829003601f168201915b505050505081526020016001820180546106ba90613b85565b80601f01602080910402602001604051908101604052809291908181526020018280546106e690613b85565b80156107335780601f1061070857610100808354040283529160200191610733565b820191906000526020600020905b81548152906001019060200180831161071657829003601f168201915b5050505050815260200160028201805461074c90613b85565b80601f016020809104026020016040519081016040528092919081815260200182805461077890613b85565b80156107c55780601f1061079a576101008083540402835291602001916107c5565b820191906000526020600020905b8154815290600101906020018083116107a857829003601f168201915b505050505081526020016003820180546107de90613b85565b80601f016020809104026020016040519081016040528092919081815260200182805461080a90613b85565b80156108575780601f1061082c57610100808354040283529160200191610857565b820191906000526020600020905b81548152906001019060200180831161083a57829003601f168201915b50505050508152505090508b565b60006108718280613bbf565b9050116108bb5760405162461bcd60e51b8152602060048201526013602482015272139bc81d1a58dad95d1cc81c1c9bdd9a591959606a1b60448201526064015b60405180910390fd5b6000805b6108c98380613bbf565b9050811015610a525760006108de8480613bbf565b838181106108ee576108ee613c0e565b9050606002018036038101906109049190613c24565b80516001600160401b0316600090815260036020526040902080549192509061093f5760405162461bcd60e51b81526004016108b290613c74565b60008160008154811061095457610954613c0e565b906000526020600020906006020190506000805b83548110156109e35784602001516001600160401b031684828154811061099157610991613c0e565b60009182526020909120600690910201546001600160401b0316036109db57600191508381815481106109c6576109c6613c0e565b906000526020600020906006020192506109e3565b600101610968565b5080610a315760405162461bcd60e51b815260206004820152601e60248201527f5469636b65742063617465676f727920646f6573206e6f74206578697374000060448201526064016108b2565b6004820154610a409087613cb8565b955050600190930192506108bf915050565b50600654604051636eb1769f60e11b815233600482015230602482015282916001600160a01b03169063dd62ed3e90604401602060405180830381865afa158015610aa1573d6000803e3d6000fd5b505050506040513d601f19601f82011682018060405250810190610ac59190613ccb565b1015610b0c5760405162461bcd60e51b8152602060048201526016602482015275496e73756666696369656e7420616c6c6f77616e636560501b60448201526064016108b2565b60005b610b198380613bbf565b9050811015610d12576000610b2e8480613bbf565b83818110610b3e57610b3e613c0e565b905060600201803603810190610b549190613c24565b90506000610b658260000151611fe3565b82516001600160401b0316600090815260036020526040812080549293509182908290610b9457610b94613c0e565b9060005260206000209060060201905060005b8254811015610c1e5784602001516001600160401b0316838281548110610bd057610bd0613c0e565b60009182526020909120600690910201546001600160401b031603610c1657828181548110610c0157610c01613c0e565b90600052602060002090600602019150610c1e565b600101610ba7565b5060065460608401516004838101546040516323b872dd60e01b815233928101929092526001600160a01b03928316602483015260448201529116906323b872dd906064016020604051808303816000875af1158015610c82573d6000803e3d6000fd5b505050506040513d601f19601f82011682018060405250810190610ca69190613ce4565b610ce95760405162461bcd60e51b8152602060048201526014602482015273125b9cdd59999a58da595b9d081c185e5b595b9d60621b60448201526064016108b2565b610d028382866000015187602001518860400151612870565b505060019092019150610b0f9050565b505050565b6001600160401b03831660009081526003602052604090208054610d4d5760405162461bcd60e51b81526004016108b290613c74565b6000610d5885611fe3565b9050600082600081548110610d6f57610d6f613c0e565b906000526020600020906006020190506000805b8454811015610dfa57866001600160401b0316858281548110610da857610da8613c0e565b60009182526020909120600690910201546001600160401b031603610df25760019150848181548110610ddd57610ddd613c0e565b90600052602060002090600602019250610dfa565b600101610d83565b5080610e485760405162461bcd60e51b815260206004820152601e60248201527f5469636b65742063617465676f727920646f6573206e6f74206578697374000060448201526064016108b2565b60065460608401516004848101546040516323b872dd60e01b815233928101929092526001600160a01b03928316602483015260448201529116906323b872dd906064016020604051808303816000875af1158015610eab573d6000803e3d6000fd5b505050506040513d601f19601f82011682018060405250810190610ecf9190613ce4565b610f125760405162461bcd60e51b8152602060048201526014602482015273125b9cdd59999a58da595b9d081c185e5b595b9d60621b60448201526064016108b2565b610f1f8383898989612870565b50505050505050565b80600001516001600160401b031660018181548110610f4957610f49613c0e565b60009182526020909120600e90910201600301546001600160a01b03163314610fb45760405162461bcd60e51b815260206004820152601b60248201527f4f6e6c79206576656e74206f776e65722063616e206d6f64696679000000000060448201526064016108b2565b6000610fc38360000151611fe3565b90508060a0015142116110185760405162461bcd60e51b815260206004820152601760248201527f4576656e7420686173206e6f7420656e6465642079657400000000000000000060448201526064016108b2565b82516001600160401b031660009081526004602052604081205461103d906001613cb8565b84516001600160401b039081166000908152600460209081526040808320815160c0810183528686168152838b0151818501908152838c0151938201939093526080808c015160608084019190915260a0808e01516001600160601b0316928401929092528c015190820152815460018082018455928652939094208451600690940201805467ffffffffffffffff191693909516929092178455519394509092908201906110ec9082613d54565b50604082015160028201906111019082613d54565b50606082015160038201556080820151600482015560a0820151600582019061112a9082613d54565b505050600084608001516001600160401b0381111561114b5761114b613111565b604051908082528060200260200182016040528015611174578160200160208202803683370190505b509050600085608001516001600160401b0381111561119557611195613111565b6040519080825280602002602001820160405280156111be578160200160208202803683370190505b50905060005b8660800151816001600160801b0316101561132f5760008760c0015151826001600160801b03166111f59190613e12565b8851909150600090611212908761120d866001613e34565b612b53565b90508085846001600160801b03168151811061123057611230613c0e565b6020026020010181815250508860c00151828151811061125257611252613c0e565b602002602001015184846001600160801b03168151811061127557611275613c0e565b6001600160a01b03928316602091820292909201015260075460c08b015180519190921691634094897791859081106112b0576112b0613c0e565b6020026020010151838c606001518b606001518e60a001516040518663ffffffff1660e01b81526004016112e8959493929190613e53565b600060405180830381600087803b15801561130257600080fd5b505af1158015611316573d6000803e3d6000fd5b505050505050808061132790613ea5565b9150506111c4565b507f68c9aed10b0c9157bd7bc786dde14f065883ee2520d31dc375893e1fe4ea5119604051806101000160405280856001600160401b0316815260200188600001516001600160401b03168152602001886020015181526020018860600151815260200188604001518152602001428152602001848152602001838152506040516113ba9190613f47565b60405180910390a1505050505050565b600260205281600052604060002081815481106113e657600080fd5b9060005260206000209060049182820401919006600802915091509054906101000a90046001600160401b031681565b6003602052816000526040600020818154811061143257600080fd5b6000918252602090912060069091020180546001820180546001600160401b03909216945091925061146390613b85565b80601f016020809104026020016040519081016040528092919081815260200182805461148f90613b85565b80156114dc5780601f106114b1576101008083540402835291602001916114dc565b820191906000526020600020905b8154815290600101906020018083116114bf57829003601f168201915b5050505050908060020154908060030154908060040154905085565b60008082610120015151116115605760405162461bcd60e51b815260206004820152602860248201527f4174206c65617374206f6e65207469636b65742063617465676f7279206973206044820152671c995c5d5a5c995960c21b60648201526084016108b2565b42826040015110156115b45760405162461bcd60e51b815260206004820181905260248201527f53746172742064617465206d75737420626520696e207468652066757475726560448201526064016108b2565b81604001518260600151116115db5760405162461bcd60e51b81526004016108b29061400c565b8151516116225760405162461bcd60e51b81526020600482015260156024820152745469746c652063616e6e6f7420626520656d70747960581b60448201526064016108b2565b6001805460408051610160810182526001600160401b0380841680835287516020808501918252808a0151858701523360608087018290528b880151608080890191909152818d015160a0808a0191909152818e01516001600160601b031660c0808b0191909152908e015160e0808b0191909152908e0151610100808b0191909152908e01516101208a015289519182018a52808e01805151835280518601518387015280518b0151838c015251830151928201929092526101408801526000918252600283529681208054808b01825590825291812060048304018054600390931660080290970a8086021990921691909302179094558554808701875595905281517fb10e2d527612073b26eecdfd717e6a320cf44b4afac2b0732d9fcbe2b7fa0cf6600e909602958601805467ffffffffffffffff1916919092161781559151929390928392917fb10e2d527612073b26eecdfd717e6a320cf44b4afac2b0732d9fcbe2b7fa0cf7019061179a9082613d54565b50604082015160028201906117af9082613d54565b5060608201516003820180546001600160a01b0319166001600160a01b039092169190911790556080820151600482015560a0820151600582015560c08201516006820180546bffffffffffffffffffffffff19166001600160601b0390921691909117905560e082015160078201906118299082613d54565b50610100820151600882019061183f9082613d54565b5061012082015160098201906118559082613d54565b506101408201518051600a830190819061186f9082613d54565b50602082015160018201906118849082613d54565b50604082015160028201906118999082613d54565b50606082015160038201906118ae9082613d54565b505050505060005b84610120015151816001600160401b031610156119f8576000856101200151826001600160401b0316815181106118ef576118ef613c0e565b60200260200101519050606060006040518060c00160405280856001611915919061405b565b6001600160401b03908116825285516020808401919091528087015160408085019190915260006060850181905281890151608086015260a09094018790528a83168452600382528320805460018082018355918552938290208551600690950201805467ffffffffffffffff191694909316939093178255830151929350839290918201906119a59082613d54565b5060408201516002820155606082015160038201556080820151600482015560a082015180516119df916005840191602090910190612db6565b50505050505080806119f09061407a565b9150506118b6565b507fb8ee242eb491cea3d86b84b0973a7854b58ab6a4020619c574a7ccb4f2fbeeca611a278260000151611fe3565b604051611a349190613b72565b60405180910390a1516001600160401b03169392505050565b611a55612b87565b611a5f6000612bb4565b565b6001600160a01b0381166000908152600260209081526040808320805482518185028101850190935280835260609493830182828015611af257602002820191906000526020600020906000905b82829054906101000a90046001600160401b03166001600160401b031681526020019060080190602082600701049283019260010382029150808411611aaf5790505b50505050509050600081516001600160401b03811115611b1457611b14613111565b604051908082528060200260200182016040528015611b4d57816020015b611b3a612e01565b815260200190600190039081611b325790505b50905060005b8251816001600160401b03161015611bc957611b9083826001600160401b031681518110611b8357611b83613c0e565b6020026020010151611fe3565b82826001600160401b031681518110611bab57611bab613c0e565b60200260200101819052508080611bc19061407a565b915050611b53565b509392505050565b60046020528160005260406000208181548110611bed57600080fd5b6000918252602090912060069091020180546001820180546001600160401b039092169450919250611c1e90613b85565b80601f0160208091040260200160405190810160405280929190818152602001828054611c4a90613b85565b8015611c975780601f10611c6c57610100808354040283529160200191611c97565b820191906000526020600020905b815481529060010190602001808311611c7a57829003601f168201915b505050505090806002018054611cac90613b85565b80601f0160208091040260200160405190810160405280929190818152602001828054611cd890613b85565b8015611d255780601f10611cfa57610100808354040283529160200191611d25565b820191906000526020600020905b815481529060010190602001808311611d0857829003601f168201915b505050505090806003015490806004015490806005018054611d4690613b85565b80601f0160208091040260200160405190810160405280929190818152602001828054611d7290613b85565b8015611dbf5780601f10611d9457610100808354040283529160200191611dbf565b820191906000526020600020905b815481529060010190602001808311611da257829003601f168201915b5050505050905086565b866001600160401b031660018181548110611de657611de6613c0e565b60009182526020909120600e90910201600301546001600160a01b03163314611e515760405162461bcd60e51b815260206004820152601b60248201527f4f6e6c79206576656e74206f776e65722063616e206d6f64696679000000000060448201526064016108b2565b6000875111611e9a5760405162461bcd60e51b81526020600482015260156024820152745469746c652063616e6e6f7420626520656d70747960581b60448201526064016108b2565b428511611ee95760405162461bcd60e51b815260206004820181905260248201527f53746172742064617465206d75737420626520696e207468652066757475726560448201526064016108b2565b848411611f085760405162461bcd60e51b81526004016108b29061400c565b60006001896001600160401b031681548110611f2657611f26613c0e565b90600052602060002090600e0201905087816001019081611f479190613d54565b5060028101611f568882613d54565b50600481018690556005810185905560088101611f738582613d54565b5060098101611f828482613d54565b50505050505050505050565b611f96612e01565b611f9f82611fe3565b92915050565b611fad612b87565b6001600160a01b038116611fd757604051631e4fbdf760e01b8152600060048201526024016108b2565b611fe081612bb4565b50565b611feb612e01565b6001546001600160401b038316106120155760405162461bcd60e51b81526004016108b290613c74565b60006001836001600160401b03168154811061203357612033613c0e565b600091825260208083206001600160401b03871684526003909152604083208054600e9093029091019350918190036120ae5760405162461bcd60e51b815260206004820152601c60248201527f4e6f2063617465676f7269657320666f722074686973206576656e740000000060448201526064016108b2565b6120b6612e01565b83546001600160401b031681526001840180546120d290613b85565b80601f01602080910402602001604051908101604052809291908181526020018280546120fe90613b85565b801561214b5780601f106121205761010080835404028352916020019161214b565b820191906000526020600020905b81548152906001019060200180831161212e57829003601f168201915b5050505050602082015260038401546001600160a01b0316606082015260028401805461217790613b85565b80601f01602080910402602001604051908101604052809291908181526020018280546121a390613b85565b80156121f05780601f106121c5576101008083540402835291602001916121f0565b820191906000526020600020905b8154815290600101906020018083116121d357829003601f168201915b5050505050604082015260048401546080820152600584015460a082015260088401805461221d90613b85565b80601f016020809104026020016040519081016040528092919081815260200182805461224990613b85565b80156122965780601f1061226b57610100808354040283529160200191612296565b820191906000526020600020905b81548152906001019060200180831161227957829003601f168201915b50505050508161010001819052508360090180546122b390613b85565b80601f01602080910402602001604051908101604052809291908181526020018280546122df90613b85565b801561232c5780601f106123015761010080835404028352916020019161232c565b820191906000526020600020905b81548152906001019060200180831161230f57829003601f168201915b505050505061012082015260068401546001600160601b031660c082015260078401805461235990613b85565b80601f016020809104026020016040519081016040528092919081815260200182805461238590613b85565b80156123d25780601f106123a7576101008083540402835291602001916123d2565b820191906000526020600020905b8154815290600101906020018083116123b557829003601f168201915b50505050508160e0018190525083600a016040518060800160405290816000820180546123fe90613b85565b80601f016020809104026020016040519081016040528092919081815260200182805461242a90613b85565b80156124775780601f1061244c57610100808354040283529160200191612477565b820191906000526020600020905b81548152906001019060200180831161245a57829003601f168201915b5050505050815260200160018201805461249090613b85565b80601f01602080910402602001604051908101604052809291908181526020018280546124bc90613b85565b80156125095780601f106124de57610100808354040283529160200191612509565b820191906000526020600020905b8154815290600101906020018083116124ec57829003601f168201915b5050505050815260200160028201805461252290613b85565b80601f016020809104026020016040519081016040528092919081815260200182805461254e90613b85565b801561259b5780601f106125705761010080835404028352916020019161259b565b820191906000526020600020905b81548152906001019060200180831161257e57829003601f168201915b505050505081526020016003820180546125b490613b85565b80601f01602080910402602001604051908101604052809291908181526020018280546125e090613b85565b801561262d5780601f106126025761010080835404028352916020019161262d565b820191906000526020600020905b81548152906001019060200180831161261057829003601f168201915b50505091909252505050610140820152816001600160401b0381111561265557612655613111565b6040519080825280602002602001820160405280156126c157816020015b6126ae6040518060a0016040528060006001600160401b03168152602001606081526020016000815260200160008152602001600081525090565b8152602001906001900390816126735790505b5061016082015260005b82811015612866576040518060a001604052808583815481106126f0576126f0613c0e565b6000918252602091829020600690910201546001600160401b03168252865491019086908490811061272457612724613c0e565b9060005260206000209060060201600101805461274090613b85565b80601f016020809104026020016040519081016040528092919081815260200182805461276c90613b85565b80156127b95780601f1061278e576101008083540402835291602001916127b9565b820191906000526020600020905b81548152906001019060200180831161279c57829003601f168201915b505050505081526020018583815481106127d5576127d5613c0e565b90600052602060002090600602016002015481526020018583815481106127fe576127fe613c0e565b906000526020600020906006020160030154815260200185838154811061282757612827613c0e565b906000526020600020906006020160040154815250826101600151828151811061285357612853613c0e565b60209081029190910101526001016126cb565b5095945050505050565b6000816001600160801b0316116128c95760405162461bcd60e51b815260206004820152601960248201527f53656174204944206d7573742073746172742066726f6d20310000000000000060448201526064016108b2565b8360020154816001600160801b0316111561291e5760405162461bcd60e51b8152602060048201526015602482015274151a58dad95d08191bd95cc81b9bdd08195e1a5cdd605a1b60448201526064016108b2565b60005b60058501548110156129a457816001600160801b031685600501828154811061294c5761294c613c0e565b90600052602060002001540361299c5760405162461bcd60e51b8152602060048201526015602482015274151a58dad95d08185b1c9958591e48189bdd59da1d605a1b60448201526064016108b2565b600101612921565b5083600301548460020154116129fc5760405162461bcd60e51b815260206004820152601c60248201527f4e6f7420656e6f756768207469636b65747320617661696c61626c650000000060448201526064016108b2565b600384018054906000612a0e8361409c565b90915550506005840180546001810182556000918252602082206001600160801b038416910155612a40848484612b53565b90506000612a5c8760e0015185856001600160801b0316612c04565b600554606089015160c08a0151604051634094897760e01b81529394506001600160a01b0390921692634094897792612a9e9233928892889291600401613e53565b600060405180830381600087803b158015612ab857600080fd5b505af1158015612acc573d6000803e3d6000fd5b50506040805160e0810182528581526001600160401b03808a1660208301528816818301526001600160801b03871660608201524260808201523360a082015260c0810185905290517f535d3139c97378b49b025f98009a67ecd71ef470b7bedee0a7e1e7e38fe7717b9350612b4292506140b5565b60405180910390a150505050505050565b6001600160c01b031960c084901b1667ffffffffffffffff60801b608084901b16176001600160801b038216179392505050565b6000546001600160a01b03163314611a5f5760405163118cdaa760e01b81523360048201526024016108b2565b600080546001600160a01b038381166001600160a01b0319831681178455604051919092169283917f8be0079c531659141344cd1fd0a4f28419497f9722a3daafe3b4186f6b6457e09190a35050565b606083612c19846001600160401b0316612c4c565b612c2284612c4c565b604051602001612c3493929190614141565b60405160208183030381529060405290509392505050565b60606000612c5983612cde565b60010190506000816001600160401b03811115612c7857612c78613111565b6040519080825280601f01601f191660200182016040528015612ca2576020820181803683370190505b5090508181016020015b600019016f181899199a1a9b1b9c1cb0b131b232b360811b600a86061a8153600a8504945084612cac57509392505050565b60008072184f03e93ff9f4daa797ed6e38ed64bf6a1f0160401b8310612d1d5772184f03e93ff9f4daa797ed6e38ed64bf6a1f0160401b830492506040015b6d04ee2d6d415b85acef81000000008310612d49576d04ee2d6d415b85acef8100000000830492506020015b662386f26fc100008310612d6757662386f26fc10000830492506010015b6305f5e1008310612d7f576305f5e100830492506008015b6127108310612d9357612710830492506004015b60648310612da5576064830492506002015b600a8310611f9f5760010192915050565b828054828255906000526020600020908101928215612df1579160200282015b82811115612df1578251825591602001919060010190612dd6565b50612dfd929150612ea6565b5090565b60405180610180016040528060006001600160401b03168152602001606081526020016060815260200160006001600160a01b03168152602001600081526020016000815260200160006001600160601b03168152602001606081526020016060815260200160608152602001612e996040518060800160405280606081526020016060815260200160608152602001606081525090565b8152602001606081525090565b5b80821115612dfd5760008155600101612ea7565b600060208284031215612ecd57600080fd5b5035919050565b60005b83811015612eef578181015183820152602001612ed7565b50506000910152565b60008151808452612f10816020860160208601612ed4565b601f01601f19169290920160200192915050565b6000815160808452612f396080850182612ef8565b905060208301518482036020860152612f528282612ef8565b91505060408301518482036040860152612f6c8282612ef8565b91505060608301518482036060860152612f868282612ef8565b95945050505050565b6001600160401b038c16815261016060208201526000612fb361016083018d612ef8565b8281036040840152612fc5818d612ef8565b6001600160a01b038c16606085015290508960808401528860a0840152612ff760c08401896001600160601b03169052565b82810360e08401526130098188612ef8565b905082810361010084015261301e8187612ef8565b90508281036101208401526130338186612ef8565b90508281036101408401526130488185612f24565b9e9d5050505050505050505050505050565b60006020828403121561306c57600080fd5b81356001600160401b0381111561308257600080fd5b82016020818503121561309457600080fd5b9392505050565b80356001600160401b03811681146130b257600080fd5b919050565b80356001600160801b03811681146130b257600080fd5b6000806000606084860312156130e357600080fd5b6130ec8461309b565b92506130fa6020850161309b565b9150613108604085016130b7565b90509250925092565b634e487b7160e01b600052604160045260246000fd5b60405160e081016001600160401b038111828210171561314957613149613111565b60405290565b604051608081016001600160401b038111828210171561314957613149613111565b604051606081016001600160401b038111828210171561314957613149613111565b60405161014081016001600160401b038111828210171561314957613149613111565b604051601f8201601f191681016001600160401b03811182821017156131de576131de613111565b604052919050565b600082601f8301126131f757600080fd5b81356001600160401b0381111561321057613210613111565b613223601f8201601f19166020016131b6565b81815284602083860101111561323857600080fd5b816020850160208301376000918101602001919091529392505050565b80356001600160601b03811681146130b257600080fd5b60006001600160401b0382111561328557613285613111565b5060051b60200190565b80356001600160a01b03811681146130b257600080fd5b600082601f8301126132b757600080fd5b81356132ca6132c58261326c565b6131b6565b8082825260208201915060208360051b8601019250858311156132ec57600080fd5b602085015b83811015612866576133028161328f565b8352602092830192016132f1565b60006020828403121561332257600080fd5b81356001600160401b0381111561333857600080fd5b820160e0818503121561334a57600080fd5b613352613127565b61335b8261309b565b815260208201356001600160401b0381111561337657600080fd5b613382868285016131e6565b60208301525060408201356001600160401b038111156133a157600080fd5b6133ad868285016131e6565b60408301525060608201356001600160401b038111156133cc57600080fd5b6133d8868285016131e6565b606083015250608082810135908201526133f460a08301613255565b60a082015260c08201356001600160401b0381111561341257600080fd5b61341e868285016132a6565b60c083015250949350505050565b6000806040838503121561343f57600080fd5b6134488361328f565b946020939093013593505050565b6000806040838503121561346957600080fd5b6134488361309b565b6001600160401b038616815260a06020820152600061349460a0830187612ef8565b604083019590955250606081019290925260809091015292915050565b6000608082840312156134c357600080fd5b6134cb61314f565b905081356001600160401b038111156134e357600080fd5b6134ef848285016131e6565b82525060208201356001600160401b0381111561350b57600080fd5b613517848285016131e6565b60208301525060408201356001600160401b0381111561353657600080fd5b613542848285016131e6565b60408301525060608201356001600160401b0381111561356157600080fd5b61356d848285016131e6565b60608301525092915050565b600082601f83011261358a57600080fd5b81356135986132c58261326c565b8082825260208201915060208360051b8601019250858311156135ba57600080fd5b602085015b838110156128665780356001600160401b038111156135dd57600080fd5b86016060818903601f190112156135f357600080fd5b6135fb613171565b60208201356001600160401b0381111561361457600080fd5b6136238a6020838601016131e6565b82525060408281013560208084019190915260609093013590820152845292830192016135bf565b60006020828403121561365d57600080fd5b81356001600160401b0381111561367357600080fd5b8201610140818503121561368657600080fd5b61368e613193565b81356001600160401b038111156136a457600080fd5b6136b0868285016131e6565b82525060208201356001600160401b038111156136cc57600080fd5b6136d8868285016131e6565b60208301525060408281013590820152606080830135908201526136fe60808301613255565b608082015260a08201356001600160401b0381111561371c57600080fd5b613728868285016131e6565b60a08301525060c08201356001600160401b0381111561374757600080fd5b613753868285016131e6565b60c08301525060e08201356001600160401b0381111561377257600080fd5b61377e868285016131e6565b60e0830152506101008201356001600160401b0381111561379e57600080fd5b6137aa868285016134b1565b610100830152506101208201356001600160401b038111156137cb57600080fd5b6137d786828501613579565b61012083015250949350505050565b6000602082840312156137f857600080fd5b6130948261328f565b600082825180855260208501945060208160051b8301016020850160005b8381101561388e57601f1985840301885281516001600160401b038151168452602081015160a0602086015261385860a0860182612ef8565b6040838101519087015260608084015190870152608092830151929095019190915250602097880197919091019060010161381f565b50909695505050505050565b80516001600160401b031682526000602082015161018060208501526138c4610180850182612ef8565b9050604083015184820360408601526138dd8282612ef8565b91505060608301516138fa60608601826001600160a01b03169052565b506080830151608085015260a083015160a085015260c083015161392960c08601826001600160601b03169052565b5060e083015184820360e08601526139418282612ef8565b91505061010083015184820361010086015261395d8282612ef8565b9150506101208301518482036101208601526139798282612ef8565b9150506101408301518482036101408601526139958282612f24565b915050610160830151848203610160860152612f868282613801565b6000602082016020835280845180835260408501915060408160051b86010192506020860160005b82811015613a0a57603f198786030184526139f585835161389a565b945060209384019391909101906001016139d9565b50929695505050505050565b6001600160401b038716815260c060208201526000613a3860c0830188612ef8565b8281036040840152613a4a8188612ef8565b905085606084015284608084015282810360a0840152613a6a8185612ef8565b9998505050505050505050565b600080600080600080600060e0888a031215613a9257600080fd5b613a9b8861309b565b965060208801356001600160401b03811115613ab657600080fd5b613ac28a828b016131e6565b96505060408801356001600160401b03811115613ade57600080fd5b613aea8a828b016131e6565b955050606088013593506080880135925060a08801356001600160401b03811115613b1457600080fd5b613b208a828b016131e6565b92505060c08801356001600160401b03811115613b3c57600080fd5b613b488a828b016131e6565b91505092959891949750929550565b600060208284031215613b6957600080fd5b6130948261309b565b602081526000613094602083018461389a565b600181811c90821680613b9957607f821691505b602082108103613bb957634e487b7160e01b600052602260045260246000fd5b50919050565b6000808335601e19843603018112613bd657600080fd5b8301803591506001600160401b03821115613bf057600080fd5b6020019150606081023603821315613c0757600080fd5b9250929050565b634e487b7160e01b600052603260045260246000fd5b60006060828403128015613c3757600080fd5b50613c40613171565b613c498361309b565b8152613c576020840161309b565b6020820152613c68604084016130b7565b60408201529392505050565b602080825260149082015273115d995b9d08191bd95cc81b9bdd08195e1a5cdd60621b604082015260600190565b634e487b7160e01b600052601160045260246000fd5b80820180821115611f9f57611f9f613ca2565b600060208284031215613cdd57600080fd5b5051919050565b600060208284031215613cf657600080fd5b8151801515811461309457600080fd5b601f821115610d1257806000526020600020601f840160051c81016020851015613d2d5750805b601f840160051c820191505b81811015613d4d5760008155600101613d39565b5050505050565b81516001600160401b03811115613d6d57613d6d613111565b613d8181613d7b8454613b85565b84613d06565b6020601f821160018114613db55760008315613d9d5750848201515b600019600385901b1c1916600184901b178455613d4d565b600084815260208120601f198516915b82811015613de55787850151825560209485019460019092019101613dc5565b5084821015613e035786840151600019600387901b60f8161c191681555b50505050600190811b01905550565b600082613e2f57634e487b7160e01b600052601260045260246000fd5b500690565b6001600160801b038181168382160190811115611f9f57611f9f613ca2565b60018060a01b038616815284602082015260a060408201526000613e7a60a0830186612ef8565b6001600160a01b03949094166060830152506001600160601b03919091166080909101529392505050565b60006001600160801b0382166001600160801b038103613ec757613ec7613ca2565b60010192915050565b600081518084526020840193506020830160005b82811015613f02578151865260209586019590910190600101613ee4565b5093949350505050565b600081518084526020840193506020830160005b82811015613f025781516001600160a01b0316865260209586019590910190600101613f20565b602081528151602082015260006020830151613f6e60408401826001600160401b03169052565b5060408301516101006060840152613f8a610120840182612ef8565b90506060840151601f19848303016080850152613fa78282612ef8565b9150506080840151601f198483030160a0850152613fc58282612ef8565b91505060a084015160c084015260c0840151601f198483030160e0850152613fed8282613ed0565b91505060e0840151601f1984830301610100850152612f868282613f0c565b6020808252602f908201527f456e642074696d65206d7573742062652061667465722073746172742074696d60408201526e6520696e207468652066757475726560881b606082015260800190565b6001600160401b038181168382160190811115611f9f57611f9f613ca2565b60006001600160401b0382166001600160401b038103613ec757613ec7613ca2565b6000600182016140ae576140ae613ca2565b5060010190565b60208152815160208201526001600160401b0360208301511660408201526001600160401b0360408301511660608201526001600160801b036060830151166080820152608082015160a0820152600060a083015161411f60c08401826001600160a01b03169052565b5060c083015160e080840152614139610100840182612ef8565b949350505050565b60008451614153818460208901612ed4565b712f6576656e742f63617465676f726965732f60701b9083019081528451614182816012840160208901612ed4565b662f73656174732f60c81b6012929091019182015283516141aa816019840160208801612ed4565b64173539b7b760d91b60199290910191820152601e019594505050505056fea26469706673582212204a8d97e06decdfabf3b96cd25db1cb0bb26873366491e60ff2774bbc59e8055364736f6c634300081b0033",
  "linkReferences": {},
  "deployedLinkReferences": {}
}