{
  "_format": "hh-sol-artifact-1",
  "contractName": "TicketNFT",
  "sourceName": "contracts/modules/TicketNFT/TicketNFT.sol",
  "abi": [
    {
      "inputs": [
        {
          "internalType": "address",
          "name": "initialOwner",
          "type": "address"
        },
        {
          "internalType": "string",
          "name": "_contractMetadataURI",
          "type": "string"
        }
      ],
      "stateMutability": "nonpayable",
      "type": "constructor"
    },
    {
      "inputs": [
        {
          "internalType": "address",
          "name": "sender",
          "type": "address"
        },
        {
          "internalType": "uint256",
          "name": "balance",
          "type": "uint256"
        },
        {
          "internalType": "uint256",
          "name": "needed",
          "type": "uint256"
        },
        {
          "internalType": "uint256",
          "name": "tokenId",
          "type": "uint256"
        }
      ],
      "name": "ERC1155InsufficientBalance",
      "type": "error"
    },
    {
      "inputs": [
        {
          "internalType": "address",
          "name": "approver",
          "type": "address"
        }
      ],
      "name": "ERC1155InvalidApprover",
      "type": "error"
    },
    {
      "inputs": [
        {
          "internalType": "uint256",
          "name": "idsLength",
          "type": "uint256"
        },
        {
          "internalType": "uint256",
          "name": "valuesLength",
          "type": "uint256"
        }
      ],
      "name": "ERC1155InvalidArrayLength",
      "type": "error"
    },
    {
      "inputs": [
        {
          "internalType": "address",
          "name": "operator",
          "type": "address"
        }
      ],
      "name": "ERC1155InvalidOperator",
      "type": "error"
    },
    {
      "inputs": [
        {
          "internalType": "address",
          "name": "receiver",
          "type": "address"
        }
      ],
      "name": "ERC1155InvalidReceiver",
      "type": "error"
    },
    {
      "inputs": [
        {
          "internalType": "address",
          "name": "sender",
          "type": "address"
        }
      ],
      "name": "ERC1155InvalidSender",
      "type": "error"
    },
    {
      "inputs": [
        {
          "internalType": "address",
          "name": "operator",
          "type": "address"
        },
        {
          "internalType": "address",
          "name": "owner",
          "type": "address"
        }
      ],
      "name": "ERC1155MissingApprovalForAll",
      "type": "error"
    },
    {
      "inputs": [
        {
          "internalType": "uint256",
          "name": "numerator",
          "type": "uint256"
        },
        {
          "internalType": "uint256",
          "name": "denominator",
          "type": "uint256"
        }
      ],
      "name": "ERC2981InvalidDefaultRoyalty",
      "type": "error"
    },
    {
      "inputs": [
        {
          "internalType": "address",
          "name": "receiver",
          "type": "address"
        }
      ],
      "name": "ERC2981InvalidDefaultRoyaltyReceiver",
      "type": "error"
    },
    {
      "inputs": [
        {
          "internalType": "uint256",
          "name": "tokenId",
          "type": "uint256"
        },
        {
          "internalType": "uint256",
          "name": "numerator",
          "type": "uint256"
        },
        {
          "internalType": "uint256",
          "name": "denominator",
          "type": "uint256"
        }
      ],
      "name": "ERC2981InvalidTokenRoyalty",
      "type": "error"
    },
    {
      "inputs": [
        {
          "internalType": "uint256",
          "name": "tokenId",
          "type": "uint256"
        },
        {
          "internalType": "address",
          "name": "receiver",
          "type": "address"
        }
      ],
      "name": "ERC2981InvalidTokenRoyaltyReceiver",
      "type": "error"
    },
    {
      "inputs": [
        {
          "internalType": "address",
          "name": "owner",
          "type": "address"
        }
      ],
      "name": "OwnableInvalidOwner",
      "type": "error"
    },
    {
      "inputs": [
        {
          "internalType": "address",
          "name": "account",
          "type": "address"
        }
      ],
      "name": "OwnableUnauthorizedAccount",
      "type": "error"
    },
    {
      "anonymous": false,
      "inputs": [
        {
          "indexed": true,
          "internalType": "address",
          "name": "account",
          "type": "address"
        },
        {
          "indexed": true,
          "internalType": "address",
          "name": "operator",
          "type": "address"
        },
        {
          "indexed": false,
          "internalType": "bool",
          "name": "approved",
          "type": "bool"
        }
      ],
      "name": "ApprovalForAll",
      "type": "event"
    },
    {
      "anonymous": false,
      "inputs": [
        {
          "indexed": true,
          "internalType": "address",
          "name": "previousOwner",
          "type": "address"
        },
        {
          "indexed": true,
          "internalType": "address",
          "name": "newOwner",
          "type": "address"
        }
      ],
      "name": "OwnershipTransferred",
      "type": "event"
    },
    {
      "anonymous": false,
      "inputs": [
        {
          "indexed": true,
          "internalType": "address",
          "name": "operator",
          "type": "address"
        },
        {
          "indexed": true,
          "internalType": "address",
          "name": "from",
          "type": "address"
        },
        {
          "indexed": true,
          "internalType": "address",
          "name": "to",
          "type": "address"
        },
        {
          "indexed": false,
          "internalType": "uint256[]",
          "name": "ids",
          "type": "uint256[]"
        },
        {
          "indexed": false,
          "internalType": "uint256[]",
          "name": "values",
          "type": "uint256[]"
        }
      ],
      "name": "TransferBatch",
      "type": "event"
    },
    {
      "anonymous": false,
      "inputs": [
        {
          "indexed": true,
          "internalType": "address",
          "name": "operator",
          "type": "address"
        },
        {
          "indexed": true,
          "internalType": "address",
          "name": "from",
          "type": "address"
        },
        {
          "indexed": true,
          "internalType": "address",
          "name": "to",
          "type": "address"
        },
        {
          "indexed": false,
          "internalType": "uint256",
          "name": "id",
          "type": "uint256"
        },
        {
          "indexed": false,
          "internalType": "uint256",
          "name": "value",
          "type": "uint256"
        }
      ],
      "name": "TransferSingle",
      "type": "event"
    },
    {
      "anonymous": false,
      "inputs": [
        {
          "indexed": false,
          "internalType": "string",
          "name": "value",
          "type": "string"
        },
        {
          "indexed": true,
          "internalType": "uint256",
          "name": "id",
          "type": "uint256"
        }
      ],
      "name": "URI",
      "type": "event"
    },
    {
      "inputs": [
        {
          "internalType": "address",
          "name": "account",
          "type": "address"
        },
        {
          "internalType": "uint256",
          "name": "id",
          "type": "uint256"
        }
      ],
      "name": "balanceOf",
      "outputs": [
        {
          "internalType": "uint256",
          "name": "",
          "type": "uint256"
        }
      ],
      "stateMutability": "view",
      "type": "function"
    },
    {
      "inputs": [
        {
          "internalType": "address[]",
          "name": "accounts",
          "type": "address[]"
        },
        {
          "internalType": "uint256[]",
          "name": "ids",
          "type": "uint256[]"
        }
      ],
      "name": "balanceOfBatch",
      "outputs": [
        {
          "internalType": "uint256[]",
          "name": "",
          "type": "uint256[]"
        }
      ],
      "stateMutability": "view",
      "type": "function"
    },
    {
      "inputs": [
        {
          "internalType": "address",
          "name": "account",
          "type": "address"
        },
        {
          "internalType": "uint256[]",
          "name": "ids",
          "type": "uint256[]"
        },
        {
          "internalType": "string[]",
          "name": "tokenUris",
          "type": "string[]"
        },
        {
          "internalType": "address[]",
          "name": "eventOwners",
          "type": "address[]"
        },
        {
          "internalType": "uint96[]",
          "name": "eventRoyalties",
          "type": "uint96[]"
        }
      ],
      "name": "batchMint",
      "outputs": [],
      "stateMutability": "nonpayable",
      "type": "function"
    },
    {
      "inputs": [],
      "name": "contractMetadataURI",
      "outputs": [
        {
          "internalType": "string",
          "name": "",
          "type": "string"
        }
      ],
      "stateMutability": "view",
      "type": "function"
    },
    {
      "inputs": [],
      "name": "contractURI",
      "outputs": [
        {
          "internalType": "string",
          "name": "",
          "type": "string"
        }
      ],
      "stateMutability": "view",
      "type": "function"
    },
    {
      "inputs": [
        {
          "internalType": "address",
          "name": "account",
          "type": "address"
        },
        {
          "internalType": "address",
          "name": "operator",
          "type": "address"
        }
      ],
      "name": "isApprovedForAll",
      "outputs": [
        {
          "internalType": "bool",
          "name": "",
          "type": "bool"
        }
      ],
      "stateMutability": "view",
      "type": "function"
    },
    {
      "inputs": [
        {
          "internalType": "address",
          "name": "account",
          "type": "address"
        },
        {
          "internalType": "uint256",
          "name": "id",
          "type": "uint256"
        },
        {
          "internalType": "string",
          "name": "tokenUri",
          "type": "string"
        },
        {
          "internalType": "address",
          "name": "eventOwner",
          "type": "address"
        },
        {
          "internalType": "uint96",
          "name": "eventRoyalty",
          "type": "uint96"
        }
      ],
      "name": "mint",
      "outputs": [],
      "stateMutability": "nonpayable",
      "type": "function"
    },
    {
      "inputs": [],
      "name": "owner",
      "outputs": [
        {
          "internalType": "address",
          "name": "",
          "type": "address"
        }
      ],
      "stateMutability": "view",
      "type": "function"
    },
    {
      "inputs": [],
      "name": "renounceOwnership",
      "outputs": [],
      "stateMutability": "nonpayable",
      "type": "function"
    },
    {
      "inputs": [
        {
          "internalType": "uint256",
          "name": "tokenId",
          "type": "uint256"
        },
        {
          "internalType": "uint256",
          "name": "salePrice",
          "type": "uint256"
        }
      ],
      "name": "royaltyInfo",
      "outputs": [
        {
          "internalType": "address",
          "name": "receiver",
          "type": "address"
        },
        {
          "internalType": "uint256",
          "name": "amount",
          "type": "uint256"
        }
      ],
      "stateMutability": "view",
      "type": "function"
    },
    {
      "inputs": [
        {
          "internalType": "address",
          "name": "from",
          "type": "address"
        },
        {
          "internalType": "address",
          "name": "to",
          "type": "address"
        },
        {
          "internalType": "uint256[]",
          "name": "ids",
          "type": "uint256[]"
        },
        {
          "internalType": "uint256[]",
          "name": "values",
          "type": "uint256[]"
        },
        {
          "internalType": "bytes",
          "name": "data",
          "type": "bytes"
        }
      ],
      "name": "safeBatchTransferFrom",
      "outputs": [],
      "stateMutability": "nonpayable",
      "type": "function"
    },
    {
      "inputs": [
        {
          "internalType": "address",
          "name": "from",
          "type": "address"
        },
        {
          "internalType": "address",
          "name": "to",
          "type": "address"
        },
        {
          "internalType": "uint256",
          "name": "id",
          "type": "uint256"
        },
        {
          "internalType": "uint256",
          "name": "value",
          "type": "uint256"
        },
        {
          "internalType": "bytes",
          "name": "data",
          "type": "bytes"
        }
      ],
      "name": "safeTransferFrom",
      "outputs": [],
      "stateMutability": "nonpayable",
      "type": "function"
    },
    {
      "inputs": [
        {
          "internalType": "address",
          "name": "operator",
          "type": "address"
        },
        {
          "internalType": "bool",
          "name": "approved",
          "type": "bool"
        }
      ],
      "name": "setApprovalForAll",
      "outputs": [],
      "stateMutability": "nonpayable",
      "type": "function"
    },
    {
      "inputs": [
        {
          "internalType": "bytes4",
          "name": "interfaceId",
          "type": "bytes4"
        }
      ],
      "name": "supportsInterface",
      "outputs": [
        {
          "internalType": "bool",
          "name": "",
          "type": "bool"
        }
      ],
      "stateMutability": "view",
      "type": "function"
    },
    {
      "inputs": [
        {
          "internalType": "address",
          "name": "newOwner",
          "type": "address"
        }
      ],
      "name": "transferOwnership",
      "outputs": [],
      "stateMutability": "nonpayable",
      "type": "function"
    },
    {
      "inputs": [
        {
          "internalType": "uint256",
          "name": "tokenId",
          "type": "uint256"
        }
      ],
      "name": "uri",
      "outputs": [
        {
          "internalType": "string",
          "name": "",
          "type": "string"
        }
      ],
      "stateMutability": "view",
      "type": "function"
    }
  ],
  "bytecode": "0x608060405234801561001057600080fd5b50604051611e4c380380611e4c83398101604081905261002f9161010e565b604080516020810190915260008152829061004981610096565b506001600160a01b03811661007857604051631e4fbdf760e01b81526000600482015260240160405180910390fd5b610081816100a6565b50600761008e8282610283565b505050610341565b60026100a28282610283565b5050565b600380546001600160a01b038381166001600160a01b0319831681179093556040519116919082907f8be0079c531659141344cd1fd0a4f28419497f9722a3daafe3b4186f6b6457e090600090a35050565b634e487b7160e01b600052604160045260246000fd5b6000806040838503121561012157600080fd5b82516001600160a01b038116811461013857600080fd5b60208401519092506001600160401b0381111561015457600080fd5b8301601f8101851361016557600080fd5b80516001600160401b0381111561017e5761017e6100f8565b604051601f8201601f19908116603f011681016001600160401b03811182821017156101ac576101ac6100f8565b6040528181528282016020018710156101c457600080fd5b60005b828110156101e3576020818501810151838301820152016101c7565b506000602083830101528093505050509250929050565b600181811c9082168061020e57607f821691505b60208210810361022e57634e487b7160e01b600052602260045260246000fd5b50919050565b601f82111561027e57806000526020600020601f840160051c8101602085101561025b5750805b601f840160051c820191505b8181101561027b5760008155600101610267565b50505b505050565b81516001600160401b0381111561029c5761029c6100f8565b6102b0816102aa84546101fa565b84610234565b6020601f8211600181146102e457600083156102cc5750848201515b600019600385901b1c1916600184901b17845561027b565b600084815260208120601f198516915b8281101561031457878501518255602094850194600190920191016102f4565b50848210156103325786840151600019600387901b60f8161c191681555b50505050600190811b01905550565b611afc806103506000396000f3fe608060405234801561001057600080fd5b50600436106100ff5760003560e01c806373e9278411610097578063e8a3d48511610066578063e8a3d48514610238578063e985e9c514610240578063f242432a14610253578063f2fde38b1461026657600080fd5b806373e92784146101ef5780637e3ed71e146101f75780638da5cb5b1461020a578063a22cb4651461022557600080fd5b80632eb2c2d6116100d35780632eb2c2d61461019f57806340948977146101b45780634e1273f4146101c7578063715018a6146101e757600080fd5b8062fdd58e1461010457806301ffc9a71461012a5780630e89341c1461014d5780632a55205a1461016d575b600080fd5b6101176101123660046110d2565b610279565b6040519081526020015b60405180910390f35b61013d610138366004611112565b6102a1565b6040519015158152602001610121565b61016061015b366004611136565b6102ac565b6040516101219190611195565b61018061017b3660046111a8565b61034e565b604080516001600160a01b039093168352602083019190915201610121565b6101b26101ad366004611316565b6103d3565b005b6101b26101c23660046113e0565b61043f565b6101da6101d53660046114bd565b61045b565b6040516101219190611560565b6101b2610527565b61016061053b565b6101b26102053660046115d8565b6105c9565b6003546040516001600160a01b039091168152602001610121565b6101b2610233366004611711565b6106b9565b6101606106c8565b61013d61024e36600461174d565b61075a565b6101b2610261366004611780565b610788565b6101b26102743660046117d8565b6107e7565b6000818152602081815260408083206001600160a01b03861684529091529020545b92915050565b600061029b82610825565b60008181526006602052604090208054606091906102c9906117f3565b80601f01602080910402602001604051908101604052809291908181526020018280546102f5906117f3565b80156103425780601f1061031757610100808354040283529160200191610342565b820191906000526020600020905b81548152906001019060200180831161032557829003601f168201915b50505050509050919050565b600082815260056020526040812080548291906001600160a01b03811690600160a01b90046001600160601b0316816103a25750506004546001600160a01b03811690600160a01b90046001600160601b03165b60006127106103ba6001600160601b03841689611843565b6103c4919061185a565b92989297509195505050505050565b336001600160a01b03861681148015906103f457506103f2868261075a565b155b1561042a5760405163711bec9160e11b81526001600160a01b038083166004830152871660248201526044015b60405180910390fd5b610437868686868661084a565b505050505050565b6104476108aa565b61045485858585856108d7565b5050505050565b6060815183511461048c5781518351604051635b05999160e01b815260048101929092526024820152604401610421565b600083516001600160401b038111156104a7576104a76111ca565b6040519080825280602002602001820160405280156104d0578160200160208202803683370190505b50905060005b845181101561051f576020808202860101516104fa90602080840287010151610279565b82828151811061050c5761050c61187c565b60209081029190910101526001016104d6565b509392505050565b61052f6108aa565b6105396000610908565b565b60078054610548906117f3565b80601f0160208091040260200160405190810160405280929190818152602001828054610574906117f3565b80156105c15780601f10610596576101008083540402835291602001916105c1565b820191906000526020600020905b8154815290600101906020018083116105a457829003601f168201915b505050505081565b6105d16108aa565b82518451146105f25760405162461bcd60e51b815260040161042190611892565b81518451146106135760405162461bcd60e51b815260040161042190611892565b80518451146106345760405162461bcd60e51b815260040161042190611892565b60005b8451811015610437576106b1868683815181106106565761065661187c565b60200260200101518684815181106106705761067061187c565b602002602001015186858151811061068a5761068a61187c565b60200260200101518686815181106106a4576106a461187c565b60200260200101516108d7565b600101610637565b6106c433838361095a565b5050565b6060600780546106d7906117f3565b80601f0160208091040260200160405190810160405280929190818152602001828054610703906117f3565b80156107505780601f1061072557610100808354040283529160200191610750565b820191906000526020600020905b81548152906001019060200180831161073357829003601f168201915b5050505050905090565b6001600160a01b03918216600090815260016020908152604080832093909416825291909152205460ff1690565b336001600160a01b03861681148015906107a957506107a7868261075a565b155b156107da5760405163711bec9160e11b81526001600160a01b03808316600483015287166024820152604401610421565b61043786868686866109f0565b6107ef6108aa565b6001600160a01b03811661081957604051631e4fbdf760e01b815260006004820152602401610421565b61082281610908565b50565b60006001600160e01b0319821663152a902d60e11b148061029b575061029b82610a7e565b6001600160a01b03841661087457604051632bfa23e760e11b815260006004820152602401610421565b6001600160a01b03851661089d57604051626a0d4560e21b815260006004820152602401610421565b6104548585858585610ace565b6003546001600160a01b031633146105395760405163118cdaa760e01b8152336004820152602401610421565b6108f38585600160405180602001604052806000815250610b21565b6108fd8484610b7e565b610454848383610bd3565b600380546001600160a01b038381166001600160a01b0319831681179093556040519116919082907f8be0079c531659141344cd1fd0a4f28419497f9722a3daafe3b4186f6b6457e090600090a35050565b6001600160a01b0382166109835760405162ced3e160e81b815260006004820152602401610421565b6001600160a01b03838116600081815260016020908152604080832094871680845294825291829020805460ff191686151590811790915591519182527f17307eab39ab6107e8899845ad3d59bd9653f200f220920489ca2b5937696c31910160405180910390a3505050565b6001600160a01b038416610a1a57604051632bfa23e760e11b815260006004820152602401610421565b6001600160a01b038516610a4357604051626a0d4560e21b815260006004820152602401610421565b60408051600180825260208201869052818301908152606082018590526080820190925290610a758787848487610ace565b50505050505050565b60006001600160e01b03198216636cdb3d1360e11b1480610aaf57506001600160e01b031982166303a24d0760e21b145b8061029b57506301ffc9a760e01b6001600160e01b031983161461029b565b610ada85858585610c95565b6001600160a01b038416156104545782513390600103610b135760208481015190840151610b0c838989858589610ea9565b5050610437565b610437818787878787610fcd565b6001600160a01b038416610b4b57604051632bfa23e760e11b815260006004820152602401610421565b60408051600180825260208201869052818301908152606082018590526080820190925290610437600087848487610ace565b6000828152600660205260409020610b968282611907565b50817f6bb7ff708619ba0610cba295a58592e0451dee2622938c8755667688daf3529b82604051610bc79190611195565b60405180910390a25050565b6127106001600160601b038216811015610c195760405163dfd1fc1b60e01b8152600481018590526001600160601b038316602482015260448101829052606401610421565b6001600160a01b038316610c4a57604051634b4f842960e11b81526004810185905260006024820152604401610421565b506040805180820182526001600160a01b0393841681526001600160601b0392831660208083019182526000968752600590529190942093519051909116600160a01b029116179055565b8051825114610cc45781518151604051635b05999160e01b815260048101929092526024820152604401610421565b3360005b8351811015610dca576020818102858101820151908501909101516001600160a01b03881615610d7b576000828152602081815260408083206001600160a01b038c16845290915290205481811015610d54576040516303dee4c560e01b81526001600160a01b038a166004820152602481018290526044810183905260648101849052608401610421565b6000838152602081815260408083206001600160a01b038d16845290915290209082900390555b6001600160a01b03871615610dc0576000828152602081815260408083206001600160a01b038b16845290915281208054839290610dba9084906119c5565b90915550505b5050600101610cc8565b508251600103610e4b5760208301516000906020840151909150856001600160a01b0316876001600160a01b0316846001600160a01b03167fc3d58168c5ae7397731d063d5bbf3d657854427343f4c083240f7aacaa2d0f628585604051610e3c929190918252602082015260400190565b60405180910390a45050610454565b836001600160a01b0316856001600160a01b0316826001600160a01b03167f4a39dc06d4c0dbc64b70af90fd698a233a518aa5d07e595d983b8c0526c8f7fb8686604051610e9a9291906119d8565b60405180910390a45050505050565b6001600160a01b0384163b156104375760405163f23a6e6160e01b81526001600160a01b0385169063f23a6e6190610eed9089908990889088908890600401611a06565b6020604051808303816000875af1925050508015610f28575060408051601f3d908101601f19168201909252610f2591810190611a4b565b60015b610f91573d808015610f56576040519150601f19603f3d011682016040523d82523d6000602084013e610f5b565b606091505b508051600003610f8957604051632bfa23e760e11b81526001600160a01b0386166004820152602401610421565b805181602001fd5b6001600160e01b0319811663f23a6e6160e01b14610a7557604051632bfa23e760e11b81526001600160a01b0386166004820152602401610421565b6001600160a01b0384163b156104375760405163bc197c8160e01b81526001600160a01b0385169063bc197c81906110119089908990889088908890600401611a68565b6020604051808303816000875af192505050801561104c575060408051601f3d908101601f1916820190925261104991810190611a4b565b60015b61107a573d808015610f56576040519150601f19603f3d011682016040523d82523d6000602084013e610f5b565b6001600160e01b0319811663bc197c8160e01b14610a7557604051632bfa23e760e11b81526001600160a01b0386166004820152602401610421565b80356001600160a01b03811681146110cd57600080fd5b919050565b600080604083850312156110e557600080fd5b6110ee836110b6565b946020939093013593505050565b6001600160e01b03198116811461082257600080fd5b60006020828403121561112457600080fd5b813561112f816110fc565b9392505050565b60006020828403121561114857600080fd5b5035919050565b6000815180845260005b8181101561117557602081850181015186830182015201611159565b506000602082860101526020601f19601f83011685010191505092915050565b60208152600061112f602083018461114f565b600080604083850312156111bb57600080fd5b50508035926020909101359150565b634e487b7160e01b600052604160045260246000fd5b604051601f8201601f191681016001600160401b0381118282101715611208576112086111ca565b604052919050565b60006001600160401b03821115611229576112296111ca565b5060051b60200190565b600082601f83011261124457600080fd5b813561125761125282611210565b6111e0565b8082825260208201915060208360051b86010192508583111561127957600080fd5b602085015b8381101561129657803583526020928301920161127e565b5095945050505050565b600082601f8301126112b157600080fd5b8135602083016000806001600160401b038411156112d1576112d16111ca565b50601f8301601f19166020016112e6816111e0565b9150508281528583830111156112fb57600080fd5b82826020830137600092810160200192909252509392505050565b600080600080600060a0868803121561132e57600080fd5b611337866110b6565b9450611345602087016110b6565b935060408601356001600160401b0381111561136057600080fd5b61136c88828901611233565b93505060608601356001600160401b0381111561138857600080fd5b61139488828901611233565b92505060808601356001600160401b038111156113b057600080fd5b6113bc888289016112a0565b9150509295509295909350565b80356001600160601b03811681146110cd57600080fd5b600080600080600060a086880312156113f857600080fd5b611401866110b6565b94506020860135935060408601356001600160401b0381111561142357600080fd5b61142f888289016112a0565b93505061143e606087016110b6565b915061144c608087016113c9565b90509295509295909350565b600082601f83011261146957600080fd5b813561147761125282611210565b8082825260208201915060208360051b86010192508583111561149957600080fd5b602085015b83811015611296576114af816110b6565b83526020928301920161149e565b600080604083850312156114d057600080fd5b82356001600160401b038111156114e657600080fd5b6114f285828601611458565b92505060208301356001600160401b0381111561150e57600080fd5b61151a85828601611233565b9150509250929050565b600081518084526020840193506020830160005b82811015611556578151865260209586019590910190600101611538565b5093949350505050565b60208152600061112f6020830184611524565b600082601f83011261158457600080fd5b813561159261125282611210565b8082825260208201915060208360051b8601019250858311156115b457600080fd5b602085015b83811015611296576115ca816113c9565b8352602092830192016115b9565b600080600080600060a086880312156115f057600080fd5b6115f9866110b6565b945060208601356001600160401b0381111561161457600080fd5b61162088828901611233565b94505060408601356001600160401b0381111561163c57600080fd5b8601601f8101881361164d57600080fd5b803561165b61125282611210565b8082825260208201915060208360051b85010192508a83111561167d57600080fd5b602084015b838110156116be5780356001600160401b038111156116a057600080fd5b6116af8d6020838901016112a0565b84525060209283019201611682565b50955050505060608601356001600160401b038111156116dd57600080fd5b6116e988828901611458565b92505060808601356001600160401b0381111561170557600080fd5b6113bc88828901611573565b6000806040838503121561172457600080fd5b61172d836110b6565b91506020830135801515811461174257600080fd5b809150509250929050565b6000806040838503121561176057600080fd5b611769836110b6565b9150611777602084016110b6565b90509250929050565b600080600080600060a0868803121561179857600080fd5b6117a1866110b6565b94506117af602087016110b6565b9350604086013592506060860135915060808601356001600160401b038111156113b057600080fd5b6000602082840312156117ea57600080fd5b61112f826110b6565b600181811c9082168061180757607f821691505b60208210810361182757634e487b7160e01b600052602260045260246000fd5b50919050565b634e487b7160e01b600052601160045260246000fd5b808202811582820484141761029b5761029b61182d565b60008261187757634e487b7160e01b600052601260045260246000fd5b500490565b634e487b7160e01b600052603260045260246000fd5b6020808252600f908201526e098cadccee8d040dad2e6dac2e8c6d608b1b604082015260600190565b601f82111561190257806000526020600020601f840160051c810160208510156118e25750805b601f840160051c820191505b8181101561045457600081556001016118ee565b505050565b81516001600160401b03811115611920576119206111ca565b6119348161192e84546117f3565b846118bb565b6020601f82116001811461196857600083156119505750848201515b600019600385901b1c1916600184901b178455610454565b600084815260208120601f198516915b828110156119985787850151825560209485019460019092019101611978565b50848210156119b65786840151600019600387901b60f8161c191681555b50505050600190811b01905550565b8082018082111561029b5761029b61182d565b6040815260006119eb6040830185611524565b82810360208401526119fd8185611524565b95945050505050565b6001600160a01b03868116825285166020820152604081018490526060810183905260a060808201819052600090611a409083018461114f565b979650505050505050565b600060208284031215611a5d57600080fd5b815161112f816110fc565b6001600160a01b0386811682528516602082015260a060408201819052600090611a9490830186611524565b8281036060840152611aa68186611524565b90508281036080840152611aba818561114f565b9897505050505050505056fea264697066735822122079f26a7cbc6b2a1dbbe5f295e974aec9a195a0e21e307da9c3ab59ec6f17d95764736f6c634300081b0033",
  "linkReferences": {},
  "deployedLinkReferences": {}
}