{
  "_format": "hh-sol-artifact-1",
  "contractName": "TicketNFT",
  "sourceName": "contracts/modules/TicketNFT/TicketNFT.sol",
  "abi": [
    {
      "inputs": [
        {
          "internalType": "address",
          "name": "initialOwner",
          "type": "address"
        },
        {
          "internalType": "string",
          "name": "_contractMetadataURI",
          "type": "string"
        }
      ],
      "stateMutability": "nonpayable",
      "type": "constructor"
    },
    {
      "inputs": [
        {
          "internalType": "address",
          "name": "sender",
          "type": "address"
        },
        {
          "internalType": "uint256",
          "name": "balance",
          "type": "uint256"
        },
        {
          "internalType": "uint256",
          "name": "needed",
          "type": "uint256"
        },
        {
          "internalType": "uint256",
          "name": "tokenId",
          "type": "uint256"
        }
      ],
      "name": "ERC1155InsufficientBalance",
      "type": "error"
    },
    {
      "inputs": [
        {
          "internalType": "address",
          "name": "approver",
          "type": "address"
        }
      ],
      "name": "ERC1155InvalidApprover",
      "type": "error"
    },
    {
      "inputs": [
        {
          "internalType": "uint256",
          "name": "idsLength",
          "type": "uint256"
        },
        {
          "internalType": "uint256",
          "name": "valuesLength",
          "type": "uint256"
        }
      ],
      "name": "ERC1155InvalidArrayLength",
      "type": "error"
    },
    {
      "inputs": [
        {
          "internalType": "address",
          "name": "operator",
          "type": "address"
        }
      ],
      "name": "ERC1155InvalidOperator",
      "type": "error"
    },
    {
      "inputs": [
        {
          "internalType": "address",
          "name": "receiver",
          "type": "address"
        }
      ],
      "name": "ERC1155InvalidReceiver",
      "type": "error"
    },
    {
      "inputs": [
        {
          "internalType": "address",
          "name": "sender",
          "type": "address"
        }
      ],
      "name": "ERC1155InvalidSender",
      "type": "error"
    },
    {
      "inputs": [
        {
          "internalType": "address",
          "name": "operator",
          "type": "address"
        },
        {
          "internalType": "address",
          "name": "owner",
          "type": "address"
        }
      ],
      "name": "ERC1155MissingApprovalForAll",
      "type": "error"
    },
    {
      "inputs": [
        {
          "internalType": "uint256",
          "name": "numerator",
          "type": "uint256"
        },
        {
          "internalType": "uint256",
          "name": "denominator",
          "type": "uint256"
        }
      ],
      "name": "ERC2981InvalidDefaultRoyalty",
      "type": "error"
    },
    {
      "inputs": [
        {
          "internalType": "address",
          "name": "receiver",
          "type": "address"
        }
      ],
      "name": "ERC2981InvalidDefaultRoyaltyReceiver",
      "type": "error"
    },
    {
      "inputs": [
        {
          "internalType": "uint256",
          "name": "tokenId",
          "type": "uint256"
        },
        {
          "internalType": "uint256",
          "name": "numerator",
          "type": "uint256"
        },
        {
          "internalType": "uint256",
          "name": "denominator",
          "type": "uint256"
        }
      ],
      "name": "ERC2981InvalidTokenRoyalty",
      "type": "error"
    },
    {
      "inputs": [
        {
          "internalType": "uint256",
          "name": "tokenId",
          "type": "uint256"
        },
        {
          "internalType": "address",
          "name": "receiver",
          "type": "address"
        }
      ],
      "name": "ERC2981InvalidTokenRoyaltyReceiver",
      "type": "error"
    },
    {
      "inputs": [
        {
          "internalType": "address",
          "name": "owner",
          "type": "address"
        }
      ],
      "name": "OwnableInvalidOwner",
      "type": "error"
    },
    {
      "inputs": [
        {
          "internalType": "address",
          "name": "account",
          "type": "address"
        }
      ],
      "name": "OwnableUnauthorizedAccount",
      "type": "error"
    },
    {
      "anonymous": false,
      "inputs": [
        {
          "indexed": true,
          "internalType": "address",
          "name": "account",
          "type": "address"
        },
        {
          "indexed": true,
          "internalType": "address",
          "name": "operator",
          "type": "address"
        },
        {
          "indexed": false,
          "internalType": "bool",
          "name": "approved",
          "type": "bool"
        }
      ],
      "name": "ApprovalForAll",
      "type": "event"
    },
    {
      "anonymous": false,
      "inputs": [
        {
          "indexed": true,
          "internalType": "address",
          "name": "previousOwner",
          "type": "address"
        },
        {
          "indexed": true,
          "internalType": "address",
          "name": "newOwner",
          "type": "address"
        }
      ],
      "name": "OwnershipTransferred",
      "type": "event"
    },
    {
      "anonymous": false,
      "inputs": [
        {
          "indexed": true,
          "internalType": "address",
          "name": "operator",
          "type": "address"
        },
        {
          "indexed": true,
          "internalType": "address",
          "name": "from",
          "type": "address"
        },
        {
          "indexed": true,
          "internalType": "address",
          "name": "to",
          "type": "address"
        },
        {
          "indexed": false,
          "internalType": "uint256[]",
          "name": "ids",
          "type": "uint256[]"
        },
        {
          "indexed": false,
          "internalType": "uint256[]",
          "name": "values",
          "type": "uint256[]"
        }
      ],
      "name": "TransferBatch",
      "type": "event"
    },
    {
      "anonymous": false,
      "inputs": [
        {
          "indexed": true,
          "internalType": "address",
          "name": "operator",
          "type": "address"
        },
        {
          "indexed": true,
          "internalType": "address",
          "name": "from",
          "type": "address"
        },
        {
          "indexed": true,
          "internalType": "address",
          "name": "to",
          "type": "address"
        },
        {
          "indexed": false,
          "internalType": "uint256",
          "name": "id",
          "type": "uint256"
        },
        {
          "indexed": false,
          "internalType": "uint256",
          "name": "value",
          "type": "uint256"
        }
      ],
      "name": "TransferSingle",
      "type": "event"
    },
    {
      "anonymous": false,
      "inputs": [
        {
          "indexed": false,
          "internalType": "string",
          "name": "value",
          "type": "string"
        },
        {
          "indexed": true,
          "internalType": "uint256",
          "name": "id",
          "type": "uint256"
        }
      ],
      "name": "URI",
      "type": "event"
    },
    {
      "inputs": [
        {
          "internalType": "address",
          "name": "account",
          "type": "address"
        },
        {
          "internalType": "uint256",
          "name": "id",
          "type": "uint256"
        }
      ],
      "name": "balanceOf",
      "outputs": [
        {
          "internalType": "uint256",
          "name": "",
          "type": "uint256"
        }
      ],
      "stateMutability": "view",
      "type": "function"
    },
    {
      "inputs": [
        {
          "internalType": "address[]",
          "name": "accounts",
          "type": "address[]"
        },
        {
          "internalType": "uint256[]",
          "name": "ids",
          "type": "uint256[]"
        }
      ],
      "name": "balanceOfBatch",
      "outputs": [
        {
          "internalType": "uint256[]",
          "name": "",
          "type": "uint256[]"
        }
      ],
      "stateMutability": "view",
      "type": "function"
    },
    {
      "inputs": [],
      "name": "contractMetadataURI",
      "outputs": [
        {
          "internalType": "string",
          "name": "",
          "type": "string"
        }
      ],
      "stateMutability": "view",
      "type": "function"
    },
    {
      "inputs": [],
      "name": "contractURI",
      "outputs": [
        {
          "internalType": "string",
          "name": "",
          "type": "string"
        }
      ],
      "stateMutability": "view",
      "type": "function"
    },
    {
      "inputs": [
        {
          "internalType": "address",
          "name": "account",
          "type": "address"
        },
        {
          "internalType": "address",
          "name": "operator",
          "type": "address"
        }
      ],
      "name": "isApprovedForAll",
      "outputs": [
        {
          "internalType": "bool",
          "name": "",
          "type": "bool"
        }
      ],
      "stateMutability": "view",
      "type": "function"
    },
    {
      "inputs": [
        {
          "internalType": "address",
          "name": "account",
          "type": "address"
        },
        {
          "internalType": "uint256",
          "name": "id",
          "type": "uint256"
        },
        {
          "internalType": "string",
          "name": "tokenUri",
          "type": "string"
        },
        {
          "internalType": "address",
          "name": "eventOwner",
          "type": "address"
        },
        {
          "internalType": "uint96",
          "name": "eventRoyalty",
          "type": "uint96"
        }
      ],
      "name": "mint",
      "outputs": [],
      "stateMutability": "nonpayable",
      "type": "function"
    },
    {
      "inputs": [],
      "name": "owner",
      "outputs": [
        {
          "internalType": "address",
          "name": "",
          "type": "address"
        }
      ],
      "stateMutability": "view",
      "type": "function"
    },
    {
      "inputs": [],
      "name": "renounceOwnership",
      "outputs": [],
      "stateMutability": "nonpayable",
      "type": "function"
    },
    {
      "inputs": [
        {
          "internalType": "uint256",
          "name": "tokenId",
          "type": "uint256"
        },
        {
          "internalType": "uint256",
          "name": "salePrice",
          "type": "uint256"
        }
      ],
      "name": "royaltyInfo",
      "outputs": [
        {
          "internalType": "address",
          "name": "receiver",
          "type": "address"
        },
        {
          "internalType": "uint256",
          "name": "amount",
          "type": "uint256"
        }
      ],
      "stateMutability": "view",
      "type": "function"
    },
    {
      "inputs": [
        {
          "internalType": "address",
          "name": "from",
          "type": "address"
        },
        {
          "internalType": "address",
          "name": "to",
          "type": "address"
        },
        {
          "internalType": "uint256[]",
          "name": "ids",
          "type": "uint256[]"
        },
        {
          "internalType": "uint256[]",
          "name": "values",
          "type": "uint256[]"
        },
        {
          "internalType": "bytes",
          "name": "data",
          "type": "bytes"
        }
      ],
      "name": "safeBatchTransferFrom",
      "outputs": [],
      "stateMutability": "nonpayable",
      "type": "function"
    },
    {
      "inputs": [
        {
          "internalType": "address",
          "name": "from",
          "type": "address"
        },
        {
          "internalType": "address",
          "name": "to",
          "type": "address"
        },
        {
          "internalType": "uint256",
          "name": "id",
          "type": "uint256"
        },
        {
          "internalType": "uint256",
          "name": "value",
          "type": "uint256"
        },
        {
          "internalType": "bytes",
          "name": "data",
          "type": "bytes"
        }
      ],
      "name": "safeTransferFrom",
      "outputs": [],
      "stateMutability": "nonpayable",
      "type": "function"
    },
    {
      "inputs": [
        {
          "internalType": "address",
          "name": "operator",
          "type": "address"
        },
        {
          "internalType": "bool",
          "name": "approved",
          "type": "bool"
        }
      ],
      "name": "setApprovalForAll",
      "outputs": [],
      "stateMutability": "nonpayable",
      "type": "function"
    },
    {
      "inputs": [
        {
          "internalType": "bytes4",
          "name": "interfaceId",
          "type": "bytes4"
        }
      ],
      "name": "supportsInterface",
      "outputs": [
        {
          "internalType": "bool",
          "name": "",
          "type": "bool"
        }
      ],
      "stateMutability": "view",
      "type": "function"
    },
    {
      "inputs": [
        {
          "internalType": "address",
          "name": "newOwner",
          "type": "address"
        }
      ],
      "name": "transferOwnership",
      "outputs": [],
      "stateMutability": "nonpayable",
      "type": "function"
    },
    {
      "inputs": [
        {
          "internalType": "uint256",
          "name": "tokenId",
          "type": "uint256"
        }
      ],
      "name": "uri",
      "outputs": [
        {
          "internalType": "string",
          "name": "",
          "type": "string"
        }
      ],
      "stateMutability": "view",
      "type": "function"
    }
  ],
  "bytecode": "0x608060405234801561001057600080fd5b5060405161350438038061350483398181016040528101906100329190610398565b8160405180602001604052806000815250610052816100ec60201b60201c565b50600073ffffffffffffffffffffffffffffffffffffffff168173ffffffffffffffffffffffffffffffffffffffff16036100c55760006040517f1e4fbdf70000000000000000000000000000000000000000000000000000000081526004016100bc9190610403565b60405180910390fd5b6100d4816100ff60201b60201c565b5080600790816100e4919061063f565b505050610711565b80600290816100fb919061063f565b5050565b6000600360009054906101000a900473ffffffffffffffffffffffffffffffffffffffff16905081600360006101000a81548173ffffffffffffffffffffffffffffffffffffffff021916908373ffffffffffffffffffffffffffffffffffffffff1602179055508173ffffffffffffffffffffffffffffffffffffffff168173ffffffffffffffffffffffffffffffffffffffff167f8be0079c531659141344cd1fd0a4f28419497f9722a3daafe3b4186f6b6457e060405160405180910390a35050565b6000604051905090565b600080fd5b600080fd5b600073ffffffffffffffffffffffffffffffffffffffff82169050919050565b6000610204826101d9565b9050919050565b610214816101f9565b811461021f57600080fd5b50565b6000815190506102318161020b565b92915050565b600080fd5b600080fd5b6000601f19601f8301169050919050565b7f4e487b7100000000000000000000000000000000000000000000000000000000600052604160045260246000fd5b61028a82610241565b810181811067ffffffffffffffff821117156102a9576102a8610252565b5b80604052505050565b60006102bc6101c5565b90506102c88282610281565b919050565b600067ffffffffffffffff8211156102e8576102e7610252565b5b6102f182610241565b9050602081019050919050565b60005b8381101561031c578082015181840152602081019050610301565b60008484015250505050565b600061033b610336846102cd565b6102b2565b9050828152602081018484840111156103575761035661023c565b5b6103628482856102fe565b509392505050565b600082601f83011261037f5761037e610237565b5b815161038f848260208601610328565b91505092915050565b600080604083850312156103af576103ae6101cf565b5b60006103bd85828601610222565b925050602083015167ffffffffffffffff8111156103de576103dd6101d4565b5b6103ea8582860161036a565b9150509250929050565b6103fd816101f9565b82525050565b600060208201905061041860008301846103f4565b92915050565b600081519050919050565b7f4e487b7100000000000000000000000000000000000000000000000000000000600052602260045260246000fd5b6000600282049050600182168061047057607f821691505b60208210810361048357610482610429565b5b50919050565b60008190508160005260206000209050919050565b60006020601f8301049050919050565b600082821b905092915050565b6000600883026104eb7fffffffffffffffffffffffffffffffffffffffffffffffffffffffffffffffff826104ae565b6104f586836104ae565b95508019841693508086168417925050509392505050565b6000819050919050565b6000819050919050565b600061053c6105376105328461050d565b610517565b61050d565b9050919050565b6000819050919050565b61055683610521565b61056a61056282610543565b8484546104bb565b825550505050565b600090565b61057f610572565b61058a81848461054d565b505050565b5b818110156105ae576105a3600082610577565b600181019050610590565b5050565b601f8211156105f3576105c481610489565b6105cd8461049e565b810160208510156105dc578190505b6105f06105e88561049e565b83018261058f565b50505b505050565b600082821c905092915050565b6000610616600019846008026105f8565b1980831691505092915050565b600061062f8383610605565b9150826002028217905092915050565b6106488261041e565b67ffffffffffffffff81111561066157610660610252565b5b61066b8254610458565b6106768282856105b2565b600060209050601f8311600181146106a95760008415610697578287015190505b6106a18582610623565b865550610709565b601f1984166106b786610489565b60005b828110156106df578489015182556001820191506020850194506020810190506106ba565b868310156106fc57848901516106f8601f891682610605565b8355505b6001600288020188555050505b505050505050565b612de4806107206000396000f3fe608060405234801561001057600080fd5b50600436106100f45760003560e01c8063715018a611610097578063e8a3d48511610066578063e8a3d48514610284578063e985e9c5146102a2578063f242432a146102d2578063f2fde38b146102ee576100f4565b8063715018a61461022257806373e927841461022c5780638da5cb5b1461024a578063a22cb46514610268576100f4565b80632a55205a116100d35780632a55205a146101895780632eb2c2d6146101ba57806340948977146101d65780634e1273f4146101f2576100f4565b8062fdd58e146100f957806301ffc9a7146101295780630e89341c14610159575b600080fd5b610113600480360381019061010e9190611c7a565b61030a565b6040516101209190611cc9565b60405180910390f35b610143600480360381019061013e9190611d3c565b610364565b6040516101509190611d84565b60405180910390f35b610173600480360381019061016e9190611d9f565b610376565b6040516101809190611e5c565b60405180910390f35b6101a3600480360381019061019e9190611e7e565b61041b565b6040516101b1929190611ecd565b60405180910390f35b6101d460048036038101906101cf91906120f3565b61054b565b005b6101f060048036038101906101eb91906122a7565b6105f3565b005b61020c60048036038101906102079190612401565b610633565b6040516102199190612537565b60405180910390f35b61022a61073c565b005b610234610750565b6040516102419190611e5c565b60405180910390f35b6102526107de565b60405161025f9190612559565b60405180910390f35b610282600480360381019061027d91906125a0565b610808565b005b61028c61081e565b6040516102999190611e5c565b60405180910390f35b6102bc60048036038101906102b791906125e0565b6108b0565b6040516102c99190611d84565b60405180910390f35b6102ec60048036038101906102e79190612620565b610944565b005b610308600480360381019061030391906126b7565b6109ec565b005b600080600083815260200190815260200160002060008473ffffffffffffffffffffffffffffffffffffffff1673ffffffffffffffffffffffffffffffffffffffff16815260200190815260200160002054905092915050565b600061036f82610a72565b9050919050565b606060066000838152602001908152602001600020805461039690612713565b80601f01602080910402602001604051908101604052809291908181526020018280546103c290612713565b801561040f5780601f106103e45761010080835404028352916020019161040f565b820191906000526020600020905b8154815290600101906020018083116103f257829003601f168201915b50505050509050919050565b600080600060056000868152602001908152602001600020905060008160000160009054906101000a900473ffffffffffffffffffffffffffffffffffffffff16905060008260000160149054906101000a90046bffffffffffffffffffffffff169050600073ffffffffffffffffffffffffffffffffffffffff168273ffffffffffffffffffffffffffffffffffffffff16036104fc57600460000160009054906101000a900473ffffffffffffffffffffffffffffffffffffffff169150600460000160149054906101000a90046bffffffffffffffffffffffff1690505b6000610506610aec565b6bffffffffffffffffffffffff16826bffffffffffffffffffffffff168861052e9190612773565b61053891906127e4565b9050828195509550505050509250929050565b6000610555610af6565b90508073ffffffffffffffffffffffffffffffffffffffff168673ffffffffffffffffffffffffffffffffffffffff161415801561059a575061059886826108b0565b155b156105de5780866040517fe237d9220000000000000000000000000000000000000000000000000000000081526004016105d5929190612815565b60405180910390fd5b6105eb8686868686610afe565b505050505050565b6105fb610bf6565b6106178585600160405180602001604052806000815250610c7d565b6106218484610d16565b61062c848383610d73565b5050505050565b6060815183511461067f57815183516040517f5b05999100000000000000000000000000000000000000000000000000000000815260040161067692919061283e565b60405180910390fd5b6000835167ffffffffffffffff81111561069c5761069b611efb565b5b6040519080825280602002602001820160405280156106ca5781602001602082028036833780820191505090505b50905060005b8451811015610731576107076106ef8287610f2b90919063ffffffff16565b6107028387610f3f90919063ffffffff16565b61030a565b82828151811061071a57610719612867565b5b6020026020010181815250508060010190506106d0565b508091505092915050565b610744610bf6565b61074e6000610f53565b565b6007805461075d90612713565b80601f016020809104026020016040519081016040528092919081815260200182805461078990612713565b80156107d65780601f106107ab576101008083540402835291602001916107d6565b820191906000526020600020905b8154815290600101906020018083116107b957829003601f168201915b505050505081565b6000600360009054906101000a900473ffffffffffffffffffffffffffffffffffffffff16905090565b61081a610813610af6565b8383611019565b5050565b60606007805461082d90612713565b80601f016020809104026020016040519081016040528092919081815260200182805461085990612713565b80156108a65780601f1061087b576101008083540402835291602001916108a6565b820191906000526020600020905b81548152906001019060200180831161088957829003601f168201915b5050505050905090565b6000600160008473ffffffffffffffffffffffffffffffffffffffff1673ffffffffffffffffffffffffffffffffffffffff16815260200190815260200160002060008373ffffffffffffffffffffffffffffffffffffffff1673ffffffffffffffffffffffffffffffffffffffff16815260200190815260200160002060009054906101000a900460ff16905092915050565b600061094e610af6565b90508073ffffffffffffffffffffffffffffffffffffffff168673ffffffffffffffffffffffffffffffffffffffff1614158015610993575061099186826108b0565b155b156109d75780866040517fe237d9220000000000000000000000000000000000000000000000000000000081526004016109ce929190612815565b60405180910390fd5b6109e48686868686611189565b505050505050565b6109f4610bf6565b600073ffffffffffffffffffffffffffffffffffffffff168173ffffffffffffffffffffffffffffffffffffffff1603610a665760006040517f1e4fbdf7000000000000000000000000000000000000000000000000000000008152600401610a5d9190612559565b60405180910390fd5b610a6f81610f53565b50565b60007f2a55205a000000000000000000000000000000000000000000000000000000007bffffffffffffffffffffffffffffffffffffffffffffffffffffffff1916827bffffffffffffffffffffffffffffffffffffffffffffffffffffffff19161480610ae55750610ae482611294565b5b9050919050565b6000612710905090565b600033905090565b600073ffffffffffffffffffffffffffffffffffffffff168473ffffffffffffffffffffffffffffffffffffffff1603610b705760006040517f57f447ce000000000000000000000000000000000000000000000000000000008152600401610b679190612559565b60405180910390fd5b600073ffffffffffffffffffffffffffffffffffffffff168573ffffffffffffffffffffffffffffffffffffffff1603610be25760006040517f01a83514000000000000000000000000000000000000000000000000000000008152600401610bd99190612559565b60405180910390fd5b610bef8585858585611376565b5050505050565b610bfe610af6565b73ffffffffffffffffffffffffffffffffffffffff16610c1c6107de565b73ffffffffffffffffffffffffffffffffffffffff1614610c7b57610c3f610af6565b6040517f118cdaa7000000000000000000000000000000000000000000000000000000008152600401610c729190612559565b60405180910390fd5b565b600073ffffffffffffffffffffffffffffffffffffffff168473ffffffffffffffffffffffffffffffffffffffff1603610cef5760006040517f57f447ce000000000000000000000000000000000000000000000000000000008152600401610ce69190612559565b60405180910390fd5b600080610cfc8585611428565b91509150610d0e600087848487611376565b505050505050565b80600660008481526020019081526020016000209081610d369190612a42565b50817f6bb7ff708619ba0610cba295a58592e0451dee2622938c8755667688daf3529b82604051610d679190611e5c565b60405180910390a25050565b6000610d7d610aec565b6bffffffffffffffffffffffff16905080826bffffffffffffffffffffffff161115610de4578382826040517fdfd1fc1b000000000000000000000000000000000000000000000000000000008152600401610ddb93929190612b45565b60405180910390fd5b600073ffffffffffffffffffffffffffffffffffffffff168373ffffffffffffffffffffffffffffffffffffffff1603610e58578360006040517f969f0852000000000000000000000000000000000000000000000000000000008152600401610e4f929190612b7c565b60405180910390fd5b60405180604001604052808473ffffffffffffffffffffffffffffffffffffffff168152602001836bffffffffffffffffffffffff168152506005600086815260200190815260200160002060008201518160000160006101000a81548173ffffffffffffffffffffffffffffffffffffffff021916908373ffffffffffffffffffffffffffffffffffffffff16021790555060208201518160000160146101000a8154816bffffffffffffffffffffffff02191690836bffffffffffffffffffffffff16021790555090505050505050565b600060208202602084010151905092915050565b600060208202602084010151905092915050565b6000600360009054906101000a900473ffffffffffffffffffffffffffffffffffffffff16905081600360006101000a81548173ffffffffffffffffffffffffffffffffffffffff021916908373ffffffffffffffffffffffffffffffffffffffff1602179055508173ffffffffffffffffffffffffffffffffffffffff168173ffffffffffffffffffffffffffffffffffffffff167f8be0079c531659141344cd1fd0a4f28419497f9722a3daafe3b4186f6b6457e060405160405180910390a35050565b600073ffffffffffffffffffffffffffffffffffffffff168273ffffffffffffffffffffffffffffffffffffffff160361108b5760006040517fced3e1000000000000000000000000000000000000000000000000000000000081526004016110829190612559565b60405180910390fd5b80600160008573ffffffffffffffffffffffffffffffffffffffff1673ffffffffffffffffffffffffffffffffffffffff16815260200190815260200160002060008473ffffffffffffffffffffffffffffffffffffffff1673ffffffffffffffffffffffffffffffffffffffff16815260200190815260200160002060006101000a81548160ff0219169083151502179055508173ffffffffffffffffffffffffffffffffffffffff168373ffffffffffffffffffffffffffffffffffffffff167f17307eab39ab6107e8899845ad3d59bd9653f200f220920489ca2b5937696c318360405161117c9190611d84565b60405180910390a3505050565b600073ffffffffffffffffffffffffffffffffffffffff168473ffffffffffffffffffffffffffffffffffffffff16036111fb5760006040517f57f447ce0000000000000000000000000000000000000000000000000000000081526004016111f29190612559565b60405180910390fd5b600073ffffffffffffffffffffffffffffffffffffffff168573ffffffffffffffffffffffffffffffffffffffff160361126d5760006040517f01a835140000000000000000000000000000000000000000000000000000000081526004016112649190612559565b60405180910390fd5b60008061127a8585611428565b9150915061128b8787848487611376565b50505050505050565b60007fd9b67a26000000000000000000000000000000000000000000000000000000007bffffffffffffffffffffffffffffffffffffffffffffffffffffffff1916827bffffffffffffffffffffffffffffffffffffffffffffffffffffffff1916148061135f57507f0e89341c000000000000000000000000000000000000000000000000000000007bffffffffffffffffffffffffffffffffffffffffffffffffffffffff1916827bffffffffffffffffffffffffffffffffffffffffffffffffffffffff1916145b8061136f575061136e82611458565b5b9050919050565b611382858585856114c2565b600073ffffffffffffffffffffffffffffffffffffffff168473ffffffffffffffffffffffffffffffffffffffff16146114215760006113c0610af6565b905060018451036114105760006113e1600086610f3f90919063ffffffff16565b905060006113f9600086610f3f90919063ffffffff16565b905061140983898985858961186a565b505061141f565b61141e818787878787611a1e565b5b505b5050505050565b60608060405191506001825283602083015260408201905060018152826020820152604081016040529250929050565b60007f01ffc9a7000000000000000000000000000000000000000000000000000000007bffffffffffffffffffffffffffffffffffffffffffffffffffffffff1916827bffffffffffffffffffffffffffffffffffffffffffffffffffffffff1916149050919050565b805182511461150c57815181516040517f5b05999100000000000000000000000000000000000000000000000000000000815260040161150392919061283e565b60405180910390fd5b6000611516610af6565b905060005b83518110156117255760006115398286610f3f90919063ffffffff16565b905060006115508386610f3f90919063ffffffff16565b9050600073ffffffffffffffffffffffffffffffffffffffff168873ffffffffffffffffffffffffffffffffffffffff161461167d57600080600084815260200190815260200160002060008a73ffffffffffffffffffffffffffffffffffffffff1673ffffffffffffffffffffffffffffffffffffffff1681526020019081526020016000205490508181101561162557888183856040517f03dee4c500000000000000000000000000000000000000000000000000000000815260040161161c9493929190612ba5565b60405180910390fd5b81810360008085815260200190815260200160002060008b73ffffffffffffffffffffffffffffffffffffffff1673ffffffffffffffffffffffffffffffffffffffff16815260200190815260200160002081905550505b600073ffffffffffffffffffffffffffffffffffffffff168773ffffffffffffffffffffffffffffffffffffffff1614611718578060008084815260200190815260200160002060008973ffffffffffffffffffffffffffffffffffffffff1673ffffffffffffffffffffffffffffffffffffffff16815260200190815260200160002060008282546117109190612bea565b925050819055505b505080600101905061151b565b5060018351036117e4576000611745600085610f3f90919063ffffffff16565b9050600061175d600085610f3f90919063ffffffff16565b90508573ffffffffffffffffffffffffffffffffffffffff168773ffffffffffffffffffffffffffffffffffffffff168473ffffffffffffffffffffffffffffffffffffffff167fc3d58168c5ae7397731d063d5bbf3d657854427343f4c083240f7aacaa2d0f6285856040516117d592919061283e565b60405180910390a45050611863565b8373ffffffffffffffffffffffffffffffffffffffff168573ffffffffffffffffffffffffffffffffffffffff168273ffffffffffffffffffffffffffffffffffffffff167f4a39dc06d4c0dbc64b70af90fd698a233a518aa5d07e595d983b8c0526c8f7fb868660405161185a929190612c1e565b60405180910390a45b5050505050565b60008473ffffffffffffffffffffffffffffffffffffffff163b1115611a16578373ffffffffffffffffffffffffffffffffffffffff1663f23a6e6187878686866040518663ffffffff1660e01b81526004016118cb959493929190612caa565b6020604051808303816000875af192505050801561190757506040513d601f19601f820116820180604052508101906119049190612d19565b60015b61198b573d8060008114611937576040519150601f19603f3d011682016040523d82523d6000602084013e61193c565b606091505b50600081510361198357846040517f57f447ce00000000000000000000000000000000000000000000000000000000815260040161197a9190612559565b60405180910390fd5b805181602001fd5b63f23a6e6160e01b7bffffffffffffffffffffffffffffffffffffffffffffffffffffffff1916817bffffffffffffffffffffffffffffffffffffffffffffffffffffffff191614611a1457846040517f57f447ce000000000000000000000000000000000000000000000000000000008152600401611a0b9190612559565b60405180910390fd5b505b505050505050565b60008473ffffffffffffffffffffffffffffffffffffffff163b1115611bca578373ffffffffffffffffffffffffffffffffffffffff1663bc197c8187878686866040518663ffffffff1660e01b8152600401611a7f959493929190612d46565b6020604051808303816000875af1925050508015611abb57506040513d601f19601f82011682018060405250810190611ab89190612d19565b60015b611b3f573d8060008114611aeb576040519150601f19603f3d011682016040523d82523d6000602084013e611af0565b606091505b506000815103611b3757846040517f57f447ce000000000000000000000000000000000000000000000000000000008152600401611b2e9190612559565b60405180910390fd5b805181602001fd5b63bc197c8160e01b7bffffffffffffffffffffffffffffffffffffffffffffffffffffffff1916817bffffffffffffffffffffffffffffffffffffffffffffffffffffffff191614611bc857846040517f57f447ce000000000000000000000000000000000000000000000000000000008152600401611bbf9190612559565b60405180910390fd5b505b505050505050565b6000604051905090565b600080fd5b600080fd5b600073ffffffffffffffffffffffffffffffffffffffff82169050919050565b6000611c1182611be6565b9050919050565b611c2181611c06565b8114611c2c57600080fd5b50565b600081359050611c3e81611c18565b92915050565b6000819050919050565b611c5781611c44565b8114611c6257600080fd5b50565b600081359050611c7481611c4e565b92915050565b60008060408385031215611c9157611c90611bdc565b5b6000611c9f85828601611c2f565b9250506020611cb085828601611c65565b9150509250929050565b611cc381611c44565b82525050565b6000602082019050611cde6000830184611cba565b92915050565b60007fffffffff0000000000000000000000000000000000000000000000000000000082169050919050565b611d1981611ce4565b8114611d2457600080fd5b50565b600081359050611d3681611d10565b92915050565b600060208284031215611d5257611d51611bdc565b5b6000611d6084828501611d27565b91505092915050565b60008115159050919050565b611d7e81611d69565b82525050565b6000602082019050611d996000830184611d75565b92915050565b600060208284031215611db557611db4611bdc565b5b6000611dc384828501611c65565b91505092915050565b600081519050919050565b600082825260208201905092915050565b60005b83811015611e06578082015181840152602081019050611deb565b60008484015250505050565b6000601f19601f8301169050919050565b6000611e2e82611dcc565b611e388185611dd7565b9350611e48818560208601611de8565b611e5181611e12565b840191505092915050565b60006020820190508181036000830152611e768184611e23565b905092915050565b60008060408385031215611e9557611e94611bdc565b5b6000611ea385828601611c65565b9250506020611eb485828601611c65565b9150509250929050565b611ec781611c06565b82525050565b6000604082019050611ee26000830185611ebe565b611eef6020830184611cba565b9392505050565b600080fd5b7f4e487b7100000000000000000000000000000000000000000000000000000000600052604160045260246000fd5b611f3382611e12565b810181811067ffffffffffffffff82111715611f5257611f51611efb565b5b80604052505050565b6000611f65611bd2565b9050611f718282611f2a565b919050565b600067ffffffffffffffff821115611f9157611f90611efb565b5b602082029050602081019050919050565b600080fd5b6000611fba611fb584611f76565b611f5b565b90508083825260208201905060208402830185811115611fdd57611fdc611fa2565b5b835b818110156120065780611ff28882611c65565b845260208401935050602081019050611fdf565b5050509392505050565b600082601f83011261202557612024611ef6565b5b8135612035848260208601611fa7565b91505092915050565b600080fd5b600067ffffffffffffffff82111561205e5761205d611efb565b5b61206782611e12565b9050602081019050919050565b82818337600083830152505050565b600061209661209184612043565b611f5b565b9050828152602081018484840111156120b2576120b161203e565b5b6120bd848285612074565b509392505050565b600082601f8301126120da576120d9611ef6565b5b81356120ea848260208601612083565b91505092915050565b600080600080600060a0868803121561210f5761210e611bdc565b5b600061211d88828901611c2f565b955050602061212e88828901611c2f565b945050604086013567ffffffffffffffff81111561214f5761214e611be1565b5b61215b88828901612010565b935050606086013567ffffffffffffffff81111561217c5761217b611be1565b5b61218888828901612010565b925050608086013567ffffffffffffffff8111156121a9576121a8611be1565b5b6121b5888289016120c5565b9150509295509295909350565b600067ffffffffffffffff8211156121dd576121dc611efb565b5b6121e682611e12565b9050602081019050919050565b6000612206612201846121c2565b611f5b565b9050828152602081018484840111156122225761222161203e565b5b61222d848285612074565b509392505050565b600082601f83011261224a57612249611ef6565b5b813561225a8482602086016121f3565b91505092915050565b60006bffffffffffffffffffffffff82169050919050565b61228481612263565b811461228f57600080fd5b50565b6000813590506122a18161227b565b92915050565b600080600080600060a086880312156122c3576122c2611bdc565b5b60006122d188828901611c2f565b95505060206122e288828901611c65565b945050604086013567ffffffffffffffff81111561230357612302611be1565b5b61230f88828901612235565b935050606061232088828901611c2f565b925050608061233188828901612292565b9150509295509295909350565b600067ffffffffffffffff82111561235957612358611efb565b5b602082029050602081019050919050565b600061237d6123788461233e565b611f5b565b905080838252602082019050602084028301858111156123a05761239f611fa2565b5b835b818110156123c957806123b58882611c2f565b8452602084019350506020810190506123a2565b5050509392505050565b600082601f8301126123e8576123e7611ef6565b5b81356123f884826020860161236a565b91505092915050565b6000806040838503121561241857612417611bdc565b5b600083013567ffffffffffffffff81111561243657612435611be1565b5b612442858286016123d3565b925050602083013567ffffffffffffffff81111561246357612462611be1565b5b61246f85828601612010565b9150509250929050565b600081519050919050565b600082825260208201905092915050565b6000819050602082019050919050565b6124ae81611c44565b82525050565b60006124c083836124a5565b60208301905092915050565b6000602082019050919050565b60006124e482612479565b6124ee8185612484565b93506124f983612495565b8060005b8381101561252a57815161251188826124b4565b975061251c836124cc565b9250506001810190506124fd565b5085935050505092915050565b6000602082019050818103600083015261255181846124d9565b905092915050565b600060208201905061256e6000830184611ebe565b92915050565b61257d81611d69565b811461258857600080fd5b50565b60008135905061259a81612574565b92915050565b600080604083850312156125b7576125b6611bdc565b5b60006125c585828601611c2f565b92505060206125d68582860161258b565b9150509250929050565b600080604083850312156125f7576125f6611bdc565b5b600061260585828601611c2f565b925050602061261685828601611c2f565b9150509250929050565b600080600080600060a0868803121561263c5761263b611bdc565b5b600061264a88828901611c2f565b955050602061265b88828901611c2f565b945050604061266c88828901611c65565b935050606061267d88828901611c65565b925050608086013567ffffffffffffffff81111561269e5761269d611be1565b5b6126aa888289016120c5565b9150509295509295909350565b6000602082840312156126cd576126cc611bdc565b5b60006126db84828501611c2f565b91505092915050565b7f4e487b7100000000000000000000000000000000000000000000000000000000600052602260045260246000fd5b6000600282049050600182168061272b57607f821691505b60208210810361273e5761273d6126e4565b5b50919050565b7f4e487b7100000000000000000000000000000000000000000000000000000000600052601160045260246000fd5b600061277e82611c44565b915061278983611c44565b925082820261279781611c44565b915082820484148315176127ae576127ad612744565b5b5092915050565b7f4e487b7100000000000000000000000000000000000000000000000000000000600052601260045260246000fd5b60006127ef82611c44565b91506127fa83611c44565b92508261280a576128096127b5565b5b828204905092915050565b600060408201905061282a6000830185611ebe565b6128376020830184611ebe565b9392505050565b60006040820190506128536000830185611cba565b6128606020830184611cba565b9392505050565b7f4e487b7100000000000000000000000000000000000000000000000000000000600052603260045260246000fd5b60008190508160005260206000209050919050565b60006020601f8301049050919050565b600082821b905092915050565b6000600883026128f87fffffffffffffffffffffffffffffffffffffffffffffffffffffffffffffffff826128bb565b61290286836128bb565b95508019841693508086168417925050509392505050565b6000819050919050565b600061293f61293a61293584611c44565b61291a565b611c44565b9050919050565b6000819050919050565b61295983612924565b61296d61296582612946565b8484546128c8565b825550505050565b600090565b612982612975565b61298d818484612950565b505050565b5b818110156129b1576129a660008261297a565b600181019050612993565b5050565b601f8211156129f6576129c781612896565b6129d0846128ab565b810160208510156129df578190505b6129f36129eb856128ab565b830182612992565b50505b505050565b600082821c905092915050565b6000612a19600019846008026129fb565b1980831691505092915050565b6000612a328383612a08565b9150826002028217905092915050565b612a4b82611dcc565b67ffffffffffffffff811115612a6457612a63611efb565b5b612a6e8254612713565b612a798282856129b5565b600060209050601f831160018114612aac5760008415612a9a578287015190505b612aa48582612a26565b865550612b0c565b601f198416612aba86612896565b60005b82811015612ae257848901518255600182019150602085019450602081019050612abd565b86831015612aff5784890151612afb601f891682612a08565b8355505b6001600288020188555050505b505050505050565b6000612b2f612b2a612b2584612263565b61291a565b611c44565b9050919050565b612b3f81612b14565b82525050565b6000606082019050612b5a6000830186611cba565b612b676020830185612b36565b612b746040830184611cba565b949350505050565b6000604082019050612b916000830185611cba565b612b9e6020830184611ebe565b9392505050565b6000608082019050612bba6000830187611ebe565b612bc76020830186611cba565b612bd46040830185611cba565b612be16060830184611cba565b95945050505050565b6000612bf582611c44565b9150612c0083611c44565b9250828201905080821115612c1857612c17612744565b5b92915050565b60006040820190508181036000830152612c3881856124d9565b90508181036020830152612c4c81846124d9565b90509392505050565b600081519050919050565b600082825260208201905092915050565b6000612c7c82612c55565b612c868185612c60565b9350612c96818560208601611de8565b612c9f81611e12565b840191505092915050565b600060a082019050612cbf6000830188611ebe565b612ccc6020830187611ebe565b612cd96040830186611cba565b612ce66060830185611cba565b8181036080830152612cf88184612c71565b90509695505050505050565b600081519050612d1381611d10565b92915050565b600060208284031215612d2f57612d2e611bdc565b5b6000612d3d84828501612d04565b91505092915050565b600060a082019050612d5b6000830188611ebe565b612d686020830187611ebe565b8181036040830152612d7a81866124d9565b90508181036060830152612d8e81856124d9565b90508181036080830152612da28184612c71565b9050969550505050505056fea264697066735822122053e9c3fa9fe05c461dd0b7b6afe37277a504b95866df0ad7405192f0d7c9204164736f6c634300081b0033",
  "linkReferences": {},
  "deployedLinkReferences": {}
}