{
  "_format": "hh-sol-artifact-1",
  "contractName": "NTicketMarket",
  "sourceName": "contracts/modules/Marketplace/NTicketMarket.sol",
  "abi": [
    {
      "inputs": [
        {
          "internalType": "address",
          "name": "_ticketContract",
          "type": "address"
        },
        {
          "internalType": "address",
          "name": "_ftContract",
          "type": "address"
        },
        {
          "internalType": "address",
          "name": "_specialMomentContract",
          "type": "address"
        },
        {
          "internalType": "address",
          "name": "_platformFeeReceiver",
          "type": "address"
        }
      ],
      "stateMutability": "nonpayable",
      "type": "constructor"
    },
    {
      "inputs": [
        {
          "internalType": "address",
          "name": "owner",
          "type": "address"
        }
      ],
      "name": "OwnableInvalidOwner",
      "type": "error"
    },
    {
      "inputs": [
        {
          "internalType": "address",
          "name": "account",
          "type": "address"
        }
      ],
      "name": "OwnableUnauthorizedAccount",
      "type": "error"
    },
    {
      "anonymous": false,
      "inputs": [
        {
          "indexed": false,
          "internalType": "string",
          "name": "methodName",
          "type": "string"
        },
        {
          "indexed": false,
          "internalType": "string",
          "name": "message",
          "type": "string"
        },
        {
          "indexed": false,
          "internalType": "bytes",
          "name": "data",
          "type": "bytes"
        }
      ],
      "name": "Debug",
      "type": "event"
    },
    {
      "anonymous": false,
      "inputs": [
        {
          "indexed": true,
          "internalType": "address",
          "name": "previousOwner",
          "type": "address"
        },
        {
          "indexed": true,
          "internalType": "address",
          "name": "newOwner",
          "type": "address"
        }
      ],
      "name": "OwnershipTransferred",
      "type": "event"
    },
    {
      "anonymous": false,
      "inputs": [
        {
          "indexed": false,
          "internalType": "uint256",
          "name": "tokenId",
          "type": "uint256"
        },
        {
          "indexed": false,
          "internalType": "address",
          "name": "seller",
          "type": "address"
        },
        {
          "indexed": false,
          "internalType": "uint256",
          "name": "price",
          "type": "uint256"
        }
      ],
      "name": "SpecialMomentListed",
      "type": "event"
    },
    {
      "anonymous": false,
      "inputs": [
        {
          "indexed": false,
          "internalType": "uint256",
          "name": "tokenId",
          "type": "uint256"
        },
        {
          "indexed": false,
          "internalType": "address",
          "name": "seller",
          "type": "address"
        }
      ],
      "name": "SpecialMomentListingCancelled",
      "type": "event"
    },
    {
      "anonymous": false,
      "inputs": [
        {
          "indexed": false,
          "internalType": "uint256",
          "name": "tokenId",
          "type": "uint256"
        },
        {
          "indexed": false,
          "internalType": "address",
          "name": "seller",
          "type": "address"
        },
        {
          "indexed": false,
          "internalType": "uint256",
          "name": "oldPrice",
          "type": "uint256"
        },
        {
          "indexed": false,
          "internalType": "uint256",
          "name": "newPrice",
          "type": "uint256"
        }
      ],
      "name": "SpecialMomentListingUpdated",
      "type": "event"
    },
    {
      "anonymous": false,
      "inputs": [
        {
          "indexed": false,
          "internalType": "uint256",
          "name": "tokenId",
          "type": "uint256"
        },
        {
          "indexed": false,
          "internalType": "address",
          "name": "seller",
          "type": "address"
        },
        {
          "indexed": false,
          "internalType": "address",
          "name": "buyer",
          "type": "address"
        },
        {
          "indexed": false,
          "internalType": "uint256",
          "name": "price",
          "type": "uint256"
        }
      ],
      "name": "SpecialMomentSold",
      "type": "event"
    },
    {
      "anonymous": false,
      "inputs": [
        {
          "indexed": false,
          "internalType": "uint256",
          "name": "tokenId",
          "type": "uint256"
        },
        {
          "indexed": false,
          "internalType": "address",
          "name": "seller",
          "type": "address"
        },
        {
          "indexed": false,
          "internalType": "uint256",
          "name": "price",
          "type": "uint256"
        },
        {
          "indexed": false,
          "internalType": "uint64",
          "name": "eventId",
          "type": "uint64"
        },
        {
          "indexed": false,
          "internalType": "uint64",
          "name": "categoryId",
          "type": "uint64"
        },
        {
          "indexed": false,
          "internalType": "uint128",
          "name": "seatId",
          "type": "uint128"
        }
      ],
      "name": "TicketListed",
      "type": "event"
    },
    {
      "anonymous": false,
      "inputs": [
        {
          "indexed": false,
          "internalType": "uint256",
          "name": "tokenId",
          "type": "uint256"
        },
        {
          "indexed": false,
          "internalType": "address",
          "name": "seller",
          "type": "address"
        }
      ],
      "name": "TicketListingCancelled",
      "type": "event"
    },
    {
      "anonymous": false,
      "inputs": [
        {
          "indexed": false,
          "internalType": "uint256",
          "name": "tokenId",
          "type": "uint256"
        },
        {
          "indexed": false,
          "internalType": "address",
          "name": "seller",
          "type": "address"
        },
        {
          "indexed": false,
          "internalType": "uint256",
          "name": "oldPrice",
          "type": "uint256"
        },
        {
          "indexed": false,
          "internalType": "uint256",
          "name": "newPrice",
          "type": "uint256"
        }
      ],
      "name": "TicketListingUpdated",
      "type": "event"
    },
    {
      "anonymous": false,
      "inputs": [
        {
          "indexed": false,
          "internalType": "uint256",
          "name": "tokenId",
          "type": "uint256"
        },
        {
          "indexed": false,
          "internalType": "address",
          "name": "seller",
          "type": "address"
        },
        {
          "indexed": false,
          "internalType": "address",
          "name": "buyer",
          "type": "address"
        },
        {
          "indexed": false,
          "internalType": "uint256",
          "name": "price",
          "type": "uint256"
        }
      ],
      "name": "TicketSold",
      "type": "event"
    },
    {
      "inputs": [
        {
          "internalType": "uint256",
          "name": "tokenId",
          "type": "uint256"
        }
      ],
      "name": "buySpecialMoment",
      "outputs": [],
      "stateMutability": "nonpayable",
      "type": "function"
    },
    {
      "inputs": [
        {
          "internalType": "uint256",
          "name": "tokenId",
          "type": "uint256"
        }
      ],
      "name": "buyTicket",
      "outputs": [],
      "stateMutability": "nonpayable",
      "type": "function"
    },
    {
      "inputs": [
        {
          "internalType": "uint256",
          "name": "tokenId",
          "type": "uint256"
        }
      ],
      "name": "cancelSpecialMomentListing",
      "outputs": [],
      "stateMutability": "nonpayable",
      "type": "function"
    },
    {
      "inputs": [
        {
          "internalType": "uint256",
          "name": "tokenId",
          "type": "uint256"
        }
      ],
      "name": "cancelTicketListing",
      "outputs": [],
      "stateMutability": "nonpayable",
      "type": "function"
    },
    {
      "inputs": [],
      "name": "debugMode",
      "outputs": [
        {
          "internalType": "bool",
          "name": "",
          "type": "bool"
        }
      ],
      "stateMutability": "view",
      "type": "function"
    },
    {
      "inputs": [],
      "name": "ftContract",
      "outputs": [
        {
          "internalType": "address",
          "name": "",
          "type": "address"
        }
      ],
      "stateMutability": "view",
      "type": "function"
    },
    {
      "inputs": [
        {
          "internalType": "uint256",
          "name": "tokenId",
          "type": "uint256"
        }
      ],
      "name": "getSpecialMomentListing",
      "outputs": [
        {
          "components": [
            {
              "internalType": "uint256",
              "name": "price",
              "type": "uint256"
            },
            {
              "internalType": "address",
              "name": "seller",
              "type": "address"
            }
          ],
          "internalType": "struct SpecialMomentListing",
          "name": "",
          "type": "tuple"
        }
      ],
      "stateMutability": "view",
      "type": "function"
    },
    {
      "inputs": [
        {
          "internalType": "uint256",
          "name": "tokenId",
          "type": "uint256"
        }
      ],
      "name": "getTicketListing",
      "outputs": [
        {
          "components": [
            {
              "internalType": "uint256",
              "name": "price",
              "type": "uint256"
            },
            {
              "internalType": "address",
              "name": "seller",
              "type": "address"
            }
          ],
          "internalType": "struct Listing",
          "name": "",
          "type": "tuple"
        }
      ],
      "stateMutability": "view",
      "type": "function"
    },
    {
      "inputs": [],
      "name": "isPlatformFeeEnabled",
      "outputs": [
        {
          "internalType": "bool",
          "name": "",
          "type": "bool"
        }
      ],
      "stateMutability": "view",
      "type": "function"
    },
    {
      "inputs": [
        {
          "internalType": "uint256",
          "name": "tokenId",
          "type": "uint256"
        },
        {
          "internalType": "uint256",
          "name": "price",
          "type": "uint256"
        }
      ],
      "name": "listSpecialMoment",
      "outputs": [],
      "stateMutability": "nonpayable",
      "type": "function"
    },
    {
      "inputs": [
        {
          "internalType": "uint256",
          "name": "tokenId",
          "type": "uint256"
        },
        {
          "internalType": "uint256",
          "name": "price",
          "type": "uint256"
        }
      ],
      "name": "listTicket",
      "outputs": [],
      "stateMutability": "nonpayable",
      "type": "function"
    },
    {
      "inputs": [],
      "name": "owner",
      "outputs": [
        {
          "internalType": "address",
          "name": "",
          "type": "address"
        }
      ],
      "stateMutability": "view",
      "type": "function"
    },
    {
      "inputs": [],
      "name": "platformFee",
      "outputs": [
        {
          "internalType": "uint256",
          "name": "",
          "type": "uint256"
        }
      ],
      "stateMutability": "view",
      "type": "function"
    },
    {
      "inputs": [],
      "name": "platformFeeReceiver",
      "outputs": [
        {
          "internalType": "address",
          "name": "",
          "type": "address"
        }
      ],
      "stateMutability": "view",
      "type": "function"
    },
    {
      "inputs": [],
      "name": "renounceOwnership",
      "outputs": [],
      "stateMutability": "nonpayable",
      "type": "function"
    },
    {
      "inputs": [
        {
          "internalType": "bool",
          "name": "mode",
          "type": "bool"
        }
      ],
      "name": "setDebugMode",
      "outputs": [],
      "stateMutability": "nonpayable",
      "type": "function"
    },
    {
      "inputs": [
        {
          "internalType": "uint256",
          "name": "_platformFee",
          "type": "uint256"
        }
      ],
      "name": "setPlatformFee",
      "outputs": [],
      "stateMutability": "nonpayable",
      "type": "function"
    },
    {
      "inputs": [],
      "name": "specialMomentContract",
      "outputs": [
        {
          "internalType": "address",
          "name": "",
          "type": "address"
        }
      ],
      "stateMutability": "view",
      "type": "function"
    },
    {
      "inputs": [],
      "name": "ticketContract",
      "outputs": [
        {
          "internalType": "address",
          "name": "",
          "type": "address"
        }
      ],
      "stateMutability": "view",
      "type": "function"
    },
    {
      "inputs": [
        {
          "internalType": "bool",
          "name": "_isEnabled",
          "type": "bool"
        }
      ],
      "name": "togglePlatformFee",
      "outputs": [],
      "stateMutability": "nonpayable",
      "type": "function"
    },
    {
      "inputs": [
        {
          "internalType": "address",
          "name": "newOwner",
          "type": "address"
        }
      ],
      "name": "transferOwnership",
      "outputs": [],
      "stateMutability": "nonpayable",
      "type": "function"
    },
    {
      "inputs": [
        {
          "internalType": "uint256",
          "name": "tokenId",
          "type": "uint256"
        },
        {
          "internalType": "uint256",
          "name": "newPrice",
          "type": "uint256"
        }
      ],
      "name": "updateSpecialMomentListing",
      "outputs": [],
      "stateMutability": "nonpayable",
      "type": "function"
    },
    {
      "inputs": [
        {
          "internalType": "uint256",
          "name": "tokenId",
          "type": "uint256"
        },
        {
          "internalType": "uint256",
          "name": "newPrice",
          "type": "uint256"
        }
      ],
      "name": "updateTicketListing",
      "outputs": [],
      "stateMutability": "nonpayable",
      "type": "function"
    }
  ],
  "bytecode": "0x608060405234801561001057600080fd5b5060405161340738038061340783398101604081905261002f9161014b565b338061005557604051631e4fbdf760e01b81526000600482015260240160405180910390fd5b61005e816100d6565b50600180546001600160a01b039586166001600160a01b031991821617825560028054958716958216959095179094556003805493861693909416929092179092556064600455600580546001600160a81b0319169290931691909117600160a01b179091556000805460ff1916909117905561019f565b600080546001600160a01b03838116610100818102610100600160a81b0319851617855560405193049190911692909183917f8be0079c531659141344cd1fd0a4f28419497f9722a3daafe3b4186f6b6457e091a35050565b80516001600160a01b038116811461014657600080fd5b919050565b6000806000806080858703121561016157600080fd5b61016a8561012f565b93506101786020860161012f565b92506101866040860161012f565b91506101946060860161012f565b905092959194509250565b613259806101ae6000396000f3fe608060405234801561001057600080fd5b506004361061014d5760003560e01c806367dd74ca116100c357806391e73de61161007c57806391e73de6146102c2578063ab3ba42d146102d5578063d913c144146102e8578063ea4780f5146102fb578063f0fe92a21461030e578063f2fde38b1461032157600080fd5b806367dd74ca1461024b578063715018a61461025e578063866a68a114610266578063875e913e146102865780638811e191146102995780638da5cb5b146102ac57600080fd5b80632d656ad7116101155780632d656ad7146101c0578063305a905a146101eb57806344d08567146101fe578063567c34d61461021257806356cc86841461022557806358a86e1d1461023857600080fd5b806312e8e2c31461015257806313c8c359146101675780631c9568be1461017a5780631e4424dc1461019657806326232a2e146101a9575b600080fd5b610165610160366004612cf1565b610334565b005b610165610175366004612cf1565b6103be565b60005460ff165b60405190151581526020015b60405180910390f35b6101656101a4366004612d0a565b610721565b6101b260045481565b60405190815260200161018d565b6005546101d3906001600160a01b031681565b6040516001600160a01b03909116815260200161018d565b6101656101f9366004612d0a565b610a79565b60055461018190600160a01b900460ff1681565b6003546101d3906001600160a01b031681565b610165610233366004612cf1565b610f7e565b6001546101d3906001600160a01b031681565b610165610259366004612cf1565b611729565b610165611e97565b610279610274366004612cf1565b611eab565b60405161018d9190612d2c565b610165610294366004612d5a565b611f16565b6101656102a7366004612d5a565b611f5e565b60005461010090046001600160a01b03166101d3565b6102796102d0366004612cf1565b611f79565b6101656102e3366004612d0a565b611fde565b6101656102f6366004612d0a565b6124b3565b6002546101d3906001600160a01b031681565b61016561031c366004612cf1565b6127df565b61016561032f366004612d93565b612ad8565b6005546001600160a01b031633146103675760405162461bcd60e51b815260040161035e90612db0565b60405180910390fd5b6103e88111156103b95760405162461bcd60e51b815260206004820152601e60248201527f506c6174666f726d206665652063616e6e6f7420657863656564203130250000604482015260640161035e565b600455565b60408051808201909152601381527263616e63656c5469636b65744c697374696e6760681b602082015260005460ff16156104195760008051602061316f833981519152816040516104109190612e39565b60405180910390a15b816104a16040518060400160405280600e81526020016d1d1a58dad95d125cd31a5cdd195960921b8152506040518060400160405280601c81526020017f436865636b696e67206966207469636b6574206973206c6973746564000000008152508360405160200161048d91815260200190565b604051602081830303815290604052612b16565b600081815260066020908152604091829020825180840190935280548084526001909101546001600160a01b0316918301919091526104f25760405162461bcd60e51b815260040161035e90612e8c565b83336105746040518060400160405280600d81526020016c34b9aa34b1b5b2ba27bbb732b960991b815250604051806040016040528060198152602001780436865636b696e67207469636b6574206f776e65727368697603c1b815250848460405160200161048d9291909182526001600160a01b0316602082015260400190565b600154604051627eeac760e11b81526000916001600160a01b03169062fdd58e906105a59085908790600401612eb7565b602060405180830381865afa1580156105c2573d6000803e3d6000fd5b505050506040513d601f19601f820116820180604052508101906105e69190612ed0565b9050806000036106085760405162461bcd60e51b815260040161035e90612ee9565b6106856040518060400160405280601381526020017263616e63656c5469636b65744c697374696e6760681b8152506040518060400160405280601081526020016f44656c6574696e67206c697374696e6760801b815250893360405160200161048d9291909182526001600160a01b0316602082015260400190565b6000878152600660209081526040808320928355600190920180546001600160a01b0319169055815189815233918101919091527f76c5d8a17d0bee8bd0e004133353cd78ede70ac9ace2aa18bf839e748caff29091015b60405180910390a1505060005460ff1615925061071d9150505760008051602061316f833981519152816040516107149190612f20565b60405180910390a15b5050565b60408051808201909152601a81527f7570646174655370656369616c4d6f6d656e744c697374696e67000000000000602082015260005460ff16156107865760008051602061316f8339815191528160405161077d9190612e39565b60405180910390a15b826107e2604051806040016040528060158152602001741cdc1958da585b135bdb595b9d125cd31a5cdd1959605a1b8152506040518060600160405280602481526020016131bb6024913960408051602081018690520161048d565b600081815260076020908152604091829020825180840190935280548084526001909101546001600160a01b0316918301919091526108335760405162461bcd60e51b815260040161035e90612f72565b84336108a36040518060400160405280601481526020017334b9a9b832b1b4b0b626b7b6b2b73a27bbb732b960611b8152506040518060600160405280602181526020016131df60219139848460405160200161048d9291909182526001600160a01b0316602082015260400190565b600354604051627eeac760e11b81526000916001600160a01b03169062fdd58e906108d49085908790600401612eb7565b602060405180830381865afa1580156108f1573d6000803e3d6000fd5b505050506040513d601f19601f820116820180604052508101906109159190612ed0565b9050806000036109375760405162461bcd60e51b815260040161035e90612fa9565b600087116109575760405162461bcd60e51b815260040161035e90612feb565b6109db6040518060400160405280601a81526020017f7570646174655370656369616c4d6f6d656e744c697374696e67000000000000815250604051806040016040528060168152602001755570646174696e67206c697374696e6720707269636560501b8152508a8a60405160200161048d929190918252602082015260400190565b6000888152600760209081526040918290208054908a905582518b81523392810192909252918101829052606081018990527f9b5dc4de88e35148569c993ff22b9d9ee6e1554445eb0d994267040077e9c7b5906080015b60405180910390a1505060005460ff16159350610a74925050505760008051602061316f83398151915281604051610a6b9190612f20565b60405180910390a15b505050565b60408051808201909152600a8152691b1a5cdd151a58dad95d60b21b602082015260005460ff1615610acb5760008051602061316f83398151915281604051610ac29190612e39565b60405180910390a15b8233610b366040518060400160405280600f81526020016e1d1a58dad95d139bdd131a5cdd1959608a1b81525060405180606001604052806024815260200161320060249139848460405160200161048d9291909182526001600160a01b0316602082015260400190565b600082815260066020908152604091829020825180840190935280548084526001909101546001600160a01b03169183019190915215610bb05760405162461bcd60e51b8152602060048201526015602482015274151a58dad95d08185b1c9958591e481b1a5cdd1959605a1b604482015260640161035e565b8533610c326040518060400160405280600d81526020016c34b9aa34b1b5b2ba27bbb732b960991b815250604051806040016040528060198152602001780436865636b696e67207469636b6574206f776e65727368697603c1b815250848460405160200161048d9291909182526001600160a01b0316602082015260400190565b600154604051627eeac760e11b81526000916001600160a01b03169062fdd58e90610c639085908790600401612eb7565b602060405180830381865afa158015610c80573d6000803e3d6000fd5b505050506040513d601f19601f82011682018060405250810190610ca49190612ed0565b905080600003610cc65760405162461bcd60e51b815260040161035e90612ee9565b604080518082018252600a8152691b1a5cdd151a58dad95d60b21b60208083019190915282518084018452601d81527f436865636b696e67206d61726b6574706c61636520617070726f76616c00000081830152835133928101929092523093820193909352610d39929060600161048d565b60015460405163e985e9c560e01b81523360048201523060248201526000916001600160a01b03169063e985e9c590604401602060405180830381865afa158015610d88573d6000803e3d6000fd5b505050506040513d601f19601f82011682018060405250810190610dac9190613022565b905080610dfb5760405162461bcd60e51b815260206004820152601b60248201527f4d61726b6574706c616365206973206e6f7420617070726f7665640000000000604482015260640161035e565b60008911610e1b5760405162461bcd60e51b815260040161035e90612feb565b610e866040518060400160405280600a8152602001691b1a5cdd151a58dad95d60b21b8152506040518060400160405280601081526020016f4372656174696e67206c697374696e6760801b8152508c8c60405160200161048d929190918252602082015260400190565b6040805180820182528a815233602080830182815260008f8152600683528590209351845551600190930180546001600160a01b039094166001600160a01b03199094169390931790925582518d8152918201529081018a905260c08b811c6060830181905260808d811c67ffffffffffffffff169084018190526fffffffffffffffffffffffffffffffff8e1660a08501819052919390927f4dba92438e7ff7bdf6b894a9324fd8674dfb7d871970069105a3cef3aa52cf9e910160405180910390a1505060005460ff16159750610a7496505050505050505760008051602061316f83398151915281604051610a6b9190612f20565b60408051808201909152601081526f189d5e54dc1958da585b135bdb595b9d60821b602082015260005460ff1615610fd65760008051602061316f83398151915281604051610fcd9190612e39565b60405180910390a15b81611032604051806040016040528060158152602001741cdc1958da585b135bdb595b9d125cd31a5cdd1959605a1b8152506040518060600160405280602481526020016131bb6024913960408051602081018690520161048d565b600081815260076020908152604091829020825180840190935280548084526001909101546001600160a01b0316918301919091526110835760405162461bcd60e51b815260040161035e90612f72565b6110f26040518060400160405280601081526020016f189d5e54dc1958da585b135bdb595b9d60821b815250604051806040016040528060178152602001764c6f6164696e67206c697374696e672064657461696c7360481b8152508660405160200161048d91815260200190565b600084815260076020908152604091829020825180840190935280548352600101546001600160a01b031690820181905233036111715760405162461bcd60e51b815260206004820152601b60248201527f43616e6e6f742062757920796f7572206f776e206c697374696e670000000000604482015260640161035e565b6111e46040518060400160405280601081526020016f189d5e54dc1958da585b135bdb595b9d60821b81525060405180604001604052806017815260200176436865636b696e67205553444320616c6c6f77616e636560481b81525033846000015160405160200161048d929190612eb7565b8051600254604051636eb1769f60e11b81523360048201523060248201526001600160a01b039091169063dd62ed3e90604401602060405180830381865afa158015611234573d6000803e3d6000fd5b505050506040513d601f19601f820116820180604052508101906112589190612ed0565b10156112a65760405162461bcd60e51b815260206004820152601b60248201527f496e73756666696369656e74205553444320616c6c6f77616e63650000000000604482015260640161035e565b6000806112bb83600001518460200151612b42565b915091506113356040518060400160405280601081526020016f189d5e54dc1958da585b135bdb595b9d60821b8152506040518060400160405280601581526020017443616c63756c6174696e6720726f79616c7469657360581b815250898560405160200161048d929190918252602082015260400190565b60035460405163152a902d60e11b8152600481018990526024810184905260009182916001600160a01b0390911690632a55205a906044016040805180830381865afa158015611389573d6000803e3d6000fd5b505050506040513d601f19601f820116820180604052508101906113ad919061303f565b909250905060006113be8286613083565b90506114356040518060400160405280601081526020016f189d5e54dc1958da585b135bdb595b9d60821b8152506040518060400160405280601a81526020017f50726f63657373696e6720726f79616c7479207061796d656e74000000000000815250858560405160200161048d929190612eb7565b6002546040516323b872dd60e01b81526001600160a01b03909116906323b872dd9061146990339087908790600401613096565b6020604051808303816000875af1158015611488573d6000803e3d6000fd5b505050506040513d601f19601f820116820180604052508101906114ac9190613022565b506115226040518060400160405280601081526020016f189d5e54dc1958da585b135bdb595b9d60821b81525060405180604001604052806019815260200178141c9bd8d95cdcda5b99c81cd95b1b195c881c185e5b595b9d603a1b81525088602001518460405160200161048d929190612eb7565b60025460208701516040516323b872dd60e01b81526001600160a01b03909216916323b872dd9161155a913391908690600401613096565b6020604051808303816000875af1158015611579573d6000803e3d6000fd5b505050506040513d601f19601f8201168201806040525081019061159d9190613022565b5061160c6040518060400160405280601081526020016f189d5e54dc1958da585b135bdb595b9d60821b8152506040518060400160405280601081526020016f151c985b9cd9995c9c9a5b99c813919560821b8152508860200151338e60405160200161048d93929190613096565b6003546020870151604051637921219560e11b81526001600160a01b039092169163f242432a916116469133908f906001906004016130ba565b600060405180830381600087803b15801561166057600080fd5b505af1158015611674573d6000803e3d6000fd5b50505060008b8152600760209081526040808320928355600190920180546001600160a01b031916905588810151895183518f81526001600160a01b0390921692820192909252339281019290925260608201527f4de425f5bbbe8733d4a4b25b2c4020a9c1553487fe8b58cff733245db6a645bc91506080015b60405180910390a1505060005460ff1615955061071d9450505050505760008051602061316f833981519152816040516107149190612f20565b604080518082019091526009815268189d5e551a58dad95d60ba1b602082015260005460ff161561177a5760008051602061316f833981519152816040516117719190612e39565b60405180910390a15b816117ee6040518060400160405280600e81526020016d1d1a58dad95d125cd31a5cdd195960921b8152506040518060400160405280601c81526020017f436865636b696e67206966207469636b6574206973206c6973746564000000008152508360405160200161048d91815260200190565b600081815260066020908152604091829020825180840190935280548084526001909101546001600160a01b03169183019190915261183f5760405162461bcd60e51b815260040161035e90612e8c565b6118a760405180604001604052806009815260200168189d5e551a58dad95d60ba1b815250604051806040016040528060178152602001764c6f6164696e67206c697374696e672064657461696c7360481b8152508660405160200161048d91815260200190565b600084815260066020908152604091829020825180840190935280548352600101546001600160a01b031690820181905233036119265760405162461bcd60e51b815260206004820152601b60248201527f43616e6e6f742062757920796f7572206f776e206c697374696e670000000000604482015260640161035e565b61199260405180604001604052806009815260200168189d5e551a58dad95d60ba1b81525060405180604001604052806017815260200176436865636b696e67205553444320616c6c6f77616e636560481b81525033846000015160405160200161048d929190612eb7565b8051600254604051636eb1769f60e11b81523360048201523060248201526001600160a01b039091169063dd62ed3e90604401602060405180830381865afa1580156119e2573d6000803e3d6000fd5b505050506040513d601f19601f82011682018060405250810190611a069190612ed0565b1015611a545760405162461bcd60e51b815260206004820152601b60248201527f496e73756666696369656e74205553444320616c6c6f77616e63650000000000604482015260640161035e565b600080611a6983600001518460200151612b42565b91509150611adc60405180604001604052806009815260200168189d5e551a58dad95d60ba1b8152506040518060400160405280601581526020017443616c63756c6174696e6720726f79616c7469657360581b815250898560405160200161048d929190918252602082015260400190565b60015460405163152a902d60e11b8152600481018990526024810184905260009182916001600160a01b0390911690632a55205a906044016040805180830381865afa158015611b30573d6000803e3d6000fd5b505050506040513d601f19601f82011682018060405250810190611b54919061303f565b90925090506000611b658286613083565b9050611bd560405180604001604052806009815260200168189d5e551a58dad95d60ba1b8152506040518060400160405280601a81526020017f50726f63657373696e6720726f79616c7479207061796d656e74000000000000815250858560405160200161048d929190612eb7565b6002546040516323b872dd60e01b81526001600160a01b03909116906323b872dd90611c0990339087908790600401613096565b6020604051808303816000875af1158015611c28573d6000803e3d6000fd5b505050506040513d601f19601f82011682018060405250810190611c4c9190613022565b50611cbb60405180604001604052806009815260200168189d5e551a58dad95d60ba1b81525060405180604001604052806019815260200178141c9bd8d95cdcda5b99c81cd95b1b195c881c185e5b595b9d603a1b81525088602001518460405160200161048d929190612eb7565b60025460208701516040516323b872dd60e01b81526001600160a01b03909216916323b872dd91611cf3913391908690600401613096565b6020604051808303816000875af1158015611d12573d6000803e3d6000fd5b505050506040513d601f19601f82011682018060405250810190611d369190613022565b50611d9e60405180604001604052806009815260200168189d5e551a58dad95d60ba1b8152506040518060400160405280601081526020016f151c985b9cd9995c9c9a5b99c813919560821b8152508860200151338e60405160200161048d93929190613096565b600160009054906101000a90046001600160a01b03166001600160a01b031663f242432a8760200151338d60016040518563ffffffff1660e01b8152600401611dea94939291906130ba565b600060405180830381600087803b158015611e0457600080fd5b505af1158015611e18573d6000803e3d6000fd5b50505060008b8152600660209081526040808320928355600190920180546001600160a01b031916905588810151895183518f81526001600160a01b0390921692820192909252339281019290925260608201527f2bbc64d6afd28a753f6c5e4aaa894f1d684c44a0e080167eae104ac8505cfebd91506080016116ef565b611e9f612c65565b611ea96000612c98565b565b6040805180820190915260008082526020820152600082815260076020908152604091829020825180840190935280548084526001909101546001600160a01b031691830191909152611f105760405162461bcd60e51b815260040161035e90612f72565b92915050565b6005546001600160a01b03163314611f405760405162461bcd60e51b815260040161035e90612db0565b60058054911515600160a01b0260ff60a01b19909216919091179055565b611f66612c65565b6000805460ff1916911515919091179055565b6040805180820190915260008082526020820152600082815260066020908152604091829020825180840190935280548084526001909101546001600160a01b031691830191909152611f105760405162461bcd60e51b815260040161035e90612e8c565b6040805180820190915260118152701b1a5cdd14dc1958da585b135bdb595b9d607a1b602082015260005460ff16156120375760008051602061316f8339815191528160405161202e9190612e39565b60405180910390a15b82336120a9604051806040016040528060168152602001751cdc1958da585b135bdb595b9d139bdd131a5cdd195960521b8152506040518060600160405280602c815260200161318f602c9139848460405160200161048d9291909182526001600160a01b0316602082015260400190565b600082815260076020908152604091829020825180840190935280548084526001909101546001600160a01b0316918301919091521561212b5760405162461bcd60e51b815260206004820152601d60248201527f5370656369616c206d6f6d656e7420616c7265616479206c6973746564000000604482015260640161035e565b853361219b6040518060400160405280601481526020017334b9a9b832b1b4b0b626b7b6b2b73a27bbb732b960611b8152506040518060600160405280602181526020016131df60219139848460405160200161048d9291909182526001600160a01b0316602082015260400190565b600354604051627eeac760e11b81526000916001600160a01b03169062fdd58e906121cc9085908790600401612eb7565b602060405180830381865afa1580156121e9573d6000803e3d6000fd5b505050506040513d601f19601f8201168201806040525081019061220d9190612ed0565b90508060000361222f5760405162461bcd60e51b815260040161035e90612fa9565b60408051808201825260118152701b1a5cdd14dc1958da585b135bdb595b9d607a1b60208083019190915282518084018452601d81527f436865636b696e67206d61726b6574706c61636520617070726f76616c000000818301528351339281019290925230938201939093526122a9929060600161048d565b60035460405163e985e9c560e01b81523360048201523060248201526000916001600160a01b03169063e985e9c590604401602060405180830381865afa1580156122f8573d6000803e3d6000fd5b505050506040513d601f19601f8201168201806040525081019061231c9190613022565b90508061236b5760405162461bcd60e51b815260206004820152601b60248201527f4d61726b6574706c616365206973206e6f7420617070726f7665640000000000604482015260640161035e565b6000891161238b5760405162461bcd60e51b815260040161035e90612feb565b6123fd604051806040016040528060118152602001701b1a5cdd14dc1958da585b135bdb595b9d607a1b8152506040518060400160405280601081526020016f4372656174696e67206c697374696e6760801b8152508c8c60405160200161048d929190918252602082015260400190565b6040805180820182528a815233602080830182815260008f8152600783528590209351845551600190930180546001600160a01b0319166001600160a01b039094169390931790925582518d8152918201529081018a90527f2f06e4bbdd57d34e63eaec88aeae4807a2bf3142abfb7ad1ce0e89d1a784b6789060600160405180910390a1505060005460ff16159450610a7493505050505760008051602061316f83398151915281604051610a6b9190612f20565b6040805180820190915260138152727570646174655469636b65744c697374696e6760681b602082015260005460ff161561250e5760008051602061316f833981519152816040516125059190612e39565b60405180910390a15b826125826040518060400160405280600e81526020016d1d1a58dad95d125cd31a5cdd195960921b8152506040518060400160405280601c81526020017f436865636b696e67206966207469636b6574206973206c6973746564000000008152508360405160200161048d91815260200190565b600081815260066020908152604091829020825180840190935280548084526001909101546001600160a01b0316918301919091526125d35760405162461bcd60e51b815260040161035e90612e8c565b84336126556040518060400160405280600d81526020016c34b9aa34b1b5b2ba27bbb732b960991b815250604051806040016040528060198152602001780436865636b696e67207469636b6574206f776e65727368697603c1b815250848460405160200161048d9291909182526001600160a01b0316602082015260400190565b600154604051627eeac760e11b81526000916001600160a01b03169062fdd58e906126869085908790600401612eb7565b602060405180830381865afa1580156126a3573d6000803e3d6000fd5b505050506040513d601f19601f820116820180604052508101906126c79190612ed0565b9050806000036126e95760405162461bcd60e51b815260040161035e90612ee9565b600087116127095760405162461bcd60e51b815260040161035e90612feb565b612783604051806040016040528060138152602001727570646174655469636b65744c697374696e6760681b815250604051806040016040528060168152602001755570646174696e67206c697374696e6720707269636560501b8152508a8a60405160200161048d929190918252602082015260400190565b6000888152600660209081526040918290208054908a905582518b81523392810192909252918101829052606081018990527fd5ab325ab11120e54b70c4a26b24f1d30969eb9ce335a78fb7ea2df8950b5d9e90608001610a33565b60408051808201909152601a81527f63616e63656c5370656369616c4d6f6d656e744c697374696e67000000000000602082015260005460ff16156128445760008051602061316f8339815191528160405161283b9190612e39565b60405180910390a15b816128a0604051806040016040528060158152602001741cdc1958da585b135bdb595b9d125cd31a5cdd1959605a1b8152506040518060600160405280602481526020016131bb6024913960408051602081018690520161048d565b600081815260076020908152604091829020825180840190935280548084526001909101546001600160a01b0316918301919091526128f15760405162461bcd60e51b815260040161035e90612f72565b83336129616040518060400160405280601481526020017334b9a9b832b1b4b0b626b7b6b2b73a27bbb732b960611b8152506040518060600160405280602181526020016131df60219139848460405160200161048d9291909182526001600160a01b0316602082015260400190565b600354604051627eeac760e11b81526000916001600160a01b03169062fdd58e906129929085908790600401612eb7565b602060405180830381865afa1580156129af573d6000803e3d6000fd5b505050506040513d601f19601f820116820180604052508101906129d39190612ed0565b9050806000036129f55760405162461bcd60e51b815260040161035e90612fa9565b612a7c6040518060400160405280601a81526020017f63616e63656c5370656369616c4d6f6d656e744c697374696e670000000000008152506040518060400160405280601081526020016f44656c6574696e67206c697374696e6760801b815250893360405160200161048d9291909182526001600160a01b0316602082015260400190565b6000878152600760209081526040808320928355600190920180546001600160a01b0319169055815189815233918101919091527faed45759cd6cb40ea8fd2785e9cfc565d4f4ca17a3565154ce4e09b5932fd2e091016106dd565b612ae0612c65565b6001600160a01b038116612b0a57604051631e4fbdf760e01b81526000600482015260240161035e565b612b1381612c98565b50565b60005460ff1615610a745760008051602061316f833981519152838383604051610a6b939291906130f2565b6005548290600090600160a01b900460ff1615612c5e5761271060045485612b6a9190613135565b612b74919061314c565b9050612b808185613083565b91508015612c5e576002546005546040516323b872dd60e01b81526001600160a01b03928316926323b872dd92612bc1923392909116908690600401613096565b6020604051808303816000875af1158015612be0573d6000803e3d6000fd5b505050506040513d601f19601f82011682018060405250810190612c049190613022565b612c5e5760405162461bcd60e51b815260206004820152602560248201527f496e73756666696369656e74207061796d656e7420666f7220706c6174666f726044820152646d2066656560d81b606482015260840161035e565b9250929050565b6000546001600160a01b03610100909104163314611ea95760405163118cdaa760e01b815233600482015260240161035e565b600080546001600160a01b03838116610100818102610100600160a81b0319851617855560405193049190911692909183917f8be0079c531659141344cd1fd0a4f28419497f9722a3daafe3b4186f6b6457e091a35050565b600060208284031215612d0357600080fd5b5035919050565b60008060408385031215612d1d57600080fd5b50508035926020909101359150565b815181526020808301516001600160a01b03169082015260408101611f10565b8015158114612b1357600080fd5b600060208284031215612d6c57600080fd5b8135612d7781612d4c565b9392505050565b6001600160a01b0381168114612b1357600080fd5b600060208284031215612da557600080fd5b8135612d7781612d7e565b60208082526023908201527f4f6e6c7920706c6174666f726d206665652072656365697665722063616e2063604082015262185b1b60ea1b606082015260800190565b6000815180845260005b81811015612e1957602081850181015186830182015201612dfd565b506000602082860101526020601f19601f83011685010191505092915050565b606081526000612e4c6060830184612df3565b828103806020850152600c82526b4d6574686f6420656e74727960a01b602083015260408101604085015250600060408201526060810191505092915050565b602080825260119082015270151a58dad95d081b9bdd081b1a5cdd1959607a1b604082015260600190565b6001600160a01b03929092168252602082015260400190565b600060208284031215612ee257600080fd5b5051919050565b6020808252601a908201527f5469636b6574206e6f74206f776e65642062792063616c6c6572000000000000604082015260600190565b606081526000612f336060830184612df3565b828103806020850152600b82526a13595d1a1bd908195e1a5d60aa1b602083015260408101604085015250600060408201526060810191505092915050565b60208082526019908201527f5370656369616c206d6f6d656e74206e6f74206c697374656400000000000000604082015260600190565b60208082526022908201527f5370656369616c206d6f6d656e74206e6f74206f776e65642062792063616c6c60408201526132b960f11b606082015260800190565b6020808252601f908201527f5072696365206d7573742062652067726561746572207468616e207a65726f00604082015260600190565b60006020828403121561303457600080fd5b8151612d7781612d4c565b6000806040838503121561305257600080fd5b825161305d81612d7e565b6020939093015192949293505050565b634e487b7160e01b600052601160045260246000fd5b81810381811115611f1057611f1061306d565b6001600160a01b039384168152919092166020820152604081019190915260600190565b6001600160a01b0394851681529290931660208301526040820152606081019190915260a06080820181905260009082015260c00190565b6060815260006131056060830186612df3565b82810360208401526131178186612df3565b9050828103604084015261312b8185612df3565b9695505050505050565b8082028115828204841417611f1057611f1061306d565b60008261316957634e487b7160e01b600052601260045260246000fd5b50049056fe3b27a17eb6abbf4d7afecee861fef9cb2a747838d77634f6885a162b37c00a6d436865636b696e67206966207370656369616c206d6f6d656e7420697320616c7265616479206c6973746564436865636b696e67206966207370656369616c206d6f6d656e74206973206c6973746564436865636b696e67207370656369616c206d6f6d656e74206f776e657273686970436865636b696e67206966207469636b657420697320616c7265616479206c6973746564a2646970667358221220c13aebbfc45020e0856429afb50dfe5b8d985195f8996a293c6edc1b3860b74c64736f6c634300081b0033",
  "linkReferences": {},
  "deployedLinkReferences": {}
}