{
  "_format": "hh-sol-artifact-1",
  "contractName": "EventRegistry",
  "sourceName": "contracts/modules/EventRegistry/EventRegistry.sol",
  "abi": [
    {
      "inputs": [
        {
          "internalType": "address",
          "name": "_ticketContract",
          "type": "address"
        },
        {
          "internalType": "address",
          "name": "_ftContract",
          "type": "address"
        },
        {
          "internalType": "address",
          "name": "_specialMomentContract",
          "type": "address"
        },
        {
          "internalType": "address",
          "name": "_platformFeeReceiver",
          "type": "address"
        }
      ],
      "stateMutability": "nonpayable",
      "type": "constructor"
    },
    {
      "inputs": [
        {
          "internalType": "address",
          "name": "owner",
          "type": "address"
        }
      ],
      "name": "OwnableInvalidOwner",
      "type": "error"
    },
    {
      "inputs": [
        {
          "internalType": "address",
          "name": "account",
          "type": "address"
        }
      ],
      "name": "OwnableUnauthorizedAccount",
      "type": "error"
    },
    {
      "anonymous": false,
      "inputs": [
        {
          "components": [
            {
              "internalType": "uint64",
              "name": "id",
              "type": "uint64"
            },
            {
              "internalType": "string",
              "name": "title",
              "type": "string"
            },
            {
              "internalType": "string",
              "name": "description",
              "type": "string"
            },
            {
              "internalType": "address",
              "name": "owner",
              "type": "address"
            },
            {
              "internalType": "uint256",
              "name": "startAt",
              "type": "uint256"
            },
            {
              "internalType": "uint256",
              "name": "endAt",
              "type": "uint256"
            },
            {
              "internalType": "uint96",
              "name": "royalty",
              "type": "uint96"
            },
            {
              "internalType": "string",
              "name": "baseUri",
              "type": "string"
            },
            {
              "internalType": "string",
              "name": "eventCategory",
              "type": "string"
            },
            {
              "internalType": "string",
              "name": "eventSubcategory",
              "type": "string"
            },
            {
              "components": [
                {
                  "internalType": "string",
                  "name": "place",
                  "type": "string"
                },
                {
                  "internalType": "string",
                  "name": "venue",
                  "type": "string"
                },
                {
                  "internalType": "string",
                  "name": "city",
                  "type": "string"
                },
                {
                  "internalType": "string",
                  "name": "country",
                  "type": "string"
                }
              ],
              "internalType": "struct EventLocation",
              "name": "location",
              "type": "tuple"
            },
            {
              "components": [
                {
                  "internalType": "uint64",
                  "name": "id",
                  "type": "uint64"
                },
                {
                  "internalType": "string",
                  "name": "name",
                  "type": "string"
                },
                {
                  "internalType": "uint256",
                  "name": "copies",
                  "type": "uint256"
                },
                {
                  "internalType": "uint256",
                  "name": "ticketCount",
                  "type": "uint256"
                },
                {
                  "internalType": "uint256",
                  "name": "price",
                  "type": "uint256"
                }
              ],
              "internalType": "struct TicketCategoryResponse[]",
              "name": "ticketCategories",
              "type": "tuple[]"
            }
          ],
          "indexed": false,
          "internalType": "struct EventResponse",
          "name": "eventResponse",
          "type": "tuple"
        }
      ],
      "name": "EventCreated",
      "type": "event"
    },
    {
      "anonymous": false,
      "inputs": [
        {
          "components": [
            {
              "internalType": "uint256",
              "name": "collectionId",
              "type": "uint256"
            },
            {
              "internalType": "uint64",
              "name": "eventId",
              "type": "uint64"
            },
            {
              "internalType": "string",
              "name": "name",
              "type": "string"
            },
            {
              "internalType": "string",
              "name": "baseUri",
              "type": "string"
            },
            {
              "internalType": "string",
              "name": "description",
              "type": "string"
            },
            {
              "internalType": "uint256",
              "name": "createdAt",
              "type": "uint256"
            },
            {
              "internalType": "uint256[]",
              "name": "tokenIds",
              "type": "uint256[]"
            },
            {
              "internalType": "address[]",
              "name": "owners",
              "type": "address[]"
            }
          ],
          "indexed": false,
          "internalType": "struct MomentCollectionCreatedDto",
          "name": "momentCollection",
          "type": "tuple"
        }
      ],
      "name": "MomentCollectionCreated",
      "type": "event"
    },
    {
      "anonymous": false,
      "inputs": [
        {
          "indexed": true,
          "internalType": "address",
          "name": "previousOwner",
          "type": "address"
        },
        {
          "indexed": true,
          "internalType": "address",
          "name": "newOwner",
          "type": "address"
        }
      ],
      "name": "OwnershipTransferred",
      "type": "event"
    },
    {
      "anonymous": false,
      "inputs": [
        {
          "components": [
            {
              "internalType": "uint256",
              "name": "tokenId",
              "type": "uint256"
            },
            {
              "internalType": "uint64",
              "name": "eventId",
              "type": "uint64"
            },
            {
              "internalType": "uint64",
              "name": "categoryId",
              "type": "uint64"
            },
            {
              "internalType": "uint128",
              "name": "seatId",
              "type": "uint128"
            },
            {
              "internalType": "uint256",
              "name": "createdAt",
              "type": "uint256"
            },
            {
              "internalType": "address",
              "name": "owner",
              "type": "address"
            },
            {
              "internalType": "string",
              "name": "tokenUri",
              "type": "string"
            }
          ],
          "indexed": false,
          "internalType": "struct TicketPurchasedDto",
          "name": "purchase",
          "type": "tuple"
        }
      ],
      "name": "TicketPurchased",
      "type": "event"
    },
    {
      "inputs": [
        {
          "components": [
            {
              "components": [
                {
                  "internalType": "uint64",
                  "name": "eventId",
                  "type": "uint64"
                },
                {
                  "internalType": "uint64",
                  "name": "categoryId",
                  "type": "uint64"
                },
                {
                  "internalType": "uint128",
                  "name": "seatId",
                  "type": "uint128"
                }
              ],
              "internalType": "struct TicketRequest[]",
              "name": "tickets",
              "type": "tuple[]"
            }
          ],
          "internalType": "struct BatchTicketRequest",
          "name": "request",
          "type": "tuple"
        }
      ],
      "name": "batchBuyTicket",
      "outputs": [],
      "stateMutability": "nonpayable",
      "type": "function"
    },
    {
      "inputs": [
        {
          "internalType": "uint64",
          "name": "eventId",
          "type": "uint64"
        },
        {
          "internalType": "uint64",
          "name": "categoryId",
          "type": "uint64"
        },
        {
          "internalType": "uint128",
          "name": "seatId",
          "type": "uint128"
        }
      ],
      "name": "buyTicket",
      "outputs": [],
      "stateMutability": "nonpayable",
      "type": "function"
    },
    {
      "inputs": [
        {
          "components": [
            {
              "internalType": "string",
              "name": "title",
              "type": "string"
            },
            {
              "internalType": "string",
              "name": "description",
              "type": "string"
            },
            {
              "internalType": "uint256",
              "name": "startAt",
              "type": "uint256"
            },
            {
              "internalType": "uint256",
              "name": "endAt",
              "type": "uint256"
            },
            {
              "internalType": "uint96",
              "name": "royalty",
              "type": "uint96"
            },
            {
              "internalType": "string",
              "name": "baseUri",
              "type": "string"
            },
            {
              "internalType": "string",
              "name": "eventCategory",
              "type": "string"
            },
            {
              "internalType": "string",
              "name": "eventSubcategory",
              "type": "string"
            },
            {
              "components": [
                {
                  "internalType": "string",
                  "name": "place",
                  "type": "string"
                },
                {
                  "internalType": "string",
                  "name": "venue",
                  "type": "string"
                },
                {
                  "internalType": "string",
                  "name": "city",
                  "type": "string"
                },
                {
                  "internalType": "string",
                  "name": "country",
                  "type": "string"
                }
              ],
              "internalType": "struct EventLocationDto",
              "name": "location",
              "type": "tuple"
            },
            {
              "components": [
                {
                  "internalType": "string",
                  "name": "name",
                  "type": "string"
                },
                {
                  "internalType": "uint32",
                  "name": "copies",
                  "type": "uint32"
                },
                {
                  "internalType": "uint32",
                  "name": "price",
                  "type": "uint32"
                }
              ],
              "internalType": "struct TicketCategoryDto[]",
              "name": "ticketCategories",
              "type": "tuple[]"
            }
          ],
          "internalType": "struct EventCreationDto",
          "name": "dto",
          "type": "tuple"
        }
      ],
      "name": "createEvent",
      "outputs": [
        {
          "internalType": "uint256",
          "name": "",
          "type": "uint256"
        }
      ],
      "stateMutability": "nonpayable",
      "type": "function"
    },
    {
      "inputs": [
        {
          "components": [
            {
              "internalType": "uint64",
              "name": "eventId",
              "type": "uint64"
            },
            {
              "internalType": "string",
              "name": "name",
              "type": "string"
            },
            {
              "internalType": "string",
              "name": "description",
              "type": "string"
            },
            {
              "internalType": "string",
              "name": "baseUri",
              "type": "string"
            },
            {
              "internalType": "uint32",
              "name": "copies",
              "type": "uint32"
            },
            {
              "internalType": "uint96",
              "name": "royalty",
              "type": "uint96"
            },
            {
              "internalType": "address[]",
              "name": "receivers",
              "type": "address[]"
            }
          ],
          "internalType": "struct CollectionCreationDto",
          "name": "collectionCreationDto",
          "type": "tuple"
        }
      ],
      "name": "createMomentCollection",
      "outputs": [],
      "stateMutability": "nonpayable",
      "type": "function"
    },
    {
      "inputs": [
        {
          "internalType": "uint256",
          "name": "",
          "type": "uint256"
        }
      ],
      "name": "events",
      "outputs": [
        {
          "internalType": "uint64",
          "name": "id",
          "type": "uint64"
        },
        {
          "internalType": "string",
          "name": "title",
          "type": "string"
        },
        {
          "internalType": "string",
          "name": "description",
          "type": "string"
        },
        {
          "internalType": "address",
          "name": "owner",
          "type": "address"
        },
        {
          "internalType": "uint256",
          "name": "startAt",
          "type": "uint256"
        },
        {
          "internalType": "uint256",
          "name": "endAt",
          "type": "uint256"
        },
        {
          "internalType": "uint96",
          "name": "royalty",
          "type": "uint96"
        },
        {
          "internalType": "string",
          "name": "baseUri",
          "type": "string"
        },
        {
          "internalType": "string",
          "name": "eventCategory",
          "type": "string"
        },
        {
          "internalType": "string",
          "name": "eventSubcategory",
          "type": "string"
        },
        {
          "components": [
            {
              "internalType": "string",
              "name": "place",
              "type": "string"
            },
            {
              "internalType": "string",
              "name": "venue",
              "type": "string"
            },
            {
              "internalType": "string",
              "name": "city",
              "type": "string"
            },
            {
              "internalType": "string",
              "name": "country",
              "type": "string"
            }
          ],
          "internalType": "struct EventLocation",
          "name": "location",
          "type": "tuple"
        }
      ],
      "stateMutability": "view",
      "type": "function"
    },
    {
      "inputs": [],
      "name": "ftContract",
      "outputs": [
        {
          "internalType": "address",
          "name": "",
          "type": "address"
        }
      ],
      "stateMutability": "view",
      "type": "function"
    },
    {
      "inputs": [
        {
          "internalType": "uint64",
          "name": "eventId",
          "type": "uint64"
        }
      ],
      "name": "getEventById",
      "outputs": [
        {
          "components": [
            {
              "internalType": "uint64",
              "name": "id",
              "type": "uint64"
            },
            {
              "internalType": "string",
              "name": "title",
              "type": "string"
            },
            {
              "internalType": "string",
              "name": "description",
              "type": "string"
            },
            {
              "internalType": "address",
              "name": "owner",
              "type": "address"
            },
            {
              "internalType": "uint256",
              "name": "startAt",
              "type": "uint256"
            },
            {
              "internalType": "uint256",
              "name": "endAt",
              "type": "uint256"
            },
            {
              "internalType": "uint96",
              "name": "royalty",
              "type": "uint96"
            },
            {
              "internalType": "string",
              "name": "baseUri",
              "type": "string"
            },
            {
              "internalType": "string",
              "name": "eventCategory",
              "type": "string"
            },
            {
              "internalType": "string",
              "name": "eventSubcategory",
              "type": "string"
            },
            {
              "components": [
                {
                  "internalType": "string",
                  "name": "place",
                  "type": "string"
                },
                {
                  "internalType": "string",
                  "name": "venue",
                  "type": "string"
                },
                {
                  "internalType": "string",
                  "name": "city",
                  "type": "string"
                },
                {
                  "internalType": "string",
                  "name": "country",
                  "type": "string"
                }
              ],
              "internalType": "struct EventLocation",
              "name": "location",
              "type": "tuple"
            },
            {
              "components": [
                {
                  "internalType": "uint64",
                  "name": "id",
                  "type": "uint64"
                },
                {
                  "internalType": "string",
                  "name": "name",
                  "type": "string"
                },
                {
                  "internalType": "uint256",
                  "name": "copies",
                  "type": "uint256"
                },
                {
                  "internalType": "uint256",
                  "name": "ticketCount",
                  "type": "uint256"
                },
                {
                  "internalType": "uint256",
                  "name": "price",
                  "type": "uint256"
                }
              ],
              "internalType": "struct TicketCategoryResponse[]",
              "name": "ticketCategories",
              "type": "tuple[]"
            }
          ],
          "internalType": "struct EventResponse",
          "name": "",
          "type": "tuple"
        }
      ],
      "stateMutability": "view",
      "type": "function"
    },
    {
      "inputs": [
        {
          "internalType": "address",
          "name": "_owner",
          "type": "address"
        }
      ],
      "name": "getEventsByOwner",
      "outputs": [
        {
          "components": [
            {
              "internalType": "uint64",
              "name": "id",
              "type": "uint64"
            },
            {
              "internalType": "string",
              "name": "title",
              "type": "string"
            },
            {
              "internalType": "string",
              "name": "description",
              "type": "string"
            },
            {
              "internalType": "address",
              "name": "owner",
              "type": "address"
            },
            {
              "internalType": "uint256",
              "name": "startAt",
              "type": "uint256"
            },
            {
              "internalType": "uint256",
              "name": "endAt",
              "type": "uint256"
            },
            {
              "internalType": "uint96",
              "name": "royalty",
              "type": "uint96"
            },
            {
              "internalType": "string",
              "name": "baseUri",
              "type": "string"
            },
            {
              "internalType": "string",
              "name": "eventCategory",
              "type": "string"
            },
            {
              "internalType": "string",
              "name": "eventSubcategory",
              "type": "string"
            },
            {
              "components": [
                {
                  "internalType": "string",
                  "name": "place",
                  "type": "string"
                },
                {
                  "internalType": "string",
                  "name": "venue",
                  "type": "string"
                },
                {
                  "internalType": "string",
                  "name": "city",
                  "type": "string"
                },
                {
                  "internalType": "string",
                  "name": "country",
                  "type": "string"
                }
              ],
              "internalType": "struct EventLocation",
              "name": "location",
              "type": "tuple"
            },
            {
              "components": [
                {
                  "internalType": "uint64",
                  "name": "id",
                  "type": "uint64"
                },
                {
                  "internalType": "string",
                  "name": "name",
                  "type": "string"
                },
                {
                  "internalType": "uint256",
                  "name": "copies",
                  "type": "uint256"
                },
                {
                  "internalType": "uint256",
                  "name": "ticketCount",
                  "type": "uint256"
                },
                {
                  "internalType": "uint256",
                  "name": "price",
                  "type": "uint256"
                }
              ],
              "internalType": "struct TicketCategoryResponse[]",
              "name": "ticketCategories",
              "type": "tuple[]"
            }
          ],
          "internalType": "struct EventResponse[]",
          "name": "",
          "type": "tuple[]"
        }
      ],
      "stateMutability": "view",
      "type": "function"
    },
    {
      "inputs": [],
      "name": "isPlatformFeeEnabled",
      "outputs": [
        {
          "internalType": "bool",
          "name": "",
          "type": "bool"
        }
      ],
      "stateMutability": "view",
      "type": "function"
    },
    {
      "inputs": [
        {
          "internalType": "uint64",
          "name": "",
          "type": "uint64"
        },
        {
          "internalType": "uint256",
          "name": "",
          "type": "uint256"
        }
      ],
      "name": "momentCollectionPerEvent",
      "outputs": [
        {
          "internalType": "uint64",
          "name": "id",
          "type": "uint64"
        },
        {
          "internalType": "string",
          "name": "name",
          "type": "string"
        },
        {
          "internalType": "string",
          "name": "description",
          "type": "string"
        },
        {
          "internalType": "uint256",
          "name": "copies",
          "type": "uint256"
        },
        {
          "internalType": "uint256",
          "name": "royalty",
          "type": "uint256"
        },
        {
          "internalType": "string",
          "name": "baseUri",
          "type": "string"
        }
      ],
      "stateMutability": "view",
      "type": "function"
    },
    {
      "inputs": [],
      "name": "owner",
      "outputs": [
        {
          "internalType": "address",
          "name": "",
          "type": "address"
        }
      ],
      "stateMutability": "view",
      "type": "function"
    },
    {
      "inputs": [
        {
          "internalType": "address",
          "name": "",
          "type": "address"
        },
        {
          "internalType": "uint256",
          "name": "",
          "type": "uint256"
        }
      ],
      "name": "ownerEvents",
      "outputs": [
        {
          "internalType": "uint64",
          "name": "",
          "type": "uint64"
        }
      ],
      "stateMutability": "view",
      "type": "function"
    },
    {
      "inputs": [],
      "name": "platformFee",
      "outputs": [
        {
          "internalType": "uint256",
          "name": "",
          "type": "uint256"
        }
      ],
      "stateMutability": "view",
      "type": "function"
    },
    {
      "inputs": [],
      "name": "platformFeeReceiver",
      "outputs": [
        {
          "internalType": "address",
          "name": "",
          "type": "address"
        }
      ],
      "stateMutability": "view",
      "type": "function"
    },
    {
      "inputs": [],
      "name": "renounceOwnership",
      "outputs": [],
      "stateMutability": "nonpayable",
      "type": "function"
    },
    {
      "inputs": [
        {
          "internalType": "uint256",
          "name": "_platformFee",
          "type": "uint256"
        }
      ],
      "name": "setPlatformFee",
      "outputs": [],
      "stateMutability": "nonpayable",
      "type": "function"
    },
    {
      "inputs": [],
      "name": "specialMomentContract",
      "outputs": [
        {
          "internalType": "address",
          "name": "",
          "type": "address"
        }
      ],
      "stateMutability": "view",
      "type": "function"
    },
    {
      "inputs": [
        {
          "internalType": "uint64",
          "name": "",
          "type": "uint64"
        },
        {
          "internalType": "uint256",
          "name": "",
          "type": "uint256"
        }
      ],
      "name": "ticketCategoriesPerEvent",
      "outputs": [
        {
          "internalType": "uint64",
          "name": "id",
          "type": "uint64"
        },
        {
          "internalType": "string",
          "name": "name",
          "type": "string"
        },
        {
          "internalType": "uint32",
          "name": "copies",
          "type": "uint32"
        },
        {
          "internalType": "uint32",
          "name": "ticketCount",
          "type": "uint32"
        },
        {
          "internalType": "uint32",
          "name": "price",
          "type": "uint32"
        }
      ],
      "stateMutability": "view",
      "type": "function"
    },
    {
      "inputs": [],
      "name": "ticketContract",
      "outputs": [
        {
          "internalType": "address",
          "name": "",
          "type": "address"
        }
      ],
      "stateMutability": "view",
      "type": "function"
    },
    {
      "inputs": [
        {
          "internalType": "bool",
          "name": "_isEnabled",
          "type": "bool"
        }
      ],
      "name": "togglePlatformFee",
      "outputs": [],
      "stateMutability": "nonpayable",
      "type": "function"
    },
    {
      "inputs": [
        {
          "internalType": "address",
          "name": "newOwner",
          "type": "address"
        }
      ],
      "name": "transferOwnership",
      "outputs": [],
      "stateMutability": "nonpayable",
      "type": "function"
    },
    {
      "inputs": [
        {
          "internalType": "uint64",
          "name": "eventId",
          "type": "uint64"
        },
        {
          "internalType": "string",
          "name": "_title",
          "type": "string"
        },
        {
          "internalType": "string",
          "name": "_description",
          "type": "string"
        },
        {
          "internalType": "uint256",
          "name": "_startAt",
          "type": "uint256"
        },
        {
          "internalType": "uint256",
          "name": "_endAt",
          "type": "uint256"
        },
        {
          "internalType": "string",
          "name": "_eventCategory",
          "type": "string"
        },
        {
          "internalType": "string",
          "name": "_eventSubcategory",
          "type": "string"
        }
      ],
      "name": "updateEvent",
      "outputs": [],
      "stateMutability": "nonpayable",
      "type": "function"
    }
  ],
  "bytecode": "0x608060405234801561001057600080fd5b5060405161493938038061493983398101604081905261002f91610134565b338061005557604051631e4fbdf760e01b81526000600482015260240160405180910390fd5b61005e816100c8565b50600580546001600160a01b039586166001600160a01b0319918216179091556006805494861694821694909417909355600780549285169290931691909117909155606460085560098054919092166001600160a81b031990911617600160a01b179055610188565b600080546001600160a01b038381166001600160a01b0319831681178455604051919092169283917f8be0079c531659141344cd1fd0a4f28419497f9722a3daafe3b4186f6b6457e09190a35050565b80516001600160a01b038116811461012f57600080fd5b919050565b6000806000806080858703121561014a57600080fd5b61015385610118565b935061016160208601610118565b925061016f60408601610118565b915061017d60608601610118565b905092959194509250565b6147a2806101976000396000f3fe608060405234801561001057600080fd5b50600436106101425760003560e01c806358dde09f116100b8578063875e913e1161007c578063875e913e146103035780638da5cb5b14610316578063beb641f714610327578063cf7c0cd41461033a578063ea4780f51461035a578063f2fde38b1461036d57600080fd5b806358dde09f1461027f5780635c97a9dd146102a3578063715018a6146102b657806374c2ad63146102be578063845b1337146102de57600080fd5b80632d656ad71161010a5780632d656ad7146101cc5780633b09d225146101f757806341507cc81461020a57806344d0856714610235578063567c34d61461025957806358a86e1d1461026c57600080fd5b80630b7914301461014757806312e8e2c31461017a5780631a7c68421461018f5780631de50452146101a257806326232a2e146101b5575b600080fd5b61015a610155366004613408565b610380565b6040516101719b9a999897969594939291906134dc565b60405180910390f35b61018d610188366004613408565b610902565b005b61018d61019d3660046135a7565b61098c565b61018d6101b036600461361b565b610cb6565b6101be60085481565b604051908152602001610171565b6009546101df906001600160a01b031681565b6040516001600160a01b039091168152602001610171565b6101be610205366004613975565b610e3d565b61021d610218366004613b27565b611439565b6040516001600160401b039091168152602001610171565b60095461024990600160a01b900460ff1681565b6040519015158152602001610171565b6007546101df906001600160a01b031681565b6005546101df906001600160a01b031681565b61029261028d366004613b51565b611485565b604051610171959493929190613b6d565b61018d6102b1366004613bb6565b611578565b61018d611cd7565b6102d16102cc366004613bf0565b611ceb565b6040516101719190613dbb565b6102f16102ec366004613b51565b611e5b565b60405161017196959493929190613e20565b61018d610311366004613e8f565b612053565b6000546001600160a01b03166101df565b61018d610335366004613eac565b61209b565b61034d610348366004613f8c565b612260565b6040516101719190613fa7565b6006546101df906001600160a01b031681565b61018d61037b366004613bf0565b612277565b6001818154811061039057600080fd5b60009182526020909120600e9091020180546001820180546001600160401b039092169350906103bf90613fba565b80601f01602080910402602001604051908101604052809291908181526020018280546103eb90613fba565b80156104385780601f1061040d57610100808354040283529160200191610438565b820191906000526020600020905b81548152906001019060200180831161041b57829003601f168201915b50505050509080600201805461044d90613fba565b80601f016020809104026020016040519081016040528092919081815260200182805461047990613fba565b80156104c65780601f1061049b576101008083540402835291602001916104c6565b820191906000526020600020905b8154815290600101906020018083116104a957829003601f168201915b505050600384015460048501546005860154600687015460078801805497986001600160a01b03909516979396509194506001600160601b0316929161050b90613fba565b80601f016020809104026020016040519081016040528092919081815260200182805461053790613fba565b80156105845780601f1061055957610100808354040283529160200191610584565b820191906000526020600020905b81548152906001019060200180831161056757829003601f168201915b50505050509080600801805461059990613fba565b80601f01602080910402602001604051908101604052809291908181526020018280546105c590613fba565b80156106125780601f106105e757610100808354040283529160200191610612565b820191906000526020600020905b8154815290600101906020018083116105f557829003601f168201915b50505050509080600901805461062790613fba565b80601f016020809104026020016040519081016040528092919081815260200182805461065390613fba565b80156106a05780601f10610675576101008083540402835291602001916106a0565b820191906000526020600020905b81548152906001019060200180831161068357829003601f168201915b50505050509080600a016040518060800160405290816000820180546106c590613fba565b80601f01602080910402602001604051908101604052809291908181526020018280546106f190613fba565b801561073e5780601f106107135761010080835404028352916020019161073e565b820191906000526020600020905b81548152906001019060200180831161072157829003601f168201915b5050505050815260200160018201805461075790613fba565b80601f016020809104026020016040519081016040528092919081815260200182805461078390613fba565b80156107d05780601f106107a5576101008083540402835291602001916107d0565b820191906000526020600020905b8154815290600101906020018083116107b357829003601f168201915b505050505081526020016002820180546107e990613fba565b80601f016020809104026020016040519081016040528092919081815260200182805461081590613fba565b80156108625780601f1061083757610100808354040283529160200191610862565b820191906000526020600020905b81548152906001019060200180831161084557829003601f168201915b5050505050815260200160038201805461087b90613fba565b80601f01602080910402602001604051908101604052809291908181526020018280546108a790613fba565b80156108f45780601f106108c9576101008083540402835291602001916108f4565b820191906000526020600020905b8154815290600101906020018083116108d757829003601f168201915b50505050508152505090508b565b6009546001600160a01b031633146109355760405162461bcd60e51b815260040161092c90613ff4565b60405180910390fd5b6103e88111156109875760405162461bcd60e51b815260206004820152601e60248201527f506c6174666f726d206665652063616e6e6f7420657863656564203130250000604482015260640161092c565b600855565b60006109988280614037565b9050116109dd5760405162461bcd60e51b8152602060048201526013602482015272139bc81d1a58dad95d1cc81c1c9bdd9a591959606a1b604482015260640161092c565b6000805b6109eb8380614037565b9050811015610ace576000610a008480614037565b83818110610a1057610a10614086565b905060600201803603810190610a26919061409c565b80516001600160401b03166000908152600360205260409020805491925090610a615760405162461bcd60e51b815260040161092c906140ec565b60008160018460200151610a759190614130565b6001600160401b031681548110610a8e57610a8e614086565b600091825260209091206004909102016002810154909150610abd90600160401b900463ffffffff168661414f565b945050600190920191506109e19050565b50600654604051636eb1769f60e11b815233600482015230602482015282916001600160a01b03169063dd62ed3e90604401602060405180830381865afa158015610b1d573d6000803e3d6000fd5b505050506040513d601f19601f82011682018060405250810190610b419190614162565b1015610b885760405162461bcd60e51b8152602060048201526016602482015275496e73756666696369656e7420616c6c6f77616e636560501b604482015260640161092c565b60005b610b958380614037565b9050811015610cb1576000610baa8480614037565b83818110610bba57610bba614086565b905060600201803603810190610bd0919061409c565b90506000610be182600001516122b5565b82516001600160401b03166000908152600360209081526040822090850151929350918290610c1290600190614130565b6001600160401b031681548110610c2b57610c2b614086565b90600052602060002090600402019050610c7d8185600001518660200151876040015187606001518860c00151610c788a60e001518c602001518d604001516001600160801b0316612b72565b612bba565b60028101546060840151610c9f91600160401b900463ffffffff169033612eb4565b505060019094019350610b8b92505050565b505050565b6001600160401b03831660009081526003602052604090208054610cec5760405162461bcd60e51b815260040161092c906140ec565b6000610cf7856122b5565b9050600082600081548110610d0e57610d0e614086565b906000526020600020906004020190506000805b8454811015610d9957866001600160401b0316858281548110610d4757610d47614086565b60009182526020909120600490910201546001600160401b031603610d915760019150848181548110610d7c57610d7c614086565b90600052602060002090600402019250610d99565b600101610d22565b5080610de75760405162461bcd60e51b815260206004820152601e60248201527f5469636b65742063617465676f727920646f6573206e6f742065786973740000604482015260640161092c565b60028201546060840151610e0991600160401b900463ffffffff169033612eb4565b5050610e348288888887606001518860c00151610c788a60e001518e8e6001600160801b0316612b72565b50505050505050565b6000808261012001515111610ea55760405162461bcd60e51b815260206004820152602860248201527f4174206c65617374206f6e65207469636b65742063617465676f7279206973206044820152671c995c5d5a5c995960c21b606482015260840161092c565b4282604001511015610ef95760405162461bcd60e51b815260206004820181905260248201527f53746172742064617465206d75737420626520696e2074686520667574757265604482015260640161092c565b8160400151826060015111610f205760405162461bcd60e51b815260040161092c9061417b565b815151610f675760405162461bcd60e51b81526020600482015260156024820152745469746c652063616e6e6f7420626520656d70747960581b604482015260640161092c565b600180543360008181526002602090815260408083208054808801825590845282842060048204018054600390921660080261010090810a6001600160401b0381810219909416848a16918202179092558351610160810185529182528a518286019081528b860151838601526060808401989098528b850151608080850191909152888d015160a080860191909152818e01516001600160601b031660c080870191909152908e015160e080870191909152908e0151858501528d015161012085015285519081018652918c018051518352805187015196830196909652855185015194820194909452935186015195840195909552610140850192909252855480870187559590925282517fb10e2d527612073b26eecdfd717e6a320cf44b4afac2b0732d9fcbe2b7fa0cf6600e909602958601805467ffffffffffffffff19169190921617815590519293919290917fb10e2d527612073b26eecdfd717e6a320cf44b4afac2b0732d9fcbe2b7fa0cf701906110e69082614218565b50604082015160028201906110fb9082614218565b5060608201516003820180546001600160a01b0319166001600160a01b039092169190911790556080820151600482015560a0820151600582015560c08201516006820180546bffffffffffffffffffffffff19166001600160601b0390921691909117905560e082015160078201906111759082614218565b50610100820151600882019061118b9082614218565b5061012082015160098201906111a19082614218565b506101408201518051600a83019081906111bb9082614218565b50602082015160018201906111d09082614218565b50604082015160028201906111e59082614218565b50606082015160038201906111fa9082614218565b5050505061012084015151905060005b81816001600160401b031610156113e9576000856101200151826001600160401b03168151811061123d5761123d614086565b6020026020010151905060036000856001600160401b03166001600160401b031681526020019081526020016000206040518060c0016040528084600161128491906142d6565b6001600160401b0316815260200183600001518152602001836020015163ffffffff168152602001600063ffffffff168152602001836040015163ffffffff16815260200160006001600160401b038111156112e2576112e261365e565b60405190808252806020026020018201604052801561130b578160200160208202803683370190505b50905281546001808201845560009384526020938490208351600490930201805467ffffffffffffffff19166001600160401b0390931692909217825592820151919290919082019061135e9082614218565b5060408201516002820180546060850151608086015163ffffffff908116600160401b026bffffffff0000000000000000199282166401000000000267ffffffffffffffff199094169190951617919091171691909117905560a082015180516113d2916003840191602090910190613303565b5050505080806113e1906142f5565b91505061120a565b507fb8ee242eb491cea3d86b84b0973a7854b58ab6a4020619c574a7ccb4f2fbeeca611414836122b5565b6040516114219190613fa7565b60405180910390a1506001600160401b031692915050565b6002602052816000526040600020818154811061145557600080fd5b9060005260206000209060049182820401919006600802915091509054906101000a90046001600160401b031681565b600360205281600052604060002081815481106114a157600080fd5b6000918252602090912060049091020180546001820180546001600160401b0390921694509192506114d290613fba565b80601f01602080910402602001604051908101604052809291908181526020018280546114fe90613fba565b801561154b5780601f106115205761010080835404028352916020019161154b565b820191906000526020600020905b81548152906001019060200180831161152e57829003601f168201915b5050506002909301549192505063ffffffff808216916401000000008104821691600160401b9091041685565b6115856020820182613f8c565b6001600160401b0316600181815481106115a1576115a1614086565b60009182526020909120600e90910201600301546001600160a01b0316331461160c5760405162461bcd60e51b815260206004820152601b60248201527f4f6e6c79206576656e74206f776e65722063616e206d6f646966790000000000604482015260640161092c565b600061162361161e6020850185613f8c565b6122b5565b90508060a0015142116116785760405162461bcd60e51b815260206004820152601760248201527f4576656e7420686173206e6f7420656e64656420796574000000000000000000604482015260640161092c565b600060048161168a6020870187613f8c565b6001600160401b031681526020810191909152604001600020546116af90600161414f565b9050600460006116c26020870187613f8c565b6001600160401b03166001600160401b031681526020019081526020016000206040518060c00160405280836001600160401b0316815260200186806020019061170c9190614320565b8080601f0160208091040260200160405190810160405280939291908181526020018383808284376000920191909152505050908252506020016117536040880188614320565b8080601f01602080910402602001604051908101604052809392919081815260200183838082843760009201919091525050509082525060200161179d60a0880160808901614366565b63ffffffff1681526020016117b860c0880160a08901614381565b6001600160601b031681526020016117d36060880188614320565b8080601f01602080910402602001604051908101604052809392919081815260200183838082843760009201829052509390945250508354600180820186559482526020918290208451600690920201805467ffffffffffffffff19166001600160401b03909216919091178155908301519293909290830191506118589082614218565b506040820151600282019061186d9082614218565b50606082015160038201556080820151600482015560a082015160058201906118969082614218565b50600091506118ad905060a0860160808701614366565b63ffffffff166001600160401b038111156118ca576118ca61365e565b6040519080825280602002602001820160405280156118f3578160200160208202803683370190505b509050600061190860a0870160808801614366565b63ffffffff166001600160401b038111156119255761192561365e565b60405190808252806020026020018201604052801561194e578160200160208202803683370190505b50905060005b61196460a0880160808901614366565b63ffffffff16816001600160801b03161015611b7357600061198960c089018961439c565b61199d91506001600160801b0384166143fb565b905060006119c26119b160208b018b613f8c565b876119bd86600161440f565b6130b4565b90508085846001600160801b0316815181106119e0576119e0614086565b60209081029190910101526119f860c08a018a61439c565b83818110611a0857611a08614086565b9050602002016020810190611a1d9190613bf0565b84846001600160801b031681518110611a3857611a38614086565b6001600160a01b03909216602092830291909101909101526000611ab2611a6260608c018c614320565b8080601f016020809104026020016040519081016040528093929190818152602001838380828437600092019190915250611aa492508891506001905061440f565b6001600160801b03166130e8565b6007549091506001600160a01b03166340948977611ad360c08d018d61439c565b86818110611ae357611ae3614086565b9050602002016020810190611af89190613bf0565b84848c606001518f60a0016020810190611b129190614381565b6040518663ffffffff1660e01b8152600401611b3295949392919061442e565b600060405180830381600087803b158015611b4c57600080fd5b505af1158015611b60573d6000803e3d6000fd5b5050600190950194506119549350505050565b507f68c9aed10b0c9157bd7bc786dde14f065883ee2520d31dc375893e1fe4ea5119604051806101000160405280856001600160401b03168152602001886000016020810190611bc39190613f8c565b6001600160401b03168152602001888060200190611be19190614320565b8080601f016020809104026020016040519081016040528093929190818152602001838380828437600092019190915250505090825250602001611c2860608a018a614320565b8080601f016020809104026020016040519081016040528093929190818152602001838380828437600092019190915250505090825250602001611c6f60408a018a614320565b8080601f0160208091040260200160405190810160405280939291908181526020018383808284376000920191909152505050908252504260208201526040808201869052606090910184905251611cc791906144f7565b60405180910390a1505050505050565b611cdf61311c565b611ce96000613149565b565b6001600160a01b0381166000908152600260209081526040808320805482518185028101850190935280835260609493830182828015611d7c57602002820191906000526020600020906000905b82829054906101000a90046001600160401b03166001600160401b031681526020019060080190602082600701049283019260010382029150808411611d395790505b50505050509050600081516001600160401b03811115611d9e57611d9e61365e565b604051908082528060200260200182016040528015611dd757816020015b611dc461334e565b815260200190600190039081611dbc5790505b50905060005b8251816001600160401b03161015611e5357611e1a83826001600160401b031681518110611e0d57611e0d614086565b60200260200101516122b5565b82826001600160401b031681518110611e3557611e35614086565b60200260200101819052508080611e4b906142f5565b915050611ddd565b509392505050565b60046020528160005260406000208181548110611e7757600080fd5b6000918252602090912060069091020180546001820180546001600160401b039092169450919250611ea890613fba565b80601f0160208091040260200160405190810160405280929190818152602001828054611ed490613fba565b8015611f215780601f10611ef657610100808354040283529160200191611f21565b820191906000526020600020905b815481529060010190602001808311611f0457829003601f168201915b505050505090806002018054611f3690613fba565b80601f0160208091040260200160405190810160405280929190818152602001828054611f6290613fba565b8015611faf5780601f10611f8457610100808354040283529160200191611faf565b820191906000526020600020905b815481529060010190602001808311611f9257829003601f168201915b505050505090806003015490806004015490806005018054611fd090613fba565b80601f0160208091040260200160405190810160405280929190818152602001828054611ffc90613fba565b80156120495780601f1061201e57610100808354040283529160200191612049565b820191906000526020600020905b81548152906001019060200180831161202c57829003601f168201915b5050505050905086565b6009546001600160a01b0316331461207d5760405162461bcd60e51b815260040161092c90613ff4565b60098054911515600160a01b0260ff60a01b19909216919091179055565b866001600160401b0316600181815481106120b8576120b8614086565b60009182526020909120600e90910201600301546001600160a01b031633146121235760405162461bcd60e51b815260206004820152601b60248201527f4f6e6c79206576656e74206f776e65722063616e206d6f646966790000000000604482015260640161092c565b600087511161216c5760405162461bcd60e51b81526020600482015260156024820152745469746c652063616e6e6f7420626520656d70747960581b604482015260640161092c565b4285116121bb5760405162461bcd60e51b815260206004820181905260248201527f53746172742064617465206d75737420626520696e2074686520667574757265604482015260640161092c565b8484116121da5760405162461bcd60e51b815260040161092c9061417b565b60006001896001600160401b0316815481106121f8576121f8614086565b90600052602060002090600e02019050878160010190816122199190614218565b50600281016122288882614218565b506004810186905560058101859055600881016122458582614218565b50600981016122548482614218565b50505050505050505050565b61226861334e565b612271826122b5565b92915050565b61227f61311c565b6001600160a01b0381166122a957604051631e4fbdf760e01b81526000600482015260240161092c565b6122b281613149565b50565b6122bd61334e565b6001546001600160401b038316106122e75760405162461bcd60e51b815260040161092c906140ec565b60006001836001600160401b03168154811061230557612305614086565b600091825260208083206001600160401b03871684526003909152604083208054600e9093029091019350918190036123805760405162461bcd60e51b815260206004820152601c60248201527f4e6f2063617465676f7269657320666f722074686973206576656e7400000000604482015260640161092c565b61238861334e565b83546001600160401b031681526001840180546123a490613fba565b80601f01602080910402602001604051908101604052809291908181526020018280546123d090613fba565b801561241d5780601f106123f25761010080835404028352916020019161241d565b820191906000526020600020905b81548152906001019060200180831161240057829003601f168201915b5050505050602082015260038401546001600160a01b0316606082015260028401805461244990613fba565b80601f016020809104026020016040519081016040528092919081815260200182805461247590613fba565b80156124c25780601f10612497576101008083540402835291602001916124c2565b820191906000526020600020905b8154815290600101906020018083116124a557829003601f168201915b5050505050604082015260048401546080820152600584015460a08201526008840180546124ef90613fba565b80601f016020809104026020016040519081016040528092919081815260200182805461251b90613fba565b80156125685780601f1061253d57610100808354040283529160200191612568565b820191906000526020600020905b81548152906001019060200180831161254b57829003601f168201915b505050505081610100018190525083600901805461258590613fba565b80601f01602080910402602001604051908101604052809291908181526020018280546125b190613fba565b80156125fe5780601f106125d3576101008083540402835291602001916125fe565b820191906000526020600020905b8154815290600101906020018083116125e157829003601f168201915b505050505061012082015260068401546001600160601b031660c082015260078401805461262b90613fba565b80601f016020809104026020016040519081016040528092919081815260200182805461265790613fba565b80156126a45780601f10612679576101008083540402835291602001916126a4565b820191906000526020600020905b81548152906001019060200180831161268757829003601f168201915b50505050508160e0018190525083600a016040518060800160405290816000820180546126d090613fba565b80601f01602080910402602001604051908101604052809291908181526020018280546126fc90613fba565b80156127495780601f1061271e57610100808354040283529160200191612749565b820191906000526020600020905b81548152906001019060200180831161272c57829003601f168201915b5050505050815260200160018201805461276290613fba565b80601f016020809104026020016040519081016040528092919081815260200182805461278e90613fba565b80156127db5780601f106127b0576101008083540402835291602001916127db565b820191906000526020600020905b8154815290600101906020018083116127be57829003601f168201915b505050505081526020016002820180546127f490613fba565b80601f016020809104026020016040519081016040528092919081815260200182805461282090613fba565b801561286d5780601f106128425761010080835404028352916020019161286d565b820191906000526020600020905b81548152906001019060200180831161285057829003601f168201915b5050505050815260200160038201805461288690613fba565b80601f01602080910402602001604051908101604052809291908181526020018280546128b290613fba565b80156128ff5780601f106128d4576101008083540402835291602001916128ff565b820191906000526020600020905b8154815290600101906020018083116128e257829003601f168201915b50505091909252505050610140820152816001600160401b038111156129275761292761365e565b60405190808252806020026020018201604052801561299357816020015b6129806040518060a0016040528060006001600160401b03168152602001606081526020016000815260200160008152602001600081525090565b8152602001906001900390816129455790505b5061016082015260005b82811015612b68576040518060a001604052808583815481106129c2576129c2614086565b6000918252602091829020600490910201546001600160401b0316825286549101908690849081106129f6576129f6614086565b90600052602060002090600402016001018054612a1290613fba565b80601f0160208091040260200160405190810160405280929190818152602001828054612a3e90613fba565b8015612a8b5780601f10612a6057610100808354040283529160200191612a8b565b820191906000526020600020905b815481529060010190602001808311612a6e57829003601f168201915b50505050508152602001858381548110612aa757612aa7614086565b60009182526020918290206002600490920201015463ffffffff1682528654910190869084908110612adb57612adb614086565b906000526020600020906004020160020160049054906101000a900463ffffffff1663ffffffff168152602001858381548110612b1a57612b1a614086565b6000918252602090912060049091020160020154600160401b900463ffffffff169052610160830151805183908110612b5557612b55614086565b602090810291909101015260010161299d565b5095945050505050565b606083612b87846001600160401b0316613199565b612b9084613199565b604051602001612ba2939291906145bc565b60405160208183030381529060405290509392505050565b6000846001600160801b031611612c135760405162461bcd60e51b815260206004820152601960248201527f53656174204944206d7573742073746172742066726f6d203100000000000000604482015260640161092c565b600287015463ffffffff166001600160801b0385161115612c6e5760405162461bcd60e51b8152602060048201526015602482015274151a58dad95d08191bd95cc81b9bdd08195e1a5cdd605a1b604482015260640161092c565b60005b6003880154811015612cf457846001600160801b0316886003018281548110612c9c57612c9c614086565b906000526020600020015403612cec5760405162461bcd60e51b8152602060048201526015602482015274151a58dad95d08185b1c9958591e48189bdd59da1d605a1b604482015260640161092c565b600101612c71565b50600287015463ffffffff64010000000082048116911611612d585760405162461bcd60e51b815260206004820152601c60248201527f4e6f7420656e6f756768207469636b65747320617661696c61626c6500000000604482015260640161092c565b600287018054640100000000900463ffffffff16906004612d788361461b565b825463ffffffff9182166101009390930a9283029190920219909116179055506003870180546001810182556000918252602082206001600160801b038716910155612dc58787876130b4565b600554604051634094897760e01b81529192506001600160a01b031690634094897790612dfe903390859087908a908a9060040161442e565b600060405180830381600087803b158015612e1857600080fd5b505af1158015612e2c573d6000803e3d6000fd5b50506040805160e0810182528481526001600160401b03808c1660208301528a16818301526001600160801b03891660608201524260808201523360a082015260c0810186905290517f535d3139c97378b49b025f98009a67ecd71ef470b7bedee0a7e1e7e38fe7717b9350612ea29250614637565b60405180910390a15050505050505050565b6009548390600090600160a01b900460ff1615612fd55761271060085486612edc91906146c3565b612ee691906146da565b9050612ef281866146ee565b91508015612fd5576006546009546040516323b872dd60e01b81526001600160a01b0386811660048301529182166024820152604481018490529116906323b872dd906064016020604051808303816000875af1158015612f57573d6000803e3d6000fd5b505050506040513d601f19601f82011682018060405250810190612f7b9190614701565b612fd55760405162461bcd60e51b815260206004820152602560248201527f496e73756666696369656e74207061796d656e7420666f7220706c6174666f726044820152646d2066656560d81b606482015260840161092c565b6006546040516323b872dd60e01b81526001600160a01b038581166004830152868116602483015260448201859052909116906323b872dd906064016020604051808303816000875af1158015613030573d6000803e3d6000fd5b505050506040513d601f19601f820116820180604052508101906130549190614701565b6130ac5760405162461bcd60e51b8152602060048201526024808201527f496e73756666696369656e74207061796d656e7420666f72206576656e74206f6044820152633bb732b960e11b606482015260840161092c565b935093915050565b6001600160c01b031960c084901b1667ffffffffffffffff60801b608084901b16176001600160801b038216179392505050565b6060826130f483613199565b60405160200161310592919061471e565b604051602081830303815290604052905092915050565b6000546001600160a01b03163314611ce95760405163118cdaa760e01b815233600482015260240161092c565b600080546001600160a01b038381166001600160a01b0319831681178455604051919092169283917f8be0079c531659141344cd1fd0a4f28419497f9722a3daafe3b4186f6b6457e09190a35050565b606060006131a68361322b565b60010190506000816001600160401b038111156131c5576131c561365e565b6040519080825280601f01601f1916602001820160405280156131ef576020820181803683370190505b5090508181016020015b600019016f181899199a1a9b1b9c1cb0b131b232b360811b600a86061a8153600a85049450846131f957509392505050565b60008072184f03e93ff9f4daa797ed6e38ed64bf6a1f0160401b831061326a5772184f03e93ff9f4daa797ed6e38ed64bf6a1f0160401b830492506040015b6d04ee2d6d415b85acef81000000008310613296576d04ee2d6d415b85acef8100000000830492506020015b662386f26fc1000083106132b457662386f26fc10000830492506010015b6305f5e10083106132cc576305f5e100830492506008015b61271083106132e057612710830492506004015b606483106132f2576064830492506002015b600a83106122715760010192915050565b82805482825590600052602060002090810192821561333e579160200282015b8281111561333e578251825591602001919060010190613323565b5061334a9291506133f3565b5090565b60405180610180016040528060006001600160401b03168152602001606081526020016060815260200160006001600160a01b03168152602001600081526020016000815260200160006001600160601b031681526020016060815260200160608152602001606081526020016133e66040518060800160405280606081526020016060815260200160608152602001606081525090565b8152602001606081525090565b5b8082111561334a57600081556001016133f4565b60006020828403121561341a57600080fd5b5035919050565b60005b8381101561343c578181015183820152602001613424565b50506000910152565b6000815180845261345d816020860160208601613421565b601f01601f19169290920160200192915050565b60008151608084526134866080850182613445565b90506020830151848203602086015261349f8282613445565b915050604083015184820360408601526134b98282613445565b915050606083015184820360608601526134d38282613445565b95945050505050565b6001600160401b038c1681526101606020820152600061350061016083018d613445565b8281036040840152613512818d613445565b6001600160a01b038c16606085015290508960808401528860a084015261354460c08401896001600160601b03169052565b82810360e08401526135568188613445565b905082810361010084015261356b8187613445565b90508281036101208401526135808186613445565b90508281036101408401526135958185613471565b9e9d5050505050505050505050505050565b6000602082840312156135b957600080fd5b81356001600160401b038111156135cf57600080fd5b8201602081850312156135e157600080fd5b9392505050565b80356001600160401b03811681146135ff57600080fd5b919050565b80356001600160801b03811681146135ff57600080fd5b60008060006060848603121561363057600080fd5b613639846135e8565b9250613647602085016135e8565b915061365560408501613604565b90509250925092565b634e487b7160e01b600052604160045260246000fd5b604051608081016001600160401b03811182821017156136965761369661365e565b60405290565b604051606081016001600160401b03811182821017156136965761369661365e565b60405161014081016001600160401b03811182821017156136965761369661365e565b604051601f8201601f191681016001600160401b03811182821017156137095761370961365e565b604052919050565b600082601f83011261372257600080fd5b81356001600160401b0381111561373b5761373b61365e565b61374e601f8201601f19166020016136e1565b81815284602083860101111561376357600080fd5b816020850160208301376000918101602001919091529392505050565b80356001600160601b03811681146135ff57600080fd5b6000608082840312156137a957600080fd5b6137b1613674565b905081356001600160401b038111156137c957600080fd5b6137d584828501613711565b82525060208201356001600160401b038111156137f157600080fd5b6137fd84828501613711565b60208301525060408201356001600160401b0381111561381c57600080fd5b61382884828501613711565b60408301525060608201356001600160401b0381111561384757600080fd5b61385384828501613711565b60608301525092915050565b803563ffffffff811681146135ff57600080fd5b600082601f83011261388457600080fd5b81356001600160401b0381111561389d5761389d61365e565b8060051b6138ad602082016136e1565b918252602081850181019290810190868411156138c957600080fd5b6020860192505b8383101561396b5782356001600160401b038111156138ee57600080fd5b86016060818903601f1901121561390457600080fd5b61390c61369c565b60208201356001600160401b0381111561392557600080fd5b6139348a602083860101613711565b8252506139436040830161385f565b60208201526139546060830161385f565b6040820152835250602092830192909101906138d0565b9695505050505050565b60006020828403121561398757600080fd5b81356001600160401b0381111561399d57600080fd5b820161014081850312156139b057600080fd5b6139b86136be565b81356001600160401b038111156139ce57600080fd5b6139da86828501613711565b82525060208201356001600160401b038111156139f657600080fd5b613a0286828501613711565b6020830152506040828101359082015260608083013590820152613a2860808301613780565b608082015260a08201356001600160401b03811115613a4657600080fd5b613a5286828501613711565b60a08301525060c08201356001600160401b03811115613a7157600080fd5b613a7d86828501613711565b60c08301525060e08201356001600160401b03811115613a9c57600080fd5b613aa886828501613711565b60e0830152506101008201356001600160401b03811115613ac857600080fd5b613ad486828501613797565b610100830152506101208201356001600160401b03811115613af557600080fd5b613b0186828501613873565b61012083015250949350505050565b80356001600160a01b03811681146135ff57600080fd5b60008060408385031215613b3a57600080fd5b613b4383613b10565b946020939093013593505050565b60008060408385031215613b6457600080fd5b613b43836135e8565b6001600160401b038616815260a060208201526000613b8f60a0830187613445565b63ffffffff9586166040840152938516606083015250921660809092019190915292915050565b600060208284031215613bc857600080fd5b81356001600160401b03811115613bde57600080fd5b820160e081850312156135e157600080fd5b600060208284031215613c0257600080fd5b6135e182613b10565b600082825180855260208501945060208160051b8301016020850160005b83811015613c9857601f1985840301885281516001600160401b038151168452602081015160a06020860152613c6260a0860182613445565b60408381015190870152606080840151908701526080928301519290950191909152506020978801979190910190600101613c29565b50909695505050505050565b80516001600160401b03168252600060208201516101806020850152613cce610180850182613445565b905060408301518482036040860152613ce78282613445565b9150506060830151613d0460608601826001600160a01b03169052565b506080830151608085015260a083015160a085015260c0830151613d3360c08601826001600160601b03169052565b5060e083015184820360e0860152613d4b8282613445565b915050610100830151848203610100860152613d678282613445565b915050610120830151848203610120860152613d838282613445565b915050610140830151848203610140860152613d9f8282613471565b9150506101608301518482036101608601526134d38282613c0b565b6000602082016020835280845180835260408501915060408160051b86010192506020860160005b82811015613e1457603f19878603018452613dff858351613ca4565b94506020938401939190910190600101613de3565b50929695505050505050565b6001600160401b038716815260c060208201526000613e4260c0830188613445565b8281036040840152613e548188613445565b905085606084015284608084015282810360a0840152613e748185613445565b9998505050505050505050565b80151581146122b257600080fd5b600060208284031215613ea157600080fd5b81356135e181613e81565b600080600080600080600060e0888a031215613ec757600080fd5b613ed0886135e8565b965060208801356001600160401b03811115613eeb57600080fd5b613ef78a828b01613711565b96505060408801356001600160401b03811115613f1357600080fd5b613f1f8a828b01613711565b955050606088013593506080880135925060a08801356001600160401b03811115613f4957600080fd5b613f558a828b01613711565b92505060c08801356001600160401b03811115613f7157600080fd5b613f7d8a828b01613711565b91505092959891949750929550565b600060208284031215613f9e57600080fd5b6135e1826135e8565b6020815260006135e16020830184613ca4565b600181811c90821680613fce57607f821691505b602082108103613fee57634e487b7160e01b600052602260045260246000fd5b50919050565b60208082526023908201527f4f6e6c7920706c6174666f726d206665652072656365697665722063616e2063604082015262185b1b60ea1b606082015260800190565b6000808335601e1984360301811261404e57600080fd5b8301803591506001600160401b0382111561406857600080fd5b602001915060608102360382131561407f57600080fd5b9250929050565b634e487b7160e01b600052603260045260246000fd5b600060608284031280156140af57600080fd5b506140b861369c565b6140c1836135e8565b81526140cf602084016135e8565b60208201526140e060408401613604565b60408201529392505050565b602080825260149082015273115d995b9d08191bd95cc81b9bdd08195e1a5cdd60621b604082015260600190565b634e487b7160e01b600052601160045260246000fd5b6001600160401b0382811682821603908111156122715761227161411a565b808201808211156122715761227161411a565b60006020828403121561417457600080fd5b5051919050565b6020808252602f908201527f456e642074696d65206d7573742062652061667465722073746172742074696d60408201526e6520696e207468652066757475726560881b606082015260800190565b601f821115610cb157806000526020600020601f840160051c810160208510156141f15750805b601f840160051c820191505b8181101561421157600081556001016141fd565b5050505050565b81516001600160401b038111156142315761423161365e565b6142458161423f8454613fba565b846141ca565b6020601f82116001811461427957600083156142615750848201515b600019600385901b1c1916600184901b178455614211565b600084815260208120601f198516915b828110156142a95787850151825560209485019460019092019101614289565b50848210156142c75786840151600019600387901b60f8161c191681555b50505050600190811b01905550565b6001600160401b0381811683821601908111156122715761227161411a565b60006001600160401b0382166001600160401b0381036143175761431761411a565b60010192915050565b6000808335601e1984360301811261433757600080fd5b8301803591506001600160401b0382111561435157600080fd5b60200191503681900382131561407f57600080fd5b60006020828403121561437857600080fd5b6135e18261385f565b60006020828403121561439357600080fd5b6135e182613780565b6000808335601e198436030181126143b357600080fd5b8301803591506001600160401b038211156143cd57600080fd5b6020019150600581901b360382131561407f57600080fd5b634e487b7160e01b600052601260045260246000fd5b60008261440a5761440a6143e5565b500690565b6001600160801b0381811683821601908111156122715761227161411a565b60018060a01b038616815284602082015260a06040820152600061445560a0830186613445565b6001600160a01b03949094166060830152506001600160601b03919091166080909101529392505050565b600081518084526020840193506020830160005b828110156144b2578151865260209586019590910190600101614494565b5093949350505050565b600081518084526020840193506020830160005b828110156144b25781516001600160a01b03168652602095860195909101906001016144d0565b60208152815160208201526000602083015161451e60408401826001600160401b03169052565b506040830151610100606084015261453a610120840182613445565b90506060840151601f198483030160808501526145578282613445565b9150506080840151601f198483030160a08501526145758282613445565b91505060a084015160c084015260c0840151601f198483030160e085015261459d8282614480565b91505060e0840151601f19848303016101008501526134d382826144bc565b600084516145ce818460208901613421565b602f60f81b90830190815284516145ec816001840160208901613421565b602f60f81b60019290910191820152835161460e816002840160208801613421565b0160020195945050505050565b600063ffffffff821663ffffffff81036143175761431761411a565b60208152815160208201526001600160401b0360208301511660408201526001600160401b0360408301511660608201526001600160801b036060830151166080820152608082015160a0820152600060a08301516146a160c08401826001600160a01b03169052565b5060c083015160e0808401526146bb610100840182613445565b949350505050565b80820281158282048414176122715761227161411a565b6000826146e9576146e96143e5565b500490565b818103818111156122715761227161411a565b60006020828403121561471357600080fd5b81516135e181613e81565b60008351614730818460208801613421565b602f60f81b908301908152835161474e816001840160208801613421565b64173539b7b760d91b6001929091019182015260060194935050505056fea2646970667358221220ca45d12b210f90c992f61da2199fee88ad48990ad090f00f134a67f18d513b5664736f6c634300081b0033",
  "linkReferences": {},
  "deployedLinkReferences": {}
}